{
	"src/BountyContract.sol": {
		"BountyContract": {
			"abi": [
				{
					"inputs": [
						{
							"internalType": "address",
							"name": "initialOwner",
							"type": "address"
						},
						{
							"internalType": "address",
							"name": "_usdcTokenAddress",
							"type": "address"
						}
					],
					"stateMutability": "nonpayable",
					"type": "constructor"
				},
				{
					"inputs": [
						{
							"internalType": "address",
							"name": "owner",
							"type": "address"
						}
					],
					"name": "OwnableInvalidOwner",
					"type": "error"
				},
				{
					"inputs": [
						{
							"internalType": "address",
							"name": "account",
							"type": "address"
						}
					],
					"name": "OwnableUnauthorizedAccount",
					"type": "error"
				},
				{
					"inputs": [],
					"name": "ReentrancyGuardReentrantCall",
					"type": "error"
				},
				{
					"inputs": [
						{
							"internalType": "address",
							"name": "token",
							"type": "address"
						}
					],
					"name": "SafeERC20FailedOperation",
					"type": "error"
				},
				{
					"anonymous": false,
					"inputs": [
						{
							"indexed": false,
							"internalType": "bytes32",
							"name": "bountyId",
							"type": "bytes32"
						},
						{
							"indexed": false,
							"internalType": "address",
							"name": "creator",
							"type": "address"
						},
						{
							"indexed": false,
							"internalType": "uint256",
							"name": "reward",
							"type": "uint256"
						},
						{
							"indexed": false,
							"internalType": "uint256",
							"name": "fee",
							"type": "uint256"
						},
						{
							"indexed": false,
							"internalType": "enum BountyContract.TokenType",
							"name": "tokenType",
							"type": "uint8"
						},
						{
							"indexed": false,
							"internalType": "enum BountyContract.PayoutType",
							"name": "payoutType",
							"type": "uint8"
						}
					],
					"name": "BountyCreated",
					"type": "event"
				},
				{
					"anonymous": false,
					"inputs": [
						{
							"indexed": false,
							"internalType": "address",
							"name": "recipient",
							"type": "address"
						},
						{
							"indexed": false,
							"internalType": "uint256",
							"name": "amount",
							"type": "uint256"
						},
						{
							"indexed": false,
							"internalType": "string",
							"name": "tokenType",
							"type": "string"
						}
					],
					"name": "FeeWithdrawn",
					"type": "event"
				},
				{
					"anonymous": false,
					"inputs": [
						{
							"indexed": true,
							"internalType": "address",
							"name": "previousOwner",
							"type": "address"
						},
						{
							"indexed": true,
							"internalType": "address",
							"name": "newOwner",
							"type": "address"
						}
					],
					"name": "OwnershipTransferred",
					"type": "event"
				},
				{
					"anonymous": false,
					"inputs": [
						{
							"indexed": false,
							"internalType": "bytes32",
							"name": "bountyId",
							"type": "bytes32"
						},
						{
							"indexed": false,
							"internalType": "address",
							"name": "winner",
							"type": "address"
						},
						{
							"indexed": false,
							"internalType": "uint256",
							"name": "amount",
							"type": "uint256"
						}
					],
					"name": "RewardClaimed",
					"type": "event"
				},
				{
					"anonymous": false,
					"inputs": [
						{
							"indexed": false,
							"internalType": "bytes32",
							"name": "bountyId",
							"type": "bytes32"
						}
					],
					"name": "RewardsAssigned",
					"type": "event"
				},
				{
					"inputs": [],
					"name": "FEE_PERCENT",
					"outputs": [
						{
							"internalType": "uint256",
							"name": "",
							"type": "uint256"
						}
					],
					"stateMutability": "view",
					"type": "function"
				},
				{
					"inputs": [],
					"name": "MAX_WINNERS",
					"outputs": [
						{
							"internalType": "uint256",
							"name": "",
							"type": "uint256"
						}
					],
					"stateMutability": "view",
					"type": "function"
				},
				{
					"inputs": [
						{
							"internalType": "uint256",
							"name": "",
							"type": "uint256"
						}
					],
					"name": "allBountyIds",
					"outputs": [
						{
							"internalType": "bytes32",
							"name": "",
							"type": "bytes32"
						}
					],
					"stateMutability": "view",
					"type": "function"
				},
				{
					"inputs": [
						{
							"internalType": "bytes32",
							"name": "bountyId",
							"type": "bytes32"
						},
						{
							"internalType": "address[]",
							"name": "winners",
							"type": "address[]"
						},
						{
							"internalType": "uint256[]",
							"name": "percentages",
							"type": "uint256[]"
						}
					],
					"name": "assignMultipleWinners",
					"outputs": [],
					"stateMutability": "nonpayable",
					"type": "function"
				},
				{
					"inputs": [
						{
							"internalType": "bytes32",
							"name": "bountyId",
							"type": "bytes32"
						},
						{
							"internalType": "address",
							"name": "winner",
							"type": "address"
						}
					],
					"name": "assignSingleWinner",
					"outputs": [],
					"stateMutability": "nonpayable",
					"type": "function"
				},
				{
					"inputs": [],
					"name": "availableBounties",
					"outputs": [
						{
							"internalType": "bytes32[]",
							"name": "",
							"type": "bytes32[]"
						}
					],
					"stateMutability": "view",
					"type": "function"
				},
				{
					"inputs": [
						{
							"internalType": "bytes32",
							"name": "bountyId",
							"type": "bytes32"
						}
					],
					"name": "claimReward",
					"outputs": [],
					"stateMutability": "nonpayable",
					"type": "function"
				},
				{
					"inputs": [
						{
							"internalType": "bytes32",
							"name": "",
							"type": "bytes32"
						},
						{
							"internalType": "address",
							"name": "",
							"type": "address"
						}
					],
					"name": "claimableRewards",
					"outputs": [
						{
							"internalType": "uint256",
							"name": "",
							"type": "uint256"
						}
					],
					"stateMutability": "view",
					"type": "function"
				},
				{
					"inputs": [
						{
							"internalType": "bytes32",
							"name": "",
							"type": "bytes32"
						},
						{
							"internalType": "address",
							"name": "",
							"type": "address"
						}
					],
					"name": "claimed",
					"outputs": [
						{
							"internalType": "bool",
							"name": "",
							"type": "bool"
						}
					],
					"stateMutability": "view",
					"type": "function"
				},
				{
					"inputs": [
						{
							"internalType": "enum BountyContract.TokenType",
							"name": "_tokenType",
							"type": "uint8"
						},
						{
							"internalType": "uint256",
							"name": "_reward",
							"type": "uint256"
						},
						{
							"internalType": "enum BountyContract.PayoutType",
							"name": "_payoutType",
							"type": "uint8"
						}
					],
					"name": "createBounty",
					"outputs": [
						{
							"internalType": "bytes32",
							"name": "",
							"type": "bytes32"
						}
					],
					"stateMutability": "payable",
					"type": "function"
				},
				{
					"inputs": [
						{
							"internalType": "bytes32",
							"name": "bountyId",
							"type": "bytes32"
						}
					],
					"name": "getBountyInfo",
					"outputs": [
						{
							"internalType": "address",
							"name": "creator",
							"type": "address"
						},
						{
							"internalType": "address[]",
							"name": "winners",
							"type": "address[]"
						},
						{
							"internalType": "uint256",
							"name": "reward",
							"type": "uint256"
						},
						{
							"internalType": "uint256",
							"name": "fee",
							"type": "uint256"
						},
						{
							"internalType": "bool",
							"name": "rewardsAssigned",
							"type": "bool"
						},
						{
							"internalType": "bool",
							"name": "isClaimed",
							"type": "bool"
						},
						{
							"internalType": "enum BountyContract.TokenType",
							"name": "tokenType",
							"type": "uint8"
						},
						{
							"internalType": "enum BountyContract.PayoutType",
							"name": "payoutType",
							"type": "uint8"
						}
					],
					"stateMutability": "view",
					"type": "function"
				},
				{
					"inputs": [],
					"name": "owner",
					"outputs": [
						{
							"internalType": "address",
							"name": "",
							"type": "address"
						}
					],
					"stateMutability": "view",
					"type": "function"
				},
				{
					"inputs": [],
					"name": "renounceOwnership",
					"outputs": [],
					"stateMutability": "nonpayable",
					"type": "function"
				},
				{
					"inputs": [],
					"name": "totalEthFees",
					"outputs": [
						{
							"internalType": "uint256",
							"name": "",
							"type": "uint256"
						}
					],
					"stateMutability": "view",
					"type": "function"
				},
				{
					"inputs": [],
					"name": "totalUsdcFees",
					"outputs": [
						{
							"internalType": "uint256",
							"name": "",
							"type": "uint256"
						}
					],
					"stateMutability": "view",
					"type": "function"
				},
				{
					"inputs": [
						{
							"internalType": "address",
							"name": "newOwner",
							"type": "address"
						}
					],
					"name": "transferOwnership",
					"outputs": [],
					"stateMutability": "nonpayable",
					"type": "function"
				},
				{
					"inputs": [],
					"name": "usdcToken",
					"outputs": [
						{
							"internalType": "contract IERC20",
							"name": "",
							"type": "address"
						}
					],
					"stateMutability": "view",
					"type": "function"
				},
				{
					"inputs": [
						{
							"internalType": "enum BountyContract.TokenType",
							"name": "tokenType",
							"type": "uint8"
						},
						{
							"internalType": "address",
							"name": "recipient",
							"type": "address"
						}
					],
					"name": "withdraw",
					"outputs": [],
					"stateMutability": "nonpayable",
					"type": "function"
				}
			],
			"devdoc": {
				"errors": {
					"OwnableInvalidOwner(address)": [
						{
							"details": "The owner is not a valid owner account. (eg. `address(0)`)"
						}
					],
					"OwnableUnauthorizedAccount(address)": [
						{
							"details": "The caller account is not authorized to perform an operation."
						}
					],
					"ReentrancyGuardReentrantCall()": [
						{
							"details": "Unauthorized reentrant call."
						}
					],
					"SafeERC20FailedOperation(address)": [
						{
							"details": "An operation with an ERC-20 token failed."
						}
					]
				},
				"kind": "dev",
				"methods": {
					"owner()": {
						"details": "Returns the address of the current owner."
					},
					"renounceOwnership()": {
						"details": "Leaves the contract without owner. It will not be possible to call `onlyOwner` functions. Can only be called by the current owner. NOTE: Renouncing ownership will leave the contract without an owner, thereby disabling any functionality that is only available to the owner."
					},
					"transferOwnership(address)": {
						"details": "Transfers ownership of the contract to a new account (`newOwner`). Can only be called by the current owner."
					}
				},
				"version": 1
			},
			"evm": {
				"assembly": "    /* \"src/BountyContract.sol\":448:14308  contract BountyContract is Ownable, ReentrancyGuard {... */\n  mstore(0x40, 0x80)\n    /* \"src/BountyContract.sol\":3575:3808  constructor(... */\n  callvalue\n  dup1\n  iszero\n  tag_1\n  jumpi\n  revert(0x00, 0x00)\ntag_1:\n  pop\n  mload(0x40)\n  sub(codesize, bytecodeSize)\n  dup1\n  bytecodeSize\n  dup4\n  codecopy\n  dup2\n  add\n  0x40\n  dup2\n  swap1\n  mstore\n  tag_2\n  swap2\n  tag_3\n  jump\t// in\ntag_2:\n    /* \"src/BountyContract.sol\":3666:3678  initialOwner */\n  dup2\n  sub(shl(0xa0, 0x01), 0x01)\n    /* \"lib/openzeppelin-contracts/contracts/access/Ownable.sol\":1273:1299  initialOwner == address(0) */\n  dup2\n  and\n    /* \"lib/openzeppelin-contracts/contracts/access/Ownable.sol\":1269:1364  if (initialOwner == address(0)) {... */\n  tag_8\n  jumpi\n    /* \"lib/openzeppelin-contracts/contracts/access/Ownable.sol\":1322:1353  OwnableInvalidOwner(address(0)) */\n  mload(0x40)\n  shl(0xe0, 0x1e4fbdf7)\n  dup2\n  mstore\n    /* \"lib/openzeppelin-contracts/contracts/access/Ownable.sol\":1350:1351  0 */\n  0x00\n    /* \"lib/openzeppelin-contracts/contracts/access/Ownable.sol\":1322:1353  OwnableInvalidOwner(address(0)) */\n  0x04\n  dup3\n  add\n    /* \"#utility.yul\":640:691   */\n  mstore\n    /* \"#utility.yul\":613:631   */\n  0x24\n  add\n    /* \"lib/openzeppelin-contracts/contracts/access/Ownable.sol\":1322:1353  OwnableInvalidOwner(address(0)) */\ntag_9:\n  mload(0x40)\n  dup1\n  swap2\n  sub\n  swap1\n  revert\n    /* \"lib/openzeppelin-contracts/contracts/access/Ownable.sol\":1269:1364  if (initialOwner == address(0)) {... */\ntag_8:\n    /* \"lib/openzeppelin-contracts/contracts/access/Ownable.sol\":1373:1405  _transferOwnership(initialOwner) */\n  tag_11\n    /* \"lib/openzeppelin-contracts/contracts/access/Ownable.sol\":1392:1404  initialOwner */\n  dup2\n    /* \"lib/openzeppelin-contracts/contracts/access/Ownable.sol\":1373:1391  _transferOwnership */\n  tag_12\n    /* \"lib/openzeppelin-contracts/contracts/access/Ownable.sol\":1373:1405  _transferOwnership(initialOwner) */\n  jump\t// in\ntag_11:\n  pop\n    /* \"lib/openzeppelin-contracts/contracts/utils/ReentrancyGuard.sol\":2365:2366  1 */\n  0x01\n    /* \"lib/openzeppelin-contracts/contracts/utils/ReentrancyGuard.sol\":1505:1571  0x9b779b17422d0df92223018b32b4d1fa46e071723d6817e2486d003becc55f00 */\n  0x9b779b17422d0df92223018b32b4d1fa46e071723d6817e2486d003becc55f00\n    /* \"lib/openzeppelin-contracts/contracts/utils/ReentrancyGuard.sol\":2539:2605  _reentrancyGuardStorageSlot().getUint256Slot().value = NOT_ENTERED */\n  sstore\n  sub(shl(0xa0, 0x01), 0x01)\n    /* \"src/BountyContract.sol\":3698:3729  _usdcTokenAddress != address(0) */\n  dup2\n  and\n    /* \"src/BountyContract.sol\":3690:3754  require(_usdcTokenAddress != address(0), \"Invalid USDC address\") */\n  tag_19\n  jumpi\n  mload(0x40)\n  shl(0xe5, 0x461bcd)\n  dup2\n  mstore\n    /* \"#utility.yul\":904:906   */\n  0x20\n    /* \"src/BountyContract.sol\":3690:3754  require(_usdcTokenAddress != address(0), \"Invalid USDC address\") */\n  0x04\n  dup3\n  add\n    /* \"#utility.yul\":886:907   */\n  mstore\n    /* \"#utility.yul\":943:945   */\n  0x14\n    /* \"#utility.yul\":923:941   */\n  0x24\n  dup3\n  add\n    /* \"#utility.yul\":916:946   */\n  mstore\n    /* \"#utility.yul\":982:1004   */\n  0x496e76616c696420555344432061646472657373000000000000000000000000\n    /* \"#utility.yul\":962:980   */\n  0x44\n  dup3\n  add\n    /* \"#utility.yul\":955:1005   */\n  mstore\n    /* \"#utility.yul\":1022:1040   */\n  0x64\n  add\n    /* \"src/BountyContract.sol\":3690:3754  require(_usdcTokenAddress != address(0), \"Invalid USDC address\") */\n  tag_9\n    /* \"#utility.yul\":702:1046   */\n  jump\n    /* \"src/BountyContract.sol\":3690:3754  require(_usdcTokenAddress != address(0), \"Invalid USDC address\") */\ntag_19:\n    /* \"src/BountyContract.sol\":3764:3773  usdcToken */\n  0x01\n    /* \"src/BountyContract.sol\":3764:3801  usdcToken = IERC20(_usdcTokenAddress) */\n  dup1\n  sload\n  not(sub(shl(0xa0, 0x01), 0x01))\n  and\n  sub(shl(0xa0, 0x01), 0x01)\n  swap3\n  swap1\n  swap3\n  and\n  swap2\n  swap1\n  swap2\n  or\n  swap1\n  sstore\n  pop\n    /* \"src/BountyContract.sol\":448:14308  contract BountyContract is Ownable, ReentrancyGuard {... */\n  jump(tag_27)\n    /* \"lib/openzeppelin-contracts/contracts/access/Ownable.sol\":2912:3099  function _transferOwnership(address newOwner) internal virtual {... */\ntag_12:\n    /* \"lib/openzeppelin-contracts/contracts/access/Ownable.sol\":2985:3001  address oldOwner */\n  0x00\n    /* \"lib/openzeppelin-contracts/contracts/access/Ownable.sol\":3004:3010  _owner */\n  dup1\n  sload\n  sub(shl(0xa0, 0x01), 0x01)\n    /* \"lib/openzeppelin-contracts/contracts/access/Ownable.sol\":3020:3037  _owner = newOwner */\n  dup4\n  dup2\n  and\n  not(sub(shl(0xa0, 0x01), 0x01))\n  dup4\n  and\n  dup2\n  or\n  dup5\n  sstore\n    /* \"lib/openzeppelin-contracts/contracts/access/Ownable.sol\":3052:3092  OwnershipTransferred(oldOwner, newOwner) */\n  mload(0x40)\n    /* \"lib/openzeppelin-contracts/contracts/access/Ownable.sol\":3004:3010  _owner */\n  swap2\n  swap1\n  swap3\n  and\n  swap3\n  dup4\n  swap2\n    /* \"lib/openzeppelin-contracts/contracts/access/Ownable.sol\":3052:3092  OwnershipTransferred(oldOwner, newOwner) */\n  0x8be0079c531659141344cd1fd0a4f28419497f9722a3daafe3b4186f6b6457e0\n  swap2\n    /* \"lib/openzeppelin-contracts/contracts/access/Ownable.sol\":2985:3001  address oldOwner */\n  swap1\n    /* \"lib/openzeppelin-contracts/contracts/access/Ownable.sol\":3052:3092  OwnershipTransferred(oldOwner, newOwner) */\n  log3\n    /* \"lib/openzeppelin-contracts/contracts/access/Ownable.sol\":2975:3099  {... */\n  pop\n    /* \"lib/openzeppelin-contracts/contracts/access/Ownable.sol\":2912:3099  function _transferOwnership(address newOwner) internal virtual {... */\n  pop\n  jump\t// out\n    /* \"#utility.yul\":14:191   */\ntag_26:\n    /* \"#utility.yul\":93:106   */\n  dup1\n  mload\n  sub(shl(0xa0, 0x01), 0x01)\n    /* \"#utility.yul\":135:166   */\n  dup2\n  and\n    /* \"#utility.yul\":125:167   */\n  dup2\n  eq\n    /* \"#utility.yul\":115:185   */\n  tag_29\n  jumpi\n    /* \"#utility.yul\":181:182   */\n  0x00\n    /* \"#utility.yul\":178:179   */\n  0x00\n    /* \"#utility.yul\":171:183   */\n  revert\n    /* \"#utility.yul\":115:185   */\ntag_29:\n    /* \"#utility.yul\":14:191   */\n  swap2\n  swap1\n  pop\n  jump\t// out\n    /* \"#utility.yul\":196:489   */\ntag_3:\n    /* \"#utility.yul\":275:281   */\n  0x00\n    /* \"#utility.yul\":283:289   */\n  0x00\n    /* \"#utility.yul\":336:338   */\n  0x40\n    /* \"#utility.yul\":324:333   */\n  dup4\n    /* \"#utility.yul\":315:322   */\n  dup6\n    /* \"#utility.yul\":311:334   */\n  sub\n    /* \"#utility.yul\":307:339   */\n  slt\n    /* \"#utility.yul\":304:356   */\n  iszero\n  tag_31\n  jumpi\n    /* \"#utility.yul\":352:353   */\n  0x00\n    /* \"#utility.yul\":349:350   */\n  0x00\n    /* \"#utility.yul\":342:354   */\n  revert\n    /* \"#utility.yul\":304:356   */\ntag_31:\n    /* \"#utility.yul\":375:415   */\n  tag_32\n    /* \"#utility.yul\":405:414   */\n  dup4\n    /* \"#utility.yul\":375:415   */\n  tag_26\n  jump\t// in\ntag_32:\n    /* \"#utility.yul\":365:415   */\n  swap2\n  pop\n    /* \"#utility.yul\":434:483   */\n  tag_33\n    /* \"#utility.yul\":479:481   */\n  0x20\n    /* \"#utility.yul\":468:477   */\n  dup5\n    /* \"#utility.yul\":464:482   */\n  add\n    /* \"#utility.yul\":434:483   */\n  tag_26\n  jump\t// in\ntag_33:\n    /* \"#utility.yul\":424:483   */\n  swap1\n  pop\n    /* \"#utility.yul\":196:489   */\n  swap3\n  pop\n  swap3\n  swap1\n  pop\n  jump\t// out\n    /* \"#utility.yul\":702:1046   */\ntag_27:\n    /* \"src/BountyContract.sol\":448:14308  contract BountyContract is Ownable, ReentrancyGuard {... */\n  dataSize(sub_0)\n  dup1\n  dataOffset(sub_0)\n  0x00\n  codecopy\n  0x00\n  return\nstop\n\nsub_0: assembly {\n        /* \"src/BountyContract.sol\":448:14308  contract BountyContract is Ownable, ReentrancyGuard {... */\n      mstore(0x40, 0x80)\n      jumpi(tag_1, lt(calldatasize, 0x04))\n      shr(0xe0, calldataload(0x00))\n      dup1\n      0xa38e3aed\n      gt\n      tag_20\n      jumpi\n      dup1\n      0xe1e538cc\n      gt\n      tag_21\n      jumpi\n      dup1\n      0xe1e538cc\n      eq\n      tag_15\n      jumpi\n      dup1\n      0xeaf98d23\n      eq\n      tag_5\n      jumpi\n      dup1\n      0xebce3cf3\n      eq\n      tag_17\n      jumpi\n      dup1\n      0xf2fde38b\n      eq\n      tag_18\n      jumpi\n      dup1\n      0xf5414023\n      eq\n      tag_19\n      jumpi\n      revert(0x00, 0x00)\n    tag_21:\n      dup1\n      0xa38e3aed\n      eq\n      tag_11\n      jumpi\n      dup1\n      0xdd6ad764\n      eq\n      tag_12\n      jumpi\n      dup1\n      0xdfcae622\n      eq\n      tag_13\n      jumpi\n      dup1\n      0xe0baf5ac\n      eq\n      tag_14\n      jumpi\n      revert(0x00, 0x00)\n    tag_20:\n      dup1\n      0x30718703\n      gt\n      tag_22\n      jumpi\n      dup1\n      0x30718703\n      eq\n      tag_6\n      jumpi\n      dup1\n      0x43d34a17\n      eq\n      tag_7\n      jumpi\n      dup1\n      0x715018a6\n      eq\n      tag_8\n      jumpi\n      dup1\n      0x8da5cb5b\n      eq\n      tag_9\n      jumpi\n      dup1\n      0x952c1c85\n      eq\n      tag_10\n      jumpi\n      revert(0x00, 0x00)\n    tag_22:\n      dup1\n      0x0c9e2cc5\n      eq\n      tag_2\n      jumpi\n      dup1\n      0x11eac855\n      eq\n      tag_3\n      jumpi\n      dup1\n      0x176a827b\n      eq\n      tag_4\n      jumpi\n      dup1\n      0x29a62a76\n      eq\n      tag_5\n      jumpi\n    tag_1:\n      revert(0x00, 0x00)\n        /* \"src/BountyContract.sol\":4009:6442  function createBounty(... */\n    tag_2:\n      tag_23\n      tag_24\n      calldatasize\n      0x04\n      tag_25\n      jump\t// in\n    tag_24:\n      tag_26\n      jump\t// in\n    tag_23:\n      mload(0x40)\n        /* \"#utility.yul\":806:831   */\n      swap1\n      dup2\n      mstore\n        /* \"#utility.yul\":794:796   */\n      0x20\n        /* \"#utility.yul\":779:797   */\n      add\n        /* \"src/BountyContract.sol\":4009:6442  function createBounty(... */\n    tag_27:\n      mload(0x40)\n      dup1\n      swap2\n      sub\n      swap1\n      return\n        /* \"src/BountyContract.sol\":1059:1082  IERC20 public usdcToken */\n    tag_3:\n      callvalue\n      dup1\n      iszero\n      tag_29\n      jumpi\n      revert(0x00, 0x00)\n    tag_29:\n      pop\n      sload(0x01)\n      tag_30\n      swap1\n      sub(shl(0xa0, 0x01), 0x01)\n      and\n      dup2\n      jump\n    tag_30:\n      mload(0x40)\n      sub(shl(0xa0, 0x01), 0x01)\n        /* \"#utility.yul\":1020:1052   */\n      swap1\n      swap2\n      and\n        /* \"#utility.yul\":1002:1053   */\n      dup2\n      mstore\n        /* \"#utility.yul\":990:992   */\n      0x20\n        /* \"#utility.yul\":975:993   */\n      add\n        /* \"src/BountyContract.sol\":1059:1082  IERC20 public usdcToken */\n      tag_27\n        /* \"#utility.yul\":842:1059   */\n      jump\n        /* \"src/BountyContract.sol\":7495:10318  function assignMultipleWinners(... */\n    tag_4:\n      callvalue\n      dup1\n      iszero\n      tag_34\n      jumpi\n      revert(0x00, 0x00)\n    tag_34:\n      pop\n      tag_35\n      tag_36\n      calldatasize\n      0x04\n      tag_37\n      jump\t// in\n    tag_36:\n      tag_38\n      jump\t// in\n    tag_35:\n      stop\n        /* \"src/BountyContract.sol\":816:855  uint256 public constant MAX_WINNERS = 5 */\n    tag_5:\n      callvalue\n      dup1\n      iszero\n      tag_39\n      jumpi\n      revert(0x00, 0x00)\n    tag_39:\n      pop\n      tag_23\n        /* \"src/BountyContract.sol\":854:855  5 */\n      0x05\n        /* \"src/BountyContract.sol\":816:855  uint256 public constant MAX_WINNERS = 5 */\n      dup2\n      jump\n        /* \"src/BountyContract.sol\":2420:2449  bytes32[] public allBountyIds */\n    tag_6:\n      callvalue\n      dup1\n      iszero\n      tag_44\n      jumpi\n      revert(0x00, 0x00)\n    tag_44:\n      pop\n      tag_23\n      tag_46\n      calldatasize\n      0x04\n      tag_47\n      jump\t// in\n    tag_46:\n      tag_48\n      jump\t// in\n        /* \"src/BountyContract.sol\":1331:1358  uint256 public totalEthFees */\n    tag_7:\n      callvalue\n      dup1\n      iszero\n      tag_50\n      jumpi\n      revert(0x00, 0x00)\n    tag_50:\n      pop\n      tag_23\n      sload(0x03)\n      dup2\n      jump\n        /* \"lib/openzeppelin-contracts/contracts/access/Ownable.sol\":2293:2394  function renounceOwnership() public virtual onlyOwner {... */\n    tag_8:\n      callvalue\n      dup1\n      iszero\n      tag_54\n      jumpi\n      revert(0x00, 0x00)\n    tag_54:\n      pop\n      tag_35\n      tag_56\n      jump\t// in\n        /* \"lib/openzeppelin-contracts/contracts/access/Ownable.sol\":1638:1723  function owner() public view virtual returns (address) {... */\n    tag_9:\n      callvalue\n      dup1\n      iszero\n      tag_57\n      jumpi\n      revert(0x00, 0x00)\n    tag_57:\n      pop\n        /* \"lib/openzeppelin-contracts/contracts/access/Ownable.sol\":1684:1691  address */\n      0x00\n        /* \"lib/openzeppelin-contracts/contracts/access/Ownable.sol\":1710:1716  _owner */\n      sload\n      sub(shl(0xa0, 0x01), 0x01)\n      and\n        /* \"lib/openzeppelin-contracts/contracts/access/Ownable.sol\":1638:1723  function owner() public view virtual returns (address) {... */\n      jump(tag_30)\n        /* \"src/BountyContract.sol\":1373:1401  uint256 public totalUsdcFees */\n    tag_10:\n      callvalue\n      dup1\n      iszero\n      tag_62\n      jumpi\n      revert(0x00, 0x00)\n    tag_62:\n      pop\n      tag_23\n      sload(0x04)\n      dup2\n      jump\n        /* \"src/BountyContract.sol\":6650:7284  function assignSingleWinner(bytes32 bountyId, address winner) external {... */\n    tag_11:\n      callvalue\n      dup1\n      iszero\n      tag_66\n      jumpi\n      revert(0x00, 0x00)\n    tag_66:\n      pop\n      tag_35\n      tag_68\n      calldatasize\n      0x04\n      tag_69\n      jump\t// in\n    tag_68:\n      tag_70\n      jump\t// in\n        /* \"src/BountyContract.sol\":13045:13913  function withdraw(... */\n    tag_12:\n      callvalue\n      dup1\n      iszero\n      tag_71\n      jumpi\n      revert(0x00, 0x00)\n    tag_71:\n      pop\n      tag_35\n      tag_73\n      calldatasize\n      0x04\n      tag_74\n      jump\t// in\n    tag_73:\n      tag_75\n      jump\t// in\n        /* \"src/BountyContract.sol\":2741:2800  mapping(bytes32 => mapping(address => bool)) public claimed */\n    tag_13:\n      callvalue\n      dup1\n      iszero\n      tag_76\n      jumpi\n      revert(0x00, 0x00)\n    tag_76:\n      pop\n      tag_77\n      tag_78\n      calldatasize\n      0x04\n      tag_69\n      jump\t// in\n    tag_78:\n      0x08\n      0x20\n      swap1\n      dup2\n      mstore\n      0x00\n      swap3\n      dup4\n      mstore\n      0x40\n      dup1\n      dup5\n      keccak256\n      swap1\n      swap2\n      mstore\n      swap1\n      dup3\n      mstore\n      swap1\n      keccak256\n      sload\n      0xff\n      and\n      dup2\n      jump\n    tag_77:\n      mload(0x40)\n        /* \"#utility.yul\":3974:3988   */\n      swap1\n      iszero\n        /* \"#utility.yul\":3967:3989   */\n      iszero\n        /* \"#utility.yul\":3949:3990   */\n      dup2\n      mstore\n        /* \"#utility.yul\":3937:3939   */\n      0x20\n        /* \"#utility.yul\":3922:3940   */\n      add\n        /* \"src/BountyContract.sol\":2741:2800  mapping(bytes32 => mapping(address => bool)) public claimed */\n      tag_27\n        /* \"#utility.yul\":3809:3996   */\n      jump\n        /* \"src/BountyContract.sol\":13919:14025  function availableBounties() external view returns (bytes32[] memory) {... */\n    tag_14:\n      callvalue\n      dup1\n      iszero\n      tag_82\n      jumpi\n      revert(0x00, 0x00)\n    tag_82:\n      pop\n      tag_83\n      tag_84\n      jump\t// in\n    tag_83:\n      mload(0x40)\n      tag_27\n      swap2\n      swap1\n      tag_86\n      jump\t// in\n        /* \"src/BountyContract.sol\":12156:12843  function getBountyInfo(... */\n    tag_15:\n      callvalue\n      dup1\n      iszero\n      tag_87\n      jumpi\n      revert(0x00, 0x00)\n    tag_87:\n      pop\n      tag_88\n      tag_89\n      calldatasize\n      0x04\n      tag_47\n      jump\t// in\n    tag_89:\n      tag_91\n      jump\t// in\n    tag_88:\n      mload(0x40)\n      tag_27\n      swap9\n      swap8\n      swap7\n      swap6\n      swap5\n      swap4\n      swap3\n      swap2\n      swap1\n      tag_93\n      jump\t// in\n        /* \"src/BountyContract.sol\":2663:2734  mapping(bytes32 => mapping(address => uint256)) public claimableRewards */\n    tag_17:\n      callvalue\n      dup1\n      iszero\n      tag_98\n      jumpi\n      revert(0x00, 0x00)\n    tag_98:\n      pop\n      tag_23\n      tag_100\n      calldatasize\n      0x04\n      tag_69\n      jump\t// in\n    tag_100:\n      0x07\n      0x20\n      swap1\n      dup2\n      mstore\n      0x00\n      swap3\n      dup4\n      mstore\n      0x40\n      dup1\n      dup5\n      keccak256\n      swap1\n      swap2\n      mstore\n      swap1\n      dup3\n      mstore\n      swap1\n      keccak256\n      sload\n      dup2\n      jump\n        /* \"lib/openzeppelin-contracts/contracts/access/Ownable.sol\":2543:2758  function transferOwnership(address newOwner) public virtual onlyOwner {... */\n    tag_18:\n      callvalue\n      dup1\n      iszero\n      tag_103\n      jumpi\n      revert(0x00, 0x00)\n    tag_103:\n      pop\n      tag_35\n      tag_105\n      calldatasize\n      0x04\n      tag_106\n      jump\t// in\n    tag_105:\n      tag_107\n      jump\t// in\n        /* \"src/BountyContract.sol\":10518:11952  function claimReward(bytes32 bountyId) external nonReentrant {... */\n    tag_19:\n      callvalue\n      dup1\n      iszero\n      tag_108\n      jumpi\n      revert(0x00, 0x00)\n    tag_108:\n      pop\n      tag_35\n      tag_110\n      calldatasize\n      0x04\n      tag_47\n      jump\t// in\n    tag_110:\n      tag_111\n      jump\t// in\n        /* \"src/BountyContract.sol\":4009:6442  function createBounty(... */\n    tag_26:\n        /* \"src/BountyContract.sol\":4150:4157  bytes32 */\n      0x00\n        /* \"src/BountyContract.sol\":4187:4188  0 */\n      0x00\n        /* \"src/BountyContract.sol\":4177:4184  _reward */\n      dup4\n        /* \"src/BountyContract.sol\":4177:4188  _reward > 0 */\n      gt\n        /* \"src/BountyContract.sol\":4169:4211  require(_reward > 0, \"Reward must be > 0\") */\n      tag_113\n      jumpi\n      mload(0x40)\n      shl(0xe5, 0x461bcd)\n      dup2\n      mstore\n        /* \"#utility.yul\":6906:6908   */\n      0x20\n        /* \"src/BountyContract.sol\":4169:4211  require(_reward > 0, \"Reward must be > 0\") */\n      0x04\n      dup3\n      add\n        /* \"#utility.yul\":6888:6909   */\n      mstore\n        /* \"#utility.yul\":6945:6947   */\n      0x12\n        /* \"#utility.yul\":6925:6943   */\n      0x24\n      dup3\n      add\n        /* \"#utility.yul\":6918:6948   */\n      mstore\n      shl(0x74, 0x0526577617264206d757374206265203e203)\n        /* \"#utility.yul\":6964:6982   */\n      0x44\n      dup3\n      add\n        /* \"#utility.yul\":6957:7005   */\n      mstore\n        /* \"#utility.yul\":7022:7040   */\n      0x64\n      add\n        /* \"src/BountyContract.sol\":4169:4211  require(_reward > 0, \"Reward must be > 0\") */\n    tag_114:\n      mload(0x40)\n      dup1\n      swap2\n      sub\n      swap1\n      revert\n    tag_113:\n        /* \"src/BountyContract.sol\":4222:4233  uint256 fee */\n      0x00\n        /* \"src/BountyContract.sol\":4262:4265  100 */\n      0x64\n        /* \"src/BountyContract.sol\":4237:4258  _reward * FEE_PERCENT */\n      tag_116\n        /* \"src/BountyContract.sol\":809:810  5 */\n      0x05\n        /* \"src/BountyContract.sol\":4237:4244  _reward */\n      dup7\n        /* \"src/BountyContract.sol\":4237:4258  _reward * FEE_PERCENT */\n      tag_117\n      jump\t// in\n    tag_116:\n        /* \"src/BountyContract.sol\":4236:4265  (_reward * FEE_PERCENT) / 100 */\n      tag_118\n      swap2\n      swap1\n      tag_119\n      jump\t// in\n    tag_118:\n        /* \"src/BountyContract.sol\":4222:4265  uint256 fee = (_reward * FEE_PERCENT) / 100 */\n      swap1\n      pop\n        /* \"src/BountyContract.sol\":4275:4296  uint256 totalRequired */\n      0x00\n        /* \"src/BountyContract.sol\":4299:4312  _reward + fee */\n      tag_120\n        /* \"src/BountyContract.sol\":4222:4265  uint256 fee = (_reward * FEE_PERCENT) / 100 */\n      dup3\n        /* \"src/BountyContract.sol\":4299:4306  _reward */\n      dup7\n        /* \"src/BountyContract.sol\":4299:4312  _reward + fee */\n      tag_121\n      jump\t// in\n    tag_120:\n        /* \"src/BountyContract.sol\":4275:4312  uint256 totalRequired = _reward + fee */\n      swap1\n      pop\n        /* \"src/BountyContract.sol\":4509:4522  TokenType.ETH */\n      0x00\n        /* \"src/BountyContract.sol\":4495:4505  _tokenType */\n      dup7\n        /* \"src/BountyContract.sol\":4495:4522  _tokenType == TokenType.ETH */\n      0x01\n      dup2\n      gt\n      iszero\n      tag_126\n      jumpi\n      tag_126\n      tag_124\n      jump\t// in\n    tag_126:\n      sub\n        /* \"src/BountyContract.sol\":4491:5310  if (_tokenType == TokenType.ETH) {... */\n      tag_127\n      jumpi\n        /* \"src/BountyContract.sol\":4559:4572  totalRequired */\n      dup1\n        /* \"src/BountyContract.sol\":4546:4555  msg.value */\n      callvalue\n        /* \"src/BountyContract.sol\":4546:4572  msg.value >= totalRequired */\n      lt\n      iszero\n        /* \"src/BountyContract.sol\":4538:4597  require(msg.value >= totalRequired, \"Incorrect ETH amount\") */\n      tag_128\n      jumpi\n      mload(0x40)\n      shl(0xe5, 0x461bcd)\n      dup2\n      mstore\n        /* \"#utility.yul\":7910:7912   */\n      0x20\n        /* \"src/BountyContract.sol\":4538:4597  require(msg.value >= totalRequired, \"Incorrect ETH amount\") */\n      0x04\n      dup3\n      add\n        /* \"#utility.yul\":7892:7913   */\n      mstore\n        /* \"#utility.yul\":7949:7951   */\n      0x14\n        /* \"#utility.yul\":7929:7947   */\n      0x24\n      dup3\n      add\n        /* \"#utility.yul\":7922:7952   */\n      mstore\n      shl(0x62, 0x125b98dbdc9c9958dd0811551208185b5bdd5b9d)\n        /* \"#utility.yul\":7968:7986   */\n      0x44\n      dup3\n      add\n        /* \"#utility.yul\":7961:8011   */\n      mstore\n        /* \"#utility.yul\":8028:8046   */\n      0x64\n      add\n        /* \"src/BountyContract.sol\":4538:4597  require(msg.value >= totalRequired, \"Incorrect ETH amount\") */\n      tag_114\n        /* \"#utility.yul\":7708:8052   */\n      jump\n        /* \"src/BountyContract.sol\":4538:4597  require(msg.value >= totalRequired, \"Incorrect ETH amount\") */\n    tag_128:\n        /* \"src/BountyContract.sol\":4627:4630  fee */\n      dup2\n        /* \"src/BountyContract.sol\":4611:4623  totalEthFees */\n      0x03\n      0x00\n        /* \"src/BountyContract.sol\":4611:4630  totalEthFees += fee */\n      dup3\n      dup3\n      sload\n      tag_131\n      swap2\n      swap1\n      tag_121\n      jump\t// in\n    tag_131:\n      swap1\n      swap2\n      sstore\n      pop\n        /* \"src/BountyContract.sol\":4491:5310  if (_tokenType == TokenType.ETH) {... */\n      tag_132\n      swap1\n      pop\n      jump\n    tag_127:\n        /* \"src/BountyContract.sol\":5060:5069  msg.value */\n      callvalue\n        /* \"src/BountyContract.sol\":5060:5074  msg.value == 0 */\n      iszero\n        /* \"src/BountyContract.sol\":5052:5095  require(msg.value == 0, \"ETH not accepted\") */\n      tag_133\n      jumpi\n      mload(0x40)\n      shl(0xe5, 0x461bcd)\n      dup2\n      mstore\n        /* \"#utility.yul\":8259:8261   */\n      0x20\n        /* \"src/BountyContract.sol\":5052:5095  require(msg.value == 0, \"ETH not accepted\") */\n      0x04\n      dup3\n      add\n        /* \"#utility.yul\":8241:8262   */\n      mstore\n        /* \"#utility.yul\":8298:8300   */\n      0x10\n        /* \"#utility.yul\":8278:8296   */\n      0x24\n      dup3\n      add\n        /* \"#utility.yul\":8271:8301   */\n      mstore\n      shl(0x82, 0x115512081b9bdd081858d8d95c1d1959)\n        /* \"#utility.yul\":8317:8335   */\n      0x44\n      dup3\n      add\n        /* \"#utility.yul\":8310:8356   */\n      mstore\n        /* \"#utility.yul\":8373:8391   */\n      0x64\n      add\n        /* \"src/BountyContract.sol\":5052:5095  require(msg.value == 0, \"ETH not accepted\") */\n      tag_114\n        /* \"#utility.yul\":8057:8397   */\n      jump\n        /* \"src/BountyContract.sol\":5052:5095  require(msg.value == 0, \"ETH not accepted\") */\n    tag_133:\n        /* \"src/BountyContract.sol\":5110:5119  usdcToken */\n      sload(0x01)\n        /* \"src/BountyContract.sol\":5110:5240  usdcToken.safeTransferFrom(... */\n      tag_136\n      swap1\n      sub(shl(0xa0, 0x01), 0x01)\n        /* \"src/BountyContract.sol\":5110:5119  usdcToken */\n      and\n        /* \"src/BountyContract.sol\":5154:5164  msg.sender */\n      caller\n        /* \"src/BountyContract.sol\":5190:5194  this */\n      address\n        /* \"src/BountyContract.sol\":5213:5226  totalRequired */\n      dup5\n        /* \"src/BountyContract.sol\":5110:5136  usdcToken.safeTransferFrom */\n      tag_137\n        /* \"src/BountyContract.sol\":5110:5240  usdcToken.safeTransferFrom(... */\n      jump\t// in\n    tag_136:\n        /* \"src/BountyContract.sol\":5272:5275  fee */\n      dup2\n        /* \"src/BountyContract.sol\":5255:5268  totalUsdcFees */\n      0x04\n      0x00\n        /* \"src/BountyContract.sol\":5255:5275  totalUsdcFees += fee */\n      dup3\n      dup3\n      sload\n      tag_138\n      swap2\n      swap1\n      tag_121\n      jump\t// in\n    tag_138:\n      swap1\n      swap2\n      sstore\n      pop\n      pop\n        /* \"src/BountyContract.sol\":4491:5310  if (_tokenType == TokenType.ETH) {... */\n    tag_132:\n        /* \"src/BountyContract.sol\":5496:5522  _bountyCounter.increment() */\n      tag_139\n        /* \"src/BountyContract.sol\":5496:5510  _bountyCounter */\n      0x02\n        /* \"src/Counters.sol\":977:996  counter._value += 1 */\n      dup1\n      sload\n        /* \"src/Counters.sol\":995:996  1 */\n      0x01\n        /* \"src/Counters.sol\":977:996  counter._value += 1 */\n      add\n      swap1\n      sstore\n        /* \"src/Counters.sol\":890:1013  function increment(Counter storage counter) internal {... */\n      jump\n        /* \"src/BountyContract.sol\":5496:5522  _bountyCounter.increment() */\n    tag_139:\n        /* \"src/BountyContract.sol\":5533:5549  bytes32 bountyId */\n      0x00\n        /* \"src/BountyContract.sol\":5609:5633  _bountyCounter.current() */\n      tag_141\n        /* \"src/BountyContract.sol\":5609:5623  _bountyCounter */\n      0x02\n        /* \"src/Counters.sol\":863:877  counter._value */\n      sload\n      swap1\n        /* \"src/Counters.sol\":772:884  function current(Counter storage counter) internal view returns (uint256) {... */\n      jump\n        /* \"src/BountyContract.sol\":5609:5633  _bountyCounter.current() */\n    tag_141:\n        /* \"src/BountyContract.sol\":5575:5708  abi.encodePacked(... */\n      0x40\n      dup1\n      mload\n      0x20\n      dup2\n      add\n        /* \"#utility.yul\":8587:8606   */\n      swap3\n      swap1\n      swap3\n      mstore\n      not(0xffffffffffffffffffffffff)\n        /* \"src/BountyContract.sol\":5651:5661  msg.sender */\n      caller\n        /* \"#utility.yul\":8644:8646   */\n      0x60\n        /* \"#utility.yul\":8640:8655   */\n      shl\n        /* \"#utility.yul\":8636:8689   */\n      and\n        /* \"#utility.yul\":8622:8634   */\n      swap1\n      dup3\n      add\n        /* \"#utility.yul\":8615:8690   */\n      mstore\n        /* \"src/BountyContract.sol\":5679:5694  block.timestamp */\n      timestamp\n        /* \"#utility.yul\":8706:8718   */\n      0x54\n      dup3\n      add\n        /* \"#utility.yul\":8699:8727   */\n      mstore\n        /* \"#utility.yul\":8743:8755   */\n      0x74\n      add\n        /* \"src/BountyContract.sol\":5575:5708  abi.encodePacked(... */\n      0x40\n      dup1\n      mload\n      not(0x1f)\n      dup2\n      dup5\n      sub\n      add\n      dup2\n      mstore\n      dup3\n      dup3\n      mstore\n        /* \"src/BountyContract.sol\":5552:5718  keccak256(... */\n      dup1\n      mload\n        /* \"src/BountyContract.sol\":5575:5708  abi.encodePacked(... */\n      0x20\n        /* \"src/BountyContract.sol\":5552:5718  keccak256(... */\n      swap2\n      dup3\n      add\n      keccak256\n        /* \"src/BountyContract.sol\":5729:5741  allBountyIds */\n      0x06\n        /* \"src/BountyContract.sol\":5729:5756  allBountyIds.push(bountyId) */\n      dup1\n      sload\n      0x01\n      dup2\n      dup2\n      add\n      dup4\n      sstore\n      0x00\n      swap3\n      swap1\n      swap3\n      mstore\n      0xf652222313e28459528d920b65115c16c04f3efc82aaedc97be59f3f377c0d3f\n      add\n      dup3\n      swap1\n      sstore\n        /* \"src/BountyContract.sol\":5958:6237  Bounty({... */\n      0x0100\n      dup6\n      add\n      dup5\n      mstore\n      dup11\n      dup6\n      mstore\n      swap2\n      dup5\n      add\n      dup8\n      swap1\n      mstore\n        /* \"src/BountyContract.sol\":5552:5718  keccak256(... */\n      swap4\n      pop\n        /* \"src/BountyContract.sol\":5958:6237  Bounty({... */\n      swap1\n      dup3\n      add\n      swap1\n        /* \"src/BountyContract.sol\":6041:6051  _tokenType */\n      dup10\n      swap1\n        /* \"src/BountyContract.sol\":5958:6237  Bounty({... */\n      dup2\n      gt\n      iszero\n      tag_147\n      jumpi\n      tag_147\n      tag_124\n      jump\t// in\n    tag_147:\n      dup2\n      mstore\n      0x20\n      add\n        /* \"src/BountyContract.sol\":6077:6088  _payoutType */\n      dup7\n        /* \"src/BountyContract.sol\":5958:6237  Bounty({... */\n      0x02\n      dup2\n      gt\n      iszero\n      tag_149\n      jumpi\n      tag_149\n      tag_124\n      jump\t// in\n    tag_149:\n      dup2\n      mstore\n        /* \"src/BountyContract.sol\":6111:6121  msg.sender */\n      caller\n        /* \"src/BountyContract.sol\":5958:6237  Bounty({... */\n      0x20\n      dup3\n      add\n      mstore\n      0x40\n      add\n      0x00\n        /* \"src/BountyContract.sol\":6180:6196  new address[](0) */\n      mload(0x40)\n      swap1\n      dup1\n      dup3\n      mstore\n      dup1\n      0x20\n      mul\n      0x20\n      add\n      dup3\n      add\n      0x40\n      mstore\n      dup1\n      iszero\n      tag_153\n      jumpi\n      dup2\n      0x20\n      add\n      0x20\n      dup3\n      mul\n      dup1\n      calldatasize\n      dup4\n      calldatacopy\n      add\n      swap1\n      pop\n    tag_153:\n      pop\n        /* \"src/BountyContract.sol\":5958:6237  Bounty({... */\n      dup2\n      mstore\n        /* \"src/BountyContract.sol\":6152:6157  false */\n      0x00\n        /* \"src/BountyContract.sol\":5958:6237  Bounty({... */\n      0x20\n      dup1\n      dup4\n      add\n      dup3\n      swap1\n      mstore\n      0x40\n      swap3\n      dup4\n      add\n      dup3\n      swap1\n      mstore\n        /* \"src/BountyContract.sol\":5937:5955  bounties[bountyId] */\n      dup5\n      dup3\n      mstore\n        /* \"src/BountyContract.sol\":5937:5945  bounties */\n      0x05\n        /* \"src/BountyContract.sol\":5937:5955  bounties[bountyId] */\n      dup2\n      mstore\n      swap1\n      dup3\n      swap1\n      keccak256\n        /* \"src/BountyContract.sol\":5937:6237  bounties[bountyId] = Bounty({... */\n      dup4\n      mload\n      dup2\n      sstore\n      swap1\n      dup4\n      add\n      mload\n        /* \"src/BountyContract.sol\":5958:6237  Bounty({... */\n      0x01\n        /* \"src/BountyContract.sol\":5937:6237  bounties[bountyId] = Bounty({... */\n      dup3\n      dup2\n      add\n      swap2\n      swap1\n      swap2\n      sstore\n      swap2\n      dup4\n      add\n      mload\n      0x02\n      dup3\n      add\n      dup1\n      sload\n        /* \"src/BountyContract.sol\":5937:5955  bounties[bountyId] */\n      swap3\n      swap4\n        /* \"src/BountyContract.sol\":5937:6237  bounties[bountyId] = Bounty({... */\n      swap2\n      swap3\n      swap1\n      swap2\n      not(0xff)\n      swap1\n      swap2\n      and\n      swap1\n      dup4\n      dup2\n      dup2\n      gt\n      iszero\n      tag_155\n      jumpi\n      tag_155\n      tag_124\n      jump\t// in\n    tag_155:\n      mul\n      or\n      swap1\n      sstore\n      pop\n      0x60\n      dup3\n      add\n      mload\n      dup2\n      0x02\n      add\n      exp(0x0100, 0x01)\n      dup2\n      sload\n      dup2\n      0xff\n      mul\n      not\n      and\n      swap1\n      dup4\n      0x02\n      dup2\n      gt\n      iszero\n      tag_157\n      jumpi\n      tag_157\n      tag_124\n      jump\t// in\n    tag_157:\n      mul\n      or\n      swap1\n      sstore\n      pop\n      0x80\n      dup3\n      add\n      mload\n      0x02\n      dup3\n      add\n      dup1\n      sload\n      sub(shl(0xa0, 0x01), 0x01)\n      swap1\n      swap3\n      and\n      0x010000\n      mul\n      not(sub(shl(0xb0, 0x01), 0x010000))\n      swap1\n      swap3\n      and\n      swap2\n      swap1\n      swap2\n      or\n      swap1\n      sstore\n      0xa0\n      dup3\n      add\n      mload\n      dup1\n      mload\n      tag_158\n      swap2\n      0x03\n      dup5\n      add\n      swap2\n      0x20\n      swap1\n      swap2\n      add\n      swap1\n      tag_159\n      jump\t// in\n    tag_158:\n      pop\n      0xc0\n      dup3\n      add\n      mload\n      0x04\n      swap1\n      swap2\n      add\n      dup1\n      sload\n      0xe0\n      swap1\n      swap4\n      add\n      mload\n      iszero\n      iszero\n      0x0100\n      mul\n      not(0xff00)\n      swap3\n      iszero\n      iszero\n      swap3\n      swap1\n      swap3\n      and\n      not(0xffff)\n      swap1\n      swap4\n      and\n      swap3\n      swap1\n      swap3\n      or\n      or\n      swap1\n      sstore\n        /* \"src/BountyContract.sol\":6253:6409  BountyCreated(... */\n      mload(0x40)\n      0x3defe6f195ebaadc1bfa70c40f9196517d5a2952586ec97aa07edcdb82137e4c\n      swap1\n      tag_160\n      swap1\n        /* \"src/BountyContract.sol\":6280:6288  bountyId */\n      dup4\n      swap1\n        /* \"src/BountyContract.sol\":6302:6312  msg.sender */\n      caller\n      swap1\n        /* \"src/BountyContract.sol\":6326:6333  _reward */\n      dup11\n      swap1\n        /* \"src/BountyContract.sol\":6347:6350  fee */\n      dup9\n      swap1\n        /* \"src/BountyContract.sol\":6364:6374  _tokenType */\n      dup14\n      swap1\n        /* \"src/BountyContract.sol\":6388:6399  _payoutType */\n      dup13\n      swap1\n        /* \"src/BountyContract.sol\":6253:6409  BountyCreated(... */\n      tag_161\n      jump\t// in\n    tag_160:\n      mload(0x40)\n      dup1\n      swap2\n      sub\n      swap1\n      log1\n        /* \"src/BountyContract.sol\":6427:6435  bountyId */\n      swap7\n        /* \"src/BountyContract.sol\":4009:6442  function createBounty(... */\n      swap6\n      pop\n      pop\n      pop\n      pop\n      pop\n      pop\n      jump\t// out\n        /* \"src/BountyContract.sol\":7495:10318  function assignMultipleWinners(... */\n    tag_38:\n        /* \"src/BountyContract.sol\":7653:7674  Bounty storage bounty */\n      0x00\n        /* \"src/BountyContract.sol\":7677:7695  bounties[bountyId] */\n      dup6\n      dup2\n      mstore\n        /* \"src/BountyContract.sol\":7677:7685  bounties */\n      0x05\n        /* \"src/BountyContract.sol\":7677:7695  bounties[bountyId] */\n      0x20\n      mstore\n      0x40\n      swap1\n      keccak256\n        /* \"src/BountyContract.sol\":7741:7755  bounty.creator */\n      0x02\n      dup2\n      add\n      sload\n      0x010000\n      swap1\n      div\n      sub(shl(0xa0, 0x01), 0x01)\n      and\n        /* \"src/BountyContract.sol\":7727:7737  msg.sender */\n      caller\n        /* \"src/BountyContract.sol\":7727:7755  msg.sender == bounty.creator */\n      eq\n      dup1\n        /* \"src/BountyContract.sol\":7727:7780  msg.sender == bounty.creator || msg.sender == owner() */\n      tag_163\n      jumpi\n      pop\n        /* \"lib/openzeppelin-contracts/contracts/access/Ownable.sol\":1684:1691  address */\n      0x00\n        /* \"lib/openzeppelin-contracts/contracts/access/Ownable.sol\":1710:1716  _owner */\n      sload\n      sub(shl(0xa0, 0x01), 0x01)\n      and\n        /* \"src/BountyContract.sol\":7759:7769  msg.sender */\n      caller\n        /* \"src/BountyContract.sol\":7759:7780  msg.sender == owner() */\n      eq\n        /* \"src/BountyContract.sol\":7727:7780  msg.sender == bounty.creator || msg.sender == owner() */\n    tag_163:\n        /* \"src/BountyContract.sol\":7706:7818  require(... */\n      tag_165\n      jumpi\n      mload(0x40)\n      shl(0xe5, 0x461bcd)\n      dup2\n      mstore\n        /* \"#utility.yul\":9730:9732   */\n      0x20\n        /* \"src/BountyContract.sol\":7706:7818  require(... */\n      0x04\n      dup3\n      add\n        /* \"#utility.yul\":9712:9733   */\n      mstore\n        /* \"#utility.yul\":9769:9771   */\n      0x0c\n        /* \"#utility.yul\":9749:9767   */\n      0x24\n      dup3\n      add\n        /* \"#utility.yul\":9742:9772   */\n      mstore\n      shl(0xa2, 0x155b985d5d1a1bdc9a5e9959)\n        /* \"#utility.yul\":9788:9806   */\n      0x44\n      dup3\n      add\n        /* \"#utility.yul\":9781:9823   */\n      mstore\n        /* \"#utility.yul\":9840:9858   */\n      0x64\n      add\n        /* \"src/BountyContract.sol\":7706:7818  require(... */\n      tag_114\n        /* \"#utility.yul\":9528:9864   */\n      jump\n        /* \"src/BountyContract.sol\":7706:7818  require(... */\n    tag_165:\n        /* \"src/BountyContract.sol\":7838:7860  bounty.rewardsAssigned */\n      0x04\n      dup2\n      add\n      sload\n      0xff\n      and\n        /* \"src/BountyContract.sol\":7837:7860  !bounty.rewardsAssigned */\n      iszero\n        /* \"src/BountyContract.sol\":7829:7881  require(!bounty.rewardsAssigned, \"Already assigned\") */\n      tag_168\n      jumpi\n      mload(0x40)\n      shl(0xe5, 0x461bcd)\n      dup2\n      mstore\n        /* \"#utility.yul\":10071:10073   */\n      0x20\n        /* \"src/BountyContract.sol\":7829:7881  require(!bounty.rewardsAssigned, \"Already assigned\") */\n      0x04\n      dup3\n      add\n        /* \"#utility.yul\":10053:10074   */\n      mstore\n        /* \"#utility.yul\":10110:10112   */\n      0x10\n        /* \"#utility.yul\":10090:10108   */\n      0x24\n      dup3\n      add\n        /* \"#utility.yul\":10083:10113   */\n      mstore\n      shl(0x82, 0x105b1c9958591e48185cdcda59db9959)\n        /* \"#utility.yul\":10129:10147   */\n      0x44\n      dup3\n      add\n        /* \"#utility.yul\":10122:10168   */\n      mstore\n        /* \"#utility.yul\":10185:10203   */\n      0x64\n      add\n        /* \"src/BountyContract.sol\":7829:7881  require(!bounty.rewardsAssigned, \"Already assigned\") */\n      tag_114\n        /* \"#utility.yul\":9869:10209   */\n      jump\n        /* \"src/BountyContract.sol\":7829:7881  require(!bounty.rewardsAssigned, \"Already assigned\") */\n    tag_168:\n        /* \"src/BountyContract.sol\":7908:7915  winners */\n      dup4\n        /* \"src/BountyContract.sol\":7932:7956  bounty.winners = winners */\n      tag_171\n        /* \"src/BountyContract.sol\":7932:7946  bounty.winners */\n      0x03\n      dup4\n      add\n        /* \"src/BountyContract.sol\":7908:7915  winners */\n      dup8\n      dup4\n        /* \"src/BountyContract.sol\":7932:7956  bounty.winners = winners */\n      tag_172\n      jump\t// in\n    tag_171:\n      pop\n        /* \"src/BountyContract.sol\":7984:7985  2 */\n      0x02\n        /* \"src/BountyContract.sol\":7975:7980  count */\n      dup2\n        /* \"src/BountyContract.sol\":7975:7985  count >= 2 */\n      lt\n      iszero\n        /* \"src/BountyContract.sol\":7967:8007  require(count >= 2, \"Minimum 2 winners\") */\n      tag_173\n      jumpi\n      mload(0x40)\n      shl(0xe5, 0x461bcd)\n      dup2\n      mstore\n        /* \"#utility.yul\":10416:10418   */\n      0x20\n        /* \"src/BountyContract.sol\":7967:8007  require(count >= 2, \"Minimum 2 winners\") */\n      0x04\n      dup3\n      add\n        /* \"#utility.yul\":10398:10419   */\n      mstore\n        /* \"#utility.yul\":10455:10457   */\n      0x11\n        /* \"#utility.yul\":10435:10453   */\n      0x24\n      dup3\n      add\n        /* \"#utility.yul\":10428:10458   */\n      mstore\n      shl(0x78, 0x4d696e696d756d20322077696e6e657273)\n        /* \"#utility.yul\":10474:10492   */\n      0x44\n      dup3\n      add\n        /* \"#utility.yul\":10467:10514   */\n      mstore\n        /* \"#utility.yul\":10531:10549   */\n      0x64\n      add\n        /* \"src/BountyContract.sol\":7967:8007  require(count >= 2, \"Minimum 2 winners\") */\n      tag_114\n        /* \"#utility.yul\":10214:10555   */\n      jump\n        /* \"src/BountyContract.sol\":7967:8007  require(count >= 2, \"Minimum 2 winners\") */\n    tag_173:\n        /* \"src/BountyContract.sol\":854:855  5 */\n      0x05\n        /* \"src/BountyContract.sol\":8025:8030  count */\n      dup2\n        /* \"src/BountyContract.sol\":8025:8045  count <= MAX_WINNERS */\n      gt\n      iszero\n        /* \"src/BountyContract.sol\":8017:8066  require(count <= MAX_WINNERS, \"Too many winners\") */\n      tag_176\n      jumpi\n      mload(0x40)\n      shl(0xe5, 0x461bcd)\n      dup2\n      mstore\n        /* \"#utility.yul\":10762:10764   */\n      0x20\n        /* \"src/BountyContract.sol\":8017:8066  require(count <= MAX_WINNERS, \"Too many winners\") */\n      0x04\n      dup3\n      add\n        /* \"#utility.yul\":10744:10765   */\n      mstore\n        /* \"#utility.yul\":10801:10803   */\n      0x10\n        /* \"#utility.yul\":10781:10799   */\n      0x24\n      dup3\n      add\n        /* \"#utility.yul\":10774:10804   */\n      mstore\n      shl(0x80, 0x546f6f206d616e792077696e6e657273)\n        /* \"#utility.yul\":10820:10838   */\n      0x44\n      dup3\n      add\n        /* \"#utility.yul\":10813:10859   */\n      mstore\n        /* \"#utility.yul\":10876:10894   */\n      0x64\n      add\n        /* \"src/BountyContract.sol\":8017:8066  require(count <= MAX_WINNERS, \"Too many winners\") */\n      tag_114\n        /* \"#utility.yul\":10560:10900   */\n      jump\n        /* \"src/BountyContract.sol\":8017:8066  require(count <= MAX_WINNERS, \"Too many winners\") */\n    tag_176:\n        /* \"src/BountyContract.sol\":8306:8315  uint256 i */\n      0x00\n        /* \"src/BountyContract.sol\":8301:8553  for (uint256 i = 0; i < count; i++) {... */\n    tag_179:\n        /* \"src/BountyContract.sol\":8325:8330  count */\n      dup2\n        /* \"src/BountyContract.sol\":8321:8322  i */\n      dup2\n        /* \"src/BountyContract.sol\":8321:8330  i < count */\n      lt\n        /* \"src/BountyContract.sol\":8301:8553  for (uint256 i = 0; i < count; i++) {... */\n      iszero\n      tag_180\n      jumpi\n        /* \"src/BountyContract.sol\":8381:8382  0 */\n      0x00\n        /* \"src/BountyContract.sol\":8359:8366  winners */\n      dup8\n      dup8\n        /* \"src/BountyContract.sol\":8367:8368  i */\n      dup4\n        /* \"src/BountyContract.sol\":8359:8369  winners[i] */\n      dup2\n      dup2\n      lt\n      tag_183\n      jumpi\n      tag_183\n      tag_184\n      jump\t// in\n    tag_183:\n      swap1\n      pop\n      0x20\n      mul\n      add\n      0x20\n      dup2\n      add\n      swap1\n      tag_185\n      swap2\n      swap1\n      tag_106\n      jump\t// in\n    tag_185:\n      sub(shl(0xa0, 0x01), 0x01)\n        /* \"src/BountyContract.sol\":8359:8383  winners[i] != address(0) */\n      and\n      sub\n        /* \"src/BountyContract.sol\":8351:8402  require(winners[i] != address(0), \"Invalid winner\") */\n      tag_186\n      jumpi\n      mload(0x40)\n      shl(0xe5, 0x461bcd)\n      dup2\n      mstore\n        /* \"#utility.yul\":11239:11241   */\n      0x20\n        /* \"src/BountyContract.sol\":8351:8402  require(winners[i] != address(0), \"Invalid winner\") */\n      0x04\n      dup3\n      add\n        /* \"#utility.yul\":11221:11242   */\n      mstore\n        /* \"#utility.yul\":11278:11280   */\n      0x0e\n        /* \"#utility.yul\":11258:11276   */\n      0x24\n      dup3\n      add\n        /* \"#utility.yul\":11251:11281   */\n      mstore\n      shl(0x91, 0x24b73b30b634b2103bb4b73732b9)\n        /* \"#utility.yul\":11297:11315   */\n      0x44\n      dup3\n      add\n        /* \"#utility.yul\":11290:11334   */\n      mstore\n        /* \"#utility.yul\":11351:11369   */\n      0x64\n      add\n        /* \"src/BountyContract.sol\":8351:8402  require(winners[i] != address(0), \"Invalid winner\") */\n      tag_114\n        /* \"#utility.yul\":11037:11375   */\n      jump\n        /* \"src/BountyContract.sol\":8351:8402  require(winners[i] != address(0), \"Invalid winner\") */\n    tag_186:\n        /* \"src/BountyContract.sol\":8422:8431  uint256 j */\n      0x00\n        /* \"src/BountyContract.sol\":8434:8439  i + 1 */\n      tag_192\n        /* \"src/BountyContract.sol\":8434:8435  i */\n      dup3\n        /* \"src/BountyContract.sol\":8438:8439  1 */\n      0x01\n        /* \"src/BountyContract.sol\":8434:8439  i + 1 */\n      tag_121\n      jump\t// in\n    tag_192:\n        /* \"src/BountyContract.sol\":8422:8439  uint256 j = i + 1 */\n      swap1\n      pop\n        /* \"src/BountyContract.sol\":8417:8543  for (uint256 j = i + 1; j < count; j++) {... */\n    tag_189:\n        /* \"src/BountyContract.sol\":8445:8450  count */\n      dup3\n        /* \"src/BountyContract.sol\":8441:8442  j */\n      dup2\n        /* \"src/BountyContract.sol\":8441:8450  j < count */\n      lt\n        /* \"src/BountyContract.sol\":8417:8543  for (uint256 j = i + 1; j < count; j++) {... */\n      iszero\n      tag_190\n      jumpi\n        /* \"src/BountyContract.sol\":8497:8504  winners */\n      dup8\n      dup8\n        /* \"src/BountyContract.sol\":8505:8506  j */\n      dup3\n        /* \"src/BountyContract.sol\":8497:8507  winners[j] */\n      dup2\n      dup2\n      lt\n      tag_194\n      jumpi\n      tag_194\n      tag_184\n      jump\t// in\n    tag_194:\n      swap1\n      pop\n      0x20\n      mul\n      add\n      0x20\n      dup2\n      add\n      swap1\n      tag_195\n      swap2\n      swap1\n      tag_106\n      jump\t// in\n    tag_195:\n      sub(shl(0xa0, 0x01), 0x01)\n        /* \"src/BountyContract.sol\":8483:8507  winners[i] != winners[j] */\n      and\n        /* \"src/BountyContract.sol\":8483:8490  winners */\n      dup9\n      dup9\n        /* \"src/BountyContract.sol\":8491:8492  i */\n      dup5\n        /* \"src/BountyContract.sol\":8483:8493  winners[i] */\n      dup2\n      dup2\n      lt\n      tag_197\n      jumpi\n      tag_197\n      tag_184\n      jump\t// in\n    tag_197:\n      swap1\n      pop\n      0x20\n      mul\n      add\n      0x20\n      dup2\n      add\n      swap1\n      tag_198\n      swap2\n      swap1\n      tag_106\n      jump\t// in\n    tag_198:\n      sub(shl(0xa0, 0x01), 0x01)\n        /* \"src/BountyContract.sol\":8483:8507  winners[i] != winners[j] */\n      and\n      sub\n        /* \"src/BountyContract.sol\":8475:8528  require(winners[i] != winners[j], \"Duplicate winner\") */\n      tag_199\n      jumpi\n      mload(0x40)\n      shl(0xe5, 0x461bcd)\n      dup2\n      mstore\n        /* \"#utility.yul\":11582:11584   */\n      0x20\n        /* \"src/BountyContract.sol\":8475:8528  require(winners[i] != winners[j], \"Duplicate winner\") */\n      0x04\n      dup3\n      add\n        /* \"#utility.yul\":11564:11585   */\n      mstore\n        /* \"#utility.yul\":11621:11623   */\n      0x10\n        /* \"#utility.yul\":11601:11619   */\n      0x24\n      dup3\n      add\n        /* \"#utility.yul\":11594:11624   */\n      mstore\n      shl(0x81, 0x223ab83634b1b0ba32903bb4b73732b9)\n        /* \"#utility.yul\":11640:11658   */\n      0x44\n      dup3\n      add\n        /* \"#utility.yul\":11633:11679   */\n      mstore\n        /* \"#utility.yul\":11696:11714   */\n      0x64\n      add\n        /* \"src/BountyContract.sol\":8475:8528  require(winners[i] != winners[j], \"Duplicate winner\") */\n      tag_114\n        /* \"#utility.yul\":11380:11720   */\n      jump\n        /* \"src/BountyContract.sol\":8475:8528  require(winners[i] != winners[j], \"Duplicate winner\") */\n    tag_199:\n        /* \"src/BountyContract.sol\":8452:8455  j++ */\n      0x01\n      add\n        /* \"src/BountyContract.sol\":8417:8543  for (uint256 j = i + 1; j < count; j++) {... */\n      jump(tag_189)\n    tag_190:\n      pop\n        /* \"src/BountyContract.sol\":8332:8335  i++ */\n      0x01\n      add\n        /* \"src/BountyContract.sol\":8301:8553  for (uint256 i = 0; i < count; i++) {... */\n      jump(tag_179)\n    tag_180:\n      pop\n        /* \"src/BountyContract.sol\":8580:8593  bounty.reward */\n      dup2\n      sload\n        /* \"src/BountyContract.sol\":8563:8577  uint256 reward */\n      0x00\n        /* \"src/BountyContract.sol\":8871:8893  PayoutType.MULTI_EQUAL */\n      0x01\n        /* \"src/BountyContract.sol\":8850:8867  bounty.payoutType */\n      0x02\n      dup6\n      dup2\n      add\n      sload\n      0x0100\n      swap1\n      div\n      0xff\n      and\n      swap1\n        /* \"src/BountyContract.sol\":8850:8893  bounty.payoutType == PayoutType.MULTI_EQUAL */\n      dup2\n      gt\n      iszero\n      tag_205\n      jumpi\n      tag_205\n      tag_124\n      jump\t// in\n    tag_205:\n      sub\n        /* \"src/BountyContract.sol\":8846:10231  if (bounty.payoutType == PayoutType.MULTI_EQUAL) {... */\n      tag_206\n      jumpi\n        /* \"src/BountyContract.sol\":8909:8922  uint256 share */\n      0x00\n        /* \"src/BountyContract.sol\":8925:8939  reward / count */\n      tag_207\n        /* \"src/BountyContract.sol\":8934:8939  count */\n      dup5\n        /* \"src/BountyContract.sol\":8925:8931  reward */\n      dup5\n        /* \"src/BountyContract.sol\":8925:8939  reward / count */\n      tag_119\n      jump\t// in\n    tag_207:\n        /* \"src/BountyContract.sol\":8909:8939  uint256 share = reward / count */\n      swap1\n      pop\n        /* \"src/BountyContract.sol\":8959:8968  uint256 i */\n      0x00\n        /* \"src/BountyContract.sol\":8954:9107  for (uint256 i = 0; i < count; i++) {... */\n    tag_208:\n        /* \"src/BountyContract.sol\":8978:8983  count */\n      dup5\n        /* \"src/BountyContract.sol\":8974:8975  i */\n      dup2\n        /* \"src/BountyContract.sol\":8974:8983  i < count */\n      lt\n        /* \"src/BountyContract.sol\":8954:9107  for (uint256 i = 0; i < count; i++) {... */\n      iszero\n      tag_209\n      jumpi\n        /* \"src/BountyContract.sol\":9008:9034  claimableRewards[bountyId] */\n      0x00\n      dup12\n      dup2\n      mstore\n        /* \"src/BountyContract.sol\":9008:9024  claimableRewards */\n      0x07\n        /* \"src/BountyContract.sol\":9008:9034  claimableRewards[bountyId] */\n      0x20\n      mstore\n      0x40\n      dup2\n      keccak256\n        /* \"src/BountyContract.sol\":9049:9054  share */\n      dup4\n      swap2\n        /* \"src/BountyContract.sol\":9035:9042  winners */\n      dup13\n      dup13\n        /* \"src/BountyContract.sol\":9043:9044  i */\n      dup6\n        /* \"src/BountyContract.sol\":9035:9045  winners[i] */\n      dup2\n      dup2\n      lt\n      tag_212\n      jumpi\n      tag_212\n      tag_184\n      jump\t// in\n    tag_212:\n      swap1\n      pop\n      0x20\n      mul\n      add\n      0x20\n      dup2\n      add\n      swap1\n      tag_213\n      swap2\n      swap1\n      tag_106\n      jump\t// in\n    tag_213:\n      sub(shl(0xa0, 0x01), 0x01)\n        /* \"src/BountyContract.sol\":9008:9046  claimableRewards[bountyId][winners[i]] */\n      and\n      dup2\n      mstore\n      0x20\n      dup2\n      add\n      swap2\n      swap1\n      swap2\n      mstore\n      0x40\n      add\n      0x00\n      keccak256\n        /* \"src/BountyContract.sol\":9008:9054  claimableRewards[bountyId][winners[i]] = share */\n      sstore\n        /* \"src/BountyContract.sol\":9072:9092  distributed += share */\n      tag_214\n        /* \"src/BountyContract.sol\":9087:9092  share */\n      dup3\n        /* \"src/BountyContract.sol\":9072:9092  distributed += share */\n      dup5\n      tag_121\n      jump\t// in\n    tag_214:\n      swap3\n      pop\n        /* \"src/BountyContract.sol\":8985:8988  i++ */\n      0x01\n      add\n        /* \"src/BountyContract.sol\":8954:9107  for (uint256 i = 0; i < count; i++) {... */\n      jump(tag_208)\n    tag_209:\n      pop\n        /* \"src/BountyContract.sol\":9187:9223  reward -... */\n      tag_215\n        /* \"src/BountyContract.sol\":9212:9223  distributed */\n      dup3\n        /* \"src/BountyContract.sol\":9187:9193  reward */\n      dup5\n        /* \"src/BountyContract.sol\":9187:9223  reward -... */\n      tag_216\n      jump\t// in\n    tag_215:\n        /* \"src/BountyContract.sol\":9121:9147  claimableRewards[bountyId] */\n      0x00\n      dup12\n      dup2\n      mstore\n        /* \"src/BountyContract.sol\":9121:9137  claimableRewards */\n      0x07\n        /* \"src/BountyContract.sol\":9121:9147  claimableRewards[bountyId] */\n      0x20\n      mstore\n      0x40\n      dup2\n      keccak256\n      swap1\n        /* \"src/BountyContract.sol\":9148:9155  winners */\n      dup12\n      dup12\n        /* \"src/BountyContract.sol\":9156:9165  count - 1 */\n      tag_217\n        /* \"src/BountyContract.sol\":9164:9165  1 */\n      0x01\n        /* \"src/BountyContract.sol\":9156:9161  count */\n      dup11\n        /* \"src/BountyContract.sol\":9156:9165  count - 1 */\n      tag_216\n      jump\t// in\n    tag_217:\n        /* \"src/BountyContract.sol\":9148:9166  winners[count - 1] */\n      dup2\n      dup2\n      lt\n      tag_219\n      jumpi\n      tag_219\n      tag_184\n      jump\t// in\n    tag_219:\n      swap1\n      pop\n      0x20\n      mul\n      add\n      0x20\n      dup2\n      add\n      swap1\n      tag_220\n      swap2\n      swap1\n      tag_106\n      jump\t// in\n    tag_220:\n      sub(shl(0xa0, 0x01), 0x01)\n        /* \"src/BountyContract.sol\":9121:9167  claimableRewards[bountyId][winners[count - 1]] */\n      and\n      sub(shl(0xa0, 0x01), 0x01)\n      and\n      dup2\n      mstore\n      0x20\n      add\n      swap1\n      dup2\n      mstore\n      0x20\n      add\n      0x00\n      keccak256\n      0x00\n        /* \"src/BountyContract.sol\":9121:9223  claimableRewards[bountyId][winners[count - 1]] +=... */\n      dup3\n      dup3\n      sload\n      tag_221\n      swap2\n      swap1\n      tag_121\n      jump\t// in\n    tag_221:\n      swap1\n      swap2\n      sstore\n      pop\n        /* \"src/BountyContract.sol\":8846:10231  if (bounty.payoutType == PayoutType.MULTI_EQUAL) {... */\n      tag_257\n      swap2\n      pop\n      pop\n      jump\n    tag_206:\n        /* \"src/BountyContract.sol\":9490:9517  PayoutType.MULTI_PERCENTAGE */\n      0x02\n        /* \"src/BountyContract.sol\":9469:9486  bounty.payoutType */\n      dup1\n      dup6\n      dup2\n      add\n      sload\n      0x0100\n      swap1\n      div\n      0xff\n      and\n      swap1\n        /* \"src/BountyContract.sol\":9469:9517  bounty.payoutType == PayoutType.MULTI_PERCENTAGE */\n      dup2\n      gt\n      iszero\n      tag_226\n      jumpi\n      tag_226\n      tag_124\n      jump\t// in\n    tag_226:\n      sub\n        /* \"src/BountyContract.sol\":9465:10231  if (bounty.payoutType == PayoutType.MULTI_PERCENTAGE) {... */\n      tag_227\n      jumpi\n        /* \"src/BountyContract.sol\":9541:9568  percentages.length == count */\n      dup5\n      dup4\n      eq\n        /* \"src/BountyContract.sol\":9533:9589  require(percentages.length == count, \"Percent mismatch\") */\n      tag_228\n      jumpi\n      mload(0x40)\n      shl(0xe5, 0x461bcd)\n      dup2\n      mstore\n        /* \"#utility.yul\":12060:12062   */\n      0x20\n        /* \"src/BountyContract.sol\":9533:9589  require(percentages.length == count, \"Percent mismatch\") */\n      0x04\n      dup3\n      add\n        /* \"#utility.yul\":12042:12063   */\n      mstore\n        /* \"#utility.yul\":12099:12101   */\n      0x10\n        /* \"#utility.yul\":12079:12097   */\n      0x24\n      dup3\n      add\n        /* \"#utility.yul\":12072:12102   */\n      mstore\n      shl(0x83, 0x0a0cae4c6cadce840dad2e6dac2e8c6d)\n        /* \"#utility.yul\":12118:12136   */\n      0x44\n      dup3\n      add\n        /* \"#utility.yul\":12111:12157   */\n      mstore\n        /* \"#utility.yul\":12174:12192   */\n      0x64\n      add\n        /* \"src/BountyContract.sol\":9533:9589  require(percentages.length == count, \"Percent mismatch\") */\n      tag_114\n        /* \"#utility.yul\":11858:12198   */\n      jump\n        /* \"src/BountyContract.sol\":9533:9589  require(percentages.length == count, \"Percent mismatch\") */\n    tag_228:\n        /* \"src/BountyContract.sol\":9604:9624  uint256 totalPercent */\n      0x00\n      dup1\n        /* \"src/BountyContract.sol\":9639:9738  for (uint256 i = 0; i < count; i++) {... */\n    tag_231:\n        /* \"src/BountyContract.sol\":9663:9668  count */\n      dup5\n        /* \"src/BountyContract.sol\":9659:9660  i */\n      dup2\n        /* \"src/BountyContract.sol\":9659:9668  i < count */\n      lt\n        /* \"src/BountyContract.sol\":9639:9738  for (uint256 i = 0; i < count; i++) {... */\n      iszero\n      tag_232\n      jumpi\n        /* \"src/BountyContract.sol\":9709:9720  percentages */\n      dup8\n      dup8\n        /* \"src/BountyContract.sol\":9721:9722  i */\n      dup3\n        /* \"src/BountyContract.sol\":9709:9723  percentages[i] */\n      dup2\n      dup2\n      lt\n      tag_235\n      jumpi\n      tag_235\n      tag_184\n      jump\t// in\n    tag_235:\n      swap1\n      pop\n      0x20\n      mul\n      add\n      calldataload\n        /* \"src/BountyContract.sol\":9693:9723  totalPercent += percentages[i] */\n      dup3\n      tag_236\n      swap2\n      swap1\n      tag_121\n      jump\t// in\n    tag_236:\n      swap2\n      pop\n        /* \"src/BountyContract.sol\":9670:9673  i++ */\n      0x01\n      add\n        /* \"src/BountyContract.sol\":9639:9738  for (uint256 i = 0; i < count; i++) {... */\n      jump(tag_231)\n    tag_232:\n      pop\n        /* \"src/BountyContract.sol\":9760:9772  totalPercent */\n      dup1\n        /* \"src/BountyContract.sol\":9776:9779  100 */\n      0x64\n        /* \"src/BountyContract.sol\":9760:9779  totalPercent == 100 */\n      eq\n        /* \"src/BountyContract.sol\":9752:9806  require(totalPercent == 100, \"Percent must equal 100\") */\n      tag_237\n      jumpi\n      mload(0x40)\n      shl(0xe5, 0x461bcd)\n      dup2\n      mstore\n        /* \"#utility.yul\":12405:12407   */\n      0x20\n        /* \"src/BountyContract.sol\":9752:9806  require(totalPercent == 100, \"Percent must equal 100\") */\n      0x04\n      dup3\n      add\n        /* \"#utility.yul\":12387:12408   */\n      mstore\n        /* \"#utility.yul\":12444:12446   */\n      0x16\n        /* \"#utility.yul\":12424:12442   */\n      0x24\n      dup3\n      add\n        /* \"#utility.yul\":12417:12447   */\n      mstore\n      shl(0x54, 0x050657263656e74206d75737420657175616c2031303)\n        /* \"#utility.yul\":12463:12481   */\n      0x44\n      dup3\n      add\n        /* \"#utility.yul\":12456:12508   */\n      mstore\n        /* \"#utility.yul\":12525:12543   */\n      0x64\n      add\n        /* \"src/BountyContract.sol\":9752:9806  require(totalPercent == 100, \"Percent must equal 100\") */\n      tag_114\n        /* \"#utility.yul\":12203:12549   */\n      jump\n        /* \"src/BountyContract.sol\":9752:9806  require(totalPercent == 100, \"Percent must equal 100\") */\n    tag_237:\n        /* \"src/BountyContract.sol\":9826:9835  uint256 i */\n      0x00\n        /* \"src/BountyContract.sol\":9821:10044  for (uint256 i = 0; i < count; i++) {... */\n    tag_240:\n        /* \"src/BountyContract.sol\":9845:9850  count */\n      dup5\n        /* \"src/BountyContract.sol\":9841:9842  i */\n      dup2\n        /* \"src/BountyContract.sol\":9841:9850  i < count */\n      lt\n        /* \"src/BountyContract.sol\":9821:10044  for (uint256 i = 0; i < count; i++) {... */\n      iszero\n      tag_209\n      jumpi\n        /* \"src/BountyContract.sol\":9875:9889  uint256 payout */\n      0x00\n        /* \"src/BountyContract.sol\":9920:9923  100 */\n      0x64\n        /* \"src/BountyContract.sol\":9902:9913  percentages */\n      dup10\n      dup10\n        /* \"src/BountyContract.sol\":9914:9915  i */\n      dup5\n        /* \"src/BountyContract.sol\":9902:9916  percentages[i] */\n      dup2\n      dup2\n      lt\n      tag_244\n      jumpi\n      tag_244\n      tag_184\n      jump\t// in\n    tag_244:\n      swap1\n      pop\n      0x20\n      mul\n      add\n      calldataload\n        /* \"src/BountyContract.sol\":9893:9899  reward */\n      dup7\n        /* \"src/BountyContract.sol\":9893:9916  reward * percentages[i] */\n      tag_245\n      swap2\n      swap1\n      tag_117\n      jump\t// in\n    tag_245:\n        /* \"src/BountyContract.sol\":9892:9923  (reward * percentages[i]) / 100 */\n      tag_246\n      swap2\n      swap1\n      tag_119\n      jump\t// in\n    tag_246:\n        /* \"src/BountyContract.sol\":9942:9968  claimableRewards[bountyId] */\n      0x00\n      dup14\n      dup2\n      mstore\n        /* \"src/BountyContract.sol\":9942:9958  claimableRewards */\n      0x07\n        /* \"src/BountyContract.sol\":9942:9968  claimableRewards[bountyId] */\n      0x20\n      mstore\n      0x40\n      dup2\n      keccak256\n        /* \"src/BountyContract.sol\":9875:9923  uint256 payout = (reward * percentages[i]) / 100 */\n      swap2\n      swap3\n      pop\n      dup3\n      swap2\n        /* \"src/BountyContract.sol\":9942:9968  claimableRewards[bountyId] */\n      swap1\n        /* \"src/BountyContract.sol\":9969:9976  winners */\n      dup14\n      dup14\n        /* \"src/BountyContract.sol\":9977:9978  i */\n      dup7\n        /* \"src/BountyContract.sol\":9969:9979  winners[i] */\n      dup2\n      dup2\n      lt\n      tag_248\n      jumpi\n      tag_248\n      tag_184\n      jump\t// in\n    tag_248:\n      swap1\n      pop\n      0x20\n      mul\n      add\n      0x20\n      dup2\n      add\n      swap1\n      tag_249\n      swap2\n      swap1\n      tag_106\n      jump\t// in\n    tag_249:\n      sub(shl(0xa0, 0x01), 0x01)\n        /* \"src/BountyContract.sol\":9942:9980  claimableRewards[bountyId][winners[i]] */\n      and\n      dup2\n      mstore\n      0x20\n      dup2\n      add\n      swap2\n      swap1\n      swap2\n      mstore\n      0x40\n      add\n      0x00\n      keccak256\n        /* \"src/BountyContract.sol\":9942:9989  claimableRewards[bountyId][winners[i]] = payout */\n      sstore\n        /* \"src/BountyContract.sol\":10008:10029  distributed += payout */\n      tag_250\n        /* \"src/BountyContract.sol\":10023:10029  payout */\n      dup2\n        /* \"src/BountyContract.sol\":10008:10029  distributed += payout */\n      dup6\n      tag_121\n      jump\t// in\n    tag_250:\n      swap4\n      pop\n      pop\n        /* \"src/BountyContract.sol\":9852:9855  i++ */\n      0x01\n      add\n        /* \"src/BountyContract.sol\":9821:10044  for (uint256 i = 0; i < count; i++) {... */\n      jump(tag_240)\n        /* \"src/BountyContract.sol\":9465:10231  if (bounty.payoutType == PayoutType.MULTI_PERCENTAGE) {... */\n    tag_227:\n        /* \"src/BountyContract.sol\":10191:10220  revert(\"Invalid payout type\") */\n      mload(0x40)\n      shl(0xe5, 0x461bcd)\n      dup2\n      mstore\n        /* \"#utility.yul\":12756:12758   */\n      0x20\n        /* \"src/BountyContract.sol\":10191:10220  revert(\"Invalid payout type\") */\n      0x04\n      dup3\n      add\n        /* \"#utility.yul\":12738:12759   */\n      mstore\n        /* \"#utility.yul\":12795:12797   */\n      0x13\n        /* \"#utility.yul\":12775:12793   */\n      0x24\n      dup3\n      add\n        /* \"#utility.yul\":12768:12798   */\n      mstore\n      shl(0x68, 0x496e76616c6964207061796f75742074797065)\n        /* \"#utility.yul\":12814:12832   */\n      0x44\n      dup3\n      add\n        /* \"#utility.yul\":12807:12856   */\n      mstore\n        /* \"#utility.yul\":12873:12891   */\n      0x64\n      add\n        /* \"src/BountyContract.sol\":10191:10220  revert(\"Invalid payout type\") */\n      tag_114\n        /* \"#utility.yul\":12554:12897   */\n      jump\n        /* \"src/BountyContract.sol\":9465:10231  if (bounty.payoutType == PayoutType.MULTI_PERCENTAGE) {... */\n    tag_257:\n        /* \"src/BountyContract.sol\":10241:10263  bounty.rewardsAssigned */\n      0x04\n      dup5\n      add\n        /* \"src/BountyContract.sol\":10241:10270  bounty.rewardsAssigned = true */\n      dup1\n      sload\n      not(0xff)\n      and\n        /* \"src/BountyContract.sol\":10266:10270  true */\n      0x01\n        /* \"src/BountyContract.sol\":10241:10270  bounty.rewardsAssigned = true */\n      or\n      swap1\n      sstore\n        /* \"src/BountyContract.sol\":10286:10311  RewardsAssigned(bountyId) */\n      mload(0x40)\n      0x6dab96af34df7ddd951654f9a9a6f37e2aee879986b24166d40d7a6f13687ebd\n      swap1\n      tag_260\n      swap1\n        /* \"src/BountyContract.sol\":10302:10310  bountyId */\n      dup12\n        /* \"#utility.yul\":806:831   */\n      dup2\n      mstore\n        /* \"#utility.yul\":794:796   */\n      0x20\n        /* \"#utility.yul\":779:797   */\n      add\n      swap1\n        /* \"#utility.yul\":660:837   */\n      jump\n        /* \"src/BountyContract.sol\":10286:10311  RewardsAssigned(bountyId) */\n    tag_260:\n      mload(0x40)\n      dup1\n      swap2\n      sub\n      swap1\n      log1\n        /* \"src/BountyContract.sol\":7643:10318  {... */\n      pop\n      pop\n      pop\n      pop\n        /* \"src/BountyContract.sol\":7495:10318  function assignMultipleWinners(... */\n      pop\n      pop\n      pop\n      pop\n      pop\n      jump\t// out\n        /* \"src/BountyContract.sol\":2420:2449  bytes32[] public allBountyIds */\n    tag_48:\n      0x06\n      dup2\n      dup2\n      sload\n      dup2\n      lt\n      tag_261\n      jumpi\n      0x00\n      dup1\n      revert\n    tag_261:\n      0x00\n      swap2\n      dup3\n      mstore\n      0x20\n      swap1\n      swap2\n      keccak256\n      add\n      sload\n      swap1\n      pop\n      dup2\n      jump\t// out\n        /* \"lib/openzeppelin-contracts/contracts/access/Ownable.sol\":2293:2394  function renounceOwnership() public virtual onlyOwner {... */\n    tag_56:\n        /* \"lib/openzeppelin-contracts/contracts/access/Ownable.sol\":1531:1544  _checkOwner() */\n      tag_264\n        /* \"lib/openzeppelin-contracts/contracts/access/Ownable.sol\":1531:1542  _checkOwner */\n      tag_265\n        /* \"lib/openzeppelin-contracts/contracts/access/Ownable.sol\":1531:1544  _checkOwner() */\n      jump\t// in\n    tag_264:\n        /* \"lib/openzeppelin-contracts/contracts/access/Ownable.sol\":2357:2387  _transferOwnership(address(0)) */\n      tag_267\n        /* \"lib/openzeppelin-contracts/contracts/access/Ownable.sol\":2384:2385  0 */\n      0x00\n        /* \"lib/openzeppelin-contracts/contracts/access/Ownable.sol\":2357:2375  _transferOwnership */\n      tag_268\n        /* \"lib/openzeppelin-contracts/contracts/access/Ownable.sol\":2357:2387  _transferOwnership(address(0)) */\n      jump\t// in\n    tag_267:\n        /* \"lib/openzeppelin-contracts/contracts/access/Ownable.sol\":2293:2394  function renounceOwnership() public virtual onlyOwner {... */\n      jump\t// out\n        /* \"src/BountyContract.sol\":6650:7284  function assignSingleWinner(bytes32 bountyId, address winner) external {... */\n    tag_70:\n        /* \"src/BountyContract.sol\":6731:6752  Bounty storage bounty */\n      0x00\n        /* \"src/BountyContract.sol\":6755:6773  bounties[bountyId] */\n      dup3\n      dup2\n      mstore\n        /* \"src/BountyContract.sol\":6755:6763  bounties */\n      0x05\n        /* \"src/BountyContract.sol\":6755:6773  bounties[bountyId] */\n      0x20\n      mstore\n      0x40\n      swap1\n      keccak256\n        /* \"src/BountyContract.sol\":6819:6833  bounty.creator */\n      0x02\n      dup2\n      add\n      sload\n      0x010000\n      swap1\n      div\n      sub(shl(0xa0, 0x01), 0x01)\n      and\n        /* \"src/BountyContract.sol\":6805:6815  msg.sender */\n      caller\n        /* \"src/BountyContract.sol\":6805:6833  msg.sender == bounty.creator */\n      eq\n      dup1\n        /* \"src/BountyContract.sol\":6805:6858  msg.sender == bounty.creator || msg.sender == owner() */\n      tag_271\n      jumpi\n      pop\n        /* \"lib/openzeppelin-contracts/contracts/access/Ownable.sol\":1684:1691  address */\n      0x00\n        /* \"lib/openzeppelin-contracts/contracts/access/Ownable.sol\":1710:1716  _owner */\n      sload\n      sub(shl(0xa0, 0x01), 0x01)\n      and\n        /* \"src/BountyContract.sol\":6837:6847  msg.sender */\n      caller\n        /* \"src/BountyContract.sol\":6837:6858  msg.sender == owner() */\n      eq\n        /* \"src/BountyContract.sol\":6805:6858  msg.sender == bounty.creator || msg.sender == owner() */\n    tag_271:\n        /* \"src/BountyContract.sol\":6784:6896  require(... */\n      tag_273\n      jumpi\n      mload(0x40)\n      shl(0xe5, 0x461bcd)\n      dup2\n      mstore\n        /* \"#utility.yul\":9730:9732   */\n      0x20\n        /* \"src/BountyContract.sol\":6784:6896  require(... */\n      0x04\n      dup3\n      add\n        /* \"#utility.yul\":9712:9733   */\n      mstore\n        /* \"#utility.yul\":9769:9771   */\n      0x0c\n        /* \"#utility.yul\":9749:9767   */\n      0x24\n      dup3\n      add\n        /* \"#utility.yul\":9742:9772   */\n      mstore\n      shl(0xa2, 0x155b985d5d1a1bdc9a5e9959)\n        /* \"#utility.yul\":9788:9806   */\n      0x44\n      dup3\n      add\n        /* \"#utility.yul\":9781:9823   */\n      mstore\n        /* \"#utility.yul\":9840:9858   */\n      0x64\n      add\n        /* \"src/BountyContract.sol\":6784:6896  require(... */\n      tag_114\n        /* \"#utility.yul\":9528:9864   */\n      jump\n        /* \"src/BountyContract.sol\":6784:6896  require(... */\n    tag_273:\n        /* \"src/BountyContract.sol\":6916:6938  bounty.rewardsAssigned */\n      0x04\n      dup2\n      add\n      sload\n      0xff\n      and\n        /* \"src/BountyContract.sol\":6915:6938  !bounty.rewardsAssigned */\n      iszero\n        /* \"src/BountyContract.sol\":6907:6959  require(!bounty.rewardsAssigned, \"Already assigned\") */\n      tag_275\n      jumpi\n      mload(0x40)\n      shl(0xe5, 0x461bcd)\n      dup2\n      mstore\n        /* \"#utility.yul\":10071:10073   */\n      0x20\n        /* \"src/BountyContract.sol\":6907:6959  require(!bounty.rewardsAssigned, \"Already assigned\") */\n      0x04\n      dup3\n      add\n        /* \"#utility.yul\":10053:10074   */\n      mstore\n        /* \"#utility.yul\":10110:10112   */\n      0x10\n        /* \"#utility.yul\":10090:10108   */\n      0x24\n      dup3\n      add\n        /* \"#utility.yul\":10083:10113   */\n      mstore\n      shl(0x82, 0x105b1c9958591e48185cdcda59db9959)\n        /* \"#utility.yul\":10129:10147   */\n      0x44\n      dup3\n      add\n        /* \"#utility.yul\":10122:10168   */\n      mstore\n        /* \"#utility.yul\":10185:10203   */\n      0x64\n      add\n        /* \"src/BountyContract.sol\":6907:6959  require(!bounty.rewardsAssigned, \"Already assigned\") */\n      tag_114\n        /* \"#utility.yul\":9869:10209   */\n      jump\n        /* \"src/BountyContract.sol\":6907:6959  require(!bounty.rewardsAssigned, \"Already assigned\") */\n    tag_275:\n        /* \"src/BountyContract.sol\":6999:7016  PayoutType.SINGLE */\n      0x00\n        /* \"src/BountyContract.sol\":6978:6995  bounty.payoutType */\n      0x02\n      dup3\n      dup2\n      add\n      sload\n      0x0100\n      swap1\n      div\n      0xff\n      and\n      swap1\n        /* \"src/BountyContract.sol\":6978:7016  bounty.payoutType == PayoutType.SINGLE */\n      dup2\n      gt\n      iszero\n      tag_280\n      jumpi\n      tag_280\n      tag_124\n      jump\t// in\n    tag_280:\n      eq\n        /* \"src/BountyContract.sol\":6970:7040  require(bounty.payoutType == PayoutType.SINGLE, \"Invalid payout type\") */\n      tag_281\n      jumpi\n      mload(0x40)\n      shl(0xe5, 0x461bcd)\n      dup2\n      mstore\n        /* \"#utility.yul\":12756:12758   */\n      0x20\n        /* \"src/BountyContract.sol\":6970:7040  require(bounty.payoutType == PayoutType.SINGLE, \"Invalid payout type\") */\n      0x04\n      dup3\n      add\n        /* \"#utility.yul\":12738:12759   */\n      mstore\n        /* \"#utility.yul\":12795:12797   */\n      0x13\n        /* \"#utility.yul\":12775:12793   */\n      0x24\n      dup3\n      add\n        /* \"#utility.yul\":12768:12798   */\n      mstore\n      shl(0x68, 0x496e76616c6964207061796f75742074797065)\n        /* \"#utility.yul\":12814:12832   */\n      0x44\n      dup3\n      add\n        /* \"#utility.yul\":12807:12856   */\n      mstore\n        /* \"#utility.yul\":12873:12891   */\n      0x64\n      add\n        /* \"src/BountyContract.sol\":6970:7040  require(bounty.payoutType == PayoutType.SINGLE, \"Invalid payout type\") */\n      tag_114\n        /* \"#utility.yul\":12554:12897   */\n      jump\n        /* \"src/BountyContract.sol\":6970:7040  require(bounty.payoutType == PayoutType.SINGLE, \"Invalid payout type\") */\n    tag_281:\n      sub(shl(0xa0, 0x01), 0x01)\n        /* \"src/BountyContract.sol\":7059:7079  winner != address(0) */\n      dup3\n      and\n        /* \"src/BountyContract.sol\":7051:7098  require(winner != address(0), \"Invalid winner\") */\n      tag_283\n      jumpi\n      mload(0x40)\n      shl(0xe5, 0x461bcd)\n      dup2\n      mstore\n        /* \"#utility.yul\":11239:11241   */\n      0x20\n        /* \"src/BountyContract.sol\":7051:7098  require(winner != address(0), \"Invalid winner\") */\n      0x04\n      dup3\n      add\n        /* \"#utility.yul\":11221:11242   */\n      mstore\n        /* \"#utility.yul\":11278:11280   */\n      0x0e\n        /* \"#utility.yul\":11258:11276   */\n      0x24\n      dup3\n      add\n        /* \"#utility.yul\":11251:11281   */\n      mstore\n      shl(0x91, 0x24b73b30b634b2103bb4b73732b9)\n        /* \"#utility.yul\":11297:11315   */\n      0x44\n      dup3\n      add\n        /* \"#utility.yul\":11290:11334   */\n      mstore\n        /* \"#utility.yul\":11351:11369   */\n      0x64\n      add\n        /* \"src/BountyContract.sol\":7051:7098  require(winner != address(0), \"Invalid winner\") */\n      tag_114\n        /* \"#utility.yul\":11037:11375   */\n      jump\n        /* \"src/BountyContract.sol\":7051:7098  require(winner != address(0), \"Invalid winner\") */\n    tag_283:\n        /* \"src/BountyContract.sol\":7146:7159  bounty.reward */\n      dup1\n      sload\n      0x00\n        /* \"src/BountyContract.sol\":7109:7135  claimableRewards[bountyId] */\n      dup5\n      dup2\n      mstore\n        /* \"src/BountyContract.sol\":7109:7125  claimableRewards */\n      0x07\n        /* \"src/BountyContract.sol\":7109:7135  claimableRewards[bountyId] */\n      0x20\n      swap1\n      dup2\n      mstore\n      0x40\n      dup1\n      dup4\n      keccak256\n      sub(shl(0xa0, 0x01), 0x01)\n        /* \"src/BountyContract.sol\":7109:7143  claimableRewards[bountyId][winner] */\n      dup8\n      and\n      dup1\n      dup6\n      mstore\n      swap1\n      dup4\n      mstore\n      dup2\n      dup5\n      keccak256\n        /* \"src/BountyContract.sol\":7109:7159  claimableRewards[bountyId][winner] = bounty.reward */\n      swap5\n      swap1\n      swap5\n      sstore\n        /* \"src/BountyContract.sol\":7169:7183  bounty.winners */\n      0x03\n      dup6\n      add\n        /* \"src/BountyContract.sol\":7169:7196  bounty.winners.push(winner) */\n      dup1\n      sload\n      0x01\n      dup1\n      dup3\n      add\n      dup4\n      sstore\n      swap2\n      dup6\n      mstore\n      swap4\n      dup4\n      swap1\n      keccak256\n      swap1\n      swap4\n      add\n      dup1\n      sload\n      not(sub(shl(0xa0, 0x01), 0x01))\n      and\n      swap1\n      swap5\n      or\n      swap1\n      swap4\n      sstore\n        /* \"src/BountyContract.sol\":7207:7229  bounty.rewardsAssigned */\n      0x04\n      dup5\n      add\n        /* \"src/BountyContract.sol\":7207:7236  bounty.rewardsAssigned = true */\n      dup1\n      sload\n      not(0xff)\n      and\n      swap1\n      swap3\n      or\n      swap1\n      swap2\n      sstore\n        /* \"src/BountyContract.sol\":7252:7277  RewardsAssigned(bountyId) */\n      swap1\n      mload\n        /* \"#utility.yul\":806:831   */\n      dup5\n      dup2\n      mstore\n        /* \"src/BountyContract.sol\":7252:7277  RewardsAssigned(bountyId) */\n      0x6dab96af34df7ddd951654f9a9a6f37e2aee879986b24166d40d7a6f13687ebd\n      swap2\n        /* \"#utility.yul\":779:797   */\n      add\n        /* \"src/BountyContract.sol\":7252:7277  RewardsAssigned(bountyId) */\n      mload(0x40)\n      dup1\n      swap2\n      sub\n      swap1\n      log1\n        /* \"src/BountyContract.sol\":6721:7284  {... */\n      pop\n        /* \"src/BountyContract.sol\":6650:7284  function assignSingleWinner(bytes32 bountyId, address winner) external {... */\n      pop\n      pop\n      jump\t// out\n        /* \"src/BountyContract.sol\":13045:13913  function withdraw(... */\n    tag_75:\n        /* \"lib/openzeppelin-contracts/contracts/utils/ReentrancyGuard.sol\":3023:3044  _nonReentrantBefore() */\n      tag_288\n        /* \"lib/openzeppelin-contracts/contracts/utils/ReentrancyGuard.sol\":3023:3042  _nonReentrantBefore */\n      tag_289\n        /* \"lib/openzeppelin-contracts/contracts/utils/ReentrancyGuard.sol\":3023:3044  _nonReentrantBefore() */\n      jump\t// in\n    tag_288:\n        /* \"lib/openzeppelin-contracts/contracts/access/Ownable.sol\":1531:1544  _checkOwner() */\n      tag_291\n        /* \"lib/openzeppelin-contracts/contracts/access/Ownable.sol\":1531:1542  _checkOwner */\n      tag_265\n        /* \"lib/openzeppelin-contracts/contracts/access/Ownable.sol\":1531:1544  _checkOwner() */\n      jump\t// in\n    tag_291:\n      sub(shl(0xa0, 0x01), 0x01)\n        /* \"src/BountyContract.sol\":13175:13198  recipient != address(0) */\n      dup2\n      and\n        /* \"src/BountyContract.sol\":13167:13218  require(recipient != address(0), \"Invalid address\") */\n      tag_293\n      jumpi\n      mload(0x40)\n      shl(0xe5, 0x461bcd)\n      dup2\n      mstore\n        /* \"#utility.yul\":13104:13106   */\n      0x20\n        /* \"src/BountyContract.sol\":13167:13218  require(recipient != address(0), \"Invalid address\") */\n      0x04\n      dup3\n      add\n        /* \"#utility.yul\":13086:13107   */\n      mstore\n        /* \"#utility.yul\":13143:13145   */\n      0x0f\n        /* \"#utility.yul\":13123:13141   */\n      0x24\n      dup3\n      add\n        /* \"#utility.yul\":13116:13146   */\n      mstore\n      shl(0x88, 0x496e76616c69642061646472657373)\n        /* \"#utility.yul\":13162:13180   */\n      0x44\n      dup3\n      add\n        /* \"#utility.yul\":13155:13200   */\n      mstore\n        /* \"#utility.yul\":13217:13235   */\n      0x64\n      add\n        /* \"src/BountyContract.sol\":13167:13218  require(recipient != address(0), \"Invalid address\") */\n      tag_114\n        /* \"#utility.yul\":12902:13241   */\n      jump\n        /* \"src/BountyContract.sol\":13167:13218  require(recipient != address(0), \"Invalid address\") */\n    tag_293:\n        /* \"src/BountyContract.sol\":13246:13259  TokenType.ETH */\n      0x00\n        /* \"src/BountyContract.sol\":13233:13242  tokenType */\n      dup3\n        /* \"src/BountyContract.sol\":13233:13259  tokenType == TokenType.ETH */\n      0x01\n      dup2\n      gt\n      iszero\n      tag_299\n      jumpi\n      tag_299\n      tag_124\n      jump\t// in\n    tag_299:\n      sub\n        /* \"src/BountyContract.sol\":13229:13907  if (tokenType == TokenType.ETH) {... */\n      tag_300\n      jumpi\n        /* \"src/BountyContract.sol\":13292:13304  totalEthFees */\n      sload(0x03)\n        /* \"src/BountyContract.sol\":13327:13337  amount > 0 */\n      dup1\n        /* \"src/BountyContract.sol\":13319:13349  require(amount > 0, \"No fees\") */\n      tag_301\n      jumpi\n      mload(0x40)\n      shl(0xe5, 0x461bcd)\n      dup2\n      mstore\n        /* \"#utility.yul\":13448:13450   */\n      0x20\n        /* \"src/BountyContract.sol\":13319:13349  require(amount > 0, \"No fees\") */\n      0x04\n      dup3\n      add\n        /* \"#utility.yul\":13430:13451   */\n      mstore\n        /* \"#utility.yul\":13487:13488   */\n      0x07\n        /* \"#utility.yul\":13467:13485   */\n      0x24\n      dup3\n      add\n        /* \"#utility.yul\":13460:13489   */\n      mstore\n      shl(0xc8, 0x4e6f2066656573)\n        /* \"#utility.yul\":13505:13523   */\n      0x44\n      dup3\n      add\n        /* \"#utility.yul\":13498:13535   */\n      mstore\n        /* \"#utility.yul\":13552:13570   */\n      0x64\n      add\n        /* \"src/BountyContract.sol\":13319:13349  require(amount > 0, \"No fees\") */\n      tag_114\n        /* \"#utility.yul\":13246:13576   */\n      jump\n        /* \"src/BountyContract.sol\":13319:13349  require(amount > 0, \"No fees\") */\n    tag_301:\n        /* \"src/BountyContract.sol\":13379:13380  0 */\n      0x00\n        /* \"src/BountyContract.sol\":13364:13376  totalEthFees */\n      0x03\n        /* \"src/BountyContract.sol\":13364:13380  totalEthFees = 0 */\n      dup2\n      swap1\n      sstore\n        /* \"src/BountyContract.sol\":13458:13491  recipient.call{value: amount}(\"\") */\n      mload(0x40)\n      sub(shl(0xa0, 0x01), 0x01)\n        /* \"src/BountyContract.sol\":13458:13472  recipient.call */\n      dup5\n      and\n      swap1\n        /* \"src/BountyContract.sol\":13480:13486  amount */\n      dup4\n      swap1\n        /* \"src/BountyContract.sol\":13379:13380  0 */\n      dup4\n        /* \"src/BountyContract.sol\":13458:13491  recipient.call{value: amount}(\"\") */\n      dup2\n        /* \"src/BountyContract.sol\":13379:13380  0 */\n      dup2\n        /* \"src/BountyContract.sol\":13458:13491  recipient.call{value: amount}(\"\") */\n      dup2\n        /* \"src/BountyContract.sol\":13480:13486  amount */\n      dup6\n        /* \"src/BountyContract.sol\":13458:13472  recipient.call */\n      dup8\n        /* \"src/BountyContract.sol\":13458:13491  recipient.call{value: amount}(\"\") */\n      gas\n      call\n      swap3\n      pop\n      pop\n      pop\n      returndatasize\n      dup1\n      0x00\n      dup2\n      eq\n      tag_308\n      jumpi\n      mload(0x40)\n      swap2\n      pop\n      and(add(returndatasize, 0x3f), not(0x1f))\n      dup3\n      add\n      0x40\n      mstore\n      returndatasize\n      dup3\n      mstore\n      returndatasize\n      0x00\n      0x20\n      dup5\n      add\n      returndatacopy\n      jump(tag_307)\n    tag_308:\n      0x60\n      swap2\n      pop\n    tag_307:\n      pop\n        /* \"src/BountyContract.sol\":13442:13491  (bool sent, ) = recipient.call{value: amount}(\"\") */\n      pop\n      swap1\n      pop\n        /* \"src/BountyContract.sol\":13514:13518  sent */\n      dup1\n        /* \"src/BountyContract.sol\":13506:13538  require(sent, \"Withdraw failed\") */\n      tag_309\n      jumpi\n      mload(0x40)\n      shl(0xe5, 0x461bcd)\n      dup2\n      mstore\n        /* \"#utility.yul\":13993:13995   */\n      0x20\n        /* \"src/BountyContract.sol\":13506:13538  require(sent, \"Withdraw failed\") */\n      0x04\n      dup3\n      add\n        /* \"#utility.yul\":13975:13996   */\n      mstore\n        /* \"#utility.yul\":14032:14034   */\n      0x0f\n        /* \"#utility.yul\":14012:14030   */\n      0x24\n      dup3\n      add\n        /* \"#utility.yul\":14005:14035   */\n      mstore\n      shl(0x8a, 0x15da5d1a191c985dc819985a5b1959)\n        /* \"#utility.yul\":14051:14069   */\n      0x44\n      dup3\n      add\n        /* \"#utility.yul\":14044:14089   */\n      mstore\n        /* \"#utility.yul\":14106:14124   */\n      0x64\n      add\n        /* \"src/BountyContract.sol\":13506:13538  require(sent, \"Withdraw failed\") */\n      tag_114\n        /* \"#utility.yul\":13791:14130   */\n      jump\n        /* \"src/BountyContract.sol\":13506:13538  require(sent, \"Withdraw failed\") */\n    tag_309:\n        /* \"src/BountyContract.sol\":13558:13596  FeeWithdrawn(recipient, amount, \"ETH\") */\n      0x40\n      dup1\n      mload\n      sub(shl(0xa0, 0x01), 0x01)\n        /* \"#utility.yul\":14393:14425   */\n      dup6\n      and\n        /* \"#utility.yul\":14375:14426   */\n      dup2\n      mstore\n        /* \"#utility.yul\":14457:14459   */\n      0x20\n        /* \"#utility.yul\":14442:14460   */\n      dup2\n      add\n        /* \"#utility.yul\":14435:14469   */\n      dup5\n      swap1\n      mstore\n        /* \"#utility.yul\":14505:14507   */\n      0x60\n        /* \"#utility.yul\":14485:14503   */\n      dup2\n      dup4\n      add\n        /* \"#utility.yul\":14478:14508   */\n      dup2\n      swap1\n      mstore\n        /* \"#utility.yul\":14544:14545   */\n      0x03\n        /* \"#utility.yul\":14524:14542   */\n      swap1\n      dup3\n      add\n        /* \"#utility.yul\":14517:14546   */\n      mstore\n      shl(0xeb, 0x08aa89)\n        /* \"#utility.yul\":14577:14580   */\n      0x80\n        /* \"#utility.yul\":14562:14581   */\n      dup3\n      add\n        /* \"#utility.yul\":14555:14589   */\n      mstore\n        /* \"src/BountyContract.sol\":13558:13596  FeeWithdrawn(recipient, amount, \"ETH\") */\n      swap1\n      mload\n      0x936d8019acd8166d88a7a73ae09f4c93b665420206512807eae9130b0c6e3217\n      swap2\n      dup2\n      swap1\n      sub\n        /* \"#utility.yul\":14413:14416   */\n      0xa0\n        /* \"src/BountyContract.sol\":13558:13596  FeeWithdrawn(recipient, amount, \"ETH\") */\n      add\n      swap1\n      log1\n        /* \"src/BountyContract.sol\":13261:13607  {... */\n      pop\n      pop\n        /* \"src/BountyContract.sol\":13229:13907  if (tokenType == TokenType.ETH) {... */\n      jump(tag_314)\n    tag_300:\n        /* \"src/BountyContract.sol\":13644:13657  totalUsdcFees */\n      sload(0x04)\n        /* \"src/BountyContract.sol\":13680:13690  amount > 0 */\n      dup1\n        /* \"src/BountyContract.sol\":13672:13702  require(amount > 0, \"No fees\") */\n      tag_315\n      jumpi\n      mload(0x40)\n      shl(0xe5, 0x461bcd)\n      dup2\n      mstore\n        /* \"#utility.yul\":13448:13450   */\n      0x20\n        /* \"src/BountyContract.sol\":13672:13702  require(amount > 0, \"No fees\") */\n      0x04\n      dup3\n      add\n        /* \"#utility.yul\":13430:13451   */\n      mstore\n        /* \"#utility.yul\":13487:13488   */\n      0x07\n        /* \"#utility.yul\":13467:13485   */\n      0x24\n      dup3\n      add\n        /* \"#utility.yul\":13460:13489   */\n      mstore\n      shl(0xc8, 0x4e6f2066656573)\n        /* \"#utility.yul\":13505:13523   */\n      0x44\n      dup3\n      add\n        /* \"#utility.yul\":13498:13535   */\n      mstore\n        /* \"#utility.yul\":13552:13570   */\n      0x64\n      add\n        /* \"src/BountyContract.sol\":13672:13702  require(amount > 0, \"No fees\") */\n      tag_114\n        /* \"#utility.yul\":13246:13576   */\n      jump\n        /* \"src/BountyContract.sol\":13672:13702  require(amount > 0, \"No fees\") */\n    tag_315:\n        /* \"src/BountyContract.sol\":13733:13734  0 */\n      0x00\n        /* \"src/BountyContract.sol\":13717:13730  totalUsdcFees */\n      0x04\n        /* \"src/BountyContract.sol\":13717:13734  totalUsdcFees = 0 */\n      sstore\n        /* \"src/BountyContract.sol\":13796:13805  usdcToken */\n      sload(0x01)\n        /* \"src/BountyContract.sol\":13796:13837  usdcToken.safeTransfer(recipient, amount) */\n      tag_317\n      swap1\n      sub(shl(0xa0, 0x01), 0x01)\n        /* \"src/BountyContract.sol\":13796:13805  usdcToken */\n      and\n        /* \"src/BountyContract.sol\":13819:13828  recipient */\n      dup4\n        /* \"src/BountyContract.sol\":13830:13836  amount */\n      dup4\n        /* \"src/BountyContract.sol\":13796:13818  usdcToken.safeTransfer */\n      tag_318\n        /* \"src/BountyContract.sol\":13796:13837  usdcToken.safeTransfer(recipient, amount) */\n      jump\t// in\n    tag_317:\n        /* \"src/BountyContract.sol\":13857:13896  FeeWithdrawn(recipient, amount, \"USDC\") */\n      0x40\n      dup1\n      mload\n      sub(shl(0xa0, 0x01), 0x01)\n        /* \"#utility.yul\":14894:14926   */\n      dup5\n      and\n        /* \"#utility.yul\":14876:14927   */\n      dup2\n      mstore\n        /* \"#utility.yul\":14958:14960   */\n      0x20\n        /* \"#utility.yul\":14943:14961   */\n      dup2\n      add\n        /* \"#utility.yul\":14936:14970   */\n      dup4\n      swap1\n      mstore\n        /* \"#utility.yul\":15006:15008   */\n      0x60\n        /* \"#utility.yul\":14986:15004   */\n      dup2\n      dup4\n      add\n        /* \"#utility.yul\":14979:15009   */\n      dup2\n      swap1\n      mstore\n        /* \"#utility.yul\":15045:15046   */\n      0x04\n        /* \"#utility.yul\":15025:15043   */\n      swap1\n      dup3\n      add\n        /* \"#utility.yul\":15018:15047   */\n      mstore\n      shl(0xe0, 0x55534443)\n        /* \"#utility.yul\":15078:15081   */\n      0x80\n        /* \"#utility.yul\":15063:15082   */\n      dup3\n      add\n        /* \"#utility.yul\":15056:15091   */\n      mstore\n        /* \"src/BountyContract.sol\":13857:13896  FeeWithdrawn(recipient, amount, \"USDC\") */\n      swap1\n      mload\n      0x936d8019acd8166d88a7a73ae09f4c93b665420206512807eae9130b0c6e3217\n      swap2\n      dup2\n      swap1\n      sub\n        /* \"#utility.yul\":14914:14917   */\n      0xa0\n        /* \"src/BountyContract.sol\":13857:13896  FeeWithdrawn(recipient, amount, \"USDC\") */\n      add\n      swap1\n      log1\n        /* \"src/BountyContract.sol\":13613:13907  {... */\n      pop\n        /* \"src/BountyContract.sol\":13229:13907  if (tokenType == TokenType.ETH) {... */\n    tag_314:\n        /* \"lib/openzeppelin-contracts/contracts/utils/ReentrancyGuard.sol\":3065:3085  _nonReentrantAfter() */\n      tag_321\n        /* \"lib/openzeppelin-contracts/contracts/utils/ReentrancyGuard.sol\":2365:2366  1 */\n      0x01\n      mload(0x00)\n      codecopy(0x00, data_c8669cf8eaf883002b9f48e28846a8d408c9b58ea6613bace374265e43c9bc43, 0x20)\n      mload(0x00)\n      swap1\n      0x00\n      mstore\n        /* \"lib/openzeppelin-contracts/contracts/utils/ReentrancyGuard.sol\":3972:4034  _reentrancyGuardStorageSlot().getUint256Slot().value = ENTERED */\n      sstore\n        /* \"lib/openzeppelin-contracts/contracts/utils/ReentrancyGuard.sol\":3749:4041  function _nonReentrantBefore() private {... */\n      jump\n        /* \"lib/openzeppelin-contracts/contracts/utils/ReentrancyGuard.sol\":3065:3085  _nonReentrantAfter() */\n    tag_321:\n        /* \"src/BountyContract.sol\":13045:13913  function withdraw(... */\n      pop\n      pop\n      jump\t// out\n        /* \"src/BountyContract.sol\":13919:14025  function availableBounties() external view returns (bytes32[] memory) {... */\n    tag_84:\n        /* \"src/BountyContract.sol\":13971:13987  bytes32[] memory */\n      0x60\n        /* \"src/BountyContract.sol\":14006:14018  allBountyIds */\n      0x06\n        /* \"src/BountyContract.sol\":13999:14018  return allBountyIds */\n      dup1\n      sload\n      dup1\n      0x20\n      mul\n      0x20\n      add\n      mload(0x40)\n      swap1\n      dup2\n      add\n      0x40\n      mstore\n      dup1\n      swap3\n      swap2\n      swap1\n      dup2\n      dup2\n      mstore\n      0x20\n      add\n      dup3\n      dup1\n      sload\n      dup1\n      iszero\n      tag_324\n      jumpi\n      0x20\n      mul\n      dup3\n      add\n      swap2\n      swap1\n      0x00\n      mstore\n      keccak256(0x00, 0x20)\n      swap1\n    tag_325:\n      dup2\n      sload\n      dup2\n      mstore\n      0x20\n      add\n      swap1\n      0x01\n      add\n      swap1\n      dup1\n      dup4\n      gt\n      tag_325\n      jumpi\n    tag_324:\n      pop\n      pop\n      pop\n      pop\n      pop\n      swap1\n      pop\n        /* \"src/BountyContract.sol\":13919:14025  function availableBounties() external view returns (bytes32[] memory) {... */\n      swap1\n      jump\t// out\n        /* \"src/BountyContract.sol\":12156:12843  function getBountyInfo(... */\n    tag_91:\n        /* \"src/BountyContract.sol\":12271:12286  address creator */\n      0x00\n        /* \"src/BountyContract.sol\":12556:12574  bounties[bountyId] */\n      dup2\n      dup2\n      mstore\n        /* \"src/BountyContract.sol\":12556:12564  bounties */\n      0x05\n        /* \"src/BountyContract.sol\":12556:12574  bounties[bountyId] */\n      0x20\n      swap1\n      dup2\n      mstore\n      0x40\n      dup1\n      dup4\n      keccak256\n        /* \"src/BountyContract.sol\":12606:12620  bounty.creator */\n      0x02\n      dup2\n      add\n      sload\n        /* \"src/BountyContract.sol\":12662:12675  bounty.reward */\n      dup2\n      sload\n        /* \"src/BountyContract.sol\":12689:12699  bounty.fee */\n      0x01\n      dup4\n      add\n      sload\n        /* \"src/BountyContract.sol\":12713:12735  bounty.rewardsAssigned */\n      0x04\n      dup5\n      add\n      sload\n        /* \"src/BountyContract.sol\":12634:12648  bounty.winners */\n      0x03\n      dup6\n      add\n        /* \"src/BountyContract.sol\":12585:12836  return (... */\n      dup1\n      sload\n      dup8\n      mload\n      dup2\n      dup11\n      mul\n      dup2\n      add\n      dup11\n      add\n      swap1\n      swap9\n      mstore\n      dup1\n      dup9\n      mstore\n        /* \"src/BountyContract.sol\":12300:12324  address[] memory winners */\n      0x60\n      swap9\n        /* \"src/BountyContract.sol\":12271:12286  address creator */\n      dup11\n      swap9\n      dup10\n      swap9\n      dup10\n      swap9\n      dup10\n      swap9\n      dup10\n      swap9\n      dup10\n      swap9\n        /* \"src/BountyContract.sol\":12556:12574  bounties[bountyId] */\n      swap4\n      swap8\n      sub(shl(0xa0, 0x01), 0x01)\n        /* \"src/BountyContract.sol\":12606:12620  bounty.creator */\n      0x010000\n      dup6\n      div\n      and\n      swap8\n        /* \"src/BountyContract.sol\":12634:12648  bounty.winners */\n      swap1\n      swap7\n        /* \"src/BountyContract.sol\":12662:12675  bounty.reward */\n      swap3\n      swap6\n        /* \"src/BountyContract.sol\":12689:12699  bounty.fee */\n      swap2\n      swap5\n        /* \"src/BountyContract.sol\":12713:12735  bounty.rewardsAssigned */\n      0xff\n      dup1\n      dup3\n      and\n      swap6\n        /* \"src/BountyContract.sol\":12606:12620  bounty.creator */\n      0x0100\n        /* \"src/BountyContract.sol\":12749:12765  bounty.isClaimed */\n      swap3\n      dup4\n      swap1\n      div\n      dup3\n      and\n      swap6\n        /* \"src/BountyContract.sol\":12779:12795  bounty.tokenType */\n      dup3\n      dup3\n      and\n      swap6\n        /* \"src/BountyContract.sol\":12809:12826  bounty.payoutType */\n      swap4\n      swap1\n      swap2\n      div\n      swap1\n      swap2\n      and\n      swap3\n        /* \"src/BountyContract.sol\":12634:12648  bounty.winners */\n      dup10\n      swap2\n        /* \"src/BountyContract.sol\":12585:12836  return (... */\n      dup4\n      add\n        /* \"src/BountyContract.sol\":12634:12648  bounty.winners */\n      dup3\n        /* \"src/BountyContract.sol\":12585:12836  return (... */\n      dup3\n      dup1\n      iszero\n      tag_327\n      jumpi\n      0x20\n      mul\n      dup3\n      add\n      swap2\n      swap1\n      0x00\n      mstore\n      keccak256(0x00, 0x20)\n      swap1\n    tag_328:\n      dup2\n      sload\n      sub(shl(0xa0, 0x01), 0x01)\n      and\n      dup2\n      mstore\n      0x01\n      swap1\n      swap2\n      add\n      swap1\n      0x20\n      add\n      dup1\n      dup4\n      gt\n      tag_328\n      jumpi\n    tag_327:\n      pop\n      pop\n      pop\n      pop\n      pop\n      swap7\n      pop\n      swap9\n      pop\n      swap9\n      pop\n      swap9\n      pop\n      swap9\n      pop\n      swap9\n      pop\n      swap9\n      pop\n      swap9\n      pop\n      swap9\n      pop\n      pop\n        /* \"src/BountyContract.sol\":12156:12843  function getBountyInfo(... */\n      swap2\n      swap4\n      swap6\n      swap8\n      pop\n      swap2\n      swap4\n      swap6\n      swap8\n      jump\t// out\n        /* \"lib/openzeppelin-contracts/contracts/access/Ownable.sol\":2543:2758  function transferOwnership(address newOwner) public virtual onlyOwner {... */\n    tag_107:\n        /* \"lib/openzeppelin-contracts/contracts/access/Ownable.sol\":1531:1544  _checkOwner() */\n      tag_330\n        /* \"lib/openzeppelin-contracts/contracts/access/Ownable.sol\":1531:1542  _checkOwner */\n      tag_265\n        /* \"lib/openzeppelin-contracts/contracts/access/Ownable.sol\":1531:1544  _checkOwner() */\n      jump\t// in\n    tag_330:\n      sub(shl(0xa0, 0x01), 0x01)\n        /* \"lib/openzeppelin-contracts/contracts/access/Ownable.sol\":2627:2649  newOwner == address(0) */\n      dup2\n      and\n        /* \"lib/openzeppelin-contracts/contracts/access/Ownable.sol\":2623:2714  if (newOwner == address(0)) {... */\n      tag_332\n      jumpi\n        /* \"lib/openzeppelin-contracts/contracts/access/Ownable.sol\":2672:2703  OwnableInvalidOwner(address(0)) */\n      mload(0x40)\n      shl(0xe0, 0x1e4fbdf7)\n      dup2\n      mstore\n        /* \"lib/openzeppelin-contracts/contracts/access/Ownable.sol\":2700:2701  0 */\n      0x00\n        /* \"lib/openzeppelin-contracts/contracts/access/Ownable.sol\":2672:2703  OwnableInvalidOwner(address(0)) */\n      0x04\n      dup3\n      add\n        /* \"#utility.yul\":1002:1053   */\n      mstore\n        /* \"#utility.yul\":975:993   */\n      0x24\n      add\n        /* \"lib/openzeppelin-contracts/contracts/access/Ownable.sol\":2672:2703  OwnableInvalidOwner(address(0)) */\n      tag_114\n        /* \"#utility.yul\":842:1059   */\n      jump\n        /* \"lib/openzeppelin-contracts/contracts/access/Ownable.sol\":2623:2714  if (newOwner == address(0)) {... */\n    tag_332:\n        /* \"lib/openzeppelin-contracts/contracts/access/Ownable.sol\":2723:2751  _transferOwnership(newOwner) */\n      tag_334\n        /* \"lib/openzeppelin-contracts/contracts/access/Ownable.sol\":2742:2750  newOwner */\n      dup2\n        /* \"lib/openzeppelin-contracts/contracts/access/Ownable.sol\":2723:2741  _transferOwnership */\n      tag_268\n        /* \"lib/openzeppelin-contracts/contracts/access/Ownable.sol\":2723:2751  _transferOwnership(newOwner) */\n      jump\t// in\n    tag_334:\n        /* \"lib/openzeppelin-contracts/contracts/access/Ownable.sol\":2543:2758  function transferOwnership(address newOwner) public virtual onlyOwner {... */\n      pop\n      jump\t// out\n        /* \"src/BountyContract.sol\":10518:11952  function claimReward(bytes32 bountyId) external nonReentrant {... */\n    tag_111:\n        /* \"lib/openzeppelin-contracts/contracts/utils/ReentrancyGuard.sol\":3023:3044  _nonReentrantBefore() */\n      tag_336\n        /* \"lib/openzeppelin-contracts/contracts/utils/ReentrancyGuard.sol\":3023:3042  _nonReentrantBefore */\n      tag_289\n        /* \"lib/openzeppelin-contracts/contracts/utils/ReentrancyGuard.sol\":3023:3044  _nonReentrantBefore() */\n      jump\t// in\n    tag_336:\n        /* \"src/BountyContract.sol\":10589:10603  uint256 amount */\n      0x00\n        /* \"src/BountyContract.sol\":10606:10632  claimableRewards[bountyId] */\n      dup2\n      dup2\n      mstore\n        /* \"src/BountyContract.sol\":10606:10622  claimableRewards */\n      0x07\n        /* \"src/BountyContract.sol\":10606:10632  claimableRewards[bountyId] */\n      0x20\n      swap1\n      dup2\n      mstore\n      0x40\n      dup1\n      dup4\n      keccak256\n        /* \"src/BountyContract.sol\":10633:10643  msg.sender */\n      caller\n        /* \"src/BountyContract.sol\":10606:10644  claimableRewards[bountyId][msg.sender] */\n      dup5\n      mstore\n      swap1\n      swap2\n      mstore\n      swap1\n      keccak256\n      sload\n        /* \"src/BountyContract.sol\":10663:10673  amount > 0 */\n      dup1\n        /* \"src/BountyContract.sol\":10655:10694  require(amount > 0, \"Nothing to claim\") */\n      tag_338\n      jumpi\n      mload(0x40)\n      shl(0xe5, 0x461bcd)\n      dup2\n      mstore\n        /* \"#utility.yul\":15340:15342   */\n      0x20\n        /* \"src/BountyContract.sol\":10655:10694  require(amount > 0, \"Nothing to claim\") */\n      0x04\n      dup3\n      add\n        /* \"#utility.yul\":15322:15343   */\n      mstore\n        /* \"#utility.yul\":15379:15381   */\n      0x10\n        /* \"#utility.yul\":15359:15377   */\n      0x24\n      dup3\n      add\n        /* \"#utility.yul\":15352:15382   */\n      mstore\n      shl(0x80, 0x4e6f7468696e6720746f20636c61696d)\n        /* \"#utility.yul\":15398:15416   */\n      0x44\n      dup3\n      add\n        /* \"#utility.yul\":15391:15437   */\n      mstore\n        /* \"#utility.yul\":15454:15472   */\n      0x64\n      add\n        /* \"src/BountyContract.sol\":10655:10694  require(amount > 0, \"Nothing to claim\") */\n      tag_114\n        /* \"#utility.yul\":15138:15478   */\n      jump\n        /* \"src/BountyContract.sol\":10655:10694  require(amount > 0, \"Nothing to claim\") */\n    tag_338:\n        /* \"src/BountyContract.sol\":10714:10731  claimed[bountyId] */\n      0x00\n      dup3\n      dup2\n      mstore\n        /* \"src/BountyContract.sol\":10714:10721  claimed */\n      0x08\n        /* \"src/BountyContract.sol\":10714:10731  claimed[bountyId] */\n      0x20\n      swap1\n      dup2\n      mstore\n      0x40\n      dup1\n      dup4\n      keccak256\n        /* \"src/BountyContract.sol\":10732:10742  msg.sender */\n      caller\n        /* \"src/BountyContract.sol\":10714:10743  claimed[bountyId][msg.sender] */\n      dup5\n      mstore\n      swap1\n      swap2\n      mstore\n      swap1\n      keccak256\n      sload\n      0xff\n      and\n        /* \"src/BountyContract.sol\":10713:10743  !claimed[bountyId][msg.sender] */\n      iszero\n        /* \"src/BountyContract.sol\":10705:10763  require(!claimed[bountyId][msg.sender], \"Already claimed\") */\n      tag_341\n      jumpi\n      mload(0x40)\n      shl(0xe5, 0x461bcd)\n      dup2\n      mstore\n        /* \"#utility.yul\":15685:15687   */\n      0x20\n        /* \"src/BountyContract.sol\":10705:10763  require(!claimed[bountyId][msg.sender], \"Already claimed\") */\n      0x04\n      dup3\n      add\n        /* \"#utility.yul\":15667:15688   */\n      mstore\n        /* \"#utility.yul\":15724:15726   */\n      0x0f\n        /* \"#utility.yul\":15704:15722   */\n      0x24\n      dup3\n      add\n        /* \"#utility.yul\":15697:15727   */\n      mstore\n      shl(0x8a, 0x105b1c9958591e4818db185a5b5959)\n        /* \"#utility.yul\":15743:15761   */\n      0x44\n      dup3\n      add\n        /* \"#utility.yul\":15736:15781   */\n      mstore\n        /* \"#utility.yul\":15798:15816   */\n      0x64\n      add\n        /* \"src/BountyContract.sol\":10705:10763  require(!claimed[bountyId][msg.sender], \"Already claimed\") */\n      tag_114\n        /* \"#utility.yul\":15483:15822   */\n      jump\n        /* \"src/BountyContract.sol\":10705:10763  require(!claimed[bountyId][msg.sender], \"Already claimed\") */\n    tag_341:\n        /* \"src/BountyContract.sol\":10782:10792  msg.sender */\n      caller\n        /* \"src/BountyContract.sol\":10774:10826  require(msg.sender != address(0), \"Invalid address\") */\n      tag_344\n      jumpi\n      mload(0x40)\n      shl(0xe5, 0x461bcd)\n      dup2\n      mstore\n        /* \"#utility.yul\":13104:13106   */\n      0x20\n        /* \"src/BountyContract.sol\":10774:10826  require(msg.sender != address(0), \"Invalid address\") */\n      0x04\n      dup3\n      add\n        /* \"#utility.yul\":13086:13107   */\n      mstore\n        /* \"#utility.yul\":13143:13145   */\n      0x0f\n        /* \"#utility.yul\":13123:13141   */\n      0x24\n      dup3\n      add\n        /* \"#utility.yul\":13116:13146   */\n      mstore\n      shl(0x88, 0x496e76616c69642061646472657373)\n        /* \"#utility.yul\":13162:13180   */\n      0x44\n      dup3\n      add\n        /* \"#utility.yul\":13155:13200   */\n      mstore\n        /* \"#utility.yul\":13217:13235   */\n      0x64\n      add\n        /* \"src/BountyContract.sol\":10774:10826  require(msg.sender != address(0), \"Invalid address\") */\n      tag_114\n        /* \"#utility.yul\":12902:13241   */\n      jump\n        /* \"src/BountyContract.sol\":10774:10826  require(msg.sender != address(0), \"Invalid address\") */\n    tag_344:\n        /* \"src/BountyContract.sol\":10837:10858  Bounty storage bounty */\n      0x00\n        /* \"src/BountyContract.sol\":10861:10879  bounties[bountyId] */\n      dup3\n      dup2\n      mstore\n        /* \"src/BountyContract.sol\":10861:10869  bounties */\n      0x05\n        /* \"src/BountyContract.sol\":10861:10879  bounties[bountyId] */\n      0x20\n      swap1\n      dup2\n      mstore\n      0x40\n      dup1\n      dup4\n      keccak256\n        /* \"src/BountyContract.sol\":10890:10897  claimed */\n      0x08\n        /* \"src/BountyContract.sol\":10890:10907  claimed[bountyId] */\n      dup4\n      mstore\n      dup2\n      dup5\n      keccak256\n        /* \"src/BountyContract.sol\":10908:10918  msg.sender */\n      caller\n        /* \"src/BountyContract.sol\":10890:10919  claimed[bountyId][msg.sender] */\n      dup1\n      dup7\n      mstore\n      swap1\n      dup5\n      mstore\n      dup3\n      dup6\n      keccak256\n        /* \"src/BountyContract.sol\":10890:10926  claimed[bountyId][msg.sender] = true */\n      dup1\n      sload\n      not(0xff)\n      and\n        /* \"src/BountyContract.sol\":10922:10926  true */\n      0x01\n        /* \"src/BountyContract.sol\":10890:10926  claimed[bountyId][msg.sender] = true */\n      or\n      swap1\n      sstore\n        /* \"src/BountyContract.sol\":10936:10962  claimableRewards[bountyId] */\n      dup7\n      dup6\n      mstore\n        /* \"src/BountyContract.sol\":10936:10952  claimableRewards */\n      0x07\n        /* \"src/BountyContract.sol\":10936:10962  claimableRewards[bountyId] */\n      dup5\n      mstore\n      dup3\n      dup6\n      keccak256\n        /* \"src/BountyContract.sol\":10936:10974  claimableRewards[bountyId][msg.sender] */\n      swap1\n      dup6\n      mstore\n      swap1\n      swap3\n      mstore\n      dup3\n      keccak256\n        /* \"src/BountyContract.sol\":10936:10978  claimableRewards[bountyId][msg.sender] = 0 */\n      dup3\n      swap1\n      sstore\n        /* \"src/BountyContract.sol\":10861:10879  bounties[bountyId] */\n      swap1\n        /* \"src/BountyContract.sol\":11035:11052  bounty.payoutType */\n      0x02\n      dup3\n      dup2\n      add\n      sload\n      0x0100\n      swap1\n      div\n      0xff\n      and\n      swap1\n        /* \"src/BountyContract.sol\":11035:11073  bounty.payoutType == PayoutType.SINGLE */\n      dup2\n      gt\n      iszero\n      tag_349\n      jumpi\n      tag_349\n      tag_124\n      jump\t// in\n    tag_349:\n      sub\n        /* \"src/BountyContract.sol\":11031:11123  if (bounty.payoutType == PayoutType.SINGLE) {... */\n      tag_350\n      jumpi\n        /* \"src/BountyContract.sol\":11089:11105  bounty.isClaimed */\n      0x04\n      dup2\n      add\n        /* \"src/BountyContract.sol\":11089:11112  bounty.isClaimed = true */\n      dup1\n      sload\n      not(0xff00)\n      and\n      0x0100\n      or\n      swap1\n      sstore\n        /* \"src/BountyContract.sol\":11031:11123  if (bounty.payoutType == PayoutType.SINGLE) {... */\n    tag_350:\n        /* \"src/BountyContract.sol\":11171:11193  PayoutType.MULTI_EQUAL */\n      0x01\n        /* \"src/BountyContract.sol\":11150:11167  bounty.payoutType */\n      0x02\n      dup3\n      dup2\n      add\n      sload\n      0x0100\n      swap1\n      div\n      0xff\n      and\n      swap1\n        /* \"src/BountyContract.sol\":11150:11193  bounty.payoutType == PayoutType.MULTI_EQUAL */\n      dup2\n      gt\n      iszero\n      tag_354\n      jumpi\n      tag_354\n      tag_124\n      jump\t// in\n    tag_354:\n      eq\n        /* \"src/BountyContract.sol\":11150:11257  bounty.payoutType == PayoutType.MULTI_EQUAL ||... */\n      dup1\n      tag_355\n      jumpi\n      pop\n        /* \"src/BountyContract.sol\":11230:11257  PayoutType.MULTI_PERCENTAGE */\n      0x02\n        /* \"src/BountyContract.sol\":11209:11226  bounty.payoutType */\n      dup1\n      dup3\n      dup2\n      add\n      sload\n      0x0100\n      swap1\n      div\n      0xff\n      and\n      swap1\n        /* \"src/BountyContract.sol\":11209:11257  bounty.payoutType == PayoutType.MULTI_PERCENTAGE */\n      dup2\n      gt\n      iszero\n      tag_359\n      jumpi\n      tag_359\n      tag_124\n      jump\t// in\n    tag_359:\n      eq\n        /* \"src/BountyContract.sol\":11150:11257  bounty.payoutType == PayoutType.MULTI_EQUAL ||... */\n    tag_355:\n        /* \"src/BountyContract.sol\":11133:11628  if (... */\n      iszero\n      tag_360\n      jumpi\n        /* \"src/BountyContract.sol\":11300:11304  true */\n      0x01\n        /* \"src/BountyContract.sol\":11282:11297  bool allClaimed */\n      0x00\n        /* \"src/BountyContract.sol\":11319:11532  for (uint256 i = 0; i < bounty.winners.length; i++) {... */\n    tag_361:\n        /* \"src/BountyContract.sol\":11343:11357  bounty.winners */\n      0x03\n      dup4\n      add\n        /* \"src/BountyContract.sol\":11343:11364  bounty.winners.length */\n      sload\n        /* \"src/BountyContract.sol\":11339:11364  i < bounty.winners.length */\n      dup2\n      lt\n        /* \"src/BountyContract.sol\":11319:11532  for (uint256 i = 0; i < bounty.winners.length; i++) {... */\n      iszero\n      tag_362\n      jumpi\n        /* \"src/BountyContract.sol\":11394:11411  claimed[bountyId] */\n      0x00\n      dup6\n      dup2\n      mstore\n        /* \"src/BountyContract.sol\":11394:11401  claimed */\n      0x08\n        /* \"src/BountyContract.sol\":11394:11411  claimed[bountyId] */\n      0x20\n      mstore\n      0x40\n      dup2\n      keccak256\n        /* \"src/BountyContract.sol\":11412:11426  bounty.winners */\n      0x03\n      dup6\n      add\n        /* \"src/BountyContract.sol\":11412:11429  bounty.winners[i] */\n      dup1\n      sload\n        /* \"src/BountyContract.sol\":11394:11411  claimed[bountyId] */\n      swap2\n      swap3\n      swap2\n        /* \"src/BountyContract.sol\":11427:11428  i */\n      dup5\n      swap1\n        /* \"src/BountyContract.sol\":11412:11429  bounty.winners[i] */\n      dup2\n      lt\n      tag_365\n      jumpi\n      tag_365\n      tag_184\n      jump\t// in\n    tag_365:\n      0x00\n      swap2\n      dup3\n      mstore\n      0x20\n      dup1\n      dup4\n      keccak256\n      swap1\n      swap2\n      add\n      sload\n      sub(shl(0xa0, 0x01), 0x01)\n      and\n        /* \"src/BountyContract.sol\":11394:11430  claimed[bountyId][bounty.winners[i]] */\n      dup4\n      mstore\n      dup3\n      add\n      swap3\n      swap1\n      swap3\n      mstore\n      0x40\n      add\n      swap1\n      keccak256\n      sload\n      0xff\n      and\n        /* \"src/BountyContract.sol\":11389:11518  if (!claimed[bountyId][bounty.winners[i]]) {... */\n      tag_367\n      jumpi\n        /* \"src/BountyContract.sol\":11467:11472  false */\n      0x00\n        /* \"src/BountyContract.sol\":11454:11472  allClaimed = false */\n      swap2\n      pop\n        /* \"src/BountyContract.sol\":11494:11499  break */\n      jump(tag_362)\n        /* \"src/BountyContract.sol\":11389:11518  if (!claimed[bountyId][bounty.winners[i]]) {... */\n    tag_367:\n        /* \"src/BountyContract.sol\":11366:11369  i++ */\n      0x01\n      add\n        /* \"src/BountyContract.sol\":11319:11532  for (uint256 i = 0; i < bounty.winners.length; i++) {... */\n      jump(tag_361)\n    tag_362:\n      pop\n        /* \"src/BountyContract.sol\":11550:11560  allClaimed */\n      dup1\n        /* \"src/BountyContract.sol\":11546:11618  if (allClaimed) {... */\n      iszero\n      tag_368\n      jumpi\n        /* \"src/BountyContract.sol\":11580:11596  bounty.isClaimed */\n      0x04\n      dup3\n      add\n        /* \"src/BountyContract.sol\":11580:11603  bounty.isClaimed = true */\n      dup1\n      sload\n      not(0xff00)\n      and\n      0x0100\n      or\n      swap1\n      sstore\n        /* \"src/BountyContract.sol\":11546:11618  if (allClaimed) {... */\n    tag_368:\n        /* \"src/BountyContract.sol\":11268:11628  {... */\n      pop\n        /* \"src/BountyContract.sol\":11133:11628  if (... */\n    tag_360:\n        /* \"src/BountyContract.sol\":11662:11675  TokenType.ETH */\n      0x00\n        /* \"src/BountyContract.sol\":11642:11658  bounty.tokenType */\n      0x02\n      dup3\n      add\n      sload\n      0xff\n      and\n      0x01\n        /* \"src/BountyContract.sol\":11642:11675  bounty.tokenType == TokenType.ETH */\n      dup2\n      gt\n      iszero\n      tag_372\n      jumpi\n      tag_372\n      tag_124\n      jump\t// in\n    tag_372:\n      sub\n        /* \"src/BountyContract.sol\":11638:11887  if (bounty.tokenType == TokenType.ETH) {... */\n      tag_373\n      jumpi\n        /* \"src/BountyContract.sol\":11707:11750  payable(msg.sender).call{value: amount}(\"\") */\n      mload(0x40)\n        /* \"src/BountyContract.sol\":11692:11701  bool sent */\n      0x00\n      swap1\n        /* \"src/BountyContract.sol\":11715:11725  msg.sender */\n      caller\n      swap1\n        /* \"src/BountyContract.sol\":11739:11745  amount */\n      dup5\n      swap1\n        /* \"src/BountyContract.sol\":11692:11701  bool sent */\n      dup4\n        /* \"src/BountyContract.sol\":11707:11750  payable(msg.sender).call{value: amount}(\"\") */\n      dup2\n        /* \"src/BountyContract.sol\":11692:11701  bool sent */\n      dup2\n        /* \"src/BountyContract.sol\":11707:11750  payable(msg.sender).call{value: amount}(\"\") */\n      dup2\n        /* \"src/BountyContract.sol\":11739:11745  amount */\n      dup6\n        /* \"src/BountyContract.sol\":11715:11725  msg.sender */\n      dup8\n        /* \"src/BountyContract.sol\":11707:11750  payable(msg.sender).call{value: amount}(\"\") */\n      gas\n      call\n      swap3\n      pop\n      pop\n      pop\n      returndatasize\n      dup1\n      0x00\n      dup2\n      eq\n      tag_377\n      jumpi\n      mload(0x40)\n      swap2\n      pop\n      and(add(returndatasize, 0x3f), not(0x1f))\n      dup3\n      add\n      0x40\n      mstore\n      returndatasize\n      dup3\n      mstore\n      returndatasize\n      0x00\n      0x20\n      dup5\n      add\n      returndatacopy\n      jump(tag_376)\n    tag_377:\n      0x60\n      swap2\n      pop\n    tag_376:\n      pop\n        /* \"src/BountyContract.sol\":11691:11750  (bool sent, ) = payable(msg.sender).call{value: amount}(\"\") */\n      pop\n      swap1\n      pop\n        /* \"src/BountyContract.sol\":11773:11777  sent */\n      dup1\n        /* \"src/BountyContract.sol\":11765:11803  require(sent, \"ETH transfer failed!!\") */\n      tag_378\n      jumpi\n      mload(0x40)\n      shl(0xe5, 0x461bcd)\n      dup2\n      mstore\n        /* \"#utility.yul\":16029:16031   */\n      0x20\n        /* \"src/BountyContract.sol\":11765:11803  require(sent, \"ETH transfer failed!!\") */\n      0x04\n      dup3\n      add\n        /* \"#utility.yul\":16011:16032   */\n      mstore\n        /* \"#utility.yul\":16068:16070   */\n      0x15\n        /* \"#utility.yul\":16048:16066   */\n      0x24\n      dup3\n      add\n        /* \"#utility.yul\":16041:16071   */\n      mstore\n      shl(0x58, 0x455448207472616e73666572206661696c65642121)\n        /* \"#utility.yul\":16087:16105   */\n      0x44\n      dup3\n      add\n        /* \"#utility.yul\":16080:16131   */\n      mstore\n        /* \"#utility.yul\":16148:16166   */\n      0x64\n      add\n        /* \"src/BountyContract.sol\":11765:11803  require(sent, \"ETH transfer failed!!\") */\n      tag_114\n        /* \"#utility.yul\":15827:16172   */\n      jump\n        /* \"src/BountyContract.sol\":11765:11803  require(sent, \"ETH transfer failed!!\") */\n    tag_378:\n        /* \"src/BountyContract.sol\":11677:11814  {... */\n      pop\n        /* \"src/BountyContract.sol\":11638:11887  if (bounty.tokenType == TokenType.ETH) {... */\n      jump(tag_382)\n    tag_373:\n        /* \"src/BountyContract.sol\":11834:11843  usdcToken */\n      sload(0x01)\n        /* \"src/BountyContract.sol\":11834:11876  usdcToken.safeTransfer(msg.sender, amount) */\n      tag_382\n      swap1\n      sub(shl(0xa0, 0x01), 0x01)\n        /* \"src/BountyContract.sol\":11834:11843  usdcToken */\n      and\n        /* \"src/BountyContract.sol\":11857:11867  msg.sender */\n      caller\n        /* \"src/BountyContract.sol\":11869:11875  amount */\n      dup5\n        /* \"src/BountyContract.sol\":11834:11856  usdcToken.safeTransfer */\n      tag_318\n        /* \"src/BountyContract.sol\":11834:11876  usdcToken.safeTransfer(msg.sender, amount) */\n      jump\t// in\n    tag_382:\n        /* \"src/BountyContract.sol\":11902:11945  RewardClaimed(bountyId, msg.sender, amount) */\n      0x40\n      dup1\n      mload\n        /* \"#utility.yul\":16379:16404   */\n      dup5\n      dup2\n      mstore\n        /* \"src/BountyContract.sol\":11926:11936  msg.sender */\n      caller\n        /* \"#utility.yul\":16435:16437   */\n      0x20\n        /* \"#utility.yul\":16420:16438   */\n      dup3\n      add\n        /* \"#utility.yul\":16413:16473   */\n      mstore\n        /* \"#utility.yul\":16489:16507   */\n      swap1\n      dup2\n      add\n        /* \"#utility.yul\":16482:16516   */\n      dup4\n      swap1\n      mstore\n        /* \"src/BountyContract.sol\":11902:11945  RewardClaimed(bountyId, msg.sender, amount) */\n      0xfe236dfc7ce073698734b89da1aee0e7551c9c6d264404c502e6e8fefc1132a8\n      swap1\n        /* \"#utility.yul\":16367:16369   */\n      0x60\n        /* \"#utility.yul\":16352:16370   */\n      add\n        /* \"src/BountyContract.sol\":11902:11945  RewardClaimed(bountyId, msg.sender, amount) */\n      mload(0x40)\n      dup1\n      swap2\n      sub\n      swap1\n      log1\n        /* \"src/BountyContract.sol\":10579:11952  {... */\n      pop\n      pop\n        /* \"lib/openzeppelin-contracts/contracts/utils/ReentrancyGuard.sol\":3065:3085  _nonReentrantAfter() */\n      tag_334\n        /* \"lib/openzeppelin-contracts/contracts/utils/ReentrancyGuard.sol\":2365:2366  1 */\n      0x01\n      mload(0x00)\n      codecopy(0x00, data_c8669cf8eaf883002b9f48e28846a8d408c9b58ea6613bace374265e43c9bc43, 0x20)\n      mload(0x00)\n      swap1\n      0x00\n      mstore\n        /* \"lib/openzeppelin-contracts/contracts/utils/ReentrancyGuard.sol\":3972:4034  _reentrancyGuardStorageSlot().getUint256Slot().value = ENTERED */\n      sstore\n        /* \"lib/openzeppelin-contracts/contracts/utils/ReentrancyGuard.sol\":3749:4041  function _nonReentrantBefore() private {... */\n      jump\n        /* \"lib/openzeppelin-contracts/contracts/token/ERC20/utils/SafeERC20.sol\":1662:1894  function safeTransferFrom(IERC20 token, address from, address to, uint256 value) internal {... */\n    tag_137:\n        /* \"lib/openzeppelin-contracts/contracts/token/ERC20/utils/SafeERC20.sol\":1767:1814  _safeTransferFrom(token, from, to, value, true) */\n      tag_387\n        /* \"lib/openzeppelin-contracts/contracts/token/ERC20/utils/SafeERC20.sol\":1785:1790  token */\n      dup5\n        /* \"lib/openzeppelin-contracts/contracts/token/ERC20/utils/SafeERC20.sol\":1792:1796  from */\n      dup5\n        /* \"lib/openzeppelin-contracts/contracts/token/ERC20/utils/SafeERC20.sol\":1798:1800  to */\n      dup5\n        /* \"lib/openzeppelin-contracts/contracts/token/ERC20/utils/SafeERC20.sol\":1802:1807  value */\n      dup5\n        /* \"lib/openzeppelin-contracts/contracts/token/ERC20/utils/SafeERC20.sol\":1809:1813  true */\n      0x01\n        /* \"lib/openzeppelin-contracts/contracts/token/ERC20/utils/SafeERC20.sol\":1767:1784  _safeTransferFrom */\n      tag_388\n        /* \"lib/openzeppelin-contracts/contracts/token/ERC20/utils/SafeERC20.sol\":1767:1814  _safeTransferFrom(token, from, to, value, true) */\n      jump\t// in\n    tag_387:\n        /* \"lib/openzeppelin-contracts/contracts/token/ERC20/utils/SafeERC20.sol\":1762:1888  if (!_safeTransferFrom(token, from, to, value, true)) {... */\n      tag_389\n      jumpi\n        /* \"lib/openzeppelin-contracts/contracts/token/ERC20/utils/SafeERC20.sol\":1837:1877  SafeERC20FailedOperation(address(token)) */\n      mload(0x40)\n      shl(0xe0, 0x5274afe7)\n      dup2\n      mstore\n      sub(shl(0xa0, 0x01), 0x01)\n        /* \"#utility.yul\":1020:1052   */\n      dup6\n      and\n        /* \"lib/openzeppelin-contracts/contracts/token/ERC20/utils/SafeERC20.sol\":1837:1877  SafeERC20FailedOperation(address(token)) */\n      0x04\n      dup3\n      add\n        /* \"#utility.yul\":1002:1053   */\n      mstore\n        /* \"#utility.yul\":975:993   */\n      0x24\n      add\n        /* \"lib/openzeppelin-contracts/contracts/token/ERC20/utils/SafeERC20.sol\":1837:1877  SafeERC20FailedOperation(address(token)) */\n      tag_114\n        /* \"#utility.yul\":842:1059   */\n      jump\n        /* \"lib/openzeppelin-contracts/contracts/token/ERC20/utils/SafeERC20.sol\":1762:1888  if (!_safeTransferFrom(token, from, to, value, true)) {... */\n    tag_389:\n        /* \"lib/openzeppelin-contracts/contracts/token/ERC20/utils/SafeERC20.sol\":1662:1894  function safeTransferFrom(IERC20 token, address from, address to, uint256 value) internal {... */\n      pop\n      pop\n      pop\n      pop\n      jump\t// out\n        /* \"lib/openzeppelin-contracts/contracts/access/Ownable.sol\":1796:1958  function _checkOwner() internal view virtual {... */\n    tag_265:\n        /* \"lib/openzeppelin-contracts/contracts/access/Ownable.sol\":1684:1691  address */\n      0x00\n        /* \"lib/openzeppelin-contracts/contracts/access/Ownable.sol\":1710:1716  _owner */\n      sload\n      sub(shl(0xa0, 0x01), 0x01)\n      and\n        /* \"lib/openzeppelin-contracts/contracts/utils/Context.sol\":735:745  msg.sender */\n      caller\n        /* \"lib/openzeppelin-contracts/contracts/access/Ownable.sol\":1855:1878  owner() != _msgSender() */\n      eq\n        /* \"lib/openzeppelin-contracts/contracts/access/Ownable.sol\":1851:1952  if (owner() != _msgSender()) {... */\n      tag_267\n      jumpi\n        /* \"lib/openzeppelin-contracts/contracts/access/Ownable.sol\":1901:1941  OwnableUnauthorizedAccount(_msgSender()) */\n      mload(0x40)\n      shl(0xe0, 0x118cdaa7)\n      dup2\n      mstore\n        /* \"lib/openzeppelin-contracts/contracts/utils/Context.sol\":735:745  msg.sender */\n      caller\n        /* \"lib/openzeppelin-contracts/contracts/access/Ownable.sol\":1901:1941  OwnableUnauthorizedAccount(_msgSender()) */\n      0x04\n      dup3\n      add\n        /* \"#utility.yul\":1002:1053   */\n      mstore\n        /* \"#utility.yul\":975:993   */\n      0x24\n      add\n        /* \"lib/openzeppelin-contracts/contracts/access/Ownable.sol\":1901:1941  OwnableUnauthorizedAccount(_msgSender()) */\n      tag_114\n        /* \"#utility.yul\":842:1059   */\n      jump\n        /* \"lib/openzeppelin-contracts/contracts/access/Ownable.sol\":2912:3099  function _transferOwnership(address newOwner) internal virtual {... */\n    tag_268:\n        /* \"lib/openzeppelin-contracts/contracts/access/Ownable.sol\":2985:3001  address oldOwner */\n      0x00\n        /* \"lib/openzeppelin-contracts/contracts/access/Ownable.sol\":3004:3010  _owner */\n      dup1\n      sload\n      sub(shl(0xa0, 0x01), 0x01)\n        /* \"lib/openzeppelin-contracts/contracts/access/Ownable.sol\":3020:3037  _owner = newOwner */\n      dup4\n      dup2\n      and\n      not(sub(shl(0xa0, 0x01), 0x01))\n      dup4\n      and\n      dup2\n      or\n      dup5\n      sstore\n        /* \"lib/openzeppelin-contracts/contracts/access/Ownable.sol\":3052:3092  OwnershipTransferred(oldOwner, newOwner) */\n      mload(0x40)\n        /* \"lib/openzeppelin-contracts/contracts/access/Ownable.sol\":3004:3010  _owner */\n      swap2\n      swap1\n      swap3\n      and\n      swap3\n      dup4\n      swap2\n        /* \"lib/openzeppelin-contracts/contracts/access/Ownable.sol\":3052:3092  OwnershipTransferred(oldOwner, newOwner) */\n      0x8be0079c531659141344cd1fd0a4f28419497f9722a3daafe3b4186f6b6457e0\n      swap2\n        /* \"lib/openzeppelin-contracts/contracts/access/Ownable.sol\":2985:3001  address oldOwner */\n      swap1\n        /* \"lib/openzeppelin-contracts/contracts/access/Ownable.sol\":3052:3092  OwnershipTransferred(oldOwner, newOwner) */\n      log3\n        /* \"lib/openzeppelin-contracts/contracts/access/Ownable.sol\":2975:3099  {... */\n      pop\n        /* \"lib/openzeppelin-contracts/contracts/access/Ownable.sol\":2912:3099  function _transferOwnership(address newOwner) internal virtual {... */\n      pop\n      jump\t// out\n        /* \"lib/openzeppelin-contracts/contracts/utils/ReentrancyGuard.sol\":3749:4041  function _nonReentrantBefore() private {... */\n    tag_289:\n        /* \"lib/openzeppelin-contracts/contracts/utils/ReentrancyGuard.sol\":3872:3897  _nonReentrantBeforeView() */\n      tag_402\n        /* \"lib/openzeppelin-contracts/contracts/utils/ReentrancyGuard.sol\":3872:3895  _nonReentrantBeforeView */\n      tag_403\n        /* \"lib/openzeppelin-contracts/contracts/utils/ReentrancyGuard.sol\":3872:3897  _nonReentrantBeforeView() */\n      jump\t// in\n    tag_402:\n        /* \"lib/openzeppelin-contracts/contracts/utils/ReentrancyGuard.sol\":2407:2408  2 */\n      0x02\n      mload(0x00)\n      codecopy(0x00, data_c8669cf8eaf883002b9f48e28846a8d408c9b58ea6613bace374265e43c9bc43, 0x20)\n      mload(0x00)\n      swap1\n      0x00\n      mstore\n        /* \"lib/openzeppelin-contracts/contracts/utils/ReentrancyGuard.sol\":3972:4034  _reentrancyGuardStorageSlot().getUint256Slot().value = ENTERED */\n      sstore\n        /* \"lib/openzeppelin-contracts/contracts/utils/ReentrancyGuard.sol\":3749:4041  function _nonReentrantBefore() private {... */\n      jump\t// out\n        /* \"lib/openzeppelin-contracts/contracts/token/ERC20/utils/SafeERC20.sol\":1219:1423  function safeTransfer(IERC20 token, address to, uint256 value) internal {... */\n    tag_318:\n        /* \"lib/openzeppelin-contracts/contracts/token/ERC20/utils/SafeERC20.sol\":1306:1343  _safeTransfer(token, to, value, true) */\n      tag_409\n        /* \"lib/openzeppelin-contracts/contracts/token/ERC20/utils/SafeERC20.sol\":1320:1325  token */\n      dup4\n        /* \"lib/openzeppelin-contracts/contracts/token/ERC20/utils/SafeERC20.sol\":1327:1329  to */\n      dup4\n        /* \"lib/openzeppelin-contracts/contracts/token/ERC20/utils/SafeERC20.sol\":1331:1336  value */\n      dup4\n        /* \"lib/openzeppelin-contracts/contracts/token/ERC20/utils/SafeERC20.sol\":1338:1342  true */\n      0x01\n        /* \"lib/openzeppelin-contracts/contracts/token/ERC20/utils/SafeERC20.sol\":1306:1319  _safeTransfer */\n      tag_410\n        /* \"lib/openzeppelin-contracts/contracts/token/ERC20/utils/SafeERC20.sol\":1306:1343  _safeTransfer(token, to, value, true) */\n      jump\t// in\n    tag_409:\n        /* \"lib/openzeppelin-contracts/contracts/token/ERC20/utils/SafeERC20.sol\":1301:1417  if (!_safeTransfer(token, to, value, true)) {... */\n      tag_411\n      jumpi\n        /* \"lib/openzeppelin-contracts/contracts/token/ERC20/utils/SafeERC20.sol\":1366:1406  SafeERC20FailedOperation(address(token)) */\n      mload(0x40)\n      shl(0xe0, 0x5274afe7)\n      dup2\n      mstore\n      sub(shl(0xa0, 0x01), 0x01)\n        /* \"#utility.yul\":1020:1052   */\n      dup5\n      and\n        /* \"lib/openzeppelin-contracts/contracts/token/ERC20/utils/SafeERC20.sol\":1366:1406  SafeERC20FailedOperation(address(token)) */\n      0x04\n      dup3\n      add\n        /* \"#utility.yul\":1002:1053   */\n      mstore\n        /* \"#utility.yul\":975:993   */\n      0x24\n      add\n        /* \"lib/openzeppelin-contracts/contracts/token/ERC20/utils/SafeERC20.sol\":1366:1406  SafeERC20FailedOperation(address(token)) */\n      tag_114\n        /* \"#utility.yul\":842:1059   */\n      jump\n        /* \"lib/openzeppelin-contracts/contracts/token/ERC20/utils/SafeERC20.sol\":1301:1417  if (!_safeTransfer(token, to, value, true)) {... */\n    tag_411:\n        /* \"lib/openzeppelin-contracts/contracts/token/ERC20/utils/SafeERC20.sol\":1219:1423  function safeTransfer(IERC20 token, address to, uint256 value) internal {... */\n      pop\n      pop\n      pop\n      jump\t// out\n        /* \"lib/openzeppelin-contracts/contracts/token/ERC20/utils/SafeERC20.sol\":10165:11558  function _safeTransferFrom(... */\n    tag_388:\n        /* \"lib/openzeppelin-contracts/contracts/token/ERC20/utils/SafeERC20.sol\":10460:10464  0x40 */\n      0x40\n        /* \"lib/openzeppelin-contracts/contracts/token/ERC20/utils/SafeERC20.sol\":10454:10465  mload(0x40) */\n      mload\n      shl(0xe0, 0x23b872dd)\n        /* \"lib/openzeppelin-contracts/contracts/token/ERC20/utils/SafeERC20.sol\":10323:10335  bool success */\n      0x00\n        /* \"lib/openzeppelin-contracts/contracts/token/ERC20/utils/SafeERC20.sol\":10478:10500  mstore(0x00, selector) */\n      dup2\n      dup2\n      mstore\n      sub(shl(0xa0, 0x01), 0x01)\n        /* \"lib/openzeppelin-contracts/contracts/token/ERC20/utils/SafeERC20.sol\":10526:10552  and(from, shr(96, not(0))) */\n      dup8\n      dup2\n      and\n        /* \"lib/openzeppelin-contracts/contracts/token/ERC20/utils/SafeERC20.sol\":10520:10524  0x04 */\n      0x04\n        /* \"lib/openzeppelin-contracts/contracts/token/ERC20/utils/SafeERC20.sol\":10513:10553  mstore(0x04, and(from, shr(96, not(0)))) */\n      mstore\n        /* \"lib/openzeppelin-contracts/contracts/token/ERC20/utils/SafeERC20.sol\":10579:10603  and(to, shr(96, not(0))) */\n      dup7\n      and\n        /* \"lib/openzeppelin-contracts/contracts/token/ERC20/utils/SafeERC20.sol\":10573:10577  0x24 */\n      0x24\n        /* \"lib/openzeppelin-contracts/contracts/token/ERC20/utils/SafeERC20.sol\":10566:10604  mstore(0x24, and(to, shr(96, not(0)))) */\n      mstore\n        /* \"lib/openzeppelin-contracts/contracts/token/ERC20/utils/SafeERC20.sol\":10624:10628  0x44 */\n      0x44\n        /* \"lib/openzeppelin-contracts/contracts/token/ERC20/utils/SafeERC20.sol\":10617:10636  mstore(0x44, value) */\n      dup6\n      swap1\n      mstore\n        /* \"lib/openzeppelin-contracts/contracts/token/ERC20/utils/SafeERC20.sol\":10323:10335  bool success */\n      swap2\n        /* \"lib/openzeppelin-contracts/contracts/token/ERC20/utils/SafeERC20.sol\":10700:10704  0x20 */\n      0x20\n        /* \"lib/openzeppelin-contracts/contracts/token/ERC20/utils/SafeERC20.sol\":10323:10335  bool success */\n      dup4\n        /* \"lib/openzeppelin-contracts/contracts/token/ERC20/utils/SafeERC20.sol\":10688:10692  0x64 */\n      0x64\n        /* \"lib/openzeppelin-contracts/contracts/token/ERC20/utils/SafeERC20.sol\":10323:10335  bool success */\n      dup2\n      dup1\n        /* \"lib/openzeppelin-contracts/contracts/token/ERC20/utils/SafeERC20.sol\":10672:10677  token */\n      dup13\n        /* \"lib/openzeppelin-contracts/contracts/token/ERC20/utils/SafeERC20.sol\":10665:10670  gas() */\n      gas\n        /* \"lib/openzeppelin-contracts/contracts/token/ERC20/utils/SafeERC20.sol\":10660:10705  call(gas(), token, 0, 0x00, 0x64, 0x00, 0x20) */\n      call\n        /* \"lib/openzeppelin-contracts/contracts/token/ERC20/utils/SafeERC20.sol\":10649:10705  success := call(gas(), token, 0, 0x00, 0x64, 0x00, 0x20) */\n      swap3\n      pop\n        /* \"lib/openzeppelin-contracts/contracts/token/ERC20/utils/SafeERC20.sol\":10917:10918  1 */\n      0x01\n        /* \"lib/openzeppelin-contracts/contracts/token/ERC20/utils/SafeERC20.sol\":10910:10914  0x00 */\n      0x00\n        /* \"lib/openzeppelin-contracts/contracts/token/ERC20/utils/SafeERC20.sol\":10904:10915  mload(0x00) */\n      mload\n        /* \"lib/openzeppelin-contracts/contracts/token/ERC20/utils/SafeERC20.sol\":10901:10919  eq(mload(0x00), 1) */\n      eq\n        /* \"lib/openzeppelin-contracts/contracts/token/ERC20/utils/SafeERC20.sol\":10892:10899  success */\n      dup4\n        /* \"lib/openzeppelin-contracts/contracts/token/ERC20/utils/SafeERC20.sol\":10888:10920  and(success, eq(mload(0x00), 1)) */\n      and\n        /* \"lib/openzeppelin-contracts/contracts/token/ERC20/utils/SafeERC20.sol\":10878:11484  if iszero(and(success, eq(mload(0x00), 1))) {... */\n      tag_417\n      jumpi\n        /* \"lib/openzeppelin-contracts/contracts/token/ERC20/utils/SafeERC20.sol\":11049:11055  bubble */\n      dup4\n        /* \"lib/openzeppelin-contracts/contracts/token/ERC20/utils/SafeERC20.sol\":11039:11046  success */\n      dup4\n        /* \"lib/openzeppelin-contracts/contracts/token/ERC20/utils/SafeERC20.sol\":11032:11047  iszero(success) */\n      iszero\n        /* \"lib/openzeppelin-contracts/contracts/token/ERC20/utils/SafeERC20.sol\":11028:11056  and(iszero(success), bubble) */\n      and\n        /* \"lib/openzeppelin-contracts/contracts/token/ERC20/utils/SafeERC20.sol\":11025:11190  if and(iszero(success), bubble) {... */\n      iszero\n      tag_418\n      jumpi\n        /* \"lib/openzeppelin-contracts/contracts/token/ERC20/utils/SafeERC20.sol\":11105:11121  returndatasize() */\n      returndatasize\n        /* \"lib/openzeppelin-contracts/contracts/token/ERC20/utils/SafeERC20.sol\":11099:11103  0x00 */\n      0x00\n        /* \"lib/openzeppelin-contracts/contracts/token/ERC20/utils/SafeERC20.sol\":11094:11097  fmp */\n      dup3\n        /* \"lib/openzeppelin-contracts/contracts/token/ERC20/utils/SafeERC20.sol\":11079:11122  returndatacopy(fmp, 0x00, returndatasize()) */\n      returndatacopy\n        /* \"lib/openzeppelin-contracts/contracts/token/ERC20/utils/SafeERC20.sol\":11155:11171  returndatasize() */\n      returndatasize\n        /* \"lib/openzeppelin-contracts/contracts/token/ERC20/utils/SafeERC20.sol\":11150:11153  fmp */\n      dup2\n        /* \"lib/openzeppelin-contracts/contracts/token/ERC20/utils/SafeERC20.sol\":11143:11172  revert(fmp, returndatasize()) */\n      revert\n        /* \"lib/openzeppelin-contracts/contracts/token/ERC20/utils/SafeERC20.sol\":11025:11190  if and(iszero(success), bubble) {... */\n    tag_418:\n        /* \"lib/openzeppelin-contracts/contracts/token/ERC20/utils/SafeERC20.sol\":11466:11467  0 */\n      0x00\n        /* \"lib/openzeppelin-contracts/contracts/token/ERC20/utils/SafeERC20.sol\":11458:11463  token */\n      dup9\n        /* \"lib/openzeppelin-contracts/contracts/token/ERC20/utils/SafeERC20.sol\":11446:11464  extcodesize(token) */\n      extcodesize\n        /* \"lib/openzeppelin-contracts/contracts/token/ERC20/utils/SafeERC20.sol\":11443:11468  gt(extcodesize(token), 0) */\n      gt\n        /* \"lib/openzeppelin-contracts/contracts/token/ERC20/utils/SafeERC20.sol\":11424:11440  returndatasize() */\n      returndatasize\n        /* \"lib/openzeppelin-contracts/contracts/token/ERC20/utils/SafeERC20.sol\":11417:11441  iszero(returndatasize()) */\n      iszero\n        /* \"lib/openzeppelin-contracts/contracts/token/ERC20/utils/SafeERC20.sol\":11413:11469  and(iszero(returndatasize()), gt(extcodesize(token), 0)) */\n      and\n        /* \"lib/openzeppelin-contracts/contracts/token/ERC20/utils/SafeERC20.sol\":11404:11411  success */\n      dup4\n        /* \"lib/openzeppelin-contracts/contracts/token/ERC20/utils/SafeERC20.sol\":11400:11470  and(success, and(iszero(returndatasize()), gt(extcodesize(token), 0))) */\n      and\n        /* \"lib/openzeppelin-contracts/contracts/token/ERC20/utils/SafeERC20.sol\":11389:11470  success := and(success, and(iszero(returndatasize()), gt(extcodesize(token), 0))) */\n      swap3\n      pop\n        /* \"lib/openzeppelin-contracts/contracts/token/ERC20/utils/SafeERC20.sol\":10878:11484  if iszero(and(success, eq(mload(0x00), 1))) {... */\n    tag_417:\n        /* \"lib/openzeppelin-contracts/contracts/token/ERC20/utils/SafeERC20.sol\":11504:11508  0x40 */\n      0x40\n        /* \"lib/openzeppelin-contracts/contracts/token/ERC20/utils/SafeERC20.sol\":11497:11514  mstore(0x40, fmp) */\n      mstore\n      pop\n        /* \"lib/openzeppelin-contracts/contracts/token/ERC20/utils/SafeERC20.sol\":11540:11541  0 */\n      0x00\n        /* \"lib/openzeppelin-contracts/contracts/token/ERC20/utils/SafeERC20.sol\":11534:11538  0x60 */\n      0x60\n        /* \"lib/openzeppelin-contracts/contracts/token/ERC20/utils/SafeERC20.sol\":11527:11542  mstore(0x60, 0) */\n      mstore\n        /* \"lib/openzeppelin-contracts/contracts/token/ERC20/utils/SafeERC20.sol\":10165:11558  function _safeTransferFrom(... */\n      swap6\n      swap5\n      pop\n      pop\n      pop\n      pop\n      pop\n      jump\t// out\n        /* \"lib/openzeppelin-contracts/contracts/utils/ReentrancyGuard.sol\":3586:3743  function _nonReentrantBeforeView() private view {... */\n    tag_403:\n      mload(0x00)\n      codecopy(0x00, data_c8669cf8eaf883002b9f48e28846a8d408c9b58ea6613bace374265e43c9bc43, 0x20)\n      mload(0x00)\n      swap1\n      0x00\n      mstore\n        /* \"lib/openzeppelin-contracts/contracts/utils/ReentrancyGuard.sol\":4560:4612  _reentrancyGuardStorageSlot().getUint256Slot().value */\n      sload\n        /* \"lib/openzeppelin-contracts/contracts/utils/ReentrancyGuard.sol\":2407:2408  2 */\n      0x02\n        /* \"lib/openzeppelin-contracts/contracts/utils/ReentrancyGuard.sol\":4560:4623  _reentrancyGuardStorageSlot().getUint256Slot().value == ENTERED */\n      sub\n        /* \"lib/openzeppelin-contracts/contracts/utils/ReentrancyGuard.sol\":3644:3737  if (_reentrancyGuardEntered()) {... */\n      tag_267\n      jumpi\n        /* \"lib/openzeppelin-contracts/contracts/utils/ReentrancyGuard.sol\":3696:3726  ReentrancyGuardReentrantCall() */\n      mload(0x40)\n      shl(0xe0, 0x3ee5aeb5)\n      dup2\n      mstore\n      0x04\n      add\n      mload(0x40)\n      dup1\n      swap2\n      sub\n      swap1\n      revert\n        /* \"lib/openzeppelin-contracts/contracts/token/ERC20/utils/SafeERC20.sol\":8373:9617  function _safeTransfer(IERC20 token, address to, uint256 value, bool bubble) private returns (bool success) {... */\n    tag_410:\n        /* \"lib/openzeppelin-contracts/contracts/token/ERC20/utils/SafeERC20.sol\":8600:8604  0x40 */\n      0x40\n        /* \"lib/openzeppelin-contracts/contracts/token/ERC20/utils/SafeERC20.sol\":8594:8605  mload(0x40) */\n      mload\n      shl(0xe0, 0xa9059cbb)\n        /* \"lib/openzeppelin-contracts/contracts/token/ERC20/utils/SafeERC20.sol\":8467:8479  bool success */\n      0x00\n        /* \"lib/openzeppelin-contracts/contracts/token/ERC20/utils/SafeERC20.sol\":8618:8640  mstore(0x00, selector) */\n      dup2\n      dup2\n      mstore\n      sub(shl(0xa0, 0x01), 0x01)\n        /* \"lib/openzeppelin-contracts/contracts/token/ERC20/utils/SafeERC20.sol\":8666:8690  and(to, shr(96, not(0))) */\n      dup7\n      and\n        /* \"lib/openzeppelin-contracts/contracts/token/ERC20/utils/SafeERC20.sol\":8660:8664  0x04 */\n      0x04\n        /* \"lib/openzeppelin-contracts/contracts/token/ERC20/utils/SafeERC20.sol\":8653:8691  mstore(0x04, and(to, shr(96, not(0)))) */\n      mstore\n        /* \"lib/openzeppelin-contracts/contracts/token/ERC20/utils/SafeERC20.sol\":8711:8715  0x24 */\n      0x24\n        /* \"lib/openzeppelin-contracts/contracts/token/ERC20/utils/SafeERC20.sol\":8704:8723  mstore(0x24, value) */\n      dup6\n      swap1\n      mstore\n        /* \"lib/openzeppelin-contracts/contracts/token/ERC20/utils/SafeERC20.sol\":8467:8479  bool success */\n      swap2\n        /* \"lib/openzeppelin-contracts/contracts/token/ERC20/utils/SafeERC20.sol\":8787:8791  0x20 */\n      0x20\n        /* \"lib/openzeppelin-contracts/contracts/token/ERC20/utils/SafeERC20.sol\":8467:8479  bool success */\n      dup4\n        /* \"lib/openzeppelin-contracts/contracts/token/ERC20/utils/SafeERC20.sol\":8775:8779  0x44 */\n      0x44\n        /* \"lib/openzeppelin-contracts/contracts/token/ERC20/utils/SafeERC20.sol\":8467:8479  bool success */\n      dup2\n      dup1\n        /* \"lib/openzeppelin-contracts/contracts/token/ERC20/utils/SafeERC20.sol\":8759:8764  token */\n      dup12\n        /* \"lib/openzeppelin-contracts/contracts/token/ERC20/utils/SafeERC20.sol\":8752:8757  gas() */\n      gas\n        /* \"lib/openzeppelin-contracts/contracts/token/ERC20/utils/SafeERC20.sol\":8747:8792  call(gas(), token, 0, 0x00, 0x44, 0x00, 0x20) */\n      call\n        /* \"lib/openzeppelin-contracts/contracts/token/ERC20/utils/SafeERC20.sol\":8736:8792  success := call(gas(), token, 0, 0x00, 0x44, 0x00, 0x20) */\n      swap3\n      pop\n        /* \"lib/openzeppelin-contracts/contracts/token/ERC20/utils/SafeERC20.sol\":9004:9005  1 */\n      0x01\n        /* \"lib/openzeppelin-contracts/contracts/token/ERC20/utils/SafeERC20.sol\":8997:9001  0x00 */\n      0x00\n        /* \"lib/openzeppelin-contracts/contracts/token/ERC20/utils/SafeERC20.sol\":8991:9002  mload(0x00) */\n      mload\n        /* \"lib/openzeppelin-contracts/contracts/token/ERC20/utils/SafeERC20.sol\":8988:9006  eq(mload(0x00), 1) */\n      eq\n        /* \"lib/openzeppelin-contracts/contracts/token/ERC20/utils/SafeERC20.sol\":8979:8986  success */\n      dup4\n        /* \"lib/openzeppelin-contracts/contracts/token/ERC20/utils/SafeERC20.sol\":8975:9007  and(success, eq(mload(0x00), 1)) */\n      and\n        /* \"lib/openzeppelin-contracts/contracts/token/ERC20/utils/SafeERC20.sol\":8965:9571  if iszero(and(success, eq(mload(0x00), 1))) {... */\n      tag_427\n      jumpi\n        /* \"lib/openzeppelin-contracts/contracts/token/ERC20/utils/SafeERC20.sol\":9136:9142  bubble */\n      dup4\n        /* \"lib/openzeppelin-contracts/contracts/token/ERC20/utils/SafeERC20.sol\":9126:9133  success */\n      dup4\n        /* \"lib/openzeppelin-contracts/contracts/token/ERC20/utils/SafeERC20.sol\":9119:9134  iszero(success) */\n      iszero\n        /* \"lib/openzeppelin-contracts/contracts/token/ERC20/utils/SafeERC20.sol\":9115:9143  and(iszero(success), bubble) */\n      and\n        /* \"lib/openzeppelin-contracts/contracts/token/ERC20/utils/SafeERC20.sol\":9112:9277  if and(iszero(success), bubble) {... */\n      iszero\n      tag_428\n      jumpi\n        /* \"lib/openzeppelin-contracts/contracts/token/ERC20/utils/SafeERC20.sol\":9192:9208  returndatasize() */\n      returndatasize\n        /* \"lib/openzeppelin-contracts/contracts/token/ERC20/utils/SafeERC20.sol\":9186:9190  0x00 */\n      0x00\n        /* \"lib/openzeppelin-contracts/contracts/token/ERC20/utils/SafeERC20.sol\":9181:9184  fmp */\n      dup3\n        /* \"lib/openzeppelin-contracts/contracts/token/ERC20/utils/SafeERC20.sol\":9166:9209  returndatacopy(fmp, 0x00, returndatasize()) */\n      returndatacopy\n        /* \"lib/openzeppelin-contracts/contracts/token/ERC20/utils/SafeERC20.sol\":9242:9258  returndatasize() */\n      returndatasize\n        /* \"lib/openzeppelin-contracts/contracts/token/ERC20/utils/SafeERC20.sol\":9237:9240  fmp */\n      dup2\n        /* \"lib/openzeppelin-contracts/contracts/token/ERC20/utils/SafeERC20.sol\":9230:9259  revert(fmp, returndatasize()) */\n      revert\n        /* \"lib/openzeppelin-contracts/contracts/token/ERC20/utils/SafeERC20.sol\":9112:9277  if and(iszero(success), bubble) {... */\n    tag_428:\n        /* \"lib/openzeppelin-contracts/contracts/token/ERC20/utils/SafeERC20.sol\":9553:9554  0 */\n      0x00\n        /* \"lib/openzeppelin-contracts/contracts/token/ERC20/utils/SafeERC20.sol\":9545:9550  token */\n      dup8\n        /* \"lib/openzeppelin-contracts/contracts/token/ERC20/utils/SafeERC20.sol\":9533:9551  extcodesize(token) */\n      extcodesize\n        /* \"lib/openzeppelin-contracts/contracts/token/ERC20/utils/SafeERC20.sol\":9530:9555  gt(extcodesize(token), 0) */\n      gt\n        /* \"lib/openzeppelin-contracts/contracts/token/ERC20/utils/SafeERC20.sol\":9511:9527  returndatasize() */\n      returndatasize\n        /* \"lib/openzeppelin-contracts/contracts/token/ERC20/utils/SafeERC20.sol\":9504:9528  iszero(returndatasize()) */\n      iszero\n        /* \"lib/openzeppelin-contracts/contracts/token/ERC20/utils/SafeERC20.sol\":9500:9556  and(iszero(returndatasize()), gt(extcodesize(token), 0)) */\n      and\n        /* \"lib/openzeppelin-contracts/contracts/token/ERC20/utils/SafeERC20.sol\":9491:9498  success */\n      dup4\n        /* \"lib/openzeppelin-contracts/contracts/token/ERC20/utils/SafeERC20.sol\":9487:9557  and(success, and(iszero(returndatasize()), gt(extcodesize(token), 0))) */\n      and\n        /* \"lib/openzeppelin-contracts/contracts/token/ERC20/utils/SafeERC20.sol\":9476:9557  success := and(success, and(iszero(returndatasize()), gt(extcodesize(token), 0))) */\n      swap3\n      pop\n        /* \"lib/openzeppelin-contracts/contracts/token/ERC20/utils/SafeERC20.sol\":8965:9571  if iszero(and(success, eq(mload(0x00), 1))) {... */\n    tag_427:\n        /* \"lib/openzeppelin-contracts/contracts/token/ERC20/utils/SafeERC20.sol\":9591:9595  0x40 */\n      0x40\n        /* \"lib/openzeppelin-contracts/contracts/token/ERC20/utils/SafeERC20.sol\":9584:9601  mstore(0x40, fmp) */\n      mstore\n      pop\n        /* \"lib/openzeppelin-contracts/contracts/token/ERC20/utils/SafeERC20.sol\":8373:9617  function _safeTransfer(IERC20 token, address to, uint256 value, bool bubble) private returns (bool success) {... */\n      swap5\n      swap4\n      pop\n      pop\n      pop\n      pop\n      jump\t// out\n    tag_159:\n      dup3\n      dup1\n      sload\n      dup3\n      dup3\n      sstore\n      swap1\n      0x00\n      mstore\n      keccak256(0x00, 0x20)\n      swap1\n      dup2\n      add\n      swap3\n      dup3\n      iszero\n      tag_434\n      jumpi\n      swap2\n      0x20\n      mul\n      dup3\n      add\n    tag_433:\n      dup3\n      dup2\n      gt\n      iszero\n      tag_434\n      jumpi\n      dup3\n      mload\n      dup3\n      sload\n      not(sub(shl(0xa0, 0x01), 0x01))\n      and\n      sub(shl(0xa0, 0x01), 0x01)\n      swap1\n      swap2\n      and\n      or\n      dup3\n      sstore\n      0x20\n      swap1\n      swap3\n      add\n      swap2\n      0x01\n      swap1\n      swap2\n      add\n      swap1\n      jump(tag_433)\n    tag_434:\n      pop\n      tag_435\n      swap3\n      swap2\n      pop\n      tag_436\n      jump\t// in\n    tag_435:\n      pop\n      swap1\n      jump\t// out\n    tag_172:\n      dup3\n      dup1\n      sload\n      dup3\n      dup3\n      sstore\n      swap1\n      0x00\n      mstore\n      keccak256(0x00, 0x20)\n      swap1\n      dup2\n      add\n      swap3\n      dup3\n      iszero\n      tag_434\n      jumpi\n      swap2\n      0x20\n      mul\n      dup3\n      add\n    tag_438:\n      dup3\n      dup2\n      gt\n      iszero\n      tag_434\n      jumpi\n      dup2\n      sload\n      not(sub(shl(0xa0, 0x01), 0x01))\n      and\n      sub(shl(0xa0, 0x01), 0x01)\n      dup5\n      calldataload\n      and\n      or\n      dup3\n      sstore\n      0x20\n      swap1\n      swap3\n      add\n      swap2\n      0x01\n      swap1\n      swap2\n      add\n      swap1\n      jump(tag_438)\n    tag_436:\n    tag_441:\n      dup1\n      dup3\n      gt\n      iszero\n      tag_435\n      jumpi\n      0x00\n      dup2\n      sstore\n      0x01\n      add\n      jump(tag_441)\n        /* \"#utility.yul\":14:164   */\n    tag_443:\n        /* \"#utility.yul\":89:109   */\n      dup1\n      calldataload\n        /* \"#utility.yul\":138:139   */\n      0x02\n        /* \"#utility.yul\":128:140   */\n      dup2\n      lt\n        /* \"#utility.yul\":118:158   */\n      tag_452\n      jumpi\n        /* \"#utility.yul\":154:155   */\n      0x00\n        /* \"#utility.yul\":151:152   */\n      0x00\n        /* \"#utility.yul\":144:156   */\n      revert\n        /* \"#utility.yul\":118:158   */\n    tag_452:\n        /* \"#utility.yul\":14:164   */\n      swap2\n      swap1\n      pop\n      jump\t// out\n        /* \"#utility.yul\":169:655   */\n    tag_25:\n        /* \"#utility.yul\":275:281   */\n      0x00\n        /* \"#utility.yul\":283:289   */\n      0x00\n        /* \"#utility.yul\":291:297   */\n      0x00\n        /* \"#utility.yul\":344:346   */\n      0x60\n        /* \"#utility.yul\":332:341   */\n      dup5\n        /* \"#utility.yul\":323:330   */\n      dup7\n        /* \"#utility.yul\":319:342   */\n      sub\n        /* \"#utility.yul\":315:347   */\n      slt\n        /* \"#utility.yul\":312:364   */\n      iszero\n      tag_454\n      jumpi\n        /* \"#utility.yul\":360:361   */\n      0x00\n        /* \"#utility.yul\":357:358   */\n      0x00\n        /* \"#utility.yul\":350:362   */\n      revert\n        /* \"#utility.yul\":312:364   */\n    tag_454:\n        /* \"#utility.yul\":383:419   */\n      tag_455\n        /* \"#utility.yul\":409:418   */\n      dup5\n        /* \"#utility.yul\":383:419   */\n      tag_443\n      jump\t// in\n    tag_455:\n        /* \"#utility.yul\":373:419   */\n      swap3\n      pop\n        /* \"#utility.yul\":488:490   */\n      0x20\n        /* \"#utility.yul\":473:491   */\n      dup5\n      add\n        /* \"#utility.yul\":460:492   */\n      calldataload\n      swap2\n      pop\n        /* \"#utility.yul\":568:570   */\n      0x40\n        /* \"#utility.yul\":553:571   */\n      dup5\n      add\n        /* \"#utility.yul\":540:572   */\n      calldataload\n        /* \"#utility.yul\":603:604   */\n      0x03\n        /* \"#utility.yul\":591:605   */\n      dup2\n      lt\n        /* \"#utility.yul\":581:623   */\n      tag_456\n      jumpi\n        /* \"#utility.yul\":619:620   */\n      0x00\n        /* \"#utility.yul\":616:617   */\n      0x00\n        /* \"#utility.yul\":609:621   */\n      revert\n        /* \"#utility.yul\":581:623   */\n    tag_456:\n        /* \"#utility.yul\":642:649   */\n      dup1\n        /* \"#utility.yul\":632:649   */\n      swap2\n      pop\n      pop\n        /* \"#utility.yul\":169:655   */\n      swap3\n      pop\n      swap3\n      pop\n      swap3\n      jump\t// out\n        /* \"#utility.yul\":1064:1431   */\n    tag_444:\n        /* \"#utility.yul\":1127:1135   */\n      0x00\n        /* \"#utility.yul\":1137:1143   */\n      0x00\n        /* \"#utility.yul\":1191:1194   */\n      dup4\n        /* \"#utility.yul\":1184:1188   */\n      0x1f\n        /* \"#utility.yul\":1176:1182   */\n      dup5\n        /* \"#utility.yul\":1172:1189   */\n      add\n        /* \"#utility.yul\":1168:1195   */\n      slt\n        /* \"#utility.yul\":1158:1213   */\n      tag_460\n      jumpi\n        /* \"#utility.yul\":1209:1210   */\n      0x00\n        /* \"#utility.yul\":1206:1207   */\n      0x00\n        /* \"#utility.yul\":1199:1211   */\n      revert\n        /* \"#utility.yul\":1158:1213   */\n    tag_460:\n      pop\n        /* \"#utility.yul\":1232:1252   */\n      dup2\n      calldataload\n        /* \"#utility.yul\":1275:1293   */\n      0xffffffffffffffff\n        /* \"#utility.yul\":1264:1294   */\n      dup2\n      gt\n        /* \"#utility.yul\":1261:1311   */\n      iszero\n      tag_461\n      jumpi\n        /* \"#utility.yul\":1307:1308   */\n      0x00\n        /* \"#utility.yul\":1304:1305   */\n      0x00\n        /* \"#utility.yul\":1297:1309   */\n      revert\n        /* \"#utility.yul\":1261:1311   */\n    tag_461:\n        /* \"#utility.yul\":1344:1348   */\n      0x20\n        /* \"#utility.yul\":1336:1342   */\n      dup4\n        /* \"#utility.yul\":1332:1349   */\n      add\n        /* \"#utility.yul\":1320:1349   */\n      swap2\n      pop\n        /* \"#utility.yul\":1404:1407   */\n      dup4\n        /* \"#utility.yul\":1397:1401   */\n      0x20\n        /* \"#utility.yul\":1387:1393   */\n      dup3\n        /* \"#utility.yul\":1384:1385   */\n      0x05\n        /* \"#utility.yul\":1380:1394   */\n      shl\n        /* \"#utility.yul\":1372:1378   */\n      dup6\n        /* \"#utility.yul\":1368:1395   */\n      add\n        /* \"#utility.yul\":1364:1402   */\n      add\n        /* \"#utility.yul\":1361:1408   */\n      gt\n        /* \"#utility.yul\":1358:1425   */\n      iszero\n      tag_462\n      jumpi\n        /* \"#utility.yul\":1421:1422   */\n      0x00\n        /* \"#utility.yul\":1418:1419   */\n      0x00\n        /* \"#utility.yul\":1411:1423   */\n      revert\n        /* \"#utility.yul\":1358:1425   */\n    tag_462:\n        /* \"#utility.yul\":1064:1431   */\n      swap3\n      pop\n      swap3\n      swap1\n      pop\n      jump\t// out\n        /* \"#utility.yul\":1436:2318   */\n    tag_37:\n        /* \"#utility.yul\":1567:1573   */\n      0x00\n        /* \"#utility.yul\":1575:1581   */\n      0x00\n        /* \"#utility.yul\":1583:1589   */\n      0x00\n        /* \"#utility.yul\":1591:1597   */\n      0x00\n        /* \"#utility.yul\":1599:1605   */\n      0x00\n        /* \"#utility.yul\":1652:1654   */\n      0x60\n        /* \"#utility.yul\":1640:1649   */\n      dup7\n        /* \"#utility.yul\":1631:1638   */\n      dup9\n        /* \"#utility.yul\":1627:1650   */\n      sub\n        /* \"#utility.yul\":1623:1655   */\n      slt\n        /* \"#utility.yul\":1620:1672   */\n      iszero\n      tag_464\n      jumpi\n        /* \"#utility.yul\":1668:1669   */\n      0x00\n        /* \"#utility.yul\":1665:1666   */\n      0x00\n        /* \"#utility.yul\":1658:1670   */\n      revert\n        /* \"#utility.yul\":1620:1672   */\n    tag_464:\n        /* \"#utility.yul\":1713:1736   */\n      dup6\n      calldataload\n      swap5\n      pop\n        /* \"#utility.yul\":1811:1813   */\n      0x20\n        /* \"#utility.yul\":1796:1814   */\n      dup7\n      add\n        /* \"#utility.yul\":1783:1815   */\n      calldataload\n        /* \"#utility.yul\":1838:1856   */\n      0xffffffffffffffff\n        /* \"#utility.yul\":1827:1857   */\n      dup2\n      gt\n        /* \"#utility.yul\":1824:1874   */\n      iszero\n      tag_465\n      jumpi\n        /* \"#utility.yul\":1870:1871   */\n      0x00\n        /* \"#utility.yul\":1867:1868   */\n      0x00\n        /* \"#utility.yul\":1860:1872   */\n      revert\n        /* \"#utility.yul\":1824:1874   */\n    tag_465:\n        /* \"#utility.yul\":1909:1979   */\n      tag_466\n        /* \"#utility.yul\":1971:1978   */\n      dup9\n        /* \"#utility.yul\":1962:1968   */\n      dup3\n        /* \"#utility.yul\":1951:1960   */\n      dup10\n        /* \"#utility.yul\":1947:1969   */\n      add\n        /* \"#utility.yul\":1909:1979   */\n      tag_444\n      jump\t// in\n    tag_466:\n        /* \"#utility.yul\":1998:2006   */\n      swap1\n      swap6\n      pop\n        /* \"#utility.yul\":1883:1979   */\n      swap4\n      pop\n      pop\n        /* \"#utility.yul\":2086:2088   */\n      0x40\n        /* \"#utility.yul\":2071:2089   */\n      dup7\n      add\n        /* \"#utility.yul\":2058:2090   */\n      calldataload\n        /* \"#utility.yul\":2115:2133   */\n      0xffffffffffffffff\n        /* \"#utility.yul\":2102:2134   */\n      dup2\n      gt\n        /* \"#utility.yul\":2099:2151   */\n      iszero\n      tag_467\n      jumpi\n        /* \"#utility.yul\":2147:2148   */\n      0x00\n        /* \"#utility.yul\":2144:2145   */\n      0x00\n        /* \"#utility.yul\":2137:2149   */\n      revert\n        /* \"#utility.yul\":2099:2151   */\n    tag_467:\n        /* \"#utility.yul\":2186:2258   */\n      tag_468\n        /* \"#utility.yul\":2250:2257   */\n      dup9\n        /* \"#utility.yul\":2239:2247   */\n      dup3\n        /* \"#utility.yul\":2228:2237   */\n      dup10\n        /* \"#utility.yul\":2224:2248   */\n      add\n        /* \"#utility.yul\":2186:2258   */\n      tag_444\n      jump\t// in\n    tag_468:\n        /* \"#utility.yul\":1436:2318   */\n      swap7\n      swap10\n      swap6\n      swap9\n      pop\n      swap4\n      swap7\n      pop\n        /* \"#utility.yul\":2277:2285   */\n      swap3\n      swap5\n        /* \"#utility.yul\":2160:2258   */\n      swap4\n        /* \"#utility.yul\":1436:2318   */\n      swap3\n      pop\n      pop\n      pop\n      jump\t// out\n        /* \"#utility.yul\":2505:2731   */\n    tag_47:\n        /* \"#utility.yul\":2564:2570   */\n      0x00\n        /* \"#utility.yul\":2617:2619   */\n      0x20\n        /* \"#utility.yul\":2605:2614   */\n      dup3\n        /* \"#utility.yul\":2596:2603   */\n      dup5\n        /* \"#utility.yul\":2592:2615   */\n      sub\n        /* \"#utility.yul\":2588:2620   */\n      slt\n        /* \"#utility.yul\":2585:2637   */\n      iszero\n      tag_471\n      jumpi\n        /* \"#utility.yul\":2633:2634   */\n      0x00\n        /* \"#utility.yul\":2630:2631   */\n      0x00\n        /* \"#utility.yul\":2623:2635   */\n      revert\n        /* \"#utility.yul\":2585:2637   */\n    tag_471:\n      pop\n        /* \"#utility.yul\":2678:2701   */\n      calldataload\n      swap2\n        /* \"#utility.yul\":2505:2731   */\n      swap1\n      pop\n      jump\t// out\n        /* \"#utility.yul\":2944:3117   */\n    tag_445:\n        /* \"#utility.yul\":3012:3032   */\n      dup1\n      calldataload\n      sub(shl(0xa0, 0x01), 0x01)\n        /* \"#utility.yul\":3061:3092   */\n      dup2\n      and\n        /* \"#utility.yul\":3051:3093   */\n      dup2\n      eq\n        /* \"#utility.yul\":3041:3111   */\n      tag_452\n      jumpi\n        /* \"#utility.yul\":3107:3108   */\n      0x00\n        /* \"#utility.yul\":3104:3105   */\n      0x00\n        /* \"#utility.yul\":3097:3109   */\n      revert\n        /* \"#utility.yul\":3122:3422   */\n    tag_69:\n        /* \"#utility.yul\":3190:3196   */\n      0x00\n        /* \"#utility.yul\":3198:3204   */\n      0x00\n        /* \"#utility.yul\":3251:3253   */\n      0x40\n        /* \"#utility.yul\":3239:3248   */\n      dup4\n        /* \"#utility.yul\":3230:3237   */\n      dup6\n        /* \"#utility.yul\":3226:3249   */\n      sub\n        /* \"#utility.yul\":3222:3254   */\n      slt\n        /* \"#utility.yul\":3219:3271   */\n      iszero\n      tag_476\n      jumpi\n        /* \"#utility.yul\":3267:3268   */\n      0x00\n        /* \"#utility.yul\":3264:3265   */\n      0x00\n        /* \"#utility.yul\":3257:3269   */\n      revert\n        /* \"#utility.yul\":3219:3271   */\n    tag_476:\n        /* \"#utility.yul\":3312:3335   */\n      dup3\n      calldataload\n      swap2\n      pop\n        /* \"#utility.yul\":3378:3416   */\n      tag_477\n        /* \"#utility.yul\":3412:3414   */\n      0x20\n        /* \"#utility.yul\":3397:3415   */\n      dup5\n      add\n        /* \"#utility.yul\":3378:3416   */\n      tag_445\n      jump\t// in\n    tag_477:\n        /* \"#utility.yul\":3368:3416   */\n      swap1\n      pop\n        /* \"#utility.yul\":3122:3422   */\n      swap3\n      pop\n      swap3\n      swap1\n      pop\n      jump\t// out\n        /* \"#utility.yul\":3427:3708   */\n    tag_74:\n        /* \"#utility.yul\":3509:3515   */\n      0x00\n        /* \"#utility.yul\":3517:3523   */\n      0x00\n        /* \"#utility.yul\":3570:3572   */\n      0x40\n        /* \"#utility.yul\":3558:3567   */\n      dup4\n        /* \"#utility.yul\":3549:3556   */\n      dup6\n        /* \"#utility.yul\":3545:3568   */\n      sub\n        /* \"#utility.yul\":3541:3573   */\n      slt\n        /* \"#utility.yul\":3538:3590   */\n      iszero\n      tag_479\n      jumpi\n        /* \"#utility.yul\":3586:3587   */\n      0x00\n        /* \"#utility.yul\":3583:3584   */\n      0x00\n        /* \"#utility.yul\":3576:3588   */\n      revert\n        /* \"#utility.yul\":3538:3590   */\n    tag_479:\n        /* \"#utility.yul\":3609:3645   */\n      tag_480\n        /* \"#utility.yul\":3635:3644   */\n      dup4\n        /* \"#utility.yul\":3609:3645   */\n      tag_443\n      jump\t// in\n    tag_480:\n        /* \"#utility.yul\":3599:3645   */\n      swap2\n      pop\n        /* \"#utility.yul\":3664:3702   */\n      tag_477\n        /* \"#utility.yul\":3698:3700   */\n      0x20\n        /* \"#utility.yul\":3687:3696   */\n      dup5\n        /* \"#utility.yul\":3683:3701   */\n      add\n        /* \"#utility.yul\":3664:3702   */\n      tag_445\n      jump\t// in\n        /* \"#utility.yul\":4001:4612   */\n    tag_86:\n        /* \"#utility.yul\":4191:4193   */\n      0x20\n        /* \"#utility.yul\":4203:4224   */\n      dup1\n      dup3\n      mstore\n        /* \"#utility.yul\":4273:4286   */\n      dup3\n      mload\n        /* \"#utility.yul\":4176:4194   */\n      dup3\n      dup3\n      add\n        /* \"#utility.yul\":4295:4317   */\n      dup2\n      swap1\n      mstore\n        /* \"#utility.yul\":4143:4147   */\n      0x00\n      swap2\n        /* \"#utility.yul\":4374:4389   */\n      dup5\n      add\n      swap1\n        /* \"#utility.yul\":4348:4350   */\n      0x40\n        /* \"#utility.yul\":4333:4351   */\n      dup5\n      add\n      swap1\n        /* \"#utility.yul\":4143:4147   */\n      dup4\n        /* \"#utility.yul\":4417:4586   */\n    tag_485:\n        /* \"#utility.yul\":4431:4437   */\n      dup2\n        /* \"#utility.yul\":4428:4429   */\n      dup2\n        /* \"#utility.yul\":4425:4438   */\n      lt\n        /* \"#utility.yul\":4417:4586   */\n      iszero\n      tag_487\n      jumpi\n        /* \"#utility.yul\":4492:4505   */\n      dup4\n      mload\n        /* \"#utility.yul\":4480:4506   */\n      dup4\n      mstore\n        /* \"#utility.yul\":4535:4537   */\n      0x20\n        /* \"#utility.yul\":4561:4576   */\n      swap4\n      dup5\n      add\n      swap4\n        /* \"#utility.yul\":4526:4538   */\n      swap1\n      swap3\n      add\n      swap2\n        /* \"#utility.yul\":4453:4454   */\n      0x01\n        /* \"#utility.yul\":4446:4455   */\n      add\n        /* \"#utility.yul\":4417:4586   */\n      jump(tag_485)\n    tag_487:\n      pop\n        /* \"#utility.yul\":4603:4606   */\n      swap1\n      swap6\n        /* \"#utility.yul\":4001:4612   */\n      swap5\n      pop\n      pop\n      pop\n      pop\n      pop\n      jump\t// out\n        /* \"#utility.yul\":4848:4975   */\n    tag_124:\n        /* \"#utility.yul\":4909:4919   */\n      0x4e487b71\n        /* \"#utility.yul\":4904:4907   */\n      0xe0\n        /* \"#utility.yul\":4900:4920   */\n      shl\n        /* \"#utility.yul\":4897:4898   */\n      0x00\n        /* \"#utility.yul\":4890:4921   */\n      mstore\n        /* \"#utility.yul\":4940:4944   */\n      0x21\n        /* \"#utility.yul\":4937:4938   */\n      0x04\n        /* \"#utility.yul\":4930:4945   */\n      mstore\n        /* \"#utility.yul\":4964:4968   */\n      0x24\n        /* \"#utility.yul\":4961:4962   */\n      0x00\n        /* \"#utility.yul\":4954:4969   */\n      revert\n        /* \"#utility.yul\":4980:5120   */\n    tag_447:\n        /* \"#utility.yul\":5061:5062   */\n      0x02\n        /* \"#utility.yul\":5054:5059   */\n      dup2\n        /* \"#utility.yul\":5051:5063   */\n      lt\n        /* \"#utility.yul\":5041:5087   */\n      tag_493\n      jumpi\n        /* \"#utility.yul\":5067:5085   */\n      tag_493\n      tag_124\n      jump\t// in\n    tag_493:\n        /* \"#utility.yul\":5096:5114   */\n      swap1\n      mstore\n        /* \"#utility.yul\":4980:5120   */\n      jump\t// out\n        /* \"#utility.yul\":5125:5266   */\n    tag_448:\n        /* \"#utility.yul\":5207:5208   */\n      0x03\n        /* \"#utility.yul\":5200:5205   */\n      dup2\n        /* \"#utility.yul\":5197:5209   */\n      lt\n        /* \"#utility.yul\":5187:5233   */\n      tag_493\n      jumpi\n        /* \"#utility.yul\":5213:5231   */\n      tag_493\n      tag_124\n      jump\t// in\n        /* \"#utility.yul\":5271:6508   */\n    tag_93:\n      sub(shl(0xa0, 0x01), 0x01)\n        /* \"#utility.yul\":5701:5733   */\n      dup10\n      and\n        /* \"#utility.yul\":5683:5734   */\n      dup2\n      mstore\n        /* \"#utility.yul\":5670:5673   */\n      0x0100\n        /* \"#utility.yul\":5765:5767   */\n      0x20\n        /* \"#utility.yul\":5750:5768   */\n      dup1\n      dup4\n      add\n        /* \"#utility.yul\":5743:5774   */\n      dup3\n      swap1\n      mstore\n        /* \"#utility.yul\":5823:5836   */\n      dup10\n      mload\n        /* \"#utility.yul\":5655:5674   */\n      swap2\n      dup4\n      add\n        /* \"#utility.yul\":5845:5867   */\n      dup3\n      swap1\n      mstore\n        /* \"#utility.yul\":5622:5626   */\n      0x00\n      swap2\n        /* \"#utility.yul\":5925:5940   */\n      swap1\n      dup11\n      add\n      swap1\n        /* \"#utility.yul\":5898:5901   */\n      0x0120\n        /* \"#utility.yul\":5883:5902   */\n      dup5\n      add\n      swap1\n        /* \"#utility.yul\":5622:5626   */\n      dup4\n        /* \"#utility.yul\":5968:6163   */\n    tag_498:\n        /* \"#utility.yul\":5982:5988   */\n      dup2\n        /* \"#utility.yul\":5979:5980   */\n      dup2\n        /* \"#utility.yul\":5976:5989   */\n      lt\n        /* \"#utility.yul\":5968:6163   */\n      iszero\n      tag_500\n      jumpi\n        /* \"#utility.yul\":6047:6060   */\n      dup4\n      mload\n      sub(shl(0xa0, 0x01), 0x01)\n        /* \"#utility.yul\":6043:6082   */\n      and\n        /* \"#utility.yul\":6031:6083   */\n      dup4\n      mstore\n        /* \"#utility.yul\":6112:6114   */\n      0x20\n        /* \"#utility.yul\":6138:6153   */\n      swap4\n      dup5\n      add\n      swap4\n        /* \"#utility.yul\":6103:6115   */\n      swap1\n      swap3\n      add\n      swap2\n        /* \"#utility.yul\":6079:6080   */\n      0x01\n        /* \"#utility.yul\":5997:6006   */\n      add\n        /* \"#utility.yul\":5968:6163   */\n      jump(tag_498)\n    tag_500:\n        /* \"#utility.yul\":5972:5975   */\n      pop\n      pop\n        /* \"#utility.yul\":6180:6183   */\n      dup1\n        /* \"#utility.yul\":6172:6183   */\n      swap3\n      pop\n      pop\n      pop\n        /* \"#utility.yul\":6219:6225   */\n      dup8\n        /* \"#utility.yul\":6214:6216   */\n      0x40\n        /* \"#utility.yul\":6203:6212   */\n      dup4\n        /* \"#utility.yul\":6199:6217   */\n      add\n        /* \"#utility.yul\":6192:6226   */\n      mstore\n        /* \"#utility.yul\":6262:6268   */\n      dup7\n        /* \"#utility.yul\":6257:6259   */\n      0x60\n        /* \"#utility.yul\":6246:6255   */\n      dup4\n        /* \"#utility.yul\":6242:6260   */\n      add\n        /* \"#utility.yul\":6235:6269   */\n      mstore\n        /* \"#utility.yul\":6278:6322   */\n      tag_501\n        /* \"#utility.yul\":6317:6320   */\n      0x80\n        /* \"#utility.yul\":6306:6315   */\n      dup4\n        /* \"#utility.yul\":6302:6321   */\n      add\n        /* \"#utility.yul\":6294:6300   */\n      dup8\n        /* \"#utility.yul\":3783:3796   */\n      iszero\n        /* \"#utility.yul\":3776:3797   */\n      iszero\n        /* \"#utility.yul\":3764:3798   */\n      swap1\n      mstore\n        /* \"#utility.yul\":3713:3804   */\n      jump\n        /* \"#utility.yul\":6278:6322   */\n    tag_501:\n        /* \"#utility.yul\":3783:3796   */\n      dup5\n      iszero\n        /* \"#utility.yul\":3776:3797   */\n      iszero\n        /* \"#utility.yul\":6370:6373   */\n      0xa0\n        /* \"#utility.yul\":6355:6374   */\n      dup4\n      add\n        /* \"#utility.yul\":3764:3798   */\n      mstore\n        /* \"#utility.yul\":6384:6438   */\n      tag_503\n        /* \"#utility.yul\":6433:6436   */\n      0xc0\n        /* \"#utility.yul\":6422:6431   */\n      dup4\n        /* \"#utility.yul\":6418:6437   */\n      add\n        /* \"#utility.yul\":6410:6416   */\n      dup6\n        /* \"#utility.yul\":6384:6438   */\n      tag_447\n      jump\t// in\n    tag_503:\n        /* \"#utility.yul\":6447:6502   */\n      tag_504\n        /* \"#utility.yul\":6497:6500   */\n      0xe0\n        /* \"#utility.yul\":6486:6495   */\n      dup4\n        /* \"#utility.yul\":6482:6501   */\n      add\n        /* \"#utility.yul\":6474:6480   */\n      dup5\n        /* \"#utility.yul\":6447:6502   */\n      tag_448\n      jump\t// in\n    tag_504:\n        /* \"#utility.yul\":5271:6508   */\n      swap10\n      swap9\n      pop\n      pop\n      pop\n      pop\n      pop\n      pop\n      pop\n      pop\n      pop\n      jump\t// out\n        /* \"#utility.yul\":6513:6699   */\n    tag_106:\n        /* \"#utility.yul\":6572:6578   */\n      0x00\n        /* \"#utility.yul\":6625:6627   */\n      0x20\n        /* \"#utility.yul\":6613:6622   */\n      dup3\n        /* \"#utility.yul\":6604:6611   */\n      dup5\n        /* \"#utility.yul\":6600:6623   */\n      sub\n        /* \"#utility.yul\":6596:6628   */\n      slt\n        /* \"#utility.yul\":6593:6645   */\n      iszero\n      tag_506\n      jumpi\n        /* \"#utility.yul\":6641:6642   */\n      0x00\n        /* \"#utility.yul\":6638:6639   */\n      0x00\n        /* \"#utility.yul\":6631:6643   */\n      revert\n        /* \"#utility.yul\":6593:6645   */\n    tag_506:\n        /* \"#utility.yul\":6664:6693   */\n      tag_507\n        /* \"#utility.yul\":6683:6692   */\n      dup3\n        /* \"#utility.yul\":6664:6693   */\n      tag_445\n      jump\t// in\n    tag_507:\n        /* \"#utility.yul\":6654:6693   */\n      swap4\n        /* \"#utility.yul\":6513:6699   */\n      swap3\n      pop\n      pop\n      pop\n      jump\t// out\n        /* \"#utility.yul\":7051:7178   */\n    tag_449:\n        /* \"#utility.yul\":7112:7122   */\n      0x4e487b71\n        /* \"#utility.yul\":7107:7110   */\n      0xe0\n        /* \"#utility.yul\":7103:7123   */\n      shl\n        /* \"#utility.yul\":7100:7101   */\n      0x00\n        /* \"#utility.yul\":7093:7124   */\n      mstore\n        /* \"#utility.yul\":7143:7147   */\n      0x11\n        /* \"#utility.yul\":7140:7141   */\n      0x04\n        /* \"#utility.yul\":7133:7148   */\n      mstore\n        /* \"#utility.yul\":7167:7171   */\n      0x24\n        /* \"#utility.yul\":7164:7165   */\n      0x00\n        /* \"#utility.yul\":7157:7172   */\n      revert\n        /* \"#utility.yul\":7183:7351   */\n    tag_117:\n        /* \"#utility.yul\":7256:7265   */\n      dup1\n      dup3\n      mul\n        /* \"#utility.yul\":7287:7296   */\n      dup2\n      iszero\n        /* \"#utility.yul\":7304:7319   */\n      dup3\n      dup3\n      div\n        /* \"#utility.yul\":7298:7320   */\n      dup5\n      eq\n        /* \"#utility.yul\":7284:7321   */\n      or\n        /* \"#utility.yul\":7274:7345   */\n      tag_512\n      jumpi\n        /* \"#utility.yul\":7325:7343   */\n      tag_512\n      tag_449\n      jump\t// in\n    tag_512:\n        /* \"#utility.yul\":7183:7351   */\n      swap3\n      swap2\n      pop\n      pop\n      jump\t// out\n        /* \"#utility.yul\":7356:7573   */\n    tag_119:\n        /* \"#utility.yul\":7396:7397   */\n      0x00\n        /* \"#utility.yul\":7422:7423   */\n      dup3\n        /* \"#utility.yul\":7412:7544   */\n      tag_514\n      jumpi\n        /* \"#utility.yul\":7466:7476   */\n      0x4e487b71\n        /* \"#utility.yul\":7461:7464   */\n      0xe0\n        /* \"#utility.yul\":7457:7477   */\n      shl\n        /* \"#utility.yul\":7454:7455   */\n      0x00\n        /* \"#utility.yul\":7447:7478   */\n      mstore\n        /* \"#utility.yul\":7501:7505   */\n      0x12\n        /* \"#utility.yul\":7498:7499   */\n      0x04\n        /* \"#utility.yul\":7491:7506   */\n      mstore\n        /* \"#utility.yul\":7529:7533   */\n      0x24\n        /* \"#utility.yul\":7526:7527   */\n      0x00\n        /* \"#utility.yul\":7519:7534   */\n      revert\n        /* \"#utility.yul\":7412:7544   */\n    tag_514:\n      pop\n        /* \"#utility.yul\":7558:7567   */\n      div\n      swap1\n        /* \"#utility.yul\":7356:7573   */\n      jump\t// out\n        /* \"#utility.yul\":7578:7703   */\n    tag_121:\n        /* \"#utility.yul\":7643:7652   */\n      dup1\n      dup3\n      add\n        /* \"#utility.yul\":7664:7674   */\n      dup1\n      dup3\n      gt\n        /* \"#utility.yul\":7661:7697   */\n      iszero\n      tag_512\n      jumpi\n        /* \"#utility.yul\":7677:7695   */\n      tag_512\n      tag_449\n      jump\t// in\n        /* \"#utility.yul\":8898:9523   */\n    tag_161:\n        /* \"#utility.yul\":9210:9235   */\n      dup7\n      dup2\n      mstore\n      sub(shl(0xa0, 0x01), 0x01)\n        /* \"#utility.yul\":9271:9303   */\n      dup7\n      and\n        /* \"#utility.yul\":9266:9268   */\n      0x20\n        /* \"#utility.yul\":9251:9269   */\n      dup3\n      add\n        /* \"#utility.yul\":9244:9304   */\n      mstore\n        /* \"#utility.yul\":9335:9337   */\n      0x40\n        /* \"#utility.yul\":9320:9338   */\n      dup2\n      add\n        /* \"#utility.yul\":9313:9347   */\n      dup6\n      swap1\n      mstore\n        /* \"#utility.yul\":9378:9380   */\n      0x60\n        /* \"#utility.yul\":9363:9381   */\n      dup2\n      add\n        /* \"#utility.yul\":9356:9390   */\n      dup5\n      swap1\n      mstore\n        /* \"#utility.yul\":9197:9200   */\n      0xc0\n        /* \"#utility.yul\":9182:9201   */\n      dup2\n      add\n        /* \"#utility.yul\":9399:9453   */\n      tag_523\n        /* \"#utility.yul\":9448:9451   */\n      0x80\n        /* \"#utility.yul\":9433:9452   */\n      dup4\n      add\n        /* \"#utility.yul\":9425:9431   */\n      dup6\n        /* \"#utility.yul\":9399:9453   */\n      tag_447\n      jump\t// in\n    tag_523:\n        /* \"#utility.yul\":9462:9517   */\n      tag_524\n        /* \"#utility.yul\":9512:9515   */\n      0xa0\n        /* \"#utility.yul\":9501:9510   */\n      dup4\n        /* \"#utility.yul\":9497:9516   */\n      add\n        /* \"#utility.yul\":9489:9495   */\n      dup5\n        /* \"#utility.yul\":9462:9517   */\n      tag_448\n      jump\t// in\n    tag_524:\n        /* \"#utility.yul\":8898:9523   */\n      swap8\n      swap7\n      pop\n      pop\n      pop\n      pop\n      pop\n      pop\n      pop\n      jump\t// out\n        /* \"#utility.yul\":10905:11032   */\n    tag_184:\n        /* \"#utility.yul\":10966:10976   */\n      0x4e487b71\n        /* \"#utility.yul\":10961:10964   */\n      0xe0\n        /* \"#utility.yul\":10957:10977   */\n      shl\n        /* \"#utility.yul\":10954:10955   */\n      0x00\n        /* \"#utility.yul\":10947:10978   */\n      mstore\n        /* \"#utility.yul\":10997:11001   */\n      0x32\n        /* \"#utility.yul\":10994:10995   */\n      0x04\n        /* \"#utility.yul\":10987:11002   */\n      mstore\n        /* \"#utility.yul\":11021:11025   */\n      0x24\n        /* \"#utility.yul\":11018:11019   */\n      0x00\n        /* \"#utility.yul\":11011:11026   */\n      revert\n        /* \"#utility.yul\":11725:11853   */\n    tag_216:\n        /* \"#utility.yul\":11792:11801   */\n      dup2\n      dup2\n      sub\n        /* \"#utility.yul\":11813:11824   */\n      dup2\n      dup2\n      gt\n        /* \"#utility.yul\":11810:11847   */\n      iszero\n      tag_512\n      jumpi\n        /* \"#utility.yul\":11827:11845   */\n      tag_512\n      tag_449\n      jump\t// in\n    stop\n    data_c8669cf8eaf883002b9f48e28846a8d408c9b58ea6613bace374265e43c9bc43 9b779b17422d0df92223018b32b4d1fa46e071723d6817e2486d003becc55f00\n\n    auxdata: 0xa264697066735822122061fafa65a49540f340b3cde1833e8fc79a8181c064c713d5f014e5e6bd1981e764736f6c634300081e0033\n}\n",
				"bytecode": {
					"linkReferences": {},
					"object": "608060405234801561000f575f5ffd5b50604051611edb380380611edb83398101604081905261002e91610171565b816001600160a01b03811661005d57604051631e4fbdf760e01b81525f60048201526024015b60405180910390fd5b61006681610107565b5060017f9b779b17422d0df92223018b32b4d1fa46e071723d6817e2486d003becc55f00556001600160a01b0381166100e15760405162461bcd60e51b815260206004820152601460248201527f496e76616c6964205553444320616464726573730000000000000000000000006044820152606401610054565b600180546001600160a01b0319166001600160a01b0392909216919091179055506101a2565b5f80546001600160a01b038381166001600160a01b0319831681178455604051919092169283917f8be0079c531659141344cd1fd0a4f28419497f9722a3daafe3b4186f6b6457e09190a35050565b80516001600160a01b038116811461016c575f5ffd5b919050565b5f5f60408385031215610182575f5ffd5b61018b83610156565b915061019960208401610156565b90509250929050565b611d2c806101af5f395ff3fe608060405260043610610105575f3560e01c8063a38e3aed11610092578063e1e538cc11610062578063e1e538cc146102bc578063eaf98d2314610187578063ebce3cf3146102ef578063f2fde38b14610325578063f541402314610344575f5ffd5b8063a38e3aed14610214578063dd6ad76414610233578063dfcae62214610252578063e0baf5ac1461029b575f5ffd5b806330718703116100d8578063307187031461019b57806343d34a17146101ba578063715018a6146101cf5780638da5cb5b146101e3578063952c1c85146101ff575f5ffd5b80630c9e2cc51461010957806311eac8551461012f578063176a827b1461016657806329a62a7614610187575b5f5ffd5b61011c610117366004611945565b610363565b6040519081526020015b60405180910390f35b34801561013a575f5ffd5b5060015461014e906001600160a01b031681565b6040516001600160a01b039091168152602001610126565b348015610171575f5ffd5b506101856101803660046119cd565b610717565b005b348015610192575f5ffd5b5061011c600581565b3480156101a6575f5ffd5b5061011c6101b5366004611a46565b610cef565b3480156101c5575f5ffd5b5061011c60035481565b3480156101da575f5ffd5b50610185610d0e565b3480156101ee575f5ffd5b505f546001600160a01b031661014e565b34801561020a575f5ffd5b5061011c60045481565b34801561021f575f5ffd5b5061018561022e366004611a73565b610d21565b34801561023e575f5ffd5b5061018561024d366004611a9d565b610f1b565b34801561025d575f5ffd5b5061028b61026c366004611a73565b600860209081525f928352604080842090915290825290205460ff1681565b6040519015158152602001610126565b3480156102a6575f5ffd5b506102af61118c565b6040516101269190611ac5565b3480156102c7575f5ffd5b506102db6102d6366004611a46565b6111e2565b604051610126989796959493929190611b3f565b3480156102fa575f5ffd5b5061011c610309366004611a73565b600760209081525f928352604080842090915290825290205481565b348015610330575f5ffd5b5061018561033f366004611be3565b6112b7565b34801561034f575f5ffd5b5061018561035e366004611a46565b6112f4565b5f5f83116103ad5760405162461bcd60e51b81526020600482015260126024820152710526577617264206d757374206265203e20360741b60448201526064015b60405180910390fd5b5f60646103bb600586611c17565b6103c59190611c34565b90505f6103d28286611c53565b90505f8660018111156103e7576103e7611b07565b0361044f57803410156104335760405162461bcd60e51b8152602060048201526014602482015273125b98dbdc9c9958dd0811551208185b5bdd5b9d60621b60448201526064016103a4565b8160035f8282546104449190611c53565b909155506104bf9050565b34156104905760405162461bcd60e51b815260206004820152601060248201526f115512081b9bdd081858d8d95c1d195960821b60448201526064016103a4565b6001546104a8906001600160a01b0316333084611660565b8160045f8282546104b99190611c53565b90915550505b6104cd600280546001019055565b5f6104d760025490565b6040805160208101929092526bffffffffffffffffffffffff193360601b169082015242605482015260740160408051601f19818403018152828252805160209182012060068054600181810183555f929092527ff652222313e28459528d920b65115c16c04f3efc82aaedc97be59f3f377c0d3f01829055610100850184528a8552918401879052935090820190899081111561057757610577611b07565b815260200186600281111561058e5761058e611b07565b81523360208201526040015f6040519080825280602002602001820160405280156105c3578160200160208202803683370190505b5081525f60208083018290526040928301829052848252600581529082902083518155908301516001828101919091559183015160028201805492939192909160ff1990911690838181111561061b5761061b611b07565b021790555060608201518160020160016101000a81548160ff0219169083600281111561064a5761064a611b07565b021790555060808201516002820180546001600160a01b03909216620100000262010000600160b01b031990921691909117905560a0820151805161069991600384019160209091019061186a565b5060c08201516004909101805460e09093015115156101000261ff00199215159290921661ffff19909316929092171790556040517f3defe6f195ebaadc1bfa70c40f9196517d5a2952586ec97aa07edcdb82137e4c9061070590839033908a9088908d908c90611c66565b60405180910390a19695505050505050565b5f85815260056020526040902060028101546201000090046001600160a01b031633148061074e57505f546001600160a01b031633145b6107895760405162461bcd60e51b815260206004820152600c60248201526b155b985d5d1a1bdc9a5e995960a21b60448201526064016103a4565b600481015460ff16156107d15760405162461bcd60e51b815260206004820152601060248201526f105b1c9958591e48185cdcda59db995960821b60448201526064016103a4565b836107e06003830187836118cd565b5060028110156108265760405162461bcd60e51b81526020600482015260116024820152704d696e696d756d20322077696e6e65727360781b60448201526064016103a4565b600581111561086a5760405162461bcd60e51b815260206004820152601060248201526f546f6f206d616e792077696e6e65727360801b60448201526064016103a4565b5f5b818110156109ab575f87878381811061088757610887611caf565b905060200201602081019061089c9190611be3565b6001600160a01b0316036108e35760405162461bcd60e51b815260206004820152600e60248201526d24b73b30b634b2103bb4b73732b960911b60448201526064016103a4565b5f6108ef826001611c53565b90505b828110156109a25787878281811061090c5761090c611caf565b90506020020160208101906109219190611be3565b6001600160a01b031688888481811061093c5761093c611caf565b90506020020160208101906109519190611be3565b6001600160a01b03160361099a5760405162461bcd60e51b815260206004820152601060248201526f223ab83634b1b0ba32903bb4b73732b960811b60448201526064016103a4565b6001016108f2565b5060010161086c565b5081545f6001600285810154610100900460ff16908111156109cf576109cf611b07565b03610ad1575f6109df8484611c34565b90505f5b84811015610a4e575f8b815260076020526040812083918c8c85818110610a0c57610a0c611caf565b9050602002016020810190610a219190611be3565b6001600160a01b0316815260208101919091526040015f2055610a448284611c53565b92506001016109e3565b50610a598284611cc3565b5f8b8152600760205260408120908b8b610a7460018a611cc3565b818110610a8357610a83611caf565b9050602002016020810190610a989190611be3565b6001600160a01b03166001600160a01b031681526020019081526020015f205f828254610ac59190611c53565b90915550610c9b915050565b60028085810154610100900460ff1690811115610af057610af0611b07565b03610c5d57848314610b375760405162461bcd60e51b815260206004820152601060248201526f0a0cae4c6cadce840dad2e6dac2e8c6d60831b60448201526064016103a4565b5f805b84811015610b7057878782818110610b5457610b54611caf565b9050602002013582610b669190611c53565b9150600101610b3a565b5080606414610bba5760405162461bcd60e51b8152602060048201526016602482015275050657263656e74206d75737420657175616c203130360541b60448201526064016103a4565b5f5b84811015610a4e575f6064898984818110610bd957610bd9611caf565b9050602002013586610beb9190611c17565b610bf59190611c34565b5f8d81526007602052604081209192508291908d8d86818110610c1a57610c1a611caf565b9050602002016020810190610c2f9190611be3565b6001600160a01b0316815260208101919091526040015f2055610c528185611c53565b935050600101610bbc565b60405162461bcd60e51b8152602060048201526013602482015272496e76616c6964207061796f7574207479706560681b60448201526064016103a4565b60048401805460ff191660011790556040517f6dab96af34df7ddd951654f9a9a6f37e2aee879986b24166d40d7a6f13687ebd90610cdc908b815260200190565b60405180910390a1505050505050505050565b60068181548110610cfe575f80fd5b5f91825260209091200154905081565b610d1661169c565b610d1f5f6116c8565b565b5f82815260056020526040902060028101546201000090046001600160a01b0316331480610d5857505f546001600160a01b031633145b610d935760405162461bcd60e51b815260206004820152600c60248201526b155b985d5d1a1bdc9a5e995960a21b60448201526064016103a4565b600481015460ff1615610ddb5760405162461bcd60e51b815260206004820152601060248201526f105b1c9958591e48185cdcda59db995960821b60448201526064016103a4565b5f600282810154610100900460ff1690811115610dfa57610dfa611b07565b14610e3d5760405162461bcd60e51b8152602060048201526013602482015272496e76616c6964207061796f7574207479706560681b60448201526064016103a4565b6001600160a01b038216610e845760405162461bcd60e51b815260206004820152600e60248201526d24b73b30b634b2103bb4b73732b960911b60448201526064016103a4565b80545f8481526007602090815260408083206001600160a01b03871680855290835281842094909455600385018054600180820183559185529383902090930180546001600160a01b03191690941790935560048401805460ff191690921790915590518481527f6dab96af34df7ddd951654f9a9a6f37e2aee879986b24166d40d7a6f13687ebd910160405180910390a1505050565b610f23611717565b610f2b61169c565b6001600160a01b038116610f735760405162461bcd60e51b815260206004820152600f60248201526e496e76616c6964206164647265737360881b60448201526064016103a4565b5f826001811115610f8657610f86611b07565b036110bd5760035480610fc55760405162461bcd60e51b81526020600482015260076024820152664e6f206665657360c81b60448201526064016103a4565b5f60038190556040516001600160a01b0384169083908381818185875af1925050503d805f8114611011576040519150601f19603f3d011682016040523d82523d5f602084013e611016565b606091505b50509050806110595760405162461bcd60e51b815260206004820152600f60248201526e15da5d1a191c985dc819985a5b1959608a1b60448201526064016103a4565b604080516001600160a01b03851681526020810184905260608183018190526003908201526208aa8960eb1b608082015290517f936d8019acd8166d88a7a73ae09f4c93b665420206512807eae9130b0c6e32179181900360a00190a15050611172565b600454806110f75760405162461bcd60e51b81526020600482015260076024820152664e6f206665657360c81b60448201526064016103a4565b5f600455600154611112906001600160a01b03168383611732565b604080516001600160a01b0384168152602081018390526060818301819052600490820152635553444360e01b608082015290517f936d8019acd8166d88a7a73ae09f4c93b665420206512807eae9130b0c6e32179181900360a00190a1505b61118860015f516020611cd75f395f51905f5255565b5050565b606060068054806020026020016040519081016040528092919081815260200182805480156111d857602002820191905f5260205f20905b8154815260200190600101908083116111c4575b5050505050905090565b5f81815260056020908152604080832060028101548154600183015460048401546003850180548751818a0281018a019098528088526060988a988998899889988998899893976001600160a01b03620100008504169790969295919460ff8082169561010092839004821695828216959390910490911692899183018282801561129457602002820191905f5260205f20905b81546001600160a01b03168152600190910190602001808311611276575b505050505096509850985098509850985098509850985050919395975091939597565b6112bf61169c565b6001600160a01b0381166112e857604051631e4fbdf760e01b81525f60048201526024016103a4565b6112f1816116c8565b50565b6112fc611717565b5f818152600760209081526040808320338452909152902054806113555760405162461bcd60e51b815260206004820152601060248201526f4e6f7468696e6720746f20636c61696d60801b60448201526064016103a4565b5f82815260086020908152604080832033845290915290205460ff16156113b05760405162461bcd60e51b815260206004820152600f60248201526e105b1c9958591e4818db185a5b5959608a1b60448201526064016103a4565b336113ef5760405162461bcd60e51b815260206004820152600f60248201526e496e76616c6964206164647265737360881b60448201526064016103a4565b5f8281526005602090815260408083206008835281842033808652908452828520805460ff1916600117905586855260078452828520908552909252822082905590600282810154610100900460ff169081111561144f5761144f611b07565b036114665760048101805461ff0019166101001790555b6001600282810154610100900460ff169081111561148657611486611b07565b14806114ae575060028082810154610100900460ff16908111156114ac576114ac611b07565b145b1561153f5760015f5b6003830154811015611524575f858152600860205260408120600385018054919291849081106114e9576114e9611caf565b5f9182526020808320909101546001600160a01b0316835282019290925260400190205460ff1661151c575f9150611524565b6001016114b7565b50801561153d5760048201805461ff0019166101001790555b505b5f600282015460ff16600181111561155957611559611b07565b036115f1576040515f90339084908381818185875af1925050503d805f811461159d576040519150601f19603f3d011682016040523d82523d5f602084013e6115a2565b606091505b50509050806115eb5760405162461bcd60e51b8152602060048201526015602482015274455448207472616e73666572206661696c6564212160581b60448201526064016103a4565b50611608565b600154611608906001600160a01b03163384611732565b604080518481523360208201529081018390527ffe236dfc7ce073698734b89da1aee0e7551c9c6d264404c502e6e8fefc1132a89060600160405180910390a150506112f160015f516020611cd75f395f51905f5255565b61166e84848484600161176c565b61169657604051635274afe760e01b81526001600160a01b03851660048201526024016103a4565b50505050565b5f546001600160a01b03163314610d1f5760405163118cdaa760e01b81523360048201526024016103a4565b5f80546001600160a01b038381166001600160a01b0319831681178455604051919092169283917f8be0079c531659141344cd1fd0a4f28419497f9722a3daafe3b4186f6b6457e09190a35050565b61171f6117d9565b60025f516020611cd75f395f51905f5255565b61173f8383836001611808565b61176757604051635274afe760e01b81526001600160a01b03841660048201526024016103a4565b505050565b6040516323b872dd60e01b5f8181526001600160a01b038781166004528616602452604485905291602083606481808c5af1925060015f511483166117c85783831516156117bc573d5f823e3d81fd5b5f883b113d1516831692505b604052505f60605295945050505050565b5f516020611cd75f395f51905f5254600203610d1f57604051633ee5aeb560e01b815260040160405180910390fd5b60405163a9059cbb60e01b5f8181526001600160a01b038616600452602485905291602083604481808b5af1925060015f5114831661185e578383151615611852573d5f823e3d81fd5b5f873b113d1516831692505b60405250949350505050565b828054828255905f5260205f209081019282156118bd579160200282015b828111156118bd57825182546001600160a01b0319166001600160a01b03909116178255602090920191600190910190611888565b506118c992915061191e565b5090565b828054828255905f5260205f209081019282156118bd579160200282015b828111156118bd5781546001600160a01b0319166001600160a01b038435161782556020909201916001909101906118eb565b5b808211156118c9575f815560010161191f565b803560028110611940575f5ffd5b919050565b5f5f5f60608486031215611957575f5ffd5b61196084611932565b92506020840135915060408401356003811061197a575f5ffd5b809150509250925092565b5f5f83601f840112611995575f5ffd5b50813567ffffffffffffffff8111156119ac575f5ffd5b6020830191508360208260051b85010111156119c6575f5ffd5b9250929050565b5f5f5f5f5f606086880312156119e1575f5ffd5b85359450602086013567ffffffffffffffff8111156119fe575f5ffd5b611a0a88828901611985565b909550935050604086013567ffffffffffffffff811115611a29575f5ffd5b611a3588828901611985565b969995985093965092949392505050565b5f60208284031215611a56575f5ffd5b5035919050565b80356001600160a01b0381168114611940575f5ffd5b5f5f60408385031215611a84575f5ffd5b82359150611a9460208401611a5d565b90509250929050565b5f5f60408385031215611aae575f5ffd5b611ab783611932565b9150611a9460208401611a5d565b602080825282518282018190525f918401906040840190835b81811015611afc578351835260209384019390920191600101611ade565b509095945050505050565b634e487b7160e01b5f52602160045260245ffd5b60028110611b2b57611b2b611b07565b9052565b60038110611b2b57611b2b611b07565b6001600160a01b0389168152610100602080830182905289519183018290525f91908a0190610120840190835b81811015611b935783516001600160a01b0316835260209384019390920191600101611b6c565b50508092505050876040830152866060830152611bb4608083018715159052565b84151560a0830152611bc960c0830185611b1b565b611bd660e0830184611b2f565b9998505050505050505050565b5f60208284031215611bf3575f5ffd5b611bfc82611a5d565b9392505050565b634e487b7160e01b5f52601160045260245ffd5b8082028115828204841417611c2e57611c2e611c03565b92915050565b5f82611c4e57634e487b7160e01b5f52601260045260245ffd5b500490565b80820180821115611c2e57611c2e611c03565b8681526001600160a01b0386166020820152604081018590526060810184905260c08101611c976080830185611b1b565b611ca460a0830184611b2f565b979650505050505050565b634e487b7160e01b5f52603260045260245ffd5b81810381811115611c2e57611c2e611c0356fe9b779b17422d0df92223018b32b4d1fa46e071723d6817e2486d003becc55f00a264697066735822122061fafa65a49540f340b3cde1833e8fc79a8181c064c713d5f014e5e6bd1981e764736f6c634300081e0033",
					"opcodes": "PUSH1 0x80 PUSH1 0x40 MSTORE CALLVALUE DUP1 ISZERO PUSH2 0xF JUMPI PUSH0 PUSH0 REVERT JUMPDEST POP PUSH1 0x40 MLOAD PUSH2 0x1EDB CODESIZE SUB DUP1 PUSH2 0x1EDB DUP4 CODECOPY DUP2 ADD PUSH1 0x40 DUP2 SWAP1 MSTORE PUSH2 0x2E SWAP2 PUSH2 0x171 JUMP JUMPDEST DUP2 PUSH1 0x1 PUSH1 0x1 PUSH1 0xA0 SHL SUB DUP2 AND PUSH2 0x5D JUMPI PUSH1 0x40 MLOAD PUSH4 0x1E4FBDF7 PUSH1 0xE0 SHL DUP2 MSTORE PUSH0 PUSH1 0x4 DUP3 ADD MSTORE PUSH1 0x24 ADD JUMPDEST PUSH1 0x40 MLOAD DUP1 SWAP2 SUB SWAP1 REVERT JUMPDEST PUSH2 0x66 DUP2 PUSH2 0x107 JUMP JUMPDEST POP PUSH1 0x1 PUSH32 0x9B779B17422D0DF92223018B32B4D1FA46E071723D6817E2486D003BECC55F00 SSTORE PUSH1 0x1 PUSH1 0x1 PUSH1 0xA0 SHL SUB DUP2 AND PUSH2 0xE1 JUMPI PUSH1 0x40 MLOAD PUSH3 0x461BCD PUSH1 0xE5 SHL DUP2 MSTORE PUSH1 0x20 PUSH1 0x4 DUP3 ADD MSTORE PUSH1 0x14 PUSH1 0x24 DUP3 ADD MSTORE PUSH32 0x496E76616C696420555344432061646472657373000000000000000000000000 PUSH1 0x44 DUP3 ADD MSTORE PUSH1 0x64 ADD PUSH2 0x54 JUMP JUMPDEST PUSH1 0x1 DUP1 SLOAD PUSH1 0x1 PUSH1 0x1 PUSH1 0xA0 SHL SUB NOT AND PUSH1 0x1 PUSH1 0x1 PUSH1 0xA0 SHL SUB SWAP3 SWAP1 SWAP3 AND SWAP2 SWAP1 SWAP2 OR SWAP1 SSTORE POP PUSH2 0x1A2 JUMP JUMPDEST PUSH0 DUP1 SLOAD PUSH1 0x1 PUSH1 0x1 PUSH1 0xA0 SHL SUB DUP4 DUP2 AND PUSH1 0x1 PUSH1 0x1 PUSH1 0xA0 SHL SUB NOT DUP4 AND DUP2 OR DUP5 SSTORE PUSH1 0x40 MLOAD SWAP2 SWAP1 SWAP3 AND SWAP3 DUP4 SWAP2 PUSH32 0x8BE0079C531659141344CD1FD0A4F28419497F9722A3DAAFE3B4186F6B6457E0 SWAP2 SWAP1 LOG3 POP POP JUMP JUMPDEST DUP1 MLOAD PUSH1 0x1 PUSH1 0x1 PUSH1 0xA0 SHL SUB DUP2 AND DUP2 EQ PUSH2 0x16C JUMPI PUSH0 PUSH0 REVERT JUMPDEST SWAP2 SWAP1 POP JUMP JUMPDEST PUSH0 PUSH0 PUSH1 0x40 DUP4 DUP6 SUB SLT ISZERO PUSH2 0x182 JUMPI PUSH0 PUSH0 REVERT JUMPDEST PUSH2 0x18B DUP4 PUSH2 0x156 JUMP JUMPDEST SWAP2 POP PUSH2 0x199 PUSH1 0x20 DUP5 ADD PUSH2 0x156 JUMP JUMPDEST SWAP1 POP SWAP3 POP SWAP3 SWAP1 POP JUMP JUMPDEST PUSH2 0x1D2C DUP1 PUSH2 0x1AF PUSH0 CODECOPY PUSH0 RETURN INVALID PUSH1 0x80 PUSH1 0x40 MSTORE PUSH1 0x4 CALLDATASIZE LT PUSH2 0x105 JUMPI PUSH0 CALLDATALOAD PUSH1 0xE0 SHR DUP1 PUSH4 0xA38E3AED GT PUSH2 0x92 JUMPI DUP1 PUSH4 0xE1E538CC GT PUSH2 0x62 JUMPI DUP1 PUSH4 0xE1E538CC EQ PUSH2 0x2BC JUMPI DUP1 PUSH4 0xEAF98D23 EQ PUSH2 0x187 JUMPI DUP1 PUSH4 0xEBCE3CF3 EQ PUSH2 0x2EF JUMPI DUP1 PUSH4 0xF2FDE38B EQ PUSH2 0x325 JUMPI DUP1 PUSH4 0xF5414023 EQ PUSH2 0x344 JUMPI PUSH0 PUSH0 REVERT JUMPDEST DUP1 PUSH4 0xA38E3AED EQ PUSH2 0x214 JUMPI DUP1 PUSH4 0xDD6AD764 EQ PUSH2 0x233 JUMPI DUP1 PUSH4 0xDFCAE622 EQ PUSH2 0x252 JUMPI DUP1 PUSH4 0xE0BAF5AC EQ PUSH2 0x29B JUMPI PUSH0 PUSH0 REVERT JUMPDEST DUP1 PUSH4 0x30718703 GT PUSH2 0xD8 JUMPI DUP1 PUSH4 0x30718703 EQ PUSH2 0x19B JUMPI DUP1 PUSH4 0x43D34A17 EQ PUSH2 0x1BA JUMPI DUP1 PUSH4 0x715018A6 EQ PUSH2 0x1CF JUMPI DUP1 PUSH4 0x8DA5CB5B EQ PUSH2 0x1E3 JUMPI DUP1 PUSH4 0x952C1C85 EQ PUSH2 0x1FF JUMPI PUSH0 PUSH0 REVERT JUMPDEST DUP1 PUSH4 0xC9E2CC5 EQ PUSH2 0x109 JUMPI DUP1 PUSH4 0x11EAC855 EQ PUSH2 0x12F JUMPI DUP1 PUSH4 0x176A827B EQ PUSH2 0x166 JUMPI DUP1 PUSH4 0x29A62A76 EQ PUSH2 0x187 JUMPI JUMPDEST PUSH0 PUSH0 REVERT JUMPDEST PUSH2 0x11C PUSH2 0x117 CALLDATASIZE PUSH1 0x4 PUSH2 0x1945 JUMP JUMPDEST PUSH2 0x363 JUMP JUMPDEST PUSH1 0x40 MLOAD SWAP1 DUP2 MSTORE PUSH1 0x20 ADD JUMPDEST PUSH1 0x40 MLOAD DUP1 SWAP2 SUB SWAP1 RETURN JUMPDEST CALLVALUE DUP1 ISZERO PUSH2 0x13A JUMPI PUSH0 PUSH0 REVERT JUMPDEST POP PUSH1 0x1 SLOAD PUSH2 0x14E SWAP1 PUSH1 0x1 PUSH1 0x1 PUSH1 0xA0 SHL SUB AND DUP2 JUMP JUMPDEST PUSH1 0x40 MLOAD PUSH1 0x1 PUSH1 0x1 PUSH1 0xA0 SHL SUB SWAP1 SWAP2 AND DUP2 MSTORE PUSH1 0x20 ADD PUSH2 0x126 JUMP JUMPDEST CALLVALUE DUP1 ISZERO PUSH2 0x171 JUMPI PUSH0 PUSH0 REVERT JUMPDEST POP PUSH2 0x185 PUSH2 0x180 CALLDATASIZE PUSH1 0x4 PUSH2 0x19CD JUMP JUMPDEST PUSH2 0x717 JUMP JUMPDEST STOP JUMPDEST CALLVALUE DUP1 ISZERO PUSH2 0x192 JUMPI PUSH0 PUSH0 REVERT JUMPDEST POP PUSH2 0x11C PUSH1 0x5 DUP2 JUMP JUMPDEST CALLVALUE DUP1 ISZERO PUSH2 0x1A6 JUMPI PUSH0 PUSH0 REVERT JUMPDEST POP PUSH2 0x11C PUSH2 0x1B5 CALLDATASIZE PUSH1 0x4 PUSH2 0x1A46 JUMP JUMPDEST PUSH2 0xCEF JUMP JUMPDEST CALLVALUE DUP1 ISZERO PUSH2 0x1C5 JUMPI PUSH0 PUSH0 REVERT JUMPDEST POP PUSH2 0x11C PUSH1 0x3 SLOAD DUP2 JUMP JUMPDEST CALLVALUE DUP1 ISZERO PUSH2 0x1DA JUMPI PUSH0 PUSH0 REVERT JUMPDEST POP PUSH2 0x185 PUSH2 0xD0E JUMP JUMPDEST CALLVALUE DUP1 ISZERO PUSH2 0x1EE JUMPI PUSH0 PUSH0 REVERT JUMPDEST POP PUSH0 SLOAD PUSH1 0x1 PUSH1 0x1 PUSH1 0xA0 SHL SUB AND PUSH2 0x14E JUMP JUMPDEST CALLVALUE DUP1 ISZERO PUSH2 0x20A JUMPI PUSH0 PUSH0 REVERT JUMPDEST POP PUSH2 0x11C PUSH1 0x4 SLOAD DUP2 JUMP JUMPDEST CALLVALUE DUP1 ISZERO PUSH2 0x21F JUMPI PUSH0 PUSH0 REVERT JUMPDEST POP PUSH2 0x185 PUSH2 0x22E CALLDATASIZE PUSH1 0x4 PUSH2 0x1A73 JUMP JUMPDEST PUSH2 0xD21 JUMP JUMPDEST CALLVALUE DUP1 ISZERO PUSH2 0x23E JUMPI PUSH0 PUSH0 REVERT JUMPDEST POP PUSH2 0x185 PUSH2 0x24D CALLDATASIZE PUSH1 0x4 PUSH2 0x1A9D JUMP JUMPDEST PUSH2 0xF1B JUMP JUMPDEST CALLVALUE DUP1 ISZERO PUSH2 0x25D JUMPI PUSH0 PUSH0 REVERT JUMPDEST POP PUSH2 0x28B PUSH2 0x26C CALLDATASIZE PUSH1 0x4 PUSH2 0x1A73 JUMP JUMPDEST PUSH1 0x8 PUSH1 0x20 SWAP1 DUP2 MSTORE PUSH0 SWAP3 DUP4 MSTORE PUSH1 0x40 DUP1 DUP5 KECCAK256 SWAP1 SWAP2 MSTORE SWAP1 DUP3 MSTORE SWAP1 KECCAK256 SLOAD PUSH1 0xFF AND DUP2 JUMP JUMPDEST PUSH1 0x40 MLOAD SWAP1 ISZERO ISZERO DUP2 MSTORE PUSH1 0x20 ADD PUSH2 0x126 JUMP JUMPDEST CALLVALUE DUP1 ISZERO PUSH2 0x2A6 JUMPI PUSH0 PUSH0 REVERT JUMPDEST POP PUSH2 0x2AF PUSH2 0x118C JUMP JUMPDEST PUSH1 0x40 MLOAD PUSH2 0x126 SWAP2 SWAP1 PUSH2 0x1AC5 JUMP JUMPDEST CALLVALUE DUP1 ISZERO PUSH2 0x2C7 JUMPI PUSH0 PUSH0 REVERT JUMPDEST POP PUSH2 0x2DB PUSH2 0x2D6 CALLDATASIZE PUSH1 0x4 PUSH2 0x1A46 JUMP JUMPDEST PUSH2 0x11E2 JUMP JUMPDEST PUSH1 0x40 MLOAD PUSH2 0x126 SWAP9 SWAP8 SWAP7 SWAP6 SWAP5 SWAP4 SWAP3 SWAP2 SWAP1 PUSH2 0x1B3F JUMP JUMPDEST CALLVALUE DUP1 ISZERO PUSH2 0x2FA JUMPI PUSH0 PUSH0 REVERT JUMPDEST POP PUSH2 0x11C PUSH2 0x309 CALLDATASIZE PUSH1 0x4 PUSH2 0x1A73 JUMP JUMPDEST PUSH1 0x7 PUSH1 0x20 SWAP1 DUP2 MSTORE PUSH0 SWAP3 DUP4 MSTORE PUSH1 0x40 DUP1 DUP5 KECCAK256 SWAP1 SWAP2 MSTORE SWAP1 DUP3 MSTORE SWAP1 KECCAK256 SLOAD DUP2 JUMP JUMPDEST CALLVALUE DUP1 ISZERO PUSH2 0x330 JUMPI PUSH0 PUSH0 REVERT JUMPDEST POP PUSH2 0x185 PUSH2 0x33F CALLDATASIZE PUSH1 0x4 PUSH2 0x1BE3 JUMP JUMPDEST PUSH2 0x12B7 JUMP JUMPDEST CALLVALUE DUP1 ISZERO PUSH2 0x34F JUMPI PUSH0 PUSH0 REVERT JUMPDEST POP PUSH2 0x185 PUSH2 0x35E CALLDATASIZE PUSH1 0x4 PUSH2 0x1A46 JUMP JUMPDEST PUSH2 0x12F4 JUMP JUMPDEST PUSH0 PUSH0 DUP4 GT PUSH2 0x3AD JUMPI PUSH1 0x40 MLOAD PUSH3 0x461BCD PUSH1 0xE5 SHL DUP2 MSTORE PUSH1 0x20 PUSH1 0x4 DUP3 ADD MSTORE PUSH1 0x12 PUSH1 0x24 DUP3 ADD MSTORE PUSH18 0x526577617264206D757374206265203E203 PUSH1 0x74 SHL PUSH1 0x44 DUP3 ADD MSTORE PUSH1 0x64 ADD JUMPDEST PUSH1 0x40 MLOAD DUP1 SWAP2 SUB SWAP1 REVERT JUMPDEST PUSH0 PUSH1 0x64 PUSH2 0x3BB PUSH1 0x5 DUP7 PUSH2 0x1C17 JUMP JUMPDEST PUSH2 0x3C5 SWAP2 SWAP1 PUSH2 0x1C34 JUMP JUMPDEST SWAP1 POP PUSH0 PUSH2 0x3D2 DUP3 DUP7 PUSH2 0x1C53 JUMP JUMPDEST SWAP1 POP PUSH0 DUP7 PUSH1 0x1 DUP2 GT ISZERO PUSH2 0x3E7 JUMPI PUSH2 0x3E7 PUSH2 0x1B07 JUMP JUMPDEST SUB PUSH2 0x44F JUMPI DUP1 CALLVALUE LT ISZERO PUSH2 0x433 JUMPI PUSH1 0x40 MLOAD PUSH3 0x461BCD PUSH1 0xE5 SHL DUP2 MSTORE PUSH1 0x20 PUSH1 0x4 DUP3 ADD MSTORE PUSH1 0x14 PUSH1 0x24 DUP3 ADD MSTORE PUSH20 0x125B98DBDC9C9958DD0811551208185B5BDD5B9D PUSH1 0x62 SHL PUSH1 0x44 DUP3 ADD MSTORE PUSH1 0x64 ADD PUSH2 0x3A4 JUMP JUMPDEST DUP2 PUSH1 0x3 PUSH0 DUP3 DUP3 SLOAD PUSH2 0x444 SWAP2 SWAP1 PUSH2 0x1C53 JUMP JUMPDEST SWAP1 SWAP2 SSTORE POP PUSH2 0x4BF SWAP1 POP JUMP JUMPDEST CALLVALUE ISZERO PUSH2 0x490 JUMPI PUSH1 0x40 MLOAD PUSH3 0x461BCD PUSH1 0xE5 SHL DUP2 MSTORE PUSH1 0x20 PUSH1 0x4 DUP3 ADD MSTORE PUSH1 0x10 PUSH1 0x24 DUP3 ADD MSTORE PUSH16 0x115512081B9BDD081858D8D95C1D1959 PUSH1 0x82 SHL PUSH1 0x44 DUP3 ADD MSTORE PUSH1 0x64 ADD PUSH2 0x3A4 JUMP JUMPDEST PUSH1 0x1 SLOAD PUSH2 0x4A8 SWAP1 PUSH1 0x1 PUSH1 0x1 PUSH1 0xA0 SHL SUB AND CALLER ADDRESS DUP5 PUSH2 0x1660 JUMP JUMPDEST DUP2 PUSH1 0x4 PUSH0 DUP3 DUP3 SLOAD PUSH2 0x4B9 SWAP2 SWAP1 PUSH2 0x1C53 JUMP JUMPDEST SWAP1 SWAP2 SSTORE POP POP JUMPDEST PUSH2 0x4CD PUSH1 0x2 DUP1 SLOAD PUSH1 0x1 ADD SWAP1 SSTORE JUMP JUMPDEST PUSH0 PUSH2 0x4D7 PUSH1 0x2 SLOAD SWAP1 JUMP JUMPDEST PUSH1 0x40 DUP1 MLOAD PUSH1 0x20 DUP2 ADD SWAP3 SWAP1 SWAP3 MSTORE PUSH12 0xFFFFFFFFFFFFFFFFFFFFFFFF NOT CALLER PUSH1 0x60 SHL AND SWAP1 DUP3 ADD MSTORE TIMESTAMP PUSH1 0x54 DUP3 ADD MSTORE PUSH1 0x74 ADD PUSH1 0x40 DUP1 MLOAD PUSH1 0x1F NOT DUP2 DUP5 SUB ADD DUP2 MSTORE DUP3 DUP3 MSTORE DUP1 MLOAD PUSH1 0x20 SWAP2 DUP3 ADD KECCAK256 PUSH1 0x6 DUP1 SLOAD PUSH1 0x1 DUP2 DUP2 ADD DUP4 SSTORE PUSH0 SWAP3 SWAP1 SWAP3 MSTORE PUSH32 0xF652222313E28459528D920B65115C16C04F3EFC82AAEDC97BE59F3F377C0D3F ADD DUP3 SWAP1 SSTORE PUSH2 0x100 DUP6 ADD DUP5 MSTORE DUP11 DUP6 MSTORE SWAP2 DUP5 ADD DUP8 SWAP1 MSTORE SWAP4 POP SWAP1 DUP3 ADD SWAP1 DUP10 SWAP1 DUP2 GT ISZERO PUSH2 0x577 JUMPI PUSH2 0x577 PUSH2 0x1B07 JUMP JUMPDEST DUP2 MSTORE PUSH1 0x20 ADD DUP7 PUSH1 0x2 DUP2 GT ISZERO PUSH2 0x58E JUMPI PUSH2 0x58E PUSH2 0x1B07 JUMP JUMPDEST DUP2 MSTORE CALLER PUSH1 0x20 DUP3 ADD MSTORE PUSH1 0x40 ADD PUSH0 PUSH1 0x40 MLOAD SWAP1 DUP1 DUP3 MSTORE DUP1 PUSH1 0x20 MUL PUSH1 0x20 ADD DUP3 ADD PUSH1 0x40 MSTORE DUP1 ISZERO PUSH2 0x5C3 JUMPI DUP2 PUSH1 0x20 ADD PUSH1 0x20 DUP3 MUL DUP1 CALLDATASIZE DUP4 CALLDATACOPY ADD SWAP1 POP JUMPDEST POP DUP2 MSTORE PUSH0 PUSH1 0x20 DUP1 DUP4 ADD DUP3 SWAP1 MSTORE PUSH1 0x40 SWAP3 DUP4 ADD DUP3 SWAP1 MSTORE DUP5 DUP3 MSTORE PUSH1 0x5 DUP2 MSTORE SWAP1 DUP3 SWAP1 KECCAK256 DUP4 MLOAD DUP2 SSTORE SWAP1 DUP4 ADD MLOAD PUSH1 0x1 DUP3 DUP2 ADD SWAP2 SWAP1 SWAP2 SSTORE SWAP2 DUP4 ADD MLOAD PUSH1 0x2 DUP3 ADD DUP1 SLOAD SWAP3 SWAP4 SWAP2 SWAP3 SWAP1 SWAP2 PUSH1 0xFF NOT SWAP1 SWAP2 AND SWAP1 DUP4 DUP2 DUP2 GT ISZERO PUSH2 0x61B JUMPI PUSH2 0x61B PUSH2 0x1B07 JUMP JUMPDEST MUL OR SWAP1 SSTORE POP PUSH1 0x60 DUP3 ADD MLOAD DUP2 PUSH1 0x2 ADD PUSH1 0x1 PUSH2 0x100 EXP DUP2 SLOAD DUP2 PUSH1 0xFF MUL NOT AND SWAP1 DUP4 PUSH1 0x2 DUP2 GT ISZERO PUSH2 0x64A JUMPI PUSH2 0x64A PUSH2 0x1B07 JUMP JUMPDEST MUL OR SWAP1 SSTORE POP PUSH1 0x80 DUP3 ADD MLOAD PUSH1 0x2 DUP3 ADD DUP1 SLOAD PUSH1 0x1 PUSH1 0x1 PUSH1 0xA0 SHL SUB SWAP1 SWAP3 AND PUSH3 0x10000 MUL PUSH3 0x10000 PUSH1 0x1 PUSH1 0xB0 SHL SUB NOT SWAP1 SWAP3 AND SWAP2 SWAP1 SWAP2 OR SWAP1 SSTORE PUSH1 0xA0 DUP3 ADD MLOAD DUP1 MLOAD PUSH2 0x699 SWAP2 PUSH1 0x3 DUP5 ADD SWAP2 PUSH1 0x20 SWAP1 SWAP2 ADD SWAP1 PUSH2 0x186A JUMP JUMPDEST POP PUSH1 0xC0 DUP3 ADD MLOAD PUSH1 0x4 SWAP1 SWAP2 ADD DUP1 SLOAD PUSH1 0xE0 SWAP1 SWAP4 ADD MLOAD ISZERO ISZERO PUSH2 0x100 MUL PUSH2 0xFF00 NOT SWAP3 ISZERO ISZERO SWAP3 SWAP1 SWAP3 AND PUSH2 0xFFFF NOT SWAP1 SWAP4 AND SWAP3 SWAP1 SWAP3 OR OR SWAP1 SSTORE PUSH1 0x40 MLOAD PUSH32 0x3DEFE6F195EBAADC1BFA70C40F9196517D5A2952586EC97AA07EDCDB82137E4C SWAP1 PUSH2 0x705 SWAP1 DUP4 SWAP1 CALLER SWAP1 DUP11 SWAP1 DUP9 SWAP1 DUP14 SWAP1 DUP13 SWAP1 PUSH2 0x1C66 JUMP JUMPDEST PUSH1 0x40 MLOAD DUP1 SWAP2 SUB SWAP1 LOG1 SWAP7 SWAP6 POP POP POP POP POP POP JUMP JUMPDEST PUSH0 DUP6 DUP2 MSTORE PUSH1 0x5 PUSH1 0x20 MSTORE PUSH1 0x40 SWAP1 KECCAK256 PUSH1 0x2 DUP2 ADD SLOAD PUSH3 0x10000 SWAP1 DIV PUSH1 0x1 PUSH1 0x1 PUSH1 0xA0 SHL SUB AND CALLER EQ DUP1 PUSH2 0x74E JUMPI POP PUSH0 SLOAD PUSH1 0x1 PUSH1 0x1 PUSH1 0xA0 SHL SUB AND CALLER EQ JUMPDEST PUSH2 0x789 JUMPI PUSH1 0x40 MLOAD PUSH3 0x461BCD PUSH1 0xE5 SHL DUP2 MSTORE PUSH1 0x20 PUSH1 0x4 DUP3 ADD MSTORE PUSH1 0xC PUSH1 0x24 DUP3 ADD MSTORE PUSH12 0x155B985D5D1A1BDC9A5E9959 PUSH1 0xA2 SHL PUSH1 0x44 DUP3 ADD MSTORE PUSH1 0x64 ADD PUSH2 0x3A4 JUMP JUMPDEST PUSH1 0x4 DUP2 ADD SLOAD PUSH1 0xFF AND ISZERO PUSH2 0x7D1 JUMPI PUSH1 0x40 MLOAD PUSH3 0x461BCD PUSH1 0xE5 SHL DUP2 MSTORE PUSH1 0x20 PUSH1 0x4 DUP3 ADD MSTORE PUSH1 0x10 PUSH1 0x24 DUP3 ADD MSTORE PUSH16 0x105B1C9958591E48185CDCDA59DB9959 PUSH1 0x82 SHL PUSH1 0x44 DUP3 ADD MSTORE PUSH1 0x64 ADD PUSH2 0x3A4 JUMP JUMPDEST DUP4 PUSH2 0x7E0 PUSH1 0x3 DUP4 ADD DUP8 DUP4 PUSH2 0x18CD JUMP JUMPDEST POP PUSH1 0x2 DUP2 LT ISZERO PUSH2 0x826 JUMPI PUSH1 0x40 MLOAD PUSH3 0x461BCD PUSH1 0xE5 SHL DUP2 MSTORE PUSH1 0x20 PUSH1 0x4 DUP3 ADD MSTORE PUSH1 0x11 PUSH1 0x24 DUP3 ADD MSTORE PUSH17 0x4D696E696D756D20322077696E6E657273 PUSH1 0x78 SHL PUSH1 0x44 DUP3 ADD MSTORE PUSH1 0x64 ADD PUSH2 0x3A4 JUMP JUMPDEST PUSH1 0x5 DUP2 GT ISZERO PUSH2 0x86A JUMPI PUSH1 0x40 MLOAD PUSH3 0x461BCD PUSH1 0xE5 SHL DUP2 MSTORE PUSH1 0x20 PUSH1 0x4 DUP3 ADD MSTORE PUSH1 0x10 PUSH1 0x24 DUP3 ADD MSTORE PUSH16 0x546F6F206D616E792077696E6E657273 PUSH1 0x80 SHL PUSH1 0x44 DUP3 ADD MSTORE PUSH1 0x64 ADD PUSH2 0x3A4 JUMP JUMPDEST PUSH0 JUMPDEST DUP2 DUP2 LT ISZERO PUSH2 0x9AB JUMPI PUSH0 DUP8 DUP8 DUP4 DUP2 DUP2 LT PUSH2 0x887 JUMPI PUSH2 0x887 PUSH2 0x1CAF JUMP JUMPDEST SWAP1 POP PUSH1 0x20 MUL ADD PUSH1 0x20 DUP2 ADD SWAP1 PUSH2 0x89C SWAP2 SWAP1 PUSH2 0x1BE3 JUMP JUMPDEST PUSH1 0x1 PUSH1 0x1 PUSH1 0xA0 SHL SUB AND SUB PUSH2 0x8E3 JUMPI PUSH1 0x40 MLOAD PUSH3 0x461BCD PUSH1 0xE5 SHL DUP2 MSTORE PUSH1 0x20 PUSH1 0x4 DUP3 ADD MSTORE PUSH1 0xE PUSH1 0x24 DUP3 ADD MSTORE PUSH14 0x24B73B30B634B2103BB4B73732B9 PUSH1 0x91 SHL PUSH1 0x44 DUP3 ADD MSTORE PUSH1 0x64 ADD PUSH2 0x3A4 JUMP JUMPDEST PUSH0 PUSH2 0x8EF DUP3 PUSH1 0x1 PUSH2 0x1C53 JUMP JUMPDEST SWAP1 POP JUMPDEST DUP3 DUP2 LT ISZERO PUSH2 0x9A2 JUMPI DUP8 DUP8 DUP3 DUP2 DUP2 LT PUSH2 0x90C JUMPI PUSH2 0x90C PUSH2 0x1CAF JUMP JUMPDEST SWAP1 POP PUSH1 0x20 MUL ADD PUSH1 0x20 DUP2 ADD SWAP1 PUSH2 0x921 SWAP2 SWAP1 PUSH2 0x1BE3 JUMP JUMPDEST PUSH1 0x1 PUSH1 0x1 PUSH1 0xA0 SHL SUB AND DUP9 DUP9 DUP5 DUP2 DUP2 LT PUSH2 0x93C JUMPI PUSH2 0x93C PUSH2 0x1CAF JUMP JUMPDEST SWAP1 POP PUSH1 0x20 MUL ADD PUSH1 0x20 DUP2 ADD SWAP1 PUSH2 0x951 SWAP2 SWAP1 PUSH2 0x1BE3 JUMP JUMPDEST PUSH1 0x1 PUSH1 0x1 PUSH1 0xA0 SHL SUB AND SUB PUSH2 0x99A JUMPI PUSH1 0x40 MLOAD PUSH3 0x461BCD PUSH1 0xE5 SHL DUP2 MSTORE PUSH1 0x20 PUSH1 0x4 DUP3 ADD MSTORE PUSH1 0x10 PUSH1 0x24 DUP3 ADD MSTORE PUSH16 0x223AB83634B1B0BA32903BB4B73732B9 PUSH1 0x81 SHL PUSH1 0x44 DUP3 ADD MSTORE PUSH1 0x64 ADD PUSH2 0x3A4 JUMP JUMPDEST PUSH1 0x1 ADD PUSH2 0x8F2 JUMP JUMPDEST POP PUSH1 0x1 ADD PUSH2 0x86C JUMP JUMPDEST POP DUP2 SLOAD PUSH0 PUSH1 0x1 PUSH1 0x2 DUP6 DUP2 ADD SLOAD PUSH2 0x100 SWAP1 DIV PUSH1 0xFF AND SWAP1 DUP2 GT ISZERO PUSH2 0x9CF JUMPI PUSH2 0x9CF PUSH2 0x1B07 JUMP JUMPDEST SUB PUSH2 0xAD1 JUMPI PUSH0 PUSH2 0x9DF DUP5 DUP5 PUSH2 0x1C34 JUMP JUMPDEST SWAP1 POP PUSH0 JUMPDEST DUP5 DUP2 LT ISZERO PUSH2 0xA4E JUMPI PUSH0 DUP12 DUP2 MSTORE PUSH1 0x7 PUSH1 0x20 MSTORE PUSH1 0x40 DUP2 KECCAK256 DUP4 SWAP2 DUP13 DUP13 DUP6 DUP2 DUP2 LT PUSH2 0xA0C JUMPI PUSH2 0xA0C PUSH2 0x1CAF JUMP JUMPDEST SWAP1 POP PUSH1 0x20 MUL ADD PUSH1 0x20 DUP2 ADD SWAP1 PUSH2 0xA21 SWAP2 SWAP1 PUSH2 0x1BE3 JUMP JUMPDEST PUSH1 0x1 PUSH1 0x1 PUSH1 0xA0 SHL SUB AND DUP2 MSTORE PUSH1 0x20 DUP2 ADD SWAP2 SWAP1 SWAP2 MSTORE PUSH1 0x40 ADD PUSH0 KECCAK256 SSTORE PUSH2 0xA44 DUP3 DUP5 PUSH2 0x1C53 JUMP JUMPDEST SWAP3 POP PUSH1 0x1 ADD PUSH2 0x9E3 JUMP JUMPDEST POP PUSH2 0xA59 DUP3 DUP5 PUSH2 0x1CC3 JUMP JUMPDEST PUSH0 DUP12 DUP2 MSTORE PUSH1 0x7 PUSH1 0x20 MSTORE PUSH1 0x40 DUP2 KECCAK256 SWAP1 DUP12 DUP12 PUSH2 0xA74 PUSH1 0x1 DUP11 PUSH2 0x1CC3 JUMP JUMPDEST DUP2 DUP2 LT PUSH2 0xA83 JUMPI PUSH2 0xA83 PUSH2 0x1CAF JUMP JUMPDEST SWAP1 POP PUSH1 0x20 MUL ADD PUSH1 0x20 DUP2 ADD SWAP1 PUSH2 0xA98 SWAP2 SWAP1 PUSH2 0x1BE3 JUMP JUMPDEST PUSH1 0x1 PUSH1 0x1 PUSH1 0xA0 SHL SUB AND PUSH1 0x1 PUSH1 0x1 PUSH1 0xA0 SHL SUB AND DUP2 MSTORE PUSH1 0x20 ADD SWAP1 DUP2 MSTORE PUSH1 0x20 ADD PUSH0 KECCAK256 PUSH0 DUP3 DUP3 SLOAD PUSH2 0xAC5 SWAP2 SWAP1 PUSH2 0x1C53 JUMP JUMPDEST SWAP1 SWAP2 SSTORE POP PUSH2 0xC9B SWAP2 POP POP JUMP JUMPDEST PUSH1 0x2 DUP1 DUP6 DUP2 ADD SLOAD PUSH2 0x100 SWAP1 DIV PUSH1 0xFF AND SWAP1 DUP2 GT ISZERO PUSH2 0xAF0 JUMPI PUSH2 0xAF0 PUSH2 0x1B07 JUMP JUMPDEST SUB PUSH2 0xC5D JUMPI DUP5 DUP4 EQ PUSH2 0xB37 JUMPI PUSH1 0x40 MLOAD PUSH3 0x461BCD PUSH1 0xE5 SHL DUP2 MSTORE PUSH1 0x20 PUSH1 0x4 DUP3 ADD MSTORE PUSH1 0x10 PUSH1 0x24 DUP3 ADD MSTORE PUSH16 0xA0CAE4C6CADCE840DAD2E6DAC2E8C6D PUSH1 0x83 SHL PUSH1 0x44 DUP3 ADD MSTORE PUSH1 0x64 ADD PUSH2 0x3A4 JUMP JUMPDEST PUSH0 DUP1 JUMPDEST DUP5 DUP2 LT ISZERO PUSH2 0xB70 JUMPI DUP8 DUP8 DUP3 DUP2 DUP2 LT PUSH2 0xB54 JUMPI PUSH2 0xB54 PUSH2 0x1CAF JUMP JUMPDEST SWAP1 POP PUSH1 0x20 MUL ADD CALLDATALOAD DUP3 PUSH2 0xB66 SWAP2 SWAP1 PUSH2 0x1C53 JUMP JUMPDEST SWAP2 POP PUSH1 0x1 ADD PUSH2 0xB3A JUMP JUMPDEST POP DUP1 PUSH1 0x64 EQ PUSH2 0xBBA JUMPI PUSH1 0x40 MLOAD PUSH3 0x461BCD PUSH1 0xE5 SHL DUP2 MSTORE PUSH1 0x20 PUSH1 0x4 DUP3 ADD MSTORE PUSH1 0x16 PUSH1 0x24 DUP3 ADD MSTORE PUSH22 0x50657263656E74206D75737420657175616C2031303 PUSH1 0x54 SHL PUSH1 0x44 DUP3 ADD MSTORE PUSH1 0x64 ADD PUSH2 0x3A4 JUMP JUMPDEST PUSH0 JUMPDEST DUP5 DUP2 LT ISZERO PUSH2 0xA4E JUMPI PUSH0 PUSH1 0x64 DUP10 DUP10 DUP5 DUP2 DUP2 LT PUSH2 0xBD9 JUMPI PUSH2 0xBD9 PUSH2 0x1CAF JUMP JUMPDEST SWAP1 POP PUSH1 0x20 MUL ADD CALLDATALOAD DUP7 PUSH2 0xBEB SWAP2 SWAP1 PUSH2 0x1C17 JUMP JUMPDEST PUSH2 0xBF5 SWAP2 SWAP1 PUSH2 0x1C34 JUMP JUMPDEST PUSH0 DUP14 DUP2 MSTORE PUSH1 0x7 PUSH1 0x20 MSTORE PUSH1 0x40 DUP2 KECCAK256 SWAP2 SWAP3 POP DUP3 SWAP2 SWAP1 DUP14 DUP14 DUP7 DUP2 DUP2 LT PUSH2 0xC1A JUMPI PUSH2 0xC1A PUSH2 0x1CAF JUMP JUMPDEST SWAP1 POP PUSH1 0x20 MUL ADD PUSH1 0x20 DUP2 ADD SWAP1 PUSH2 0xC2F SWAP2 SWAP1 PUSH2 0x1BE3 JUMP JUMPDEST PUSH1 0x1 PUSH1 0x1 PUSH1 0xA0 SHL SUB AND DUP2 MSTORE PUSH1 0x20 DUP2 ADD SWAP2 SWAP1 SWAP2 MSTORE PUSH1 0x40 ADD PUSH0 KECCAK256 SSTORE PUSH2 0xC52 DUP2 DUP6 PUSH2 0x1C53 JUMP JUMPDEST SWAP4 POP POP PUSH1 0x1 ADD PUSH2 0xBBC JUMP JUMPDEST PUSH1 0x40 MLOAD PUSH3 0x461BCD PUSH1 0xE5 SHL DUP2 MSTORE PUSH1 0x20 PUSH1 0x4 DUP3 ADD MSTORE PUSH1 0x13 PUSH1 0x24 DUP3 ADD MSTORE PUSH19 0x496E76616C6964207061796F75742074797065 PUSH1 0x68 SHL PUSH1 0x44 DUP3 ADD MSTORE PUSH1 0x64 ADD PUSH2 0x3A4 JUMP JUMPDEST PUSH1 0x4 DUP5 ADD DUP1 SLOAD PUSH1 0xFF NOT AND PUSH1 0x1 OR SWAP1 SSTORE PUSH1 0x40 MLOAD PUSH32 0x6DAB96AF34DF7DDD951654F9A9A6F37E2AEE879986B24166D40D7A6F13687EBD SWAP1 PUSH2 0xCDC SWAP1 DUP12 DUP2 MSTORE PUSH1 0x20 ADD SWAP1 JUMP JUMPDEST PUSH1 0x40 MLOAD DUP1 SWAP2 SUB SWAP1 LOG1 POP POP POP POP POP POP POP POP POP JUMP JUMPDEST PUSH1 0x6 DUP2 DUP2 SLOAD DUP2 LT PUSH2 0xCFE JUMPI PUSH0 DUP1 REVERT JUMPDEST PUSH0 SWAP2 DUP3 MSTORE PUSH1 0x20 SWAP1 SWAP2 KECCAK256 ADD SLOAD SWAP1 POP DUP2 JUMP JUMPDEST PUSH2 0xD16 PUSH2 0x169C JUMP JUMPDEST PUSH2 0xD1F PUSH0 PUSH2 0x16C8 JUMP JUMPDEST JUMP JUMPDEST PUSH0 DUP3 DUP2 MSTORE PUSH1 0x5 PUSH1 0x20 MSTORE PUSH1 0x40 SWAP1 KECCAK256 PUSH1 0x2 DUP2 ADD SLOAD PUSH3 0x10000 SWAP1 DIV PUSH1 0x1 PUSH1 0x1 PUSH1 0xA0 SHL SUB AND CALLER EQ DUP1 PUSH2 0xD58 JUMPI POP PUSH0 SLOAD PUSH1 0x1 PUSH1 0x1 PUSH1 0xA0 SHL SUB AND CALLER EQ JUMPDEST PUSH2 0xD93 JUMPI PUSH1 0x40 MLOAD PUSH3 0x461BCD PUSH1 0xE5 SHL DUP2 MSTORE PUSH1 0x20 PUSH1 0x4 DUP3 ADD MSTORE PUSH1 0xC PUSH1 0x24 DUP3 ADD MSTORE PUSH12 0x155B985D5D1A1BDC9A5E9959 PUSH1 0xA2 SHL PUSH1 0x44 DUP3 ADD MSTORE PUSH1 0x64 ADD PUSH2 0x3A4 JUMP JUMPDEST PUSH1 0x4 DUP2 ADD SLOAD PUSH1 0xFF AND ISZERO PUSH2 0xDDB JUMPI PUSH1 0x40 MLOAD PUSH3 0x461BCD PUSH1 0xE5 SHL DUP2 MSTORE PUSH1 0x20 PUSH1 0x4 DUP3 ADD MSTORE PUSH1 0x10 PUSH1 0x24 DUP3 ADD MSTORE PUSH16 0x105B1C9958591E48185CDCDA59DB9959 PUSH1 0x82 SHL PUSH1 0x44 DUP3 ADD MSTORE PUSH1 0x64 ADD PUSH2 0x3A4 JUMP JUMPDEST PUSH0 PUSH1 0x2 DUP3 DUP2 ADD SLOAD PUSH2 0x100 SWAP1 DIV PUSH1 0xFF AND SWAP1 DUP2 GT ISZERO PUSH2 0xDFA JUMPI PUSH2 0xDFA PUSH2 0x1B07 JUMP JUMPDEST EQ PUSH2 0xE3D JUMPI PUSH1 0x40 MLOAD PUSH3 0x461BCD PUSH1 0xE5 SHL DUP2 MSTORE PUSH1 0x20 PUSH1 0x4 DUP3 ADD MSTORE PUSH1 0x13 PUSH1 0x24 DUP3 ADD MSTORE PUSH19 0x496E76616C6964207061796F75742074797065 PUSH1 0x68 SHL PUSH1 0x44 DUP3 ADD MSTORE PUSH1 0x64 ADD PUSH2 0x3A4 JUMP JUMPDEST PUSH1 0x1 PUSH1 0x1 PUSH1 0xA0 SHL SUB DUP3 AND PUSH2 0xE84 JUMPI PUSH1 0x40 MLOAD PUSH3 0x461BCD PUSH1 0xE5 SHL DUP2 MSTORE PUSH1 0x20 PUSH1 0x4 DUP3 ADD MSTORE PUSH1 0xE PUSH1 0x24 DUP3 ADD MSTORE PUSH14 0x24B73B30B634B2103BB4B73732B9 PUSH1 0x91 SHL PUSH1 0x44 DUP3 ADD MSTORE PUSH1 0x64 ADD PUSH2 0x3A4 JUMP JUMPDEST DUP1 SLOAD PUSH0 DUP5 DUP2 MSTORE PUSH1 0x7 PUSH1 0x20 SWAP1 DUP2 MSTORE PUSH1 0x40 DUP1 DUP4 KECCAK256 PUSH1 0x1 PUSH1 0x1 PUSH1 0xA0 SHL SUB DUP8 AND DUP1 DUP6 MSTORE SWAP1 DUP4 MSTORE DUP2 DUP5 KECCAK256 SWAP5 SWAP1 SWAP5 SSTORE PUSH1 0x3 DUP6 ADD DUP1 SLOAD PUSH1 0x1 DUP1 DUP3 ADD DUP4 SSTORE SWAP2 DUP6 MSTORE SWAP4 DUP4 SWAP1 KECCAK256 SWAP1 SWAP4 ADD DUP1 SLOAD PUSH1 0x1 PUSH1 0x1 PUSH1 0xA0 SHL SUB NOT AND SWAP1 SWAP5 OR SWAP1 SWAP4 SSTORE PUSH1 0x4 DUP5 ADD DUP1 SLOAD PUSH1 0xFF NOT AND SWAP1 SWAP3 OR SWAP1 SWAP2 SSTORE SWAP1 MLOAD DUP5 DUP2 MSTORE PUSH32 0x6DAB96AF34DF7DDD951654F9A9A6F37E2AEE879986B24166D40D7A6F13687EBD SWAP2 ADD PUSH1 0x40 MLOAD DUP1 SWAP2 SUB SWAP1 LOG1 POP POP POP JUMP JUMPDEST PUSH2 0xF23 PUSH2 0x1717 JUMP JUMPDEST PUSH2 0xF2B PUSH2 0x169C JUMP JUMPDEST PUSH1 0x1 PUSH1 0x1 PUSH1 0xA0 SHL SUB DUP2 AND PUSH2 0xF73 JUMPI PUSH1 0x40 MLOAD PUSH3 0x461BCD PUSH1 0xE5 SHL DUP2 MSTORE PUSH1 0x20 PUSH1 0x4 DUP3 ADD MSTORE PUSH1 0xF PUSH1 0x24 DUP3 ADD MSTORE PUSH15 0x496E76616C69642061646472657373 PUSH1 0x88 SHL PUSH1 0x44 DUP3 ADD MSTORE PUSH1 0x64 ADD PUSH2 0x3A4 JUMP JUMPDEST PUSH0 DUP3 PUSH1 0x1 DUP2 GT ISZERO PUSH2 0xF86 JUMPI PUSH2 0xF86 PUSH2 0x1B07 JUMP JUMPDEST SUB PUSH2 0x10BD JUMPI PUSH1 0x3 SLOAD DUP1 PUSH2 0xFC5 JUMPI PUSH1 0x40 MLOAD PUSH3 0x461BCD PUSH1 0xE5 SHL DUP2 MSTORE PUSH1 0x20 PUSH1 0x4 DUP3 ADD MSTORE PUSH1 0x7 PUSH1 0x24 DUP3 ADD MSTORE PUSH7 0x4E6F2066656573 PUSH1 0xC8 SHL PUSH1 0x44 DUP3 ADD MSTORE PUSH1 0x64 ADD PUSH2 0x3A4 JUMP JUMPDEST PUSH0 PUSH1 0x3 DUP2 SWAP1 SSTORE PUSH1 0x40 MLOAD PUSH1 0x1 PUSH1 0x1 PUSH1 0xA0 SHL SUB DUP5 AND SWAP1 DUP4 SWAP1 DUP4 DUP2 DUP2 DUP2 DUP6 DUP8 GAS CALL SWAP3 POP POP POP RETURNDATASIZE DUP1 PUSH0 DUP2 EQ PUSH2 0x1011 JUMPI PUSH1 0x40 MLOAD SWAP2 POP PUSH1 0x1F NOT PUSH1 0x3F RETURNDATASIZE ADD AND DUP3 ADD PUSH1 0x40 MSTORE RETURNDATASIZE DUP3 MSTORE RETURNDATASIZE PUSH0 PUSH1 0x20 DUP5 ADD RETURNDATACOPY PUSH2 0x1016 JUMP JUMPDEST PUSH1 0x60 SWAP2 POP JUMPDEST POP POP SWAP1 POP DUP1 PUSH2 0x1059 JUMPI PUSH1 0x40 MLOAD PUSH3 0x461BCD PUSH1 0xE5 SHL DUP2 MSTORE PUSH1 0x20 PUSH1 0x4 DUP3 ADD MSTORE PUSH1 0xF PUSH1 0x24 DUP3 ADD MSTORE PUSH15 0x15DA5D1A191C985DC819985A5B1959 PUSH1 0x8A SHL PUSH1 0x44 DUP3 ADD MSTORE PUSH1 0x64 ADD PUSH2 0x3A4 JUMP JUMPDEST PUSH1 0x40 DUP1 MLOAD PUSH1 0x1 PUSH1 0x1 PUSH1 0xA0 SHL SUB DUP6 AND DUP2 MSTORE PUSH1 0x20 DUP2 ADD DUP5 SWAP1 MSTORE PUSH1 0x60 DUP2 DUP4 ADD DUP2 SWAP1 MSTORE PUSH1 0x3 SWAP1 DUP3 ADD MSTORE PUSH3 0x8AA89 PUSH1 0xEB SHL PUSH1 0x80 DUP3 ADD MSTORE SWAP1 MLOAD PUSH32 0x936D8019ACD8166D88A7A73AE09F4C93B665420206512807EAE9130B0C6E3217 SWAP2 DUP2 SWAP1 SUB PUSH1 0xA0 ADD SWAP1 LOG1 POP POP PUSH2 0x1172 JUMP JUMPDEST PUSH1 0x4 SLOAD DUP1 PUSH2 0x10F7 JUMPI PUSH1 0x40 MLOAD PUSH3 0x461BCD PUSH1 0xE5 SHL DUP2 MSTORE PUSH1 0x20 PUSH1 0x4 DUP3 ADD MSTORE PUSH1 0x7 PUSH1 0x24 DUP3 ADD MSTORE PUSH7 0x4E6F2066656573 PUSH1 0xC8 SHL PUSH1 0x44 DUP3 ADD MSTORE PUSH1 0x64 ADD PUSH2 0x3A4 JUMP JUMPDEST PUSH0 PUSH1 0x4 SSTORE PUSH1 0x1 SLOAD PUSH2 0x1112 SWAP1 PUSH1 0x1 PUSH1 0x1 PUSH1 0xA0 SHL SUB AND DUP4 DUP4 PUSH2 0x1732 JUMP JUMPDEST PUSH1 0x40 DUP1 MLOAD PUSH1 0x1 PUSH1 0x1 PUSH1 0xA0 SHL SUB DUP5 AND DUP2 MSTORE PUSH1 0x20 DUP2 ADD DUP4 SWAP1 MSTORE PUSH1 0x60 DUP2 DUP4 ADD DUP2 SWAP1 MSTORE PUSH1 0x4 SWAP1 DUP3 ADD MSTORE PUSH4 0x55534443 PUSH1 0xE0 SHL PUSH1 0x80 DUP3 ADD MSTORE SWAP1 MLOAD PUSH32 0x936D8019ACD8166D88A7A73AE09F4C93B665420206512807EAE9130B0C6E3217 SWAP2 DUP2 SWAP1 SUB PUSH1 0xA0 ADD SWAP1 LOG1 POP JUMPDEST PUSH2 0x1188 PUSH1 0x1 PUSH0 MLOAD PUSH1 0x20 PUSH2 0x1CD7 PUSH0 CODECOPY PUSH0 MLOAD SWAP1 PUSH0 MSTORE SSTORE JUMP JUMPDEST POP POP JUMP JUMPDEST PUSH1 0x60 PUSH1 0x6 DUP1 SLOAD DUP1 PUSH1 0x20 MUL PUSH1 0x20 ADD PUSH1 0x40 MLOAD SWAP1 DUP2 ADD PUSH1 0x40 MSTORE DUP1 SWAP3 SWAP2 SWAP1 DUP2 DUP2 MSTORE PUSH1 0x20 ADD DUP3 DUP1 SLOAD DUP1 ISZERO PUSH2 0x11D8 JUMPI PUSH1 0x20 MUL DUP3 ADD SWAP2 SWAP1 PUSH0 MSTORE PUSH1 0x20 PUSH0 KECCAK256 SWAP1 JUMPDEST DUP2 SLOAD DUP2 MSTORE PUSH1 0x20 ADD SWAP1 PUSH1 0x1 ADD SWAP1 DUP1 DUP4 GT PUSH2 0x11C4 JUMPI JUMPDEST POP POP POP POP POP SWAP1 POP SWAP1 JUMP JUMPDEST PUSH0 DUP2 DUP2 MSTORE PUSH1 0x5 PUSH1 0x20 SWAP1 DUP2 MSTORE PUSH1 0x40 DUP1 DUP4 KECCAK256 PUSH1 0x2 DUP2 ADD SLOAD DUP2 SLOAD PUSH1 0x1 DUP4 ADD SLOAD PUSH1 0x4 DUP5 ADD SLOAD PUSH1 0x3 DUP6 ADD DUP1 SLOAD DUP8 MLOAD DUP2 DUP11 MUL DUP2 ADD DUP11 ADD SWAP1 SWAP9 MSTORE DUP1 DUP9 MSTORE PUSH1 0x60 SWAP9 DUP11 SWAP9 DUP10 SWAP9 DUP10 SWAP9 DUP10 SWAP9 DUP10 SWAP9 DUP10 SWAP9 SWAP4 SWAP8 PUSH1 0x1 PUSH1 0x1 PUSH1 0xA0 SHL SUB PUSH3 0x10000 DUP6 DIV AND SWAP8 SWAP1 SWAP7 SWAP3 SWAP6 SWAP2 SWAP5 PUSH1 0xFF DUP1 DUP3 AND SWAP6 PUSH2 0x100 SWAP3 DUP4 SWAP1 DIV DUP3 AND SWAP6 DUP3 DUP3 AND SWAP6 SWAP4 SWAP1 SWAP2 DIV SWAP1 SWAP2 AND SWAP3 DUP10 SWAP2 DUP4 ADD DUP3 DUP3 DUP1 ISZERO PUSH2 0x1294 JUMPI PUSH1 0x20 MUL DUP3 ADD SWAP2 SWAP1 PUSH0 MSTORE PUSH1 0x20 PUSH0 KECCAK256 SWAP1 JUMPDEST DUP2 SLOAD PUSH1 0x1 PUSH1 0x1 PUSH1 0xA0 SHL SUB AND DUP2 MSTORE PUSH1 0x1 SWAP1 SWAP2 ADD SWAP1 PUSH1 0x20 ADD DUP1 DUP4 GT PUSH2 0x1276 JUMPI JUMPDEST POP POP POP POP POP SWAP7 POP SWAP9 POP SWAP9 POP SWAP9 POP SWAP9 POP SWAP9 POP SWAP9 POP SWAP9 POP SWAP9 POP POP SWAP2 SWAP4 SWAP6 SWAP8 POP SWAP2 SWAP4 SWAP6 SWAP8 JUMP JUMPDEST PUSH2 0x12BF PUSH2 0x169C JUMP JUMPDEST PUSH1 0x1 PUSH1 0x1 PUSH1 0xA0 SHL SUB DUP2 AND PUSH2 0x12E8 JUMPI PUSH1 0x40 MLOAD PUSH4 0x1E4FBDF7 PUSH1 0xE0 SHL DUP2 MSTORE PUSH0 PUSH1 0x4 DUP3 ADD MSTORE PUSH1 0x24 ADD PUSH2 0x3A4 JUMP JUMPDEST PUSH2 0x12F1 DUP2 PUSH2 0x16C8 JUMP JUMPDEST POP JUMP JUMPDEST PUSH2 0x12FC PUSH2 0x1717 JUMP JUMPDEST PUSH0 DUP2 DUP2 MSTORE PUSH1 0x7 PUSH1 0x20 SWAP1 DUP2 MSTORE PUSH1 0x40 DUP1 DUP4 KECCAK256 CALLER DUP5 MSTORE SWAP1 SWAP2 MSTORE SWAP1 KECCAK256 SLOAD DUP1 PUSH2 0x1355 JUMPI PUSH1 0x40 MLOAD PUSH3 0x461BCD PUSH1 0xE5 SHL DUP2 MSTORE PUSH1 0x20 PUSH1 0x4 DUP3 ADD MSTORE PUSH1 0x10 PUSH1 0x24 DUP3 ADD MSTORE PUSH16 0x4E6F7468696E6720746F20636C61696D PUSH1 0x80 SHL PUSH1 0x44 DUP3 ADD MSTORE PUSH1 0x64 ADD PUSH2 0x3A4 JUMP JUMPDEST PUSH0 DUP3 DUP2 MSTORE PUSH1 0x8 PUSH1 0x20 SWAP1 DUP2 MSTORE PUSH1 0x40 DUP1 DUP4 KECCAK256 CALLER DUP5 MSTORE SWAP1 SWAP2 MSTORE SWAP1 KECCAK256 SLOAD PUSH1 0xFF AND ISZERO PUSH2 0x13B0 JUMPI PUSH1 0x40 MLOAD PUSH3 0x461BCD PUSH1 0xE5 SHL DUP2 MSTORE PUSH1 0x20 PUSH1 0x4 DUP3 ADD MSTORE PUSH1 0xF PUSH1 0x24 DUP3 ADD MSTORE PUSH15 0x105B1C9958591E4818DB185A5B5959 PUSH1 0x8A SHL PUSH1 0x44 DUP3 ADD MSTORE PUSH1 0x64 ADD PUSH2 0x3A4 JUMP JUMPDEST CALLER PUSH2 0x13EF JUMPI PUSH1 0x40 MLOAD PUSH3 0x461BCD PUSH1 0xE5 SHL DUP2 MSTORE PUSH1 0x20 PUSH1 0x4 DUP3 ADD MSTORE PUSH1 0xF PUSH1 0x24 DUP3 ADD MSTORE PUSH15 0x496E76616C69642061646472657373 PUSH1 0x88 SHL PUSH1 0x44 DUP3 ADD MSTORE PUSH1 0x64 ADD PUSH2 0x3A4 JUMP JUMPDEST PUSH0 DUP3 DUP2 MSTORE PUSH1 0x5 PUSH1 0x20 SWAP1 DUP2 MSTORE PUSH1 0x40 DUP1 DUP4 KECCAK256 PUSH1 0x8 DUP4 MSTORE DUP2 DUP5 KECCAK256 CALLER DUP1 DUP7 MSTORE SWAP1 DUP5 MSTORE DUP3 DUP6 KECCAK256 DUP1 SLOAD PUSH1 0xFF NOT AND PUSH1 0x1 OR SWAP1 SSTORE DUP7 DUP6 MSTORE PUSH1 0x7 DUP5 MSTORE DUP3 DUP6 KECCAK256 SWAP1 DUP6 MSTORE SWAP1 SWAP3 MSTORE DUP3 KECCAK256 DUP3 SWAP1 SSTORE SWAP1 PUSH1 0x2 DUP3 DUP2 ADD SLOAD PUSH2 0x100 SWAP1 DIV PUSH1 0xFF AND SWAP1 DUP2 GT ISZERO PUSH2 0x144F JUMPI PUSH2 0x144F PUSH2 0x1B07 JUMP JUMPDEST SUB PUSH2 0x1466 JUMPI PUSH1 0x4 DUP2 ADD DUP1 SLOAD PUSH2 0xFF00 NOT AND PUSH2 0x100 OR SWAP1 SSTORE JUMPDEST PUSH1 0x1 PUSH1 0x2 DUP3 DUP2 ADD SLOAD PUSH2 0x100 SWAP1 DIV PUSH1 0xFF AND SWAP1 DUP2 GT ISZERO PUSH2 0x1486 JUMPI PUSH2 0x1486 PUSH2 0x1B07 JUMP JUMPDEST EQ DUP1 PUSH2 0x14AE JUMPI POP PUSH1 0x2 DUP1 DUP3 DUP2 ADD SLOAD PUSH2 0x100 SWAP1 DIV PUSH1 0xFF AND SWAP1 DUP2 GT ISZERO PUSH2 0x14AC JUMPI PUSH2 0x14AC PUSH2 0x1B07 JUMP JUMPDEST EQ JUMPDEST ISZERO PUSH2 0x153F JUMPI PUSH1 0x1 PUSH0 JUMPDEST PUSH1 0x3 DUP4 ADD SLOAD DUP2 LT ISZERO PUSH2 0x1524 JUMPI PUSH0 DUP6 DUP2 MSTORE PUSH1 0x8 PUSH1 0x20 MSTORE PUSH1 0x40 DUP2 KECCAK256 PUSH1 0x3 DUP6 ADD DUP1 SLOAD SWAP2 SWAP3 SWAP2 DUP5 SWAP1 DUP2 LT PUSH2 0x14E9 JUMPI PUSH2 0x14E9 PUSH2 0x1CAF JUMP JUMPDEST PUSH0 SWAP2 DUP3 MSTORE PUSH1 0x20 DUP1 DUP4 KECCAK256 SWAP1 SWAP2 ADD SLOAD PUSH1 0x1 PUSH1 0x1 PUSH1 0xA0 SHL SUB AND DUP4 MSTORE DUP3 ADD SWAP3 SWAP1 SWAP3 MSTORE PUSH1 0x40 ADD SWAP1 KECCAK256 SLOAD PUSH1 0xFF AND PUSH2 0x151C JUMPI PUSH0 SWAP2 POP PUSH2 0x1524 JUMP JUMPDEST PUSH1 0x1 ADD PUSH2 0x14B7 JUMP JUMPDEST POP DUP1 ISZERO PUSH2 0x153D JUMPI PUSH1 0x4 DUP3 ADD DUP1 SLOAD PUSH2 0xFF00 NOT AND PUSH2 0x100 OR SWAP1 SSTORE JUMPDEST POP JUMPDEST PUSH0 PUSH1 0x2 DUP3 ADD SLOAD PUSH1 0xFF AND PUSH1 0x1 DUP2 GT ISZERO PUSH2 0x1559 JUMPI PUSH2 0x1559 PUSH2 0x1B07 JUMP JUMPDEST SUB PUSH2 0x15F1 JUMPI PUSH1 0x40 MLOAD PUSH0 SWAP1 CALLER SWAP1 DUP5 SWAP1 DUP4 DUP2 DUP2 DUP2 DUP6 DUP8 GAS CALL SWAP3 POP POP POP RETURNDATASIZE DUP1 PUSH0 DUP2 EQ PUSH2 0x159D JUMPI PUSH1 0x40 MLOAD SWAP2 POP PUSH1 0x1F NOT PUSH1 0x3F RETURNDATASIZE ADD AND DUP3 ADD PUSH1 0x40 MSTORE RETURNDATASIZE DUP3 MSTORE RETURNDATASIZE PUSH0 PUSH1 0x20 DUP5 ADD RETURNDATACOPY PUSH2 0x15A2 JUMP JUMPDEST PUSH1 0x60 SWAP2 POP JUMPDEST POP POP SWAP1 POP DUP1 PUSH2 0x15EB JUMPI PUSH1 0x40 MLOAD PUSH3 0x461BCD PUSH1 0xE5 SHL DUP2 MSTORE PUSH1 0x20 PUSH1 0x4 DUP3 ADD MSTORE PUSH1 0x15 PUSH1 0x24 DUP3 ADD MSTORE PUSH21 0x455448207472616E73666572206661696C65642121 PUSH1 0x58 SHL PUSH1 0x44 DUP3 ADD MSTORE PUSH1 0x64 ADD PUSH2 0x3A4 JUMP JUMPDEST POP PUSH2 0x1608 JUMP JUMPDEST PUSH1 0x1 SLOAD PUSH2 0x1608 SWAP1 PUSH1 0x1 PUSH1 0x1 PUSH1 0xA0 SHL SUB AND CALLER DUP5 PUSH2 0x1732 JUMP JUMPDEST PUSH1 0x40 DUP1 MLOAD DUP5 DUP2 MSTORE CALLER PUSH1 0x20 DUP3 ADD MSTORE SWAP1 DUP2 ADD DUP4 SWAP1 MSTORE PUSH32 0xFE236DFC7CE073698734B89DA1AEE0E7551C9C6D264404C502E6E8FEFC1132A8 SWAP1 PUSH1 0x60 ADD PUSH1 0x40 MLOAD DUP1 SWAP2 SUB SWAP1 LOG1 POP POP PUSH2 0x12F1 PUSH1 0x1 PUSH0 MLOAD PUSH1 0x20 PUSH2 0x1CD7 PUSH0 CODECOPY PUSH0 MLOAD SWAP1 PUSH0 MSTORE SSTORE JUMP JUMPDEST PUSH2 0x166E DUP5 DUP5 DUP5 DUP5 PUSH1 0x1 PUSH2 0x176C JUMP JUMPDEST PUSH2 0x1696 JUMPI PUSH1 0x40 MLOAD PUSH4 0x5274AFE7 PUSH1 0xE0 SHL DUP2 MSTORE PUSH1 0x1 PUSH1 0x1 PUSH1 0xA0 SHL SUB DUP6 AND PUSH1 0x4 DUP3 ADD MSTORE PUSH1 0x24 ADD PUSH2 0x3A4 JUMP JUMPDEST POP POP POP POP JUMP JUMPDEST PUSH0 SLOAD PUSH1 0x1 PUSH1 0x1 PUSH1 0xA0 SHL SUB AND CALLER EQ PUSH2 0xD1F JUMPI PUSH1 0x40 MLOAD PUSH4 0x118CDAA7 PUSH1 0xE0 SHL DUP2 MSTORE CALLER PUSH1 0x4 DUP3 ADD MSTORE PUSH1 0x24 ADD PUSH2 0x3A4 JUMP JUMPDEST PUSH0 DUP1 SLOAD PUSH1 0x1 PUSH1 0x1 PUSH1 0xA0 SHL SUB DUP4 DUP2 AND PUSH1 0x1 PUSH1 0x1 PUSH1 0xA0 SHL SUB NOT DUP4 AND DUP2 OR DUP5 SSTORE PUSH1 0x40 MLOAD SWAP2 SWAP1 SWAP3 AND SWAP3 DUP4 SWAP2 PUSH32 0x8BE0079C531659141344CD1FD0A4F28419497F9722A3DAAFE3B4186F6B6457E0 SWAP2 SWAP1 LOG3 POP POP JUMP JUMPDEST PUSH2 0x171F PUSH2 0x17D9 JUMP JUMPDEST PUSH1 0x2 PUSH0 MLOAD PUSH1 0x20 PUSH2 0x1CD7 PUSH0 CODECOPY PUSH0 MLOAD SWAP1 PUSH0 MSTORE SSTORE JUMP JUMPDEST PUSH2 0x173F DUP4 DUP4 DUP4 PUSH1 0x1 PUSH2 0x1808 JUMP JUMPDEST PUSH2 0x1767 JUMPI PUSH1 0x40 MLOAD PUSH4 0x5274AFE7 PUSH1 0xE0 SHL DUP2 MSTORE PUSH1 0x1 PUSH1 0x1 PUSH1 0xA0 SHL SUB DUP5 AND PUSH1 0x4 DUP3 ADD MSTORE PUSH1 0x24 ADD PUSH2 0x3A4 JUMP JUMPDEST POP POP POP JUMP JUMPDEST PUSH1 0x40 MLOAD PUSH4 0x23B872DD PUSH1 0xE0 SHL PUSH0 DUP2 DUP2 MSTORE PUSH1 0x1 PUSH1 0x1 PUSH1 0xA0 SHL SUB DUP8 DUP2 AND PUSH1 0x4 MSTORE DUP7 AND PUSH1 0x24 MSTORE PUSH1 0x44 DUP6 SWAP1 MSTORE SWAP2 PUSH1 0x20 DUP4 PUSH1 0x64 DUP2 DUP1 DUP13 GAS CALL SWAP3 POP PUSH1 0x1 PUSH0 MLOAD EQ DUP4 AND PUSH2 0x17C8 JUMPI DUP4 DUP4 ISZERO AND ISZERO PUSH2 0x17BC JUMPI RETURNDATASIZE PUSH0 DUP3 RETURNDATACOPY RETURNDATASIZE DUP2 REVERT JUMPDEST PUSH0 DUP9 EXTCODESIZE GT RETURNDATASIZE ISZERO AND DUP4 AND SWAP3 POP JUMPDEST PUSH1 0x40 MSTORE POP PUSH0 PUSH1 0x60 MSTORE SWAP6 SWAP5 POP POP POP POP POP JUMP JUMPDEST PUSH0 MLOAD PUSH1 0x20 PUSH2 0x1CD7 PUSH0 CODECOPY PUSH0 MLOAD SWAP1 PUSH0 MSTORE SLOAD PUSH1 0x2 SUB PUSH2 0xD1F JUMPI PUSH1 0x40 MLOAD PUSH4 0x3EE5AEB5 PUSH1 0xE0 SHL DUP2 MSTORE PUSH1 0x4 ADD PUSH1 0x40 MLOAD DUP1 SWAP2 SUB SWAP1 REVERT JUMPDEST PUSH1 0x40 MLOAD PUSH4 0xA9059CBB PUSH1 0xE0 SHL PUSH0 DUP2 DUP2 MSTORE PUSH1 0x1 PUSH1 0x1 PUSH1 0xA0 SHL SUB DUP7 AND PUSH1 0x4 MSTORE PUSH1 0x24 DUP6 SWAP1 MSTORE SWAP2 PUSH1 0x20 DUP4 PUSH1 0x44 DUP2 DUP1 DUP12 GAS CALL SWAP3 POP PUSH1 0x1 PUSH0 MLOAD EQ DUP4 AND PUSH2 0x185E JUMPI DUP4 DUP4 ISZERO AND ISZERO PUSH2 0x1852 JUMPI RETURNDATASIZE PUSH0 DUP3 RETURNDATACOPY RETURNDATASIZE DUP2 REVERT JUMPDEST PUSH0 DUP8 EXTCODESIZE GT RETURNDATASIZE ISZERO AND DUP4 AND SWAP3 POP JUMPDEST PUSH1 0x40 MSTORE POP SWAP5 SWAP4 POP POP POP POP JUMP JUMPDEST DUP3 DUP1 SLOAD DUP3 DUP3 SSTORE SWAP1 PUSH0 MSTORE PUSH1 0x20 PUSH0 KECCAK256 SWAP1 DUP2 ADD SWAP3 DUP3 ISZERO PUSH2 0x18BD JUMPI SWAP2 PUSH1 0x20 MUL DUP3 ADD JUMPDEST DUP3 DUP2 GT ISZERO PUSH2 0x18BD JUMPI DUP3 MLOAD DUP3 SLOAD PUSH1 0x1 PUSH1 0x1 PUSH1 0xA0 SHL SUB NOT AND PUSH1 0x1 PUSH1 0x1 PUSH1 0xA0 SHL SUB SWAP1 SWAP2 AND OR DUP3 SSTORE PUSH1 0x20 SWAP1 SWAP3 ADD SWAP2 PUSH1 0x1 SWAP1 SWAP2 ADD SWAP1 PUSH2 0x1888 JUMP JUMPDEST POP PUSH2 0x18C9 SWAP3 SWAP2 POP PUSH2 0x191E JUMP JUMPDEST POP SWAP1 JUMP JUMPDEST DUP3 DUP1 SLOAD DUP3 DUP3 SSTORE SWAP1 PUSH0 MSTORE PUSH1 0x20 PUSH0 KECCAK256 SWAP1 DUP2 ADD SWAP3 DUP3 ISZERO PUSH2 0x18BD JUMPI SWAP2 PUSH1 0x20 MUL DUP3 ADD JUMPDEST DUP3 DUP2 GT ISZERO PUSH2 0x18BD JUMPI DUP2 SLOAD PUSH1 0x1 PUSH1 0x1 PUSH1 0xA0 SHL SUB NOT AND PUSH1 0x1 PUSH1 0x1 PUSH1 0xA0 SHL SUB DUP5 CALLDATALOAD AND OR DUP3 SSTORE PUSH1 0x20 SWAP1 SWAP3 ADD SWAP2 PUSH1 0x1 SWAP1 SWAP2 ADD SWAP1 PUSH2 0x18EB JUMP JUMPDEST JUMPDEST DUP1 DUP3 GT ISZERO PUSH2 0x18C9 JUMPI PUSH0 DUP2 SSTORE PUSH1 0x1 ADD PUSH2 0x191F JUMP JUMPDEST DUP1 CALLDATALOAD PUSH1 0x2 DUP2 LT PUSH2 0x1940 JUMPI PUSH0 PUSH0 REVERT JUMPDEST SWAP2 SWAP1 POP JUMP JUMPDEST PUSH0 PUSH0 PUSH0 PUSH1 0x60 DUP5 DUP7 SUB SLT ISZERO PUSH2 0x1957 JUMPI PUSH0 PUSH0 REVERT JUMPDEST PUSH2 0x1960 DUP5 PUSH2 0x1932 JUMP JUMPDEST SWAP3 POP PUSH1 0x20 DUP5 ADD CALLDATALOAD SWAP2 POP PUSH1 0x40 DUP5 ADD CALLDATALOAD PUSH1 0x3 DUP2 LT PUSH2 0x197A JUMPI PUSH0 PUSH0 REVERT JUMPDEST DUP1 SWAP2 POP POP SWAP3 POP SWAP3 POP SWAP3 JUMP JUMPDEST PUSH0 PUSH0 DUP4 PUSH1 0x1F DUP5 ADD SLT PUSH2 0x1995 JUMPI PUSH0 PUSH0 REVERT JUMPDEST POP DUP2 CALLDATALOAD PUSH8 0xFFFFFFFFFFFFFFFF DUP2 GT ISZERO PUSH2 0x19AC JUMPI PUSH0 PUSH0 REVERT JUMPDEST PUSH1 0x20 DUP4 ADD SWAP2 POP DUP4 PUSH1 0x20 DUP3 PUSH1 0x5 SHL DUP6 ADD ADD GT ISZERO PUSH2 0x19C6 JUMPI PUSH0 PUSH0 REVERT JUMPDEST SWAP3 POP SWAP3 SWAP1 POP JUMP JUMPDEST PUSH0 PUSH0 PUSH0 PUSH0 PUSH0 PUSH1 0x60 DUP7 DUP9 SUB SLT ISZERO PUSH2 0x19E1 JUMPI PUSH0 PUSH0 REVERT JUMPDEST DUP6 CALLDATALOAD SWAP5 POP PUSH1 0x20 DUP7 ADD CALLDATALOAD PUSH8 0xFFFFFFFFFFFFFFFF DUP2 GT ISZERO PUSH2 0x19FE JUMPI PUSH0 PUSH0 REVERT JUMPDEST PUSH2 0x1A0A DUP9 DUP3 DUP10 ADD PUSH2 0x1985 JUMP JUMPDEST SWAP1 SWAP6 POP SWAP4 POP POP PUSH1 0x40 DUP7 ADD CALLDATALOAD PUSH8 0xFFFFFFFFFFFFFFFF DUP2 GT ISZERO PUSH2 0x1A29 JUMPI PUSH0 PUSH0 REVERT JUMPDEST PUSH2 0x1A35 DUP9 DUP3 DUP10 ADD PUSH2 0x1985 JUMP JUMPDEST SWAP7 SWAP10 SWAP6 SWAP9 POP SWAP4 SWAP7 POP SWAP3 SWAP5 SWAP4 SWAP3 POP POP POP JUMP JUMPDEST PUSH0 PUSH1 0x20 DUP3 DUP5 SUB SLT ISZERO PUSH2 0x1A56 JUMPI PUSH0 PUSH0 REVERT JUMPDEST POP CALLDATALOAD SWAP2 SWAP1 POP JUMP JUMPDEST DUP1 CALLDATALOAD PUSH1 0x1 PUSH1 0x1 PUSH1 0xA0 SHL SUB DUP2 AND DUP2 EQ PUSH2 0x1940 JUMPI PUSH0 PUSH0 REVERT JUMPDEST PUSH0 PUSH0 PUSH1 0x40 DUP4 DUP6 SUB SLT ISZERO PUSH2 0x1A84 JUMPI PUSH0 PUSH0 REVERT JUMPDEST DUP3 CALLDATALOAD SWAP2 POP PUSH2 0x1A94 PUSH1 0x20 DUP5 ADD PUSH2 0x1A5D JUMP JUMPDEST SWAP1 POP SWAP3 POP SWAP3 SWAP1 POP JUMP JUMPDEST PUSH0 PUSH0 PUSH1 0x40 DUP4 DUP6 SUB SLT ISZERO PUSH2 0x1AAE JUMPI PUSH0 PUSH0 REVERT JUMPDEST PUSH2 0x1AB7 DUP4 PUSH2 0x1932 JUMP JUMPDEST SWAP2 POP PUSH2 0x1A94 PUSH1 0x20 DUP5 ADD PUSH2 0x1A5D JUMP JUMPDEST PUSH1 0x20 DUP1 DUP3 MSTORE DUP3 MLOAD DUP3 DUP3 ADD DUP2 SWAP1 MSTORE PUSH0 SWAP2 DUP5 ADD SWAP1 PUSH1 0x40 DUP5 ADD SWAP1 DUP4 JUMPDEST DUP2 DUP2 LT ISZERO PUSH2 0x1AFC JUMPI DUP4 MLOAD DUP4 MSTORE PUSH1 0x20 SWAP4 DUP5 ADD SWAP4 SWAP1 SWAP3 ADD SWAP2 PUSH1 0x1 ADD PUSH2 0x1ADE JUMP JUMPDEST POP SWAP1 SWAP6 SWAP5 POP POP POP POP POP JUMP JUMPDEST PUSH4 0x4E487B71 PUSH1 0xE0 SHL PUSH0 MSTORE PUSH1 0x21 PUSH1 0x4 MSTORE PUSH1 0x24 PUSH0 REVERT JUMPDEST PUSH1 0x2 DUP2 LT PUSH2 0x1B2B JUMPI PUSH2 0x1B2B PUSH2 0x1B07 JUMP JUMPDEST SWAP1 MSTORE JUMP JUMPDEST PUSH1 0x3 DUP2 LT PUSH2 0x1B2B JUMPI PUSH2 0x1B2B PUSH2 0x1B07 JUMP JUMPDEST PUSH1 0x1 PUSH1 0x1 PUSH1 0xA0 SHL SUB DUP10 AND DUP2 MSTORE PUSH2 0x100 PUSH1 0x20 DUP1 DUP4 ADD DUP3 SWAP1 MSTORE DUP10 MLOAD SWAP2 DUP4 ADD DUP3 SWAP1 MSTORE PUSH0 SWAP2 SWAP1 DUP11 ADD SWAP1 PUSH2 0x120 DUP5 ADD SWAP1 DUP4 JUMPDEST DUP2 DUP2 LT ISZERO PUSH2 0x1B93 JUMPI DUP4 MLOAD PUSH1 0x1 PUSH1 0x1 PUSH1 0xA0 SHL SUB AND DUP4 MSTORE PUSH1 0x20 SWAP4 DUP5 ADD SWAP4 SWAP1 SWAP3 ADD SWAP2 PUSH1 0x1 ADD PUSH2 0x1B6C JUMP JUMPDEST POP POP DUP1 SWAP3 POP POP POP DUP8 PUSH1 0x40 DUP4 ADD MSTORE DUP7 PUSH1 0x60 DUP4 ADD MSTORE PUSH2 0x1BB4 PUSH1 0x80 DUP4 ADD DUP8 ISZERO ISZERO SWAP1 MSTORE JUMP JUMPDEST DUP5 ISZERO ISZERO PUSH1 0xA0 DUP4 ADD MSTORE PUSH2 0x1BC9 PUSH1 0xC0 DUP4 ADD DUP6 PUSH2 0x1B1B JUMP JUMPDEST PUSH2 0x1BD6 PUSH1 0xE0 DUP4 ADD DUP5 PUSH2 0x1B2F JUMP JUMPDEST SWAP10 SWAP9 POP POP POP POP POP POP POP POP POP JUMP JUMPDEST PUSH0 PUSH1 0x20 DUP3 DUP5 SUB SLT ISZERO PUSH2 0x1BF3 JUMPI PUSH0 PUSH0 REVERT JUMPDEST PUSH2 0x1BFC DUP3 PUSH2 0x1A5D JUMP JUMPDEST SWAP4 SWAP3 POP POP POP JUMP JUMPDEST PUSH4 0x4E487B71 PUSH1 0xE0 SHL PUSH0 MSTORE PUSH1 0x11 PUSH1 0x4 MSTORE PUSH1 0x24 PUSH0 REVERT JUMPDEST DUP1 DUP3 MUL DUP2 ISZERO DUP3 DUP3 DIV DUP5 EQ OR PUSH2 0x1C2E JUMPI PUSH2 0x1C2E PUSH2 0x1C03 JUMP JUMPDEST SWAP3 SWAP2 POP POP JUMP JUMPDEST PUSH0 DUP3 PUSH2 0x1C4E JUMPI PUSH4 0x4E487B71 PUSH1 0xE0 SHL PUSH0 MSTORE PUSH1 0x12 PUSH1 0x4 MSTORE PUSH1 0x24 PUSH0 REVERT JUMPDEST POP DIV SWAP1 JUMP JUMPDEST DUP1 DUP3 ADD DUP1 DUP3 GT ISZERO PUSH2 0x1C2E JUMPI PUSH2 0x1C2E PUSH2 0x1C03 JUMP JUMPDEST DUP7 DUP2 MSTORE PUSH1 0x1 PUSH1 0x1 PUSH1 0xA0 SHL SUB DUP7 AND PUSH1 0x20 DUP3 ADD MSTORE PUSH1 0x40 DUP2 ADD DUP6 SWAP1 MSTORE PUSH1 0x60 DUP2 ADD DUP5 SWAP1 MSTORE PUSH1 0xC0 DUP2 ADD PUSH2 0x1C97 PUSH1 0x80 DUP4 ADD DUP6 PUSH2 0x1B1B JUMP JUMPDEST PUSH2 0x1CA4 PUSH1 0xA0 DUP4 ADD DUP5 PUSH2 0x1B2F JUMP JUMPDEST SWAP8 SWAP7 POP POP POP POP POP POP POP JUMP JUMPDEST PUSH4 0x4E487B71 PUSH1 0xE0 SHL PUSH0 MSTORE PUSH1 0x32 PUSH1 0x4 MSTORE PUSH1 0x24 PUSH0 REVERT JUMPDEST DUP2 DUP2 SUB DUP2 DUP2 GT ISZERO PUSH2 0x1C2E JUMPI PUSH2 0x1C2E PUSH2 0x1C03 JUMP INVALID SWAP12 PUSH24 0x9B17422D0DF92223018B32B4D1FA46E071723D6817E2486D STOP EXTCODESIZE EOFCREATE 0xC5 PUSH0 STOP LOG2 PUSH5 0x6970667358 0x22 SLT KECCAK256 PUSH2 0xFAFA PUSH6 0xA49540F340B3 0xCD RJUMPI 0x833E DUP16 0xC7 SWAP11 DUP2 DUP2 0xC0 PUSH5 0xC713D5F014 JUMPF 0xE6BD NOT DUP2 SWAPN 0x64 PUSH20 0x6F6C634300081E00330000000000000000000000 "
				},
				"gasEstimates": {
					"creation": {
						"codeDepositCost": "1493600",
						"executionCost": "infinite",
						"totalCost": "infinite"
					},
					"external": {
						"FEE_PERCENT()": "227",
						"MAX_WINNERS()": "273",
						"allBountyIds(uint256)": "4584",
						"assignMultipleWinners(bytes32,address[],uint256[])": "infinite",
						"assignSingleWinner(bytes32,address)": "107259",
						"availableBounties()": "infinite",
						"claimReward(bytes32)": "infinite",
						"claimableRewards(bytes32,address)": "2668",
						"claimed(bytes32,address)": "2692",
						"createBounty(uint8,uint256,uint8)": "infinite",
						"getBountyInfo(bytes32)": "infinite",
						"owner()": "2418",
						"renounceOwnership()": "infinite",
						"totalEthFees()": "2328",
						"totalUsdcFees()": "2394",
						"transferOwnership(address)": "28417",
						"usdcToken()": "2382",
						"withdraw(uint8,address)": "infinite"
					}
				},
				"methodIdentifiers": {
					"FEE_PERCENT()": "eaf98d23",
					"MAX_WINNERS()": "29a62a76",
					"allBountyIds(uint256)": "30718703",
					"assignMultipleWinners(bytes32,address[],uint256[])": "176a827b",
					"assignSingleWinner(bytes32,address)": "a38e3aed",
					"availableBounties()": "e0baf5ac",
					"claimReward(bytes32)": "f5414023",
					"claimableRewards(bytes32,address)": "ebce3cf3",
					"claimed(bytes32,address)": "dfcae622",
					"createBounty(uint8,uint256,uint8)": "0c9e2cc5",
					"getBountyInfo(bytes32)": "e1e538cc",
					"owner()": "8da5cb5b",
					"renounceOwnership()": "715018a6",
					"totalEthFees()": "43d34a17",
					"totalUsdcFees()": "952c1c85",
					"transferOwnership(address)": "f2fde38b",
					"usdcToken()": "11eac855",
					"withdraw(uint8,address)": "dd6ad764"
				}
			},
			"storageLayout": {
				"storage": [
					{
						"astId": 8,
						"contract": "src/BountyContract.sol:BountyContract",
						"label": "_owner",
						"offset": 0,
						"slot": "0",
						"type": "t_address"
					},
					{
						"astId": 1077,
						"contract": "src/BountyContract.sol:BountyContract",
						"label": "usdcToken",
						"offset": 0,
						"slot": "1",
						"type": "t_contract(IERC20)315"
					},
					{
						"astId": 1080,
						"contract": "src/BountyContract.sol:BountyContract",
						"label": "_bountyCounter",
						"offset": 0,
						"slot": "2",
						"type": "t_struct(Counter)2039_storage"
					},
					{
						"astId": 1082,
						"contract": "src/BountyContract.sol:BountyContract",
						"label": "totalEthFees",
						"offset": 0,
						"slot": "3",
						"type": "t_uint256"
					},
					{
						"astId": 1084,
						"contract": "src/BountyContract.sol:BountyContract",
						"label": "totalUsdcFees",
						"offset": 0,
						"slot": "4",
						"type": "t_uint256"
					},
					{
						"astId": 1116,
						"contract": "src/BountyContract.sol:BountyContract",
						"label": "bounties",
						"offset": 0,
						"slot": "5",
						"type": "t_mapping(t_bytes32,t_struct(Bounty)1111_storage)"
					},
					{
						"astId": 1119,
						"contract": "src/BountyContract.sol:BountyContract",
						"label": "allBountyIds",
						"offset": 0,
						"slot": "6",
						"type": "t_array(t_bytes32)dyn_storage"
					},
					{
						"astId": 1125,
						"contract": "src/BountyContract.sol:BountyContract",
						"label": "claimableRewards",
						"offset": 0,
						"slot": "7",
						"type": "t_mapping(t_bytes32,t_mapping(t_address,t_uint256))"
					},
					{
						"astId": 1131,
						"contract": "src/BountyContract.sol:BountyContract",
						"label": "claimed",
						"offset": 0,
						"slot": "8",
						"type": "t_mapping(t_bytes32,t_mapping(t_address,t_bool))"
					}
				],
				"types": {
					"t_address": {
						"encoding": "inplace",
						"label": "address",
						"numberOfBytes": "20"
					},
					"t_array(t_address)dyn_storage": {
						"base": "t_address",
						"encoding": "dynamic_array",
						"label": "address[]",
						"numberOfBytes": "32"
					},
					"t_array(t_bytes32)dyn_storage": {
						"base": "t_bytes32",
						"encoding": "dynamic_array",
						"label": "bytes32[]",
						"numberOfBytes": "32"
					},
					"t_bool": {
						"encoding": "inplace",
						"label": "bool",
						"numberOfBytes": "1"
					},
					"t_bytes32": {
						"encoding": "inplace",
						"label": "bytes32",
						"numberOfBytes": "32"
					},
					"t_contract(IERC20)315": {
						"encoding": "inplace",
						"label": "contract IERC20",
						"numberOfBytes": "20"
					},
					"t_enum(PayoutType)1091": {
						"encoding": "inplace",
						"label": "enum BountyContract.PayoutType",
						"numberOfBytes": "1"
					},
					"t_enum(TokenType)1087": {
						"encoding": "inplace",
						"label": "enum BountyContract.TokenType",
						"numberOfBytes": "1"
					},
					"t_mapping(t_address,t_bool)": {
						"encoding": "mapping",
						"key": "t_address",
						"label": "mapping(address => bool)",
						"numberOfBytes": "32",
						"value": "t_bool"
					},
					"t_mapping(t_address,t_uint256)": {
						"encoding": "mapping",
						"key": "t_address",
						"label": "mapping(address => uint256)",
						"numberOfBytes": "32",
						"value": "t_uint256"
					},
					"t_mapping(t_bytes32,t_mapping(t_address,t_bool))": {
						"encoding": "mapping",
						"key": "t_bytes32",
						"label": "mapping(bytes32 => mapping(address => bool))",
						"numberOfBytes": "32",
						"value": "t_mapping(t_address,t_bool)"
					},
					"t_mapping(t_bytes32,t_mapping(t_address,t_uint256))": {
						"encoding": "mapping",
						"key": "t_bytes32",
						"label": "mapping(bytes32 => mapping(address => uint256))",
						"numberOfBytes": "32",
						"value": "t_mapping(t_address,t_uint256)"
					},
					"t_mapping(t_bytes32,t_struct(Bounty)1111_storage)": {
						"encoding": "mapping",
						"key": "t_bytes32",
						"label": "mapping(bytes32 => struct BountyContract.Bounty)",
						"numberOfBytes": "32",
						"value": "t_struct(Bounty)1111_storage"
					},
					"t_struct(Bounty)1111_storage": {
						"encoding": "inplace",
						"label": "struct BountyContract.Bounty",
						"members": [
							{
								"astId": 1093,
								"contract": "src/BountyContract.sol:BountyContract",
								"label": "reward",
								"offset": 0,
								"slot": "0",
								"type": "t_uint256"
							},
							{
								"astId": 1095,
								"contract": "src/BountyContract.sol:BountyContract",
								"label": "fee",
								"offset": 0,
								"slot": "1",
								"type": "t_uint256"
							},
							{
								"astId": 1098,
								"contract": "src/BountyContract.sol:BountyContract",
								"label": "tokenType",
								"offset": 0,
								"slot": "2",
								"type": "t_enum(TokenType)1087"
							},
							{
								"astId": 1101,
								"contract": "src/BountyContract.sol:BountyContract",
								"label": "payoutType",
								"offset": 1,
								"slot": "2",
								"type": "t_enum(PayoutType)1091"
							},
							{
								"astId": 1103,
								"contract": "src/BountyContract.sol:BountyContract",
								"label": "creator",
								"offset": 2,
								"slot": "2",
								"type": "t_address"
							},
							{
								"astId": 1106,
								"contract": "src/BountyContract.sol:BountyContract",
								"label": "winners",
								"offset": 0,
								"slot": "3",
								"type": "t_array(t_address)dyn_storage"
							},
							{
								"astId": 1108,
								"contract": "src/BountyContract.sol:BountyContract",
								"label": "rewardsAssigned",
								"offset": 0,
								"slot": "4",
								"type": "t_bool"
							},
							{
								"astId": 1110,
								"contract": "src/BountyContract.sol:BountyContract",
								"label": "isClaimed",
								"offset": 1,
								"slot": "4",
								"type": "t_bool"
							}
						],
						"numberOfBytes": "160"
					},
					"t_struct(Counter)2039_storage": {
						"encoding": "inplace",
						"label": "struct Counters.Counter",
						"members": [
							{
								"astId": 2038,
								"contract": "src/BountyContract.sol:BountyContract",
								"label": "_value",
								"offset": 0,
								"slot": "0",
								"type": "t_uint256"
							}
						],
						"numberOfBytes": "32"
					},
					"t_uint256": {
						"encoding": "inplace",
						"label": "uint256",
						"numberOfBytes": "32"
					}
				}
			},
			"userdoc": {
				"kind": "user",
				"methods": {},
				"version": 1
			}
		}
	}
}