{
	"data": {
		"bytecode": {
			"linkReferences": {},
			"object": "608060405234801561000f575f5ffd5b50604051611edb380380611edb83398101604081905261002e91610171565b816001600160a01b03811661005d57604051631e4fbdf760e01b81525f60048201526024015b60405180910390fd5b61006681610107565b5060017f9b779b17422d0df92223018b32b4d1fa46e071723d6817e2486d003becc55f00556001600160a01b0381166100e15760405162461bcd60e51b815260206004820152601460248201527f496e76616c6964205553444320616464726573730000000000000000000000006044820152606401610054565b600180546001600160a01b0319166001600160a01b0392909216919091179055506101a2565b5f80546001600160a01b038381166001600160a01b0319831681178455604051919092169283917f8be0079c531659141344cd1fd0a4f28419497f9722a3daafe3b4186f6b6457e09190a35050565b80516001600160a01b038116811461016c575f5ffd5b919050565b5f5f60408385031215610182575f5ffd5b61018b83610156565b915061019960208401610156565b90509250929050565b611d2c806101af5f395ff3fe608060405260043610610105575f3560e01c8063a38e3aed11610092578063e1e538cc11610062578063e1e538cc146102bc578063eaf98d2314610187578063ebce3cf3146102ef578063f2fde38b14610325578063f541402314610344575f5ffd5b8063a38e3aed14610214578063dd6ad76414610233578063dfcae62214610252578063e0baf5ac1461029b575f5ffd5b806330718703116100d8578063307187031461019b57806343d34a17146101ba578063715018a6146101cf5780638da5cb5b146101e3578063952c1c85146101ff575f5ffd5b80630c9e2cc51461010957806311eac8551461012f578063176a827b1461016657806329a62a7614610187575b5f5ffd5b61011c610117366004611945565b610363565b6040519081526020015b60405180910390f35b34801561013a575f5ffd5b5060015461014e906001600160a01b031681565b6040516001600160a01b039091168152602001610126565b348015610171575f5ffd5b506101856101803660046119cd565b610717565b005b348015610192575f5ffd5b5061011c600581565b3480156101a6575f5ffd5b5061011c6101b5366004611a46565b610cef565b3480156101c5575f5ffd5b5061011c60035481565b3480156101da575f5ffd5b50610185610d0e565b3480156101ee575f5ffd5b505f546001600160a01b031661014e565b34801561020a575f5ffd5b5061011c60045481565b34801561021f575f5ffd5b5061018561022e366004611a73565b610d21565b34801561023e575f5ffd5b5061018561024d366004611a9d565b610f1b565b34801561025d575f5ffd5b5061028b61026c366004611a73565b600860209081525f928352604080842090915290825290205460ff1681565b6040519015158152602001610126565b3480156102a6575f5ffd5b506102af61118c565b6040516101269190611ac5565b3480156102c7575f5ffd5b506102db6102d6366004611a46565b6111e2565b604051610126989796959493929190611b3f565b3480156102fa575f5ffd5b5061011c610309366004611a73565b600760209081525f928352604080842090915290825290205481565b348015610330575f5ffd5b5061018561033f366004611be3565b6112b7565b34801561034f575f5ffd5b5061018561035e366004611a46565b6112f4565b5f5f83116103ad5760405162461bcd60e51b81526020600482015260126024820152710526577617264206d757374206265203e20360741b60448201526064015b60405180910390fd5b5f60646103bb600586611c17565b6103c59190611c34565b90505f6103d28286611c53565b90505f8660018111156103e7576103e7611b07565b0361044f57803410156104335760405162461bcd60e51b8152602060048201526014602482015273125b98dbdc9c9958dd0811551208185b5bdd5b9d60621b60448201526064016103a4565b8160035f8282546104449190611c53565b909155506104bf9050565b34156104905760405162461bcd60e51b815260206004820152601060248201526f115512081b9bdd081858d8d95c1d195960821b60448201526064016103a4565b6001546104a8906001600160a01b0316333084611660565b8160045f8282546104b99190611c53565b90915550505b6104cd600280546001019055565b5f6104d760025490565b6040805160208101929092526bffffffffffffffffffffffff193360601b169082015242605482015260740160408051601f19818403018152828252805160209182012060068054600181810183555f929092527ff652222313e28459528d920b65115c16c04f3efc82aaedc97be59f3f377c0d3f01829055610100850184528a8552918401879052935090820190899081111561057757610577611b07565b815260200186600281111561058e5761058e611b07565b81523360208201526040015f6040519080825280602002602001820160405280156105c3578160200160208202803683370190505b5081525f60208083018290526040928301829052848252600581529082902083518155908301516001828101919091559183015160028201805492939192909160ff1990911690838181111561061b5761061b611b07565b021790555060608201518160020160016101000a81548160ff0219169083600281111561064a5761064a611b07565b021790555060808201516002820180546001600160a01b03909216620100000262010000600160b01b031990921691909117905560a0820151805161069991600384019160209091019061186a565b5060c08201516004909101805460e09093015115156101000261ff00199215159290921661ffff19909316929092171790556040517f3defe6f195ebaadc1bfa70c40f9196517d5a2952586ec97aa07edcdb82137e4c9061070590839033908a9088908d908c90611c66565b60405180910390a19695505050505050565b5f85815260056020526040902060028101546201000090046001600160a01b031633148061074e57505f546001600160a01b031633145b6107895760405162461bcd60e51b815260206004820152600c60248201526b155b985d5d1a1bdc9a5e995960a21b60448201526064016103a4565b600481015460ff16156107d15760405162461bcd60e51b815260206004820152601060248201526f105b1c9958591e48185cdcda59db995960821b60448201526064016103a4565b836107e06003830187836118cd565b5060028110156108265760405162461bcd60e51b81526020600482015260116024820152704d696e696d756d20322077696e6e65727360781b60448201526064016103a4565b600581111561086a5760405162461bcd60e51b815260206004820152601060248201526f546f6f206d616e792077696e6e65727360801b60448201526064016103a4565b5f5b818110156109ab575f87878381811061088757610887611caf565b905060200201602081019061089c9190611be3565b6001600160a01b0316036108e35760405162461bcd60e51b815260206004820152600e60248201526d24b73b30b634b2103bb4b73732b960911b60448201526064016103a4565b5f6108ef826001611c53565b90505b828110156109a25787878281811061090c5761090c611caf565b90506020020160208101906109219190611be3565b6001600160a01b031688888481811061093c5761093c611caf565b90506020020160208101906109519190611be3565b6001600160a01b03160361099a5760405162461bcd60e51b815260206004820152601060248201526f223ab83634b1b0ba32903bb4b73732b960811b60448201526064016103a4565b6001016108f2565b5060010161086c565b5081545f6001600285810154610100900460ff16908111156109cf576109cf611b07565b03610ad1575f6109df8484611c34565b90505f5b84811015610a4e575f8b815260076020526040812083918c8c85818110610a0c57610a0c611caf565b9050602002016020810190610a219190611be3565b6001600160a01b0316815260208101919091526040015f2055610a448284611c53565b92506001016109e3565b50610a598284611cc3565b5f8b8152600760205260408120908b8b610a7460018a611cc3565b818110610a8357610a83611caf565b9050602002016020810190610a989190611be3565b6001600160a01b03166001600160a01b031681526020019081526020015f205f828254610ac59190611c53565b90915550610c9b915050565b60028085810154610100900460ff1690811115610af057610af0611b07565b03610c5d57848314610b375760405162461bcd60e51b815260206004820152601060248201526f0a0cae4c6cadce840dad2e6dac2e8c6d60831b60448201526064016103a4565b5f805b84811015610b7057878782818110610b5457610b54611caf565b9050602002013582610b669190611c53565b9150600101610b3a565b5080606414610bba5760405162461bcd60e51b8152602060048201526016602482015275050657263656e74206d75737420657175616c203130360541b60448201526064016103a4565b5f5b84811015610a4e575f6064898984818110610bd957610bd9611caf565b9050602002013586610beb9190611c17565b610bf59190611c34565b5f8d81526007602052604081209192508291908d8d86818110610c1a57610c1a611caf565b9050602002016020810190610c2f9190611be3565b6001600160a01b0316815260208101919091526040015f2055610c528185611c53565b935050600101610bbc565b60405162461bcd60e51b8152602060048201526013602482015272496e76616c6964207061796f7574207479706560681b60448201526064016103a4565b60048401805460ff191660011790556040517f6dab96af34df7ddd951654f9a9a6f37e2aee879986b24166d40d7a6f13687ebd90610cdc908b815260200190565b60405180910390a1505050505050505050565b60068181548110610cfe575f80fd5b5f91825260209091200154905081565b610d1661169c565b610d1f5f6116c8565b565b5f82815260056020526040902060028101546201000090046001600160a01b0316331480610d5857505f546001600160a01b031633145b610d935760405162461bcd60e51b815260206004820152600c60248201526b155b985d5d1a1bdc9a5e995960a21b60448201526064016103a4565b600481015460ff1615610ddb5760405162461bcd60e51b815260206004820152601060248201526f105b1c9958591e48185cdcda59db995960821b60448201526064016103a4565b5f600282810154610100900460ff1690811115610dfa57610dfa611b07565b14610e3d5760405162461bcd60e51b8152602060048201526013602482015272496e76616c6964207061796f7574207479706560681b60448201526064016103a4565b6001600160a01b038216610e845760405162461bcd60e51b815260206004820152600e60248201526d24b73b30b634b2103bb4b73732b960911b60448201526064016103a4565b80545f8481526007602090815260408083206001600160a01b03871680855290835281842094909455600385018054600180820183559185529383902090930180546001600160a01b03191690941790935560048401805460ff191690921790915590518481527f6dab96af34df7ddd951654f9a9a6f37e2aee879986b24166d40d7a6f13687ebd910160405180910390a1505050565b610f23611717565b610f2b61169c565b6001600160a01b038116610f735760405162461bcd60e51b815260206004820152600f60248201526e496e76616c6964206164647265737360881b60448201526064016103a4565b5f826001811115610f8657610f86611b07565b036110bd5760035480610fc55760405162461bcd60e51b81526020600482015260076024820152664e6f206665657360c81b60448201526064016103a4565b5f60038190556040516001600160a01b0384169083908381818185875af1925050503d805f8114611011576040519150601f19603f3d011682016040523d82523d5f602084013e611016565b606091505b50509050806110595760405162461bcd60e51b815260206004820152600f60248201526e15da5d1a191c985dc819985a5b1959608a1b60448201526064016103a4565b604080516001600160a01b03851681526020810184905260608183018190526003908201526208aa8960eb1b608082015290517f936d8019acd8166d88a7a73ae09f4c93b665420206512807eae9130b0c6e32179181900360a00190a15050611172565b600454806110f75760405162461bcd60e51b81526020600482015260076024820152664e6f206665657360c81b60448201526064016103a4565b5f600455600154611112906001600160a01b03168383611732565b604080516001600160a01b0384168152602081018390526060818301819052600490820152635553444360e01b608082015290517f936d8019acd8166d88a7a73ae09f4c93b665420206512807eae9130b0c6e32179181900360a00190a1505b61118860015f516020611cd75f395f51905f5255565b5050565b606060068054806020026020016040519081016040528092919081815260200182805480156111d857602002820191905f5260205f20905b8154815260200190600101908083116111c4575b5050505050905090565b5f81815260056020908152604080832060028101548154600183015460048401546003850180548751818a0281018a019098528088526060988a988998899889988998899893976001600160a01b03620100008504169790969295919460ff8082169561010092839004821695828216959390910490911692899183018282801561129457602002820191905f5260205f20905b81546001600160a01b03168152600190910190602001808311611276575b505050505096509850985098509850985098509850985050919395975091939597565b6112bf61169c565b6001600160a01b0381166112e857604051631e4fbdf760e01b81525f60048201526024016103a4565b6112f1816116c8565b50565b6112fc611717565b5f818152600760209081526040808320338452909152902054806113555760405162461bcd60e51b815260206004820152601060248201526f4e6f7468696e6720746f20636c61696d60801b60448201526064016103a4565b5f82815260086020908152604080832033845290915290205460ff16156113b05760405162461bcd60e51b815260206004820152600f60248201526e105b1c9958591e4818db185a5b5959608a1b60448201526064016103a4565b336113ef5760405162461bcd60e51b815260206004820152600f60248201526e496e76616c6964206164647265737360881b60448201526064016103a4565b5f8281526005602090815260408083206008835281842033808652908452828520805460ff1916600117905586855260078452828520908552909252822082905590600282810154610100900460ff169081111561144f5761144f611b07565b036114665760048101805461ff0019166101001790555b6001600282810154610100900460ff169081111561148657611486611b07565b14806114ae575060028082810154610100900460ff16908111156114ac576114ac611b07565b145b1561153f5760015f5b6003830154811015611524575f858152600860205260408120600385018054919291849081106114e9576114e9611caf565b5f9182526020808320909101546001600160a01b0316835282019290925260400190205460ff1661151c575f9150611524565b6001016114b7565b50801561153d5760048201805461ff0019166101001790555b505b5f600282015460ff16600181111561155957611559611b07565b036115f1576040515f90339084908381818185875af1925050503d805f811461159d576040519150601f19603f3d011682016040523d82523d5f602084013e6115a2565b606091505b50509050806115eb5760405162461bcd60e51b8152602060048201526015602482015274455448207472616e73666572206661696c6564212160581b60448201526064016103a4565b50611608565b600154611608906001600160a01b03163384611732565b604080518481523360208201529081018390527ffe236dfc7ce073698734b89da1aee0e7551c9c6d264404c502e6e8fefc1132a89060600160405180910390a150506112f160015f516020611cd75f395f51905f5255565b61166e84848484600161176c565b61169657604051635274afe760e01b81526001600160a01b03851660048201526024016103a4565b50505050565b5f546001600160a01b03163314610d1f5760405163118cdaa760e01b81523360048201526024016103a4565b5f80546001600160a01b038381166001600160a01b0319831681178455604051919092169283917f8be0079c531659141344cd1fd0a4f28419497f9722a3daafe3b4186f6b6457e09190a35050565b61171f6117d9565b60025f516020611cd75f395f51905f5255565b61173f8383836001611808565b61176757604051635274afe760e01b81526001600160a01b03841660048201526024016103a4565b505050565b6040516323b872dd60e01b5f8181526001600160a01b038781166004528616602452604485905291602083606481808c5af1925060015f511483166117c85783831516156117bc573d5f823e3d81fd5b5f883b113d1516831692505b604052505f60605295945050505050565b5f516020611cd75f395f51905f5254600203610d1f57604051633ee5aeb560e01b815260040160405180910390fd5b60405163a9059cbb60e01b5f8181526001600160a01b038616600452602485905291602083604481808b5af1925060015f5114831661185e578383151615611852573d5f823e3d81fd5b5f873b113d1516831692505b60405250949350505050565b828054828255905f5260205f209081019282156118bd579160200282015b828111156118bd57825182546001600160a01b0319166001600160a01b03909116178255602090920191600190910190611888565b506118c992915061191e565b5090565b828054828255905f5260205f209081019282156118bd579160200282015b828111156118bd5781546001600160a01b0319166001600160a01b038435161782556020909201916001909101906118eb565b5b808211156118c9575f815560010161191f565b803560028110611940575f5ffd5b919050565b5f5f5f60608486031215611957575f5ffd5b61196084611932565b92506020840135915060408401356003811061197a575f5ffd5b809150509250925092565b5f5f83601f840112611995575f5ffd5b50813567ffffffffffffffff8111156119ac575f5ffd5b6020830191508360208260051b85010111156119c6575f5ffd5b9250929050565b5f5f5f5f5f606086880312156119e1575f5ffd5b85359450602086013567ffffffffffffffff8111156119fe575f5ffd5b611a0a88828901611985565b909550935050604086013567ffffffffffffffff811115611a29575f5ffd5b611a3588828901611985565b969995985093965092949392505050565b5f60208284031215611a56575f5ffd5b5035919050565b80356001600160a01b0381168114611940575f5ffd5b5f5f60408385031215611a84575f5ffd5b82359150611a9460208401611a5d565b90509250929050565b5f5f60408385031215611aae575f5ffd5b611ab783611932565b9150611a9460208401611a5d565b602080825282518282018190525f918401906040840190835b81811015611afc578351835260209384019390920191600101611ade565b509095945050505050565b634e487b7160e01b5f52602160045260245ffd5b60028110611b2b57611b2b611b07565b9052565b60038110611b2b57611b2b611b07565b6001600160a01b0389168152610100602080830182905289519183018290525f91908a0190610120840190835b81811015611b935783516001600160a01b0316835260209384019390920191600101611b6c565b50508092505050876040830152866060830152611bb4608083018715159052565b84151560a0830152611bc960c0830185611b1b565b611bd660e0830184611b2f565b9998505050505050505050565b5f60208284031215611bf3575f5ffd5b611bfc82611a5d565b9392505050565b634e487b7160e01b5f52601160045260245ffd5b8082028115828204841417611c2e57611c2e611c03565b92915050565b5f82611c4e57634e487b7160e01b5f52601260045260245ffd5b500490565b80820180821115611c2e57611c2e611c03565b8681526001600160a01b0386166020820152604081018590526060810184905260c08101611c976080830185611b1b565b611ca460a0830184611b2f565b979650505050505050565b634e487b7160e01b5f52603260045260245ffd5b81810381811115611c2e57611c2e611c0356fe9b779b17422d0df92223018b32b4d1fa46e071723d6817e2486d003becc55f00a264697066735822122061fafa65a49540f340b3cde1833e8fc79a8181c064c713d5f014e5e6bd1981e764736f6c634300081e0033",
			"opcodes": "PUSH1 0x80 PUSH1 0x40 MSTORE CALLVALUE DUP1 ISZERO PUSH2 0xF JUMPI PUSH0 PUSH0 REVERT JUMPDEST POP PUSH1 0x40 MLOAD PUSH2 0x1EDB CODESIZE SUB DUP1 PUSH2 0x1EDB DUP4 CODECOPY DUP2 ADD PUSH1 0x40 DUP2 SWAP1 MSTORE PUSH2 0x2E SWAP2 PUSH2 0x171 JUMP JUMPDEST DUP2 PUSH1 0x1 PUSH1 0x1 PUSH1 0xA0 SHL SUB DUP2 AND PUSH2 0x5D JUMPI PUSH1 0x40 MLOAD PUSH4 0x1E4FBDF7 PUSH1 0xE0 SHL DUP2 MSTORE PUSH0 PUSH1 0x4 DUP3 ADD MSTORE PUSH1 0x24 ADD JUMPDEST PUSH1 0x40 MLOAD DUP1 SWAP2 SUB SWAP1 REVERT JUMPDEST PUSH2 0x66 DUP2 PUSH2 0x107 JUMP JUMPDEST POP PUSH1 0x1 PUSH32 0x9B779B17422D0DF92223018B32B4D1FA46E071723D6817E2486D003BECC55F00 SSTORE PUSH1 0x1 PUSH1 0x1 PUSH1 0xA0 SHL SUB DUP2 AND PUSH2 0xE1 JUMPI PUSH1 0x40 MLOAD PUSH3 0x461BCD PUSH1 0xE5 SHL DUP2 MSTORE PUSH1 0x20 PUSH1 0x4 DUP3 ADD MSTORE PUSH1 0x14 PUSH1 0x24 DUP3 ADD MSTORE PUSH32 0x496E76616C696420555344432061646472657373000000000000000000000000 PUSH1 0x44 DUP3 ADD MSTORE PUSH1 0x64 ADD PUSH2 0x54 JUMP JUMPDEST PUSH1 0x1 DUP1 SLOAD PUSH1 0x1 PUSH1 0x1 PUSH1 0xA0 SHL SUB NOT AND PUSH1 0x1 PUSH1 0x1 PUSH1 0xA0 SHL SUB SWAP3 SWAP1 SWAP3 AND SWAP2 SWAP1 SWAP2 OR SWAP1 SSTORE POP PUSH2 0x1A2 JUMP JUMPDEST PUSH0 DUP1 SLOAD PUSH1 0x1 PUSH1 0x1 PUSH1 0xA0 SHL SUB DUP4 DUP2 AND PUSH1 0x1 PUSH1 0x1 PUSH1 0xA0 SHL SUB NOT DUP4 AND DUP2 OR DUP5 SSTORE PUSH1 0x40 MLOAD SWAP2 SWAP1 SWAP3 AND SWAP3 DUP4 SWAP2 PUSH32 0x8BE0079C531659141344CD1FD0A4F28419497F9722A3DAAFE3B4186F6B6457E0 SWAP2 SWAP1 LOG3 POP POP JUMP JUMPDEST DUP1 MLOAD PUSH1 0x1 PUSH1 0x1 PUSH1 0xA0 SHL SUB DUP2 AND DUP2 EQ PUSH2 0x16C JUMPI PUSH0 PUSH0 REVERT JUMPDEST SWAP2 SWAP1 POP JUMP JUMPDEST PUSH0 PUSH0 PUSH1 0x40 DUP4 DUP6 SUB SLT ISZERO PUSH2 0x182 JUMPI PUSH0 PUSH0 REVERT JUMPDEST PUSH2 0x18B DUP4 PUSH2 0x156 JUMP JUMPDEST SWAP2 POP PUSH2 0x199 PUSH1 0x20 DUP5 ADD PUSH2 0x156 JUMP JUMPDEST SWAP1 POP SWAP3 POP SWAP3 SWAP1 POP JUMP JUMPDEST PUSH2 0x1D2C DUP1 PUSH2 0x1AF PUSH0 CODECOPY PUSH0 RETURN INVALID PUSH1 0x80 PUSH1 0x40 MSTORE PUSH1 0x4 CALLDATASIZE LT PUSH2 0x105 JUMPI PUSH0 CALLDATALOAD PUSH1 0xE0 SHR DUP1 PUSH4 0xA38E3AED GT PUSH2 0x92 JUMPI DUP1 PUSH4 0xE1E538CC GT PUSH2 0x62 JUMPI DUP1 PUSH4 0xE1E538CC EQ PUSH2 0x2BC JUMPI DUP1 PUSH4 0xEAF98D23 EQ PUSH2 0x187 JUMPI DUP1 PUSH4 0xEBCE3CF3 EQ PUSH2 0x2EF JUMPI DUP1 PUSH4 0xF2FDE38B EQ PUSH2 0x325 JUMPI DUP1 PUSH4 0xF5414023 EQ PUSH2 0x344 JUMPI PUSH0 PUSH0 REVERT JUMPDEST DUP1 PUSH4 0xA38E3AED EQ PUSH2 0x214 JUMPI DUP1 PUSH4 0xDD6AD764 EQ PUSH2 0x233 JUMPI DUP1 PUSH4 0xDFCAE622 EQ PUSH2 0x252 JUMPI DUP1 PUSH4 0xE0BAF5AC EQ PUSH2 0x29B JUMPI PUSH0 PUSH0 REVERT JUMPDEST DUP1 PUSH4 0x30718703 GT PUSH2 0xD8 JUMPI DUP1 PUSH4 0x30718703 EQ PUSH2 0x19B JUMPI DUP1 PUSH4 0x43D34A17 EQ PUSH2 0x1BA JUMPI DUP1 PUSH4 0x715018A6 EQ PUSH2 0x1CF JUMPI DUP1 PUSH4 0x8DA5CB5B EQ PUSH2 0x1E3 JUMPI DUP1 PUSH4 0x952C1C85 EQ PUSH2 0x1FF JUMPI PUSH0 PUSH0 REVERT JUMPDEST DUP1 PUSH4 0xC9E2CC5 EQ PUSH2 0x109 JUMPI DUP1 PUSH4 0x11EAC855 EQ PUSH2 0x12F JUMPI DUP1 PUSH4 0x176A827B EQ PUSH2 0x166 JUMPI DUP1 PUSH4 0x29A62A76 EQ PUSH2 0x187 JUMPI JUMPDEST PUSH0 PUSH0 REVERT JUMPDEST PUSH2 0x11C PUSH2 0x117 CALLDATASIZE PUSH1 0x4 PUSH2 0x1945 JUMP JUMPDEST PUSH2 0x363 JUMP JUMPDEST PUSH1 0x40 MLOAD SWAP1 DUP2 MSTORE PUSH1 0x20 ADD JUMPDEST PUSH1 0x40 MLOAD DUP1 SWAP2 SUB SWAP1 RETURN JUMPDEST CALLVALUE DUP1 ISZERO PUSH2 0x13A JUMPI PUSH0 PUSH0 REVERT JUMPDEST POP PUSH1 0x1 SLOAD PUSH2 0x14E SWAP1 PUSH1 0x1 PUSH1 0x1 PUSH1 0xA0 SHL SUB AND DUP2 JUMP JUMPDEST PUSH1 0x40 MLOAD PUSH1 0x1 PUSH1 0x1 PUSH1 0xA0 SHL SUB SWAP1 SWAP2 AND DUP2 MSTORE PUSH1 0x20 ADD PUSH2 0x126 JUMP JUMPDEST CALLVALUE DUP1 ISZERO PUSH2 0x171 JUMPI PUSH0 PUSH0 REVERT JUMPDEST POP PUSH2 0x185 PUSH2 0x180 CALLDATASIZE PUSH1 0x4 PUSH2 0x19CD JUMP JUMPDEST PUSH2 0x717 JUMP JUMPDEST STOP JUMPDEST CALLVALUE DUP1 ISZERO PUSH2 0x192 JUMPI PUSH0 PUSH0 REVERT JUMPDEST POP PUSH2 0x11C PUSH1 0x5 DUP2 JUMP JUMPDEST CALLVALUE DUP1 ISZERO PUSH2 0x1A6 JUMPI PUSH0 PUSH0 REVERT JUMPDEST POP PUSH2 0x11C PUSH2 0x1B5 CALLDATASIZE PUSH1 0x4 PUSH2 0x1A46 JUMP JUMPDEST PUSH2 0xCEF JUMP JUMPDEST CALLVALUE DUP1 ISZERO PUSH2 0x1C5 JUMPI PUSH0 PUSH0 REVERT JUMPDEST POP PUSH2 0x11C PUSH1 0x3 SLOAD DUP2 JUMP JUMPDEST CALLVALUE DUP1 ISZERO PUSH2 0x1DA JUMPI PUSH0 PUSH0 REVERT JUMPDEST POP PUSH2 0x185 PUSH2 0xD0E JUMP JUMPDEST CALLVALUE DUP1 ISZERO PUSH2 0x1EE JUMPI PUSH0 PUSH0 REVERT JUMPDEST POP PUSH0 SLOAD PUSH1 0x1 PUSH1 0x1 PUSH1 0xA0 SHL SUB AND PUSH2 0x14E JUMP JUMPDEST CALLVALUE DUP1 ISZERO PUSH2 0x20A JUMPI PUSH0 PUSH0 REVERT JUMPDEST POP PUSH2 0x11C PUSH1 0x4 SLOAD DUP2 JUMP JUMPDEST CALLVALUE DUP1 ISZERO PUSH2 0x21F JUMPI PUSH0 PUSH0 REVERT JUMPDEST POP PUSH2 0x185 PUSH2 0x22E CALLDATASIZE PUSH1 0x4 PUSH2 0x1A73 JUMP JUMPDEST PUSH2 0xD21 JUMP JUMPDEST CALLVALUE DUP1 ISZERO PUSH2 0x23E JUMPI PUSH0 PUSH0 REVERT JUMPDEST POP PUSH2 0x185 PUSH2 0x24D CALLDATASIZE PUSH1 0x4 PUSH2 0x1A9D JUMP JUMPDEST PUSH2 0xF1B JUMP JUMPDEST CALLVALUE DUP1 ISZERO PUSH2 0x25D JUMPI PUSH0 PUSH0 REVERT JUMPDEST POP PUSH2 0x28B PUSH2 0x26C CALLDATASIZE PUSH1 0x4 PUSH2 0x1A73 JUMP JUMPDEST PUSH1 0x8 PUSH1 0x20 SWAP1 DUP2 MSTORE PUSH0 SWAP3 DUP4 MSTORE PUSH1 0x40 DUP1 DUP5 KECCAK256 SWAP1 SWAP2 MSTORE SWAP1 DUP3 MSTORE SWAP1 KECCAK256 SLOAD PUSH1 0xFF AND DUP2 JUMP JUMPDEST PUSH1 0x40 MLOAD SWAP1 ISZERO ISZERO DUP2 MSTORE PUSH1 0x20 ADD PUSH2 0x126 JUMP JUMPDEST CALLVALUE DUP1 ISZERO PUSH2 0x2A6 JUMPI PUSH0 PUSH0 REVERT JUMPDEST POP PUSH2 0x2AF PUSH2 0x118C JUMP JUMPDEST PUSH1 0x40 MLOAD PUSH2 0x126 SWAP2 SWAP1 PUSH2 0x1AC5 JUMP JUMPDEST CALLVALUE DUP1 ISZERO PUSH2 0x2C7 JUMPI PUSH0 PUSH0 REVERT JUMPDEST POP PUSH2 0x2DB PUSH2 0x2D6 CALLDATASIZE PUSH1 0x4 PUSH2 0x1A46 JUMP JUMPDEST PUSH2 0x11E2 JUMP JUMPDEST PUSH1 0x40 MLOAD PUSH2 0x126 SWAP9 SWAP8 SWAP7 SWAP6 SWAP5 SWAP4 SWAP3 SWAP2 SWAP1 PUSH2 0x1B3F JUMP JUMPDEST CALLVALUE DUP1 ISZERO PUSH2 0x2FA JUMPI PUSH0 PUSH0 REVERT JUMPDEST POP PUSH2 0x11C PUSH2 0x309 CALLDATASIZE PUSH1 0x4 PUSH2 0x1A73 JUMP JUMPDEST PUSH1 0x7 PUSH1 0x20 SWAP1 DUP2 MSTORE PUSH0 SWAP3 DUP4 MSTORE PUSH1 0x40 DUP1 DUP5 KECCAK256 SWAP1 SWAP2 MSTORE SWAP1 DUP3 MSTORE SWAP1 KECCAK256 SLOAD DUP2 JUMP JUMPDEST CALLVALUE DUP1 ISZERO PUSH2 0x330 JUMPI PUSH0 PUSH0 REVERT JUMPDEST POP PUSH2 0x185 PUSH2 0x33F CALLDATASIZE PUSH1 0x4 PUSH2 0x1BE3 JUMP JUMPDEST PUSH2 0x12B7 JUMP JUMPDEST CALLVALUE DUP1 ISZERO PUSH2 0x34F JUMPI PUSH0 PUSH0 REVERT JUMPDEST POP PUSH2 0x185 PUSH2 0x35E CALLDATASIZE PUSH1 0x4 PUSH2 0x1A46 JUMP JUMPDEST PUSH2 0x12F4 JUMP JUMPDEST PUSH0 PUSH0 DUP4 GT PUSH2 0x3AD JUMPI PUSH1 0x40 MLOAD PUSH3 0x461BCD PUSH1 0xE5 SHL DUP2 MSTORE PUSH1 0x20 PUSH1 0x4 DUP3 ADD MSTORE PUSH1 0x12 PUSH1 0x24 DUP3 ADD MSTORE PUSH18 0x526577617264206D757374206265203E203 PUSH1 0x74 SHL PUSH1 0x44 DUP3 ADD MSTORE PUSH1 0x64 ADD JUMPDEST PUSH1 0x40 MLOAD DUP1 SWAP2 SUB SWAP1 REVERT JUMPDEST PUSH0 PUSH1 0x64 PUSH2 0x3BB PUSH1 0x5 DUP7 PUSH2 0x1C17 JUMP JUMPDEST PUSH2 0x3C5 SWAP2 SWAP1 PUSH2 0x1C34 JUMP JUMPDEST SWAP1 POP PUSH0 PUSH2 0x3D2 DUP3 DUP7 PUSH2 0x1C53 JUMP JUMPDEST SWAP1 POP PUSH0 DUP7 PUSH1 0x1 DUP2 GT ISZERO PUSH2 0x3E7 JUMPI PUSH2 0x3E7 PUSH2 0x1B07 JUMP JUMPDEST SUB PUSH2 0x44F JUMPI DUP1 CALLVALUE LT ISZERO PUSH2 0x433 JUMPI PUSH1 0x40 MLOAD PUSH3 0x461BCD PUSH1 0xE5 SHL DUP2 MSTORE PUSH1 0x20 PUSH1 0x4 DUP3 ADD MSTORE PUSH1 0x14 PUSH1 0x24 DUP3 ADD MSTORE PUSH20 0x125B98DBDC9C9958DD0811551208185B5BDD5B9D PUSH1 0x62 SHL PUSH1 0x44 DUP3 ADD MSTORE PUSH1 0x64 ADD PUSH2 0x3A4 JUMP JUMPDEST DUP2 PUSH1 0x3 PUSH0 DUP3 DUP3 SLOAD PUSH2 0x444 SWAP2 SWAP1 PUSH2 0x1C53 JUMP JUMPDEST SWAP1 SWAP2 SSTORE POP PUSH2 0x4BF SWAP1 POP JUMP JUMPDEST CALLVALUE ISZERO PUSH2 0x490 JUMPI PUSH1 0x40 MLOAD PUSH3 0x461BCD PUSH1 0xE5 SHL DUP2 MSTORE PUSH1 0x20 PUSH1 0x4 DUP3 ADD MSTORE PUSH1 0x10 PUSH1 0x24 DUP3 ADD MSTORE PUSH16 0x115512081B9BDD081858D8D95C1D1959 PUSH1 0x82 SHL PUSH1 0x44 DUP3 ADD MSTORE PUSH1 0x64 ADD PUSH2 0x3A4 JUMP JUMPDEST PUSH1 0x1 SLOAD PUSH2 0x4A8 SWAP1 PUSH1 0x1 PUSH1 0x1 PUSH1 0xA0 SHL SUB AND CALLER ADDRESS DUP5 PUSH2 0x1660 JUMP JUMPDEST DUP2 PUSH1 0x4 PUSH0 DUP3 DUP3 SLOAD PUSH2 0x4B9 SWAP2 SWAP1 PUSH2 0x1C53 JUMP JUMPDEST SWAP1 SWAP2 SSTORE POP POP JUMPDEST PUSH2 0x4CD PUSH1 0x2 DUP1 SLOAD PUSH1 0x1 ADD SWAP1 SSTORE JUMP JUMPDEST PUSH0 PUSH2 0x4D7 PUSH1 0x2 SLOAD SWAP1 JUMP JUMPDEST PUSH1 0x40 DUP1 MLOAD PUSH1 0x20 DUP2 ADD SWAP3 SWAP1 SWAP3 MSTORE PUSH12 0xFFFFFFFFFFFFFFFFFFFFFFFF NOT CALLER PUSH1 0x60 SHL AND SWAP1 DUP3 ADD MSTORE TIMESTAMP PUSH1 0x54 DUP3 ADD MSTORE PUSH1 0x74 ADD PUSH1 0x40 DUP1 MLOAD PUSH1 0x1F NOT DUP2 DUP5 SUB ADD DUP2 MSTORE DUP3 DUP3 MSTORE DUP1 MLOAD PUSH1 0x20 SWAP2 DUP3 ADD KECCAK256 PUSH1 0x6 DUP1 SLOAD PUSH1 0x1 DUP2 DUP2 ADD DUP4 SSTORE PUSH0 SWAP3 SWAP1 SWAP3 MSTORE PUSH32 0xF652222313E28459528D920B65115C16C04F3EFC82AAEDC97BE59F3F377C0D3F ADD DUP3 SWAP1 SSTORE PUSH2 0x100 DUP6 ADD DUP5 MSTORE DUP11 DUP6 MSTORE SWAP2 DUP5 ADD DUP8 SWAP1 MSTORE SWAP4 POP SWAP1 DUP3 ADD SWAP1 DUP10 SWAP1 DUP2 GT ISZERO PUSH2 0x577 JUMPI PUSH2 0x577 PUSH2 0x1B07 JUMP JUMPDEST DUP2 MSTORE PUSH1 0x20 ADD DUP7 PUSH1 0x2 DUP2 GT ISZERO PUSH2 0x58E JUMPI PUSH2 0x58E PUSH2 0x1B07 JUMP JUMPDEST DUP2 MSTORE CALLER PUSH1 0x20 DUP3 ADD MSTORE PUSH1 0x40 ADD PUSH0 PUSH1 0x40 MLOAD SWAP1 DUP1 DUP3 MSTORE DUP1 PUSH1 0x20 MUL PUSH1 0x20 ADD DUP3 ADD PUSH1 0x40 MSTORE DUP1 ISZERO PUSH2 0x5C3 JUMPI DUP2 PUSH1 0x20 ADD PUSH1 0x20 DUP3 MUL DUP1 CALLDATASIZE DUP4 CALLDATACOPY ADD SWAP1 POP JUMPDEST POP DUP2 MSTORE PUSH0 PUSH1 0x20 DUP1 DUP4 ADD DUP3 SWAP1 MSTORE PUSH1 0x40 SWAP3 DUP4 ADD DUP3 SWAP1 MSTORE DUP5 DUP3 MSTORE PUSH1 0x5 DUP2 MSTORE SWAP1 DUP3 SWAP1 KECCAK256 DUP4 MLOAD DUP2 SSTORE SWAP1 DUP4 ADD MLOAD PUSH1 0x1 DUP3 DUP2 ADD SWAP2 SWAP1 SWAP2 SSTORE SWAP2 DUP4 ADD MLOAD PUSH1 0x2 DUP3 ADD DUP1 SLOAD SWAP3 SWAP4 SWAP2 SWAP3 SWAP1 SWAP2 PUSH1 0xFF NOT SWAP1 SWAP2 AND SWAP1 DUP4 DUP2 DUP2 GT ISZERO PUSH2 0x61B JUMPI PUSH2 0x61B PUSH2 0x1B07 JUMP JUMPDEST MUL OR SWAP1 SSTORE POP PUSH1 0x60 DUP3 ADD MLOAD DUP2 PUSH1 0x2 ADD PUSH1 0x1 PUSH2 0x100 EXP DUP2 SLOAD DUP2 PUSH1 0xFF MUL NOT AND SWAP1 DUP4 PUSH1 0x2 DUP2 GT ISZERO PUSH2 0x64A JUMPI PUSH2 0x64A PUSH2 0x1B07 JUMP JUMPDEST MUL OR SWAP1 SSTORE POP PUSH1 0x80 DUP3 ADD MLOAD PUSH1 0x2 DUP3 ADD DUP1 SLOAD PUSH1 0x1 PUSH1 0x1 PUSH1 0xA0 SHL SUB SWAP1 SWAP3 AND PUSH3 0x10000 MUL PUSH3 0x10000 PUSH1 0x1 PUSH1 0xB0 SHL SUB NOT SWAP1 SWAP3 AND SWAP2 SWAP1 SWAP2 OR SWAP1 SSTORE PUSH1 0xA0 DUP3 ADD MLOAD DUP1 MLOAD PUSH2 0x699 SWAP2 PUSH1 0x3 DUP5 ADD SWAP2 PUSH1 0x20 SWAP1 SWAP2 ADD SWAP1 PUSH2 0x186A JUMP JUMPDEST POP PUSH1 0xC0 DUP3 ADD MLOAD PUSH1 0x4 SWAP1 SWAP2 ADD DUP1 SLOAD PUSH1 0xE0 SWAP1 SWAP4 ADD MLOAD ISZERO ISZERO PUSH2 0x100 MUL PUSH2 0xFF00 NOT SWAP3 ISZERO ISZERO SWAP3 SWAP1 SWAP3 AND PUSH2 0xFFFF NOT SWAP1 SWAP4 AND SWAP3 SWAP1 SWAP3 OR OR SWAP1 SSTORE PUSH1 0x40 MLOAD PUSH32 0x3DEFE6F195EBAADC1BFA70C40F9196517D5A2952586EC97AA07EDCDB82137E4C SWAP1 PUSH2 0x705 SWAP1 DUP4 SWAP1 CALLER SWAP1 DUP11 SWAP1 DUP9 SWAP1 DUP14 SWAP1 DUP13 SWAP1 PUSH2 0x1C66 JUMP JUMPDEST PUSH1 0x40 MLOAD DUP1 SWAP2 SUB SWAP1 LOG1 SWAP7 SWAP6 POP POP POP POP POP POP JUMP JUMPDEST PUSH0 DUP6 DUP2 MSTORE PUSH1 0x5 PUSH1 0x20 MSTORE PUSH1 0x40 SWAP1 KECCAK256 PUSH1 0x2 DUP2 ADD SLOAD PUSH3 0x10000 SWAP1 DIV PUSH1 0x1 PUSH1 0x1 PUSH1 0xA0 SHL SUB AND CALLER EQ DUP1 PUSH2 0x74E JUMPI POP PUSH0 SLOAD PUSH1 0x1 PUSH1 0x1 PUSH1 0xA0 SHL SUB AND CALLER EQ JUMPDEST PUSH2 0x789 JUMPI PUSH1 0x40 MLOAD PUSH3 0x461BCD PUSH1 0xE5 SHL DUP2 MSTORE PUSH1 0x20 PUSH1 0x4 DUP3 ADD MSTORE PUSH1 0xC PUSH1 0x24 DUP3 ADD MSTORE PUSH12 0x155B985D5D1A1BDC9A5E9959 PUSH1 0xA2 SHL PUSH1 0x44 DUP3 ADD MSTORE PUSH1 0x64 ADD PUSH2 0x3A4 JUMP JUMPDEST PUSH1 0x4 DUP2 ADD SLOAD PUSH1 0xFF AND ISZERO PUSH2 0x7D1 JUMPI PUSH1 0x40 MLOAD PUSH3 0x461BCD PUSH1 0xE5 SHL DUP2 MSTORE PUSH1 0x20 PUSH1 0x4 DUP3 ADD MSTORE PUSH1 0x10 PUSH1 0x24 DUP3 ADD MSTORE PUSH16 0x105B1C9958591E48185CDCDA59DB9959 PUSH1 0x82 SHL PUSH1 0x44 DUP3 ADD MSTORE PUSH1 0x64 ADD PUSH2 0x3A4 JUMP JUMPDEST DUP4 PUSH2 0x7E0 PUSH1 0x3 DUP4 ADD DUP8 DUP4 PUSH2 0x18CD JUMP JUMPDEST POP PUSH1 0x2 DUP2 LT ISZERO PUSH2 0x826 JUMPI PUSH1 0x40 MLOAD PUSH3 0x461BCD PUSH1 0xE5 SHL DUP2 MSTORE PUSH1 0x20 PUSH1 0x4 DUP3 ADD MSTORE PUSH1 0x11 PUSH1 0x24 DUP3 ADD MSTORE PUSH17 0x4D696E696D756D20322077696E6E657273 PUSH1 0x78 SHL PUSH1 0x44 DUP3 ADD MSTORE PUSH1 0x64 ADD PUSH2 0x3A4 JUMP JUMPDEST PUSH1 0x5 DUP2 GT ISZERO PUSH2 0x86A JUMPI PUSH1 0x40 MLOAD PUSH3 0x461BCD PUSH1 0xE5 SHL DUP2 MSTORE PUSH1 0x20 PUSH1 0x4 DUP3 ADD MSTORE PUSH1 0x10 PUSH1 0x24 DUP3 ADD MSTORE PUSH16 0x546F6F206D616E792077696E6E657273 PUSH1 0x80 SHL PUSH1 0x44 DUP3 ADD MSTORE PUSH1 0x64 ADD PUSH2 0x3A4 JUMP JUMPDEST PUSH0 JUMPDEST DUP2 DUP2 LT ISZERO PUSH2 0x9AB JUMPI PUSH0 DUP8 DUP8 DUP4 DUP2 DUP2 LT PUSH2 0x887 JUMPI PUSH2 0x887 PUSH2 0x1CAF JUMP JUMPDEST SWAP1 POP PUSH1 0x20 MUL ADD PUSH1 0x20 DUP2 ADD SWAP1 PUSH2 0x89C SWAP2 SWAP1 PUSH2 0x1BE3 JUMP JUMPDEST PUSH1 0x1 PUSH1 0x1 PUSH1 0xA0 SHL SUB AND SUB PUSH2 0x8E3 JUMPI PUSH1 0x40 MLOAD PUSH3 0x461BCD PUSH1 0xE5 SHL DUP2 MSTORE PUSH1 0x20 PUSH1 0x4 DUP3 ADD MSTORE PUSH1 0xE PUSH1 0x24 DUP3 ADD MSTORE PUSH14 0x24B73B30B634B2103BB4B73732B9 PUSH1 0x91 SHL PUSH1 0x44 DUP3 ADD MSTORE PUSH1 0x64 ADD PUSH2 0x3A4 JUMP JUMPDEST PUSH0 PUSH2 0x8EF DUP3 PUSH1 0x1 PUSH2 0x1C53 JUMP JUMPDEST SWAP1 POP JUMPDEST DUP3 DUP2 LT ISZERO PUSH2 0x9A2 JUMPI DUP8 DUP8 DUP3 DUP2 DUP2 LT PUSH2 0x90C JUMPI PUSH2 0x90C PUSH2 0x1CAF JUMP JUMPDEST SWAP1 POP PUSH1 0x20 MUL ADD PUSH1 0x20 DUP2 ADD SWAP1 PUSH2 0x921 SWAP2 SWAP1 PUSH2 0x1BE3 JUMP JUMPDEST PUSH1 0x1 PUSH1 0x1 PUSH1 0xA0 SHL SUB AND DUP9 DUP9 DUP5 DUP2 DUP2 LT PUSH2 0x93C JUMPI PUSH2 0x93C PUSH2 0x1CAF JUMP JUMPDEST SWAP1 POP PUSH1 0x20 MUL ADD PUSH1 0x20 DUP2 ADD SWAP1 PUSH2 0x951 SWAP2 SWAP1 PUSH2 0x1BE3 JUMP JUMPDEST PUSH1 0x1 PUSH1 0x1 PUSH1 0xA0 SHL SUB AND SUB PUSH2 0x99A JUMPI PUSH1 0x40 MLOAD PUSH3 0x461BCD PUSH1 0xE5 SHL DUP2 MSTORE PUSH1 0x20 PUSH1 0x4 DUP3 ADD MSTORE PUSH1 0x10 PUSH1 0x24 DUP3 ADD MSTORE PUSH16 0x223AB83634B1B0BA32903BB4B73732B9 PUSH1 0x81 SHL PUSH1 0x44 DUP3 ADD MSTORE PUSH1 0x64 ADD PUSH2 0x3A4 JUMP JUMPDEST PUSH1 0x1 ADD PUSH2 0x8F2 JUMP JUMPDEST POP PUSH1 0x1 ADD PUSH2 0x86C JUMP JUMPDEST POP DUP2 SLOAD PUSH0 PUSH1 0x1 PUSH1 0x2 DUP6 DUP2 ADD SLOAD PUSH2 0x100 SWAP1 DIV PUSH1 0xFF AND SWAP1 DUP2 GT ISZERO PUSH2 0x9CF JUMPI PUSH2 0x9CF PUSH2 0x1B07 JUMP JUMPDEST SUB PUSH2 0xAD1 JUMPI PUSH0 PUSH2 0x9DF DUP5 DUP5 PUSH2 0x1C34 JUMP JUMPDEST SWAP1 POP PUSH0 JUMPDEST DUP5 DUP2 LT ISZERO PUSH2 0xA4E JUMPI PUSH0 DUP12 DUP2 MSTORE PUSH1 0x7 PUSH1 0x20 MSTORE PUSH1 0x40 DUP2 KECCAK256 DUP4 SWAP2 DUP13 DUP13 DUP6 DUP2 DUP2 LT PUSH2 0xA0C JUMPI PUSH2 0xA0C PUSH2 0x1CAF JUMP JUMPDEST SWAP1 POP PUSH1 0x20 MUL ADD PUSH1 0x20 DUP2 ADD SWAP1 PUSH2 0xA21 SWAP2 SWAP1 PUSH2 0x1BE3 JUMP JUMPDEST PUSH1 0x1 PUSH1 0x1 PUSH1 0xA0 SHL SUB AND DUP2 MSTORE PUSH1 0x20 DUP2 ADD SWAP2 SWAP1 SWAP2 MSTORE PUSH1 0x40 ADD PUSH0 KECCAK256 SSTORE PUSH2 0xA44 DUP3 DUP5 PUSH2 0x1C53 JUMP JUMPDEST SWAP3 POP PUSH1 0x1 ADD PUSH2 0x9E3 JUMP JUMPDEST POP PUSH2 0xA59 DUP3 DUP5 PUSH2 0x1CC3 JUMP JUMPDEST PUSH0 DUP12 DUP2 MSTORE PUSH1 0x7 PUSH1 0x20 MSTORE PUSH1 0x40 DUP2 KECCAK256 SWAP1 DUP12 DUP12 PUSH2 0xA74 PUSH1 0x1 DUP11 PUSH2 0x1CC3 JUMP JUMPDEST DUP2 DUP2 LT PUSH2 0xA83 JUMPI PUSH2 0xA83 PUSH2 0x1CAF JUMP JUMPDEST SWAP1 POP PUSH1 0x20 MUL ADD PUSH1 0x20 DUP2 ADD SWAP1 PUSH2 0xA98 SWAP2 SWAP1 PUSH2 0x1BE3 JUMP JUMPDEST PUSH1 0x1 PUSH1 0x1 PUSH1 0xA0 SHL SUB AND PUSH1 0x1 PUSH1 0x1 PUSH1 0xA0 SHL SUB AND DUP2 MSTORE PUSH1 0x20 ADD SWAP1 DUP2 MSTORE PUSH1 0x20 ADD PUSH0 KECCAK256 PUSH0 DUP3 DUP3 SLOAD PUSH2 0xAC5 SWAP2 SWAP1 PUSH2 0x1C53 JUMP JUMPDEST SWAP1 SWAP2 SSTORE POP PUSH2 0xC9B SWAP2 POP POP JUMP JUMPDEST PUSH1 0x2 DUP1 DUP6 DUP2 ADD SLOAD PUSH2 0x100 SWAP1 DIV PUSH1 0xFF AND SWAP1 DUP2 GT ISZERO PUSH2 0xAF0 JUMPI PUSH2 0xAF0 PUSH2 0x1B07 JUMP JUMPDEST SUB PUSH2 0xC5D JUMPI DUP5 DUP4 EQ PUSH2 0xB37 JUMPI PUSH1 0x40 MLOAD PUSH3 0x461BCD PUSH1 0xE5 SHL DUP2 MSTORE PUSH1 0x20 PUSH1 0x4 DUP3 ADD MSTORE PUSH1 0x10 PUSH1 0x24 DUP3 ADD MSTORE PUSH16 0xA0CAE4C6CADCE840DAD2E6DAC2E8C6D PUSH1 0x83 SHL PUSH1 0x44 DUP3 ADD MSTORE PUSH1 0x64 ADD PUSH2 0x3A4 JUMP JUMPDEST PUSH0 DUP1 JUMPDEST DUP5 DUP2 LT ISZERO PUSH2 0xB70 JUMPI DUP8 DUP8 DUP3 DUP2 DUP2 LT PUSH2 0xB54 JUMPI PUSH2 0xB54 PUSH2 0x1CAF JUMP JUMPDEST SWAP1 POP PUSH1 0x20 MUL ADD CALLDATALOAD DUP3 PUSH2 0xB66 SWAP2 SWAP1 PUSH2 0x1C53 JUMP JUMPDEST SWAP2 POP PUSH1 0x1 ADD PUSH2 0xB3A JUMP JUMPDEST POP DUP1 PUSH1 0x64 EQ PUSH2 0xBBA JUMPI PUSH1 0x40 MLOAD PUSH3 0x461BCD PUSH1 0xE5 SHL DUP2 MSTORE PUSH1 0x20 PUSH1 0x4 DUP3 ADD MSTORE PUSH1 0x16 PUSH1 0x24 DUP3 ADD MSTORE PUSH22 0x50657263656E74206D75737420657175616C2031303 PUSH1 0x54 SHL PUSH1 0x44 DUP3 ADD MSTORE PUSH1 0x64 ADD PUSH2 0x3A4 JUMP JUMPDEST PUSH0 JUMPDEST DUP5 DUP2 LT ISZERO PUSH2 0xA4E JUMPI PUSH0 PUSH1 0x64 DUP10 DUP10 DUP5 DUP2 DUP2 LT PUSH2 0xBD9 JUMPI PUSH2 0xBD9 PUSH2 0x1CAF JUMP JUMPDEST SWAP1 POP PUSH1 0x20 MUL ADD CALLDATALOAD DUP7 PUSH2 0xBEB SWAP2 SWAP1 PUSH2 0x1C17 JUMP JUMPDEST PUSH2 0xBF5 SWAP2 SWAP1 PUSH2 0x1C34 JUMP JUMPDEST PUSH0 DUP14 DUP2 MSTORE PUSH1 0x7 PUSH1 0x20 MSTORE PUSH1 0x40 DUP2 KECCAK256 SWAP2 SWAP3 POP DUP3 SWAP2 SWAP1 DUP14 DUP14 DUP7 DUP2 DUP2 LT PUSH2 0xC1A JUMPI PUSH2 0xC1A PUSH2 0x1CAF JUMP JUMPDEST SWAP1 POP PUSH1 0x20 MUL ADD PUSH1 0x20 DUP2 ADD SWAP1 PUSH2 0xC2F SWAP2 SWAP1 PUSH2 0x1BE3 JUMP JUMPDEST PUSH1 0x1 PUSH1 0x1 PUSH1 0xA0 SHL SUB AND DUP2 MSTORE PUSH1 0x20 DUP2 ADD SWAP2 SWAP1 SWAP2 MSTORE PUSH1 0x40 ADD PUSH0 KECCAK256 SSTORE PUSH2 0xC52 DUP2 DUP6 PUSH2 0x1C53 JUMP JUMPDEST SWAP4 POP POP PUSH1 0x1 ADD PUSH2 0xBBC JUMP JUMPDEST PUSH1 0x40 MLOAD PUSH3 0x461BCD PUSH1 0xE5 SHL DUP2 MSTORE PUSH1 0x20 PUSH1 0x4 DUP3 ADD MSTORE PUSH1 0x13 PUSH1 0x24 DUP3 ADD MSTORE PUSH19 0x496E76616C6964207061796F75742074797065 PUSH1 0x68 SHL PUSH1 0x44 DUP3 ADD MSTORE PUSH1 0x64 ADD PUSH2 0x3A4 JUMP JUMPDEST PUSH1 0x4 DUP5 ADD DUP1 SLOAD PUSH1 0xFF NOT AND PUSH1 0x1 OR SWAP1 SSTORE PUSH1 0x40 MLOAD PUSH32 0x6DAB96AF34DF7DDD951654F9A9A6F37E2AEE879986B24166D40D7A6F13687EBD SWAP1 PUSH2 0xCDC SWAP1 DUP12 DUP2 MSTORE PUSH1 0x20 ADD SWAP1 JUMP JUMPDEST PUSH1 0x40 MLOAD DUP1 SWAP2 SUB SWAP1 LOG1 POP POP POP POP POP POP POP POP POP JUMP JUMPDEST PUSH1 0x6 DUP2 DUP2 SLOAD DUP2 LT PUSH2 0xCFE JUMPI PUSH0 DUP1 REVERT JUMPDEST PUSH0 SWAP2 DUP3 MSTORE PUSH1 0x20 SWAP1 SWAP2 KECCAK256 ADD SLOAD SWAP1 POP DUP2 JUMP JUMPDEST PUSH2 0xD16 PUSH2 0x169C JUMP JUMPDEST PUSH2 0xD1F PUSH0 PUSH2 0x16C8 JUMP JUMPDEST JUMP JUMPDEST PUSH0 DUP3 DUP2 MSTORE PUSH1 0x5 PUSH1 0x20 MSTORE PUSH1 0x40 SWAP1 KECCAK256 PUSH1 0x2 DUP2 ADD SLOAD PUSH3 0x10000 SWAP1 DIV PUSH1 0x1 PUSH1 0x1 PUSH1 0xA0 SHL SUB AND CALLER EQ DUP1 PUSH2 0xD58 JUMPI POP PUSH0 SLOAD PUSH1 0x1 PUSH1 0x1 PUSH1 0xA0 SHL SUB AND CALLER EQ JUMPDEST PUSH2 0xD93 JUMPI PUSH1 0x40 MLOAD PUSH3 0x461BCD PUSH1 0xE5 SHL DUP2 MSTORE PUSH1 0x20 PUSH1 0x4 DUP3 ADD MSTORE PUSH1 0xC PUSH1 0x24 DUP3 ADD MSTORE PUSH12 0x155B985D5D1A1BDC9A5E9959 PUSH1 0xA2 SHL PUSH1 0x44 DUP3 ADD MSTORE PUSH1 0x64 ADD PUSH2 0x3A4 JUMP JUMPDEST PUSH1 0x4 DUP2 ADD SLOAD PUSH1 0xFF AND ISZERO PUSH2 0xDDB JUMPI PUSH1 0x40 MLOAD PUSH3 0x461BCD PUSH1 0xE5 SHL DUP2 MSTORE PUSH1 0x20 PUSH1 0x4 DUP3 ADD MSTORE PUSH1 0x10 PUSH1 0x24 DUP3 ADD MSTORE PUSH16 0x105B1C9958591E48185CDCDA59DB9959 PUSH1 0x82 SHL PUSH1 0x44 DUP3 ADD MSTORE PUSH1 0x64 ADD PUSH2 0x3A4 JUMP JUMPDEST PUSH0 PUSH1 0x2 DUP3 DUP2 ADD SLOAD PUSH2 0x100 SWAP1 DIV PUSH1 0xFF AND SWAP1 DUP2 GT ISZERO PUSH2 0xDFA JUMPI PUSH2 0xDFA PUSH2 0x1B07 JUMP JUMPDEST EQ PUSH2 0xE3D JUMPI PUSH1 0x40 MLOAD PUSH3 0x461BCD PUSH1 0xE5 SHL DUP2 MSTORE PUSH1 0x20 PUSH1 0x4 DUP3 ADD MSTORE PUSH1 0x13 PUSH1 0x24 DUP3 ADD MSTORE PUSH19 0x496E76616C6964207061796F75742074797065 PUSH1 0x68 SHL PUSH1 0x44 DUP3 ADD MSTORE PUSH1 0x64 ADD PUSH2 0x3A4 JUMP JUMPDEST PUSH1 0x1 PUSH1 0x1 PUSH1 0xA0 SHL SUB DUP3 AND PUSH2 0xE84 JUMPI PUSH1 0x40 MLOAD PUSH3 0x461BCD PUSH1 0xE5 SHL DUP2 MSTORE PUSH1 0x20 PUSH1 0x4 DUP3 ADD MSTORE PUSH1 0xE PUSH1 0x24 DUP3 ADD MSTORE PUSH14 0x24B73B30B634B2103BB4B73732B9 PUSH1 0x91 SHL PUSH1 0x44 DUP3 ADD MSTORE PUSH1 0x64 ADD PUSH2 0x3A4 JUMP JUMPDEST DUP1 SLOAD PUSH0 DUP5 DUP2 MSTORE PUSH1 0x7 PUSH1 0x20 SWAP1 DUP2 MSTORE PUSH1 0x40 DUP1 DUP4 KECCAK256 PUSH1 0x1 PUSH1 0x1 PUSH1 0xA0 SHL SUB DUP8 AND DUP1 DUP6 MSTORE SWAP1 DUP4 MSTORE DUP2 DUP5 KECCAK256 SWAP5 SWAP1 SWAP5 SSTORE PUSH1 0x3 DUP6 ADD DUP1 SLOAD PUSH1 0x1 DUP1 DUP3 ADD DUP4 SSTORE SWAP2 DUP6 MSTORE SWAP4 DUP4 SWAP1 KECCAK256 SWAP1 SWAP4 ADD DUP1 SLOAD PUSH1 0x1 PUSH1 0x1 PUSH1 0xA0 SHL SUB NOT AND SWAP1 SWAP5 OR SWAP1 SWAP4 SSTORE PUSH1 0x4 DUP5 ADD DUP1 SLOAD PUSH1 0xFF NOT AND SWAP1 SWAP3 OR SWAP1 SWAP2 SSTORE SWAP1 MLOAD DUP5 DUP2 MSTORE PUSH32 0x6DAB96AF34DF7DDD951654F9A9A6F37E2AEE879986B24166D40D7A6F13687EBD SWAP2 ADD PUSH1 0x40 MLOAD DUP1 SWAP2 SUB SWAP1 LOG1 POP POP POP JUMP JUMPDEST PUSH2 0xF23 PUSH2 0x1717 JUMP JUMPDEST PUSH2 0xF2B PUSH2 0x169C JUMP JUMPDEST PUSH1 0x1 PUSH1 0x1 PUSH1 0xA0 SHL SUB DUP2 AND PUSH2 0xF73 JUMPI PUSH1 0x40 MLOAD PUSH3 0x461BCD PUSH1 0xE5 SHL DUP2 MSTORE PUSH1 0x20 PUSH1 0x4 DUP3 ADD MSTORE PUSH1 0xF PUSH1 0x24 DUP3 ADD MSTORE PUSH15 0x496E76616C69642061646472657373 PUSH1 0x88 SHL PUSH1 0x44 DUP3 ADD MSTORE PUSH1 0x64 ADD PUSH2 0x3A4 JUMP JUMPDEST PUSH0 DUP3 PUSH1 0x1 DUP2 GT ISZERO PUSH2 0xF86 JUMPI PUSH2 0xF86 PUSH2 0x1B07 JUMP JUMPDEST SUB PUSH2 0x10BD JUMPI PUSH1 0x3 SLOAD DUP1 PUSH2 0xFC5 JUMPI PUSH1 0x40 MLOAD PUSH3 0x461BCD PUSH1 0xE5 SHL DUP2 MSTORE PUSH1 0x20 PUSH1 0x4 DUP3 ADD MSTORE PUSH1 0x7 PUSH1 0x24 DUP3 ADD MSTORE PUSH7 0x4E6F2066656573 PUSH1 0xC8 SHL PUSH1 0x44 DUP3 ADD MSTORE PUSH1 0x64 ADD PUSH2 0x3A4 JUMP JUMPDEST PUSH0 PUSH1 0x3 DUP2 SWAP1 SSTORE PUSH1 0x40 MLOAD PUSH1 0x1 PUSH1 0x1 PUSH1 0xA0 SHL SUB DUP5 AND SWAP1 DUP4 SWAP1 DUP4 DUP2 DUP2 DUP2 DUP6 DUP8 GAS CALL SWAP3 POP POP POP RETURNDATASIZE DUP1 PUSH0 DUP2 EQ PUSH2 0x1011 JUMPI PUSH1 0x40 MLOAD SWAP2 POP PUSH1 0x1F NOT PUSH1 0x3F RETURNDATASIZE ADD AND DUP3 ADD PUSH1 0x40 MSTORE RETURNDATASIZE DUP3 MSTORE RETURNDATASIZE PUSH0 PUSH1 0x20 DUP5 ADD RETURNDATACOPY PUSH2 0x1016 JUMP JUMPDEST PUSH1 0x60 SWAP2 POP JUMPDEST POP POP SWAP1 POP DUP1 PUSH2 0x1059 JUMPI PUSH1 0x40 MLOAD PUSH3 0x461BCD PUSH1 0xE5 SHL DUP2 MSTORE PUSH1 0x20 PUSH1 0x4 DUP3 ADD MSTORE PUSH1 0xF PUSH1 0x24 DUP3 ADD MSTORE PUSH15 0x15DA5D1A191C985DC819985A5B1959 PUSH1 0x8A SHL PUSH1 0x44 DUP3 ADD MSTORE PUSH1 0x64 ADD PUSH2 0x3A4 JUMP JUMPDEST PUSH1 0x40 DUP1 MLOAD PUSH1 0x1 PUSH1 0x1 PUSH1 0xA0 SHL SUB DUP6 AND DUP2 MSTORE PUSH1 0x20 DUP2 ADD DUP5 SWAP1 MSTORE PUSH1 0x60 DUP2 DUP4 ADD DUP2 SWAP1 MSTORE PUSH1 0x3 SWAP1 DUP3 ADD MSTORE PUSH3 0x8AA89 PUSH1 0xEB SHL PUSH1 0x80 DUP3 ADD MSTORE SWAP1 MLOAD PUSH32 0x936D8019ACD8166D88A7A73AE09F4C93B665420206512807EAE9130B0C6E3217 SWAP2 DUP2 SWAP1 SUB PUSH1 0xA0 ADD SWAP1 LOG1 POP POP PUSH2 0x1172 JUMP JUMPDEST PUSH1 0x4 SLOAD DUP1 PUSH2 0x10F7 JUMPI PUSH1 0x40 MLOAD PUSH3 0x461BCD PUSH1 0xE5 SHL DUP2 MSTORE PUSH1 0x20 PUSH1 0x4 DUP3 ADD MSTORE PUSH1 0x7 PUSH1 0x24 DUP3 ADD MSTORE PUSH7 0x4E6F2066656573 PUSH1 0xC8 SHL PUSH1 0x44 DUP3 ADD MSTORE PUSH1 0x64 ADD PUSH2 0x3A4 JUMP JUMPDEST PUSH0 PUSH1 0x4 SSTORE PUSH1 0x1 SLOAD PUSH2 0x1112 SWAP1 PUSH1 0x1 PUSH1 0x1 PUSH1 0xA0 SHL SUB AND DUP4 DUP4 PUSH2 0x1732 JUMP JUMPDEST PUSH1 0x40 DUP1 MLOAD PUSH1 0x1 PUSH1 0x1 PUSH1 0xA0 SHL SUB DUP5 AND DUP2 MSTORE PUSH1 0x20 DUP2 ADD DUP4 SWAP1 MSTORE PUSH1 0x60 DUP2 DUP4 ADD DUP2 SWAP1 MSTORE PUSH1 0x4 SWAP1 DUP3 ADD MSTORE PUSH4 0x55534443 PUSH1 0xE0 SHL PUSH1 0x80 DUP3 ADD MSTORE SWAP1 MLOAD PUSH32 0x936D8019ACD8166D88A7A73AE09F4C93B665420206512807EAE9130B0C6E3217 SWAP2 DUP2 SWAP1 SUB PUSH1 0xA0 ADD SWAP1 LOG1 POP JUMPDEST PUSH2 0x1188 PUSH1 0x1 PUSH0 MLOAD PUSH1 0x20 PUSH2 0x1CD7 PUSH0 CODECOPY PUSH0 MLOAD SWAP1 PUSH0 MSTORE SSTORE JUMP JUMPDEST POP POP JUMP JUMPDEST PUSH1 0x60 PUSH1 0x6 DUP1 SLOAD DUP1 PUSH1 0x20 MUL PUSH1 0x20 ADD PUSH1 0x40 MLOAD SWAP1 DUP2 ADD PUSH1 0x40 MSTORE DUP1 SWAP3 SWAP2 SWAP1 DUP2 DUP2 MSTORE PUSH1 0x20 ADD DUP3 DUP1 SLOAD DUP1 ISZERO PUSH2 0x11D8 JUMPI PUSH1 0x20 MUL DUP3 ADD SWAP2 SWAP1 PUSH0 MSTORE PUSH1 0x20 PUSH0 KECCAK256 SWAP1 JUMPDEST DUP2 SLOAD DUP2 MSTORE PUSH1 0x20 ADD SWAP1 PUSH1 0x1 ADD SWAP1 DUP1 DUP4 GT PUSH2 0x11C4 JUMPI JUMPDEST POP POP POP POP POP SWAP1 POP SWAP1 JUMP JUMPDEST PUSH0 DUP2 DUP2 MSTORE PUSH1 0x5 PUSH1 0x20 SWAP1 DUP2 MSTORE PUSH1 0x40 DUP1 DUP4 KECCAK256 PUSH1 0x2 DUP2 ADD SLOAD DUP2 SLOAD PUSH1 0x1 DUP4 ADD SLOAD PUSH1 0x4 DUP5 ADD SLOAD PUSH1 0x3 DUP6 ADD DUP1 SLOAD DUP8 MLOAD DUP2 DUP11 MUL DUP2 ADD DUP11 ADD SWAP1 SWAP9 MSTORE DUP1 DUP9 MSTORE PUSH1 0x60 SWAP9 DUP11 SWAP9 DUP10 SWAP9 DUP10 SWAP9 DUP10 SWAP9 DUP10 SWAP9 DUP10 SWAP9 SWAP4 SWAP8 PUSH1 0x1 PUSH1 0x1 PUSH1 0xA0 SHL SUB PUSH3 0x10000 DUP6 DIV AND SWAP8 SWAP1 SWAP7 SWAP3 SWAP6 SWAP2 SWAP5 PUSH1 0xFF DUP1 DUP3 AND SWAP6 PUSH2 0x100 SWAP3 DUP4 SWAP1 DIV DUP3 AND SWAP6 DUP3 DUP3 AND SWAP6 SWAP4 SWAP1 SWAP2 DIV SWAP1 SWAP2 AND SWAP3 DUP10 SWAP2 DUP4 ADD DUP3 DUP3 DUP1 ISZERO PUSH2 0x1294 JUMPI PUSH1 0x20 MUL DUP3 ADD SWAP2 SWAP1 PUSH0 MSTORE PUSH1 0x20 PUSH0 KECCAK256 SWAP1 JUMPDEST DUP2 SLOAD PUSH1 0x1 PUSH1 0x1 PUSH1 0xA0 SHL SUB AND DUP2 MSTORE PUSH1 0x1 SWAP1 SWAP2 ADD SWAP1 PUSH1 0x20 ADD DUP1 DUP4 GT PUSH2 0x1276 JUMPI JUMPDEST POP POP POP POP POP SWAP7 POP SWAP9 POP SWAP9 POP SWAP9 POP SWAP9 POP SWAP9 POP SWAP9 POP SWAP9 POP SWAP9 POP POP SWAP2 SWAP4 SWAP6 SWAP8 POP SWAP2 SWAP4 SWAP6 SWAP8 JUMP JUMPDEST PUSH2 0x12BF PUSH2 0x169C JUMP JUMPDEST PUSH1 0x1 PUSH1 0x1 PUSH1 0xA0 SHL SUB DUP2 AND PUSH2 0x12E8 JUMPI PUSH1 0x40 MLOAD PUSH4 0x1E4FBDF7 PUSH1 0xE0 SHL DUP2 MSTORE PUSH0 PUSH1 0x4 DUP3 ADD MSTORE PUSH1 0x24 ADD PUSH2 0x3A4 JUMP JUMPDEST PUSH2 0x12F1 DUP2 PUSH2 0x16C8 JUMP JUMPDEST POP JUMP JUMPDEST PUSH2 0x12FC PUSH2 0x1717 JUMP JUMPDEST PUSH0 DUP2 DUP2 MSTORE PUSH1 0x7 PUSH1 0x20 SWAP1 DUP2 MSTORE PUSH1 0x40 DUP1 DUP4 KECCAK256 CALLER DUP5 MSTORE SWAP1 SWAP2 MSTORE SWAP1 KECCAK256 SLOAD DUP1 PUSH2 0x1355 JUMPI PUSH1 0x40 MLOAD PUSH3 0x461BCD PUSH1 0xE5 SHL DUP2 MSTORE PUSH1 0x20 PUSH1 0x4 DUP3 ADD MSTORE PUSH1 0x10 PUSH1 0x24 DUP3 ADD MSTORE PUSH16 0x4E6F7468696E6720746F20636C61696D PUSH1 0x80 SHL PUSH1 0x44 DUP3 ADD MSTORE PUSH1 0x64 ADD PUSH2 0x3A4 JUMP JUMPDEST PUSH0 DUP3 DUP2 MSTORE PUSH1 0x8 PUSH1 0x20 SWAP1 DUP2 MSTORE PUSH1 0x40 DUP1 DUP4 KECCAK256 CALLER DUP5 MSTORE SWAP1 SWAP2 MSTORE SWAP1 KECCAK256 SLOAD PUSH1 0xFF AND ISZERO PUSH2 0x13B0 JUMPI PUSH1 0x40 MLOAD PUSH3 0x461BCD PUSH1 0xE5 SHL DUP2 MSTORE PUSH1 0x20 PUSH1 0x4 DUP3 ADD MSTORE PUSH1 0xF PUSH1 0x24 DUP3 ADD MSTORE PUSH15 0x105B1C9958591E4818DB185A5B5959 PUSH1 0x8A SHL PUSH1 0x44 DUP3 ADD MSTORE PUSH1 0x64 ADD PUSH2 0x3A4 JUMP JUMPDEST CALLER PUSH2 0x13EF JUMPI PUSH1 0x40 MLOAD PUSH3 0x461BCD PUSH1 0xE5 SHL DUP2 MSTORE PUSH1 0x20 PUSH1 0x4 DUP3 ADD MSTORE PUSH1 0xF PUSH1 0x24 DUP3 ADD MSTORE PUSH15 0x496E76616C69642061646472657373 PUSH1 0x88 SHL PUSH1 0x44 DUP3 ADD MSTORE PUSH1 0x64 ADD PUSH2 0x3A4 JUMP JUMPDEST PUSH0 DUP3 DUP2 MSTORE PUSH1 0x5 PUSH1 0x20 SWAP1 DUP2 MSTORE PUSH1 0x40 DUP1 DUP4 KECCAK256 PUSH1 0x8 DUP4 MSTORE DUP2 DUP5 KECCAK256 CALLER DUP1 DUP7 MSTORE SWAP1 DUP5 MSTORE DUP3 DUP6 KECCAK256 DUP1 SLOAD PUSH1 0xFF NOT AND PUSH1 0x1 OR SWAP1 SSTORE DUP7 DUP6 MSTORE PUSH1 0x7 DUP5 MSTORE DUP3 DUP6 KECCAK256 SWAP1 DUP6 MSTORE SWAP1 SWAP3 MSTORE DUP3 KECCAK256 DUP3 SWAP1 SSTORE SWAP1 PUSH1 0x2 DUP3 DUP2 ADD SLOAD PUSH2 0x100 SWAP1 DIV PUSH1 0xFF AND SWAP1 DUP2 GT ISZERO PUSH2 0x144F JUMPI PUSH2 0x144F PUSH2 0x1B07 JUMP JUMPDEST SUB PUSH2 0x1466 JUMPI PUSH1 0x4 DUP2 ADD DUP1 SLOAD PUSH2 0xFF00 NOT AND PUSH2 0x100 OR SWAP1 SSTORE JUMPDEST PUSH1 0x1 PUSH1 0x2 DUP3 DUP2 ADD SLOAD PUSH2 0x100 SWAP1 DIV PUSH1 0xFF AND SWAP1 DUP2 GT ISZERO PUSH2 0x1486 JUMPI PUSH2 0x1486 PUSH2 0x1B07 JUMP JUMPDEST EQ DUP1 PUSH2 0x14AE JUMPI POP PUSH1 0x2 DUP1 DUP3 DUP2 ADD SLOAD PUSH2 0x100 SWAP1 DIV PUSH1 0xFF AND SWAP1 DUP2 GT ISZERO PUSH2 0x14AC JUMPI PUSH2 0x14AC PUSH2 0x1B07 JUMP JUMPDEST EQ JUMPDEST ISZERO PUSH2 0x153F JUMPI PUSH1 0x1 PUSH0 JUMPDEST PUSH1 0x3 DUP4 ADD SLOAD DUP2 LT ISZERO PUSH2 0x1524 JUMPI PUSH0 DUP6 DUP2 MSTORE PUSH1 0x8 PUSH1 0x20 MSTORE PUSH1 0x40 DUP2 KECCAK256 PUSH1 0x3 DUP6 ADD DUP1 SLOAD SWAP2 SWAP3 SWAP2 DUP5 SWAP1 DUP2 LT PUSH2 0x14E9 JUMPI PUSH2 0x14E9 PUSH2 0x1CAF JUMP JUMPDEST PUSH0 SWAP2 DUP3 MSTORE PUSH1 0x20 DUP1 DUP4 KECCAK256 SWAP1 SWAP2 ADD SLOAD PUSH1 0x1 PUSH1 0x1 PUSH1 0xA0 SHL SUB AND DUP4 MSTORE DUP3 ADD SWAP3 SWAP1 SWAP3 MSTORE PUSH1 0x40 ADD SWAP1 KECCAK256 SLOAD PUSH1 0xFF AND PUSH2 0x151C JUMPI PUSH0 SWAP2 POP PUSH2 0x1524 JUMP JUMPDEST PUSH1 0x1 ADD PUSH2 0x14B7 JUMP JUMPDEST POP DUP1 ISZERO PUSH2 0x153D JUMPI PUSH1 0x4 DUP3 ADD DUP1 SLOAD PUSH2 0xFF00 NOT AND PUSH2 0x100 OR SWAP1 SSTORE JUMPDEST POP JUMPDEST PUSH0 PUSH1 0x2 DUP3 ADD SLOAD PUSH1 0xFF AND PUSH1 0x1 DUP2 GT ISZERO PUSH2 0x1559 JUMPI PUSH2 0x1559 PUSH2 0x1B07 JUMP JUMPDEST SUB PUSH2 0x15F1 JUMPI PUSH1 0x40 MLOAD PUSH0 SWAP1 CALLER SWAP1 DUP5 SWAP1 DUP4 DUP2 DUP2 DUP2 DUP6 DUP8 GAS CALL SWAP3 POP POP POP RETURNDATASIZE DUP1 PUSH0 DUP2 EQ PUSH2 0x159D JUMPI PUSH1 0x40 MLOAD SWAP2 POP PUSH1 0x1F NOT PUSH1 0x3F RETURNDATASIZE ADD AND DUP3 ADD PUSH1 0x40 MSTORE RETURNDATASIZE DUP3 MSTORE RETURNDATASIZE PUSH0 PUSH1 0x20 DUP5 ADD RETURNDATACOPY PUSH2 0x15A2 JUMP JUMPDEST PUSH1 0x60 SWAP2 POP JUMPDEST POP POP SWAP1 POP DUP1 PUSH2 0x15EB JUMPI PUSH1 0x40 MLOAD PUSH3 0x461BCD PUSH1 0xE5 SHL DUP2 MSTORE PUSH1 0x20 PUSH1 0x4 DUP3 ADD MSTORE PUSH1 0x15 PUSH1 0x24 DUP3 ADD MSTORE PUSH21 0x455448207472616E73666572206661696C65642121 PUSH1 0x58 SHL PUSH1 0x44 DUP3 ADD MSTORE PUSH1 0x64 ADD PUSH2 0x3A4 JUMP JUMPDEST POP PUSH2 0x1608 JUMP JUMPDEST PUSH1 0x1 SLOAD PUSH2 0x1608 SWAP1 PUSH1 0x1 PUSH1 0x1 PUSH1 0xA0 SHL SUB AND CALLER DUP5 PUSH2 0x1732 JUMP JUMPDEST PUSH1 0x40 DUP1 MLOAD DUP5 DUP2 MSTORE CALLER PUSH1 0x20 DUP3 ADD MSTORE SWAP1 DUP2 ADD DUP4 SWAP1 MSTORE PUSH32 0xFE236DFC7CE073698734B89DA1AEE0E7551C9C6D264404C502E6E8FEFC1132A8 SWAP1 PUSH1 0x60 ADD PUSH1 0x40 MLOAD DUP1 SWAP2 SUB SWAP1 LOG1 POP POP PUSH2 0x12F1 PUSH1 0x1 PUSH0 MLOAD PUSH1 0x20 PUSH2 0x1CD7 PUSH0 CODECOPY PUSH0 MLOAD SWAP1 PUSH0 MSTORE SSTORE JUMP JUMPDEST PUSH2 0x166E DUP5 DUP5 DUP5 DUP5 PUSH1 0x1 PUSH2 0x176C JUMP JUMPDEST PUSH2 0x1696 JUMPI PUSH1 0x40 MLOAD PUSH4 0x5274AFE7 PUSH1 0xE0 SHL DUP2 MSTORE PUSH1 0x1 PUSH1 0x1 PUSH1 0xA0 SHL SUB DUP6 AND PUSH1 0x4 DUP3 ADD MSTORE PUSH1 0x24 ADD PUSH2 0x3A4 JUMP JUMPDEST POP POP POP POP JUMP JUMPDEST PUSH0 SLOAD PUSH1 0x1 PUSH1 0x1 PUSH1 0xA0 SHL SUB AND CALLER EQ PUSH2 0xD1F JUMPI PUSH1 0x40 MLOAD PUSH4 0x118CDAA7 PUSH1 0xE0 SHL DUP2 MSTORE CALLER PUSH1 0x4 DUP3 ADD MSTORE PUSH1 0x24 ADD PUSH2 0x3A4 JUMP JUMPDEST PUSH0 DUP1 SLOAD PUSH1 0x1 PUSH1 0x1 PUSH1 0xA0 SHL SUB DUP4 DUP2 AND PUSH1 0x1 PUSH1 0x1 PUSH1 0xA0 SHL SUB NOT DUP4 AND DUP2 OR DUP5 SSTORE PUSH1 0x40 MLOAD SWAP2 SWAP1 SWAP3 AND SWAP3 DUP4 SWAP2 PUSH32 0x8BE0079C531659141344CD1FD0A4F28419497F9722A3DAAFE3B4186F6B6457E0 SWAP2 SWAP1 LOG3 POP POP JUMP JUMPDEST PUSH2 0x171F PUSH2 0x17D9 JUMP JUMPDEST PUSH1 0x2 PUSH0 MLOAD PUSH1 0x20 PUSH2 0x1CD7 PUSH0 CODECOPY PUSH0 MLOAD SWAP1 PUSH0 MSTORE SSTORE JUMP JUMPDEST PUSH2 0x173F DUP4 DUP4 DUP4 PUSH1 0x1 PUSH2 0x1808 JUMP JUMPDEST PUSH2 0x1767 JUMPI PUSH1 0x40 MLOAD PUSH4 0x5274AFE7 PUSH1 0xE0 SHL DUP2 MSTORE PUSH1 0x1 PUSH1 0x1 PUSH1 0xA0 SHL SUB DUP5 AND PUSH1 0x4 DUP3 ADD MSTORE PUSH1 0x24 ADD PUSH2 0x3A4 JUMP JUMPDEST POP POP POP JUMP JUMPDEST PUSH1 0x40 MLOAD PUSH4 0x23B872DD PUSH1 0xE0 SHL PUSH0 DUP2 DUP2 MSTORE PUSH1 0x1 PUSH1 0x1 PUSH1 0xA0 SHL SUB DUP8 DUP2 AND PUSH1 0x4 MSTORE DUP7 AND PUSH1 0x24 MSTORE PUSH1 0x44 DUP6 SWAP1 MSTORE SWAP2 PUSH1 0x20 DUP4 PUSH1 0x64 DUP2 DUP1 DUP13 GAS CALL SWAP3 POP PUSH1 0x1 PUSH0 MLOAD EQ DUP4 AND PUSH2 0x17C8 JUMPI DUP4 DUP4 ISZERO AND ISZERO PUSH2 0x17BC JUMPI RETURNDATASIZE PUSH0 DUP3 RETURNDATACOPY RETURNDATASIZE DUP2 REVERT JUMPDEST PUSH0 DUP9 EXTCODESIZE GT RETURNDATASIZE ISZERO AND DUP4 AND SWAP3 POP JUMPDEST PUSH1 0x40 MSTORE POP PUSH0 PUSH1 0x60 MSTORE SWAP6 SWAP5 POP POP POP POP POP JUMP JUMPDEST PUSH0 MLOAD PUSH1 0x20 PUSH2 0x1CD7 PUSH0 CODECOPY PUSH0 MLOAD SWAP1 PUSH0 MSTORE SLOAD PUSH1 0x2 SUB PUSH2 0xD1F JUMPI PUSH1 0x40 MLOAD PUSH4 0x3EE5AEB5 PUSH1 0xE0 SHL DUP2 MSTORE PUSH1 0x4 ADD PUSH1 0x40 MLOAD DUP1 SWAP2 SUB SWAP1 REVERT JUMPDEST PUSH1 0x40 MLOAD PUSH4 0xA9059CBB PUSH1 0xE0 SHL PUSH0 DUP2 DUP2 MSTORE PUSH1 0x1 PUSH1 0x1 PUSH1 0xA0 SHL SUB DUP7 AND PUSH1 0x4 MSTORE PUSH1 0x24 DUP6 SWAP1 MSTORE SWAP2 PUSH1 0x20 DUP4 PUSH1 0x44 DUP2 DUP1 DUP12 GAS CALL SWAP3 POP PUSH1 0x1 PUSH0 MLOAD EQ DUP4 AND PUSH2 0x185E JUMPI DUP4 DUP4 ISZERO AND ISZERO PUSH2 0x1852 JUMPI RETURNDATASIZE PUSH0 DUP3 RETURNDATACOPY RETURNDATASIZE DUP2 REVERT JUMPDEST PUSH0 DUP8 EXTCODESIZE GT RETURNDATASIZE ISZERO AND DUP4 AND SWAP3 POP JUMPDEST PUSH1 0x40 MSTORE POP SWAP5 SWAP4 POP POP POP POP JUMP JUMPDEST DUP3 DUP1 SLOAD DUP3 DUP3 SSTORE SWAP1 PUSH0 MSTORE PUSH1 0x20 PUSH0 KECCAK256 SWAP1 DUP2 ADD SWAP3 DUP3 ISZERO PUSH2 0x18BD JUMPI SWAP2 PUSH1 0x20 MUL DUP3 ADD JUMPDEST DUP3 DUP2 GT ISZERO PUSH2 0x18BD JUMPI DUP3 MLOAD DUP3 SLOAD PUSH1 0x1 PUSH1 0x1 PUSH1 0xA0 SHL SUB NOT AND PUSH1 0x1 PUSH1 0x1 PUSH1 0xA0 SHL SUB SWAP1 SWAP2 AND OR DUP3 SSTORE PUSH1 0x20 SWAP1 SWAP3 ADD SWAP2 PUSH1 0x1 SWAP1 SWAP2 ADD SWAP1 PUSH2 0x1888 JUMP JUMPDEST POP PUSH2 0x18C9 SWAP3 SWAP2 POP PUSH2 0x191E JUMP JUMPDEST POP SWAP1 JUMP JUMPDEST DUP3 DUP1 SLOAD DUP3 DUP3 SSTORE SWAP1 PUSH0 MSTORE PUSH1 0x20 PUSH0 KECCAK256 SWAP1 DUP2 ADD SWAP3 DUP3 ISZERO PUSH2 0x18BD JUMPI SWAP2 PUSH1 0x20 MUL DUP3 ADD JUMPDEST DUP3 DUP2 GT ISZERO PUSH2 0x18BD JUMPI DUP2 SLOAD PUSH1 0x1 PUSH1 0x1 PUSH1 0xA0 SHL SUB NOT AND PUSH1 0x1 PUSH1 0x1 PUSH1 0xA0 SHL SUB DUP5 CALLDATALOAD AND OR DUP3 SSTORE PUSH1 0x20 SWAP1 SWAP3 ADD SWAP2 PUSH1 0x1 SWAP1 SWAP2 ADD SWAP1 PUSH2 0x18EB JUMP JUMPDEST JUMPDEST DUP1 DUP3 GT ISZERO PUSH2 0x18C9 JUMPI PUSH0 DUP2 SSTORE PUSH1 0x1 ADD PUSH2 0x191F JUMP JUMPDEST DUP1 CALLDATALOAD PUSH1 0x2 DUP2 LT PUSH2 0x1940 JUMPI PUSH0 PUSH0 REVERT JUMPDEST SWAP2 SWAP1 POP JUMP JUMPDEST PUSH0 PUSH0 PUSH0 PUSH1 0x60 DUP5 DUP7 SUB SLT ISZERO PUSH2 0x1957 JUMPI PUSH0 PUSH0 REVERT JUMPDEST PUSH2 0x1960 DUP5 PUSH2 0x1932 JUMP JUMPDEST SWAP3 POP PUSH1 0x20 DUP5 ADD CALLDATALOAD SWAP2 POP PUSH1 0x40 DUP5 ADD CALLDATALOAD PUSH1 0x3 DUP2 LT PUSH2 0x197A JUMPI PUSH0 PUSH0 REVERT JUMPDEST DUP1 SWAP2 POP POP SWAP3 POP SWAP3 POP SWAP3 JUMP JUMPDEST PUSH0 PUSH0 DUP4 PUSH1 0x1F DUP5 ADD SLT PUSH2 0x1995 JUMPI PUSH0 PUSH0 REVERT JUMPDEST POP DUP2 CALLDATALOAD PUSH8 0xFFFFFFFFFFFFFFFF DUP2 GT ISZERO PUSH2 0x19AC JUMPI PUSH0 PUSH0 REVERT JUMPDEST PUSH1 0x20 DUP4 ADD SWAP2 POP DUP4 PUSH1 0x20 DUP3 PUSH1 0x5 SHL DUP6 ADD ADD GT ISZERO PUSH2 0x19C6 JUMPI PUSH0 PUSH0 REVERT JUMPDEST SWAP3 POP SWAP3 SWAP1 POP JUMP JUMPDEST PUSH0 PUSH0 PUSH0 PUSH0 PUSH0 PUSH1 0x60 DUP7 DUP9 SUB SLT ISZERO PUSH2 0x19E1 JUMPI PUSH0 PUSH0 REVERT JUMPDEST DUP6 CALLDATALOAD SWAP5 POP PUSH1 0x20 DUP7 ADD CALLDATALOAD PUSH8 0xFFFFFFFFFFFFFFFF DUP2 GT ISZERO PUSH2 0x19FE JUMPI PUSH0 PUSH0 REVERT JUMPDEST PUSH2 0x1A0A DUP9 DUP3 DUP10 ADD PUSH2 0x1985 JUMP JUMPDEST SWAP1 SWAP6 POP SWAP4 POP POP PUSH1 0x40 DUP7 ADD CALLDATALOAD PUSH8 0xFFFFFFFFFFFFFFFF DUP2 GT ISZERO PUSH2 0x1A29 JUMPI PUSH0 PUSH0 REVERT JUMPDEST PUSH2 0x1A35 DUP9 DUP3 DUP10 ADD PUSH2 0x1985 JUMP JUMPDEST SWAP7 SWAP10 SWAP6 SWAP9 POP SWAP4 SWAP7 POP SWAP3 SWAP5 SWAP4 SWAP3 POP POP POP JUMP JUMPDEST PUSH0 PUSH1 0x20 DUP3 DUP5 SUB SLT ISZERO PUSH2 0x1A56 JUMPI PUSH0 PUSH0 REVERT JUMPDEST POP CALLDATALOAD SWAP2 SWAP1 POP JUMP JUMPDEST DUP1 CALLDATALOAD PUSH1 0x1 PUSH1 0x1 PUSH1 0xA0 SHL SUB DUP2 AND DUP2 EQ PUSH2 0x1940 JUMPI PUSH0 PUSH0 REVERT JUMPDEST PUSH0 PUSH0 PUSH1 0x40 DUP4 DUP6 SUB SLT ISZERO PUSH2 0x1A84 JUMPI PUSH0 PUSH0 REVERT JUMPDEST DUP3 CALLDATALOAD SWAP2 POP PUSH2 0x1A94 PUSH1 0x20 DUP5 ADD PUSH2 0x1A5D JUMP JUMPDEST SWAP1 POP SWAP3 POP SWAP3 SWAP1 POP JUMP JUMPDEST PUSH0 PUSH0 PUSH1 0x40 DUP4 DUP6 SUB SLT ISZERO PUSH2 0x1AAE JUMPI PUSH0 PUSH0 REVERT JUMPDEST PUSH2 0x1AB7 DUP4 PUSH2 0x1932 JUMP JUMPDEST SWAP2 POP PUSH2 0x1A94 PUSH1 0x20 DUP5 ADD PUSH2 0x1A5D JUMP JUMPDEST PUSH1 0x20 DUP1 DUP3 MSTORE DUP3 MLOAD DUP3 DUP3 ADD DUP2 SWAP1 MSTORE PUSH0 SWAP2 DUP5 ADD SWAP1 PUSH1 0x40 DUP5 ADD SWAP1 DUP4 JUMPDEST DUP2 DUP2 LT ISZERO PUSH2 0x1AFC JUMPI DUP4 MLOAD DUP4 MSTORE PUSH1 0x20 SWAP4 DUP5 ADD SWAP4 SWAP1 SWAP3 ADD SWAP2 PUSH1 0x1 ADD PUSH2 0x1ADE JUMP JUMPDEST POP SWAP1 SWAP6 SWAP5 POP POP POP POP POP JUMP JUMPDEST PUSH4 0x4E487B71 PUSH1 0xE0 SHL PUSH0 MSTORE PUSH1 0x21 PUSH1 0x4 MSTORE PUSH1 0x24 PUSH0 REVERT JUMPDEST PUSH1 0x2 DUP2 LT PUSH2 0x1B2B JUMPI PUSH2 0x1B2B PUSH2 0x1B07 JUMP JUMPDEST SWAP1 MSTORE JUMP JUMPDEST PUSH1 0x3 DUP2 LT PUSH2 0x1B2B JUMPI PUSH2 0x1B2B PUSH2 0x1B07 JUMP JUMPDEST PUSH1 0x1 PUSH1 0x1 PUSH1 0xA0 SHL SUB DUP10 AND DUP2 MSTORE PUSH2 0x100 PUSH1 0x20 DUP1 DUP4 ADD DUP3 SWAP1 MSTORE DUP10 MLOAD SWAP2 DUP4 ADD DUP3 SWAP1 MSTORE PUSH0 SWAP2 SWAP1 DUP11 ADD SWAP1 PUSH2 0x120 DUP5 ADD SWAP1 DUP4 JUMPDEST DUP2 DUP2 LT ISZERO PUSH2 0x1B93 JUMPI DUP4 MLOAD PUSH1 0x1 PUSH1 0x1 PUSH1 0xA0 SHL SUB AND DUP4 MSTORE PUSH1 0x20 SWAP4 DUP5 ADD SWAP4 SWAP1 SWAP3 ADD SWAP2 PUSH1 0x1 ADD PUSH2 0x1B6C JUMP JUMPDEST POP POP DUP1 SWAP3 POP POP POP DUP8 PUSH1 0x40 DUP4 ADD MSTORE DUP7 PUSH1 0x60 DUP4 ADD MSTORE PUSH2 0x1BB4 PUSH1 0x80 DUP4 ADD DUP8 ISZERO ISZERO SWAP1 MSTORE JUMP JUMPDEST DUP5 ISZERO ISZERO PUSH1 0xA0 DUP4 ADD MSTORE PUSH2 0x1BC9 PUSH1 0xC0 DUP4 ADD DUP6 PUSH2 0x1B1B JUMP JUMPDEST PUSH2 0x1BD6 PUSH1 0xE0 DUP4 ADD DUP5 PUSH2 0x1B2F JUMP JUMPDEST SWAP10 SWAP9 POP POP POP POP POP POP POP POP POP JUMP JUMPDEST PUSH0 PUSH1 0x20 DUP3 DUP5 SUB SLT ISZERO PUSH2 0x1BF3 JUMPI PUSH0 PUSH0 REVERT JUMPDEST PUSH2 0x1BFC DUP3 PUSH2 0x1A5D JUMP JUMPDEST SWAP4 SWAP3 POP POP POP JUMP JUMPDEST PUSH4 0x4E487B71 PUSH1 0xE0 SHL PUSH0 MSTORE PUSH1 0x11 PUSH1 0x4 MSTORE PUSH1 0x24 PUSH0 REVERT JUMPDEST DUP1 DUP3 MUL DUP2 ISZERO DUP3 DUP3 DIV DUP5 EQ OR PUSH2 0x1C2E JUMPI PUSH2 0x1C2E PUSH2 0x1C03 JUMP JUMPDEST SWAP3 SWAP2 POP POP JUMP JUMPDEST PUSH0 DUP3 PUSH2 0x1C4E JUMPI PUSH4 0x4E487B71 PUSH1 0xE0 SHL PUSH0 MSTORE PUSH1 0x12 PUSH1 0x4 MSTORE PUSH1 0x24 PUSH0 REVERT JUMPDEST POP DIV SWAP1 JUMP JUMPDEST DUP1 DUP3 ADD DUP1 DUP3 GT ISZERO PUSH2 0x1C2E JUMPI PUSH2 0x1C2E PUSH2 0x1C03 JUMP JUMPDEST DUP7 DUP2 MSTORE PUSH1 0x1 PUSH1 0x1 PUSH1 0xA0 SHL SUB DUP7 AND PUSH1 0x20 DUP3 ADD MSTORE PUSH1 0x40 DUP2 ADD DUP6 SWAP1 MSTORE PUSH1 0x60 DUP2 ADD DUP5 SWAP1 MSTORE PUSH1 0xC0 DUP2 ADD PUSH2 0x1C97 PUSH1 0x80 DUP4 ADD DUP6 PUSH2 0x1B1B JUMP JUMPDEST PUSH2 0x1CA4 PUSH1 0xA0 DUP4 ADD DUP5 PUSH2 0x1B2F JUMP JUMPDEST SWAP8 SWAP7 POP POP POP POP POP POP POP JUMP JUMPDEST PUSH4 0x4E487B71 PUSH1 0xE0 SHL PUSH0 MSTORE PUSH1 0x32 PUSH1 0x4 MSTORE PUSH1 0x24 PUSH0 REVERT JUMPDEST DUP2 DUP2 SUB DUP2 DUP2 GT ISZERO PUSH2 0x1C2E JUMPI PUSH2 0x1C2E PUSH2 0x1C03 JUMP INVALID SWAP12 PUSH24 0x9B17422D0DF92223018B32B4D1FA46E071723D6817E2486D STOP EXTCODESIZE EOFCREATE 0xC5 PUSH0 STOP LOG2 PUSH5 0x6970667358 0x22 SLT KECCAK256 PUSH2 0xFAFA PUSH6 0xA49540F340B3 0xCD RJUMPI 0x833E DUP16 0xC7 SWAP11 DUP2 DUP2 0xC0 PUSH5 0xC713D5F014 JUMPF 0xE6BD NOT DUP2 SWAPN 0x64 PUSH20 0x6F6C634300081E00330000000000000000000000 "
		},
		"gasEstimates": {
			"creation": {
				"codeDepositCost": "1493600",
				"executionCost": "infinite",
				"totalCost": "infinite"
			},
			"external": {
				"FEE_PERCENT()": "227",
				"MAX_WINNERS()": "273",
				"allBountyIds(uint256)": "4584",
				"assignMultipleWinners(bytes32,address[],uint256[])": "infinite",
				"assignSingleWinner(bytes32,address)": "107259",
				"availableBounties()": "infinite",
				"claimReward(bytes32)": "infinite",
				"claimableRewards(bytes32,address)": "2668",
				"claimed(bytes32,address)": "2692",
				"createBounty(uint8,uint256,uint8)": "infinite",
				"getBountyInfo(bytes32)": "infinite",
				"owner()": "2418",
				"renounceOwnership()": "infinite",
				"totalEthFees()": "2328",
				"totalUsdcFees()": "2394",
				"transferOwnership(address)": "28417",
				"usdcToken()": "2382",
				"withdraw(uint8,address)": "infinite"
			}
		},
		"methodIdentifiers": {
			"FEE_PERCENT()": "eaf98d23",
			"MAX_WINNERS()": "29a62a76",
			"allBountyIds(uint256)": "30718703",
			"assignMultipleWinners(bytes32,address[],uint256[])": "176a827b",
			"assignSingleWinner(bytes32,address)": "a38e3aed",
			"availableBounties()": "e0baf5ac",
			"claimReward(bytes32)": "f5414023",
			"claimableRewards(bytes32,address)": "ebce3cf3",
			"claimed(bytes32,address)": "dfcae622",
			"createBounty(uint8,uint256,uint8)": "0c9e2cc5",
			"getBountyInfo(bytes32)": "e1e538cc",
			"owner()": "8da5cb5b",
			"renounceOwnership()": "715018a6",
			"totalEthFees()": "43d34a17",
			"totalUsdcFees()": "952c1c85",
			"transferOwnership(address)": "f2fde38b",
			"usdcToken()": "11eac855",
			"withdraw(uint8,address)": "dd6ad764"
		}
	},
	"abi": [
		{
			"inputs": [
				{
					"internalType": "address",
					"name": "initialOwner",
					"type": "address"
				},
				{
					"internalType": "address",
					"name": "_usdcTokenAddress",
					"type": "address"
				}
			],
			"stateMutability": "nonpayable",
			"type": "constructor"
		},
		{
			"inputs": [
				{
					"internalType": "address",
					"name": "owner",
					"type": "address"
				}
			],
			"name": "OwnableInvalidOwner",
			"type": "error"
		},
		{
			"inputs": [
				{
					"internalType": "address",
					"name": "account",
					"type": "address"
				}
			],
			"name": "OwnableUnauthorizedAccount",
			"type": "error"
		},
		{
			"inputs": [],
			"name": "ReentrancyGuardReentrantCall",
			"type": "error"
		},
		{
			"inputs": [
				{
					"internalType": "address",
					"name": "token",
					"type": "address"
				}
			],
			"name": "SafeERC20FailedOperation",
			"type": "error"
		},
		{
			"anonymous": false,
			"inputs": [
				{
					"indexed": false,
					"internalType": "bytes32",
					"name": "bountyId",
					"type": "bytes32"
				},
				{
					"indexed": false,
					"internalType": "address",
					"name": "creator",
					"type": "address"
				},
				{
					"indexed": false,
					"internalType": "uint256",
					"name": "reward",
					"type": "uint256"
				},
				{
					"indexed": false,
					"internalType": "uint256",
					"name": "fee",
					"type": "uint256"
				},
				{
					"indexed": false,
					"internalType": "enum BountyContract.TokenType",
					"name": "tokenType",
					"type": "uint8"
				},
				{
					"indexed": false,
					"internalType": "enum BountyContract.PayoutType",
					"name": "payoutType",
					"type": "uint8"
				}
			],
			"name": "BountyCreated",
			"type": "event"
		},
		{
			"anonymous": false,
			"inputs": [
				{
					"indexed": false,
					"internalType": "address",
					"name": "recipient",
					"type": "address"
				},
				{
					"indexed": false,
					"internalType": "uint256",
					"name": "amount",
					"type": "uint256"
				},
				{
					"indexed": false,
					"internalType": "string",
					"name": "tokenType",
					"type": "string"
				}
			],
			"name": "FeeWithdrawn",
			"type": "event"
		},
		{
			"anonymous": false,
			"inputs": [
				{
					"indexed": true,
					"internalType": "address",
					"name": "previousOwner",
					"type": "address"
				},
				{
					"indexed": true,
					"internalType": "address",
					"name": "newOwner",
					"type": "address"
				}
			],
			"name": "OwnershipTransferred",
			"type": "event"
		},
		{
			"anonymous": false,
			"inputs": [
				{
					"indexed": false,
					"internalType": "bytes32",
					"name": "bountyId",
					"type": "bytes32"
				},
				{
					"indexed": false,
					"internalType": "address",
					"name": "winner",
					"type": "address"
				},
				{
					"indexed": false,
					"internalType": "uint256",
					"name": "amount",
					"type": "uint256"
				}
			],
			"name": "RewardClaimed",
			"type": "event"
		},
		{
			"anonymous": false,
			"inputs": [
				{
					"indexed": false,
					"internalType": "bytes32",
					"name": "bountyId",
					"type": "bytes32"
				}
			],
			"name": "RewardsAssigned",
			"type": "event"
		},
		{
			"inputs": [],
			"name": "FEE_PERCENT",
			"outputs": [
				{
					"internalType": "uint256",
					"name": "",
					"type": "uint256"
				}
			],
			"stateMutability": "view",
			"type": "function"
		},
		{
			"inputs": [],
			"name": "MAX_WINNERS",
			"outputs": [
				{
					"internalType": "uint256",
					"name": "",
					"type": "uint256"
				}
			],
			"stateMutability": "view",
			"type": "function"
		},
		{
			"inputs": [
				{
					"internalType": "uint256",
					"name": "",
					"type": "uint256"
				}
			],
			"name": "allBountyIds",
			"outputs": [
				{
					"internalType": "bytes32",
					"name": "",
					"type": "bytes32"
				}
			],
			"stateMutability": "view",
			"type": "function"
		},
		{
			"inputs": [
				{
					"internalType": "bytes32",
					"name": "bountyId",
					"type": "bytes32"
				},
				{
					"internalType": "address[]",
					"name": "winners",
					"type": "address[]"
				},
				{
					"internalType": "uint256[]",
					"name": "percentages",
					"type": "uint256[]"
				}
			],
			"name": "assignMultipleWinners",
			"outputs": [],
			"stateMutability": "nonpayable",
			"type": "function"
		},
		{
			"inputs": [
				{
					"internalType": "bytes32",
					"name": "bountyId",
					"type": "bytes32"
				},
				{
					"internalType": "address",
					"name": "winner",
					"type": "address"
				}
			],
			"name": "assignSingleWinner",
			"outputs": [],
			"stateMutability": "nonpayable",
			"type": "function"
		},
		{
			"inputs": [],
			"name": "availableBounties",
			"outputs": [
				{
					"internalType": "bytes32[]",
					"name": "",
					"type": "bytes32[]"
				}
			],
			"stateMutability": "view",
			"type": "function"
		},
		{
			"inputs": [
				{
					"internalType": "bytes32",
					"name": "bountyId",
					"type": "bytes32"
				}
			],
			"name": "claimReward",
			"outputs": [],
			"stateMutability": "nonpayable",
			"type": "function"
		},
		{
			"inputs": [
				{
					"internalType": "bytes32",
					"name": "",
					"type": "bytes32"
				},
				{
					"internalType": "address",
					"name": "",
					"type": "address"
				}
			],
			"name": "claimableRewards",
			"outputs": [
				{
					"internalType": "uint256",
					"name": "",
					"type": "uint256"
				}
			],
			"stateMutability": "view",
			"type": "function"
		},
		{
			"inputs": [
				{
					"internalType": "bytes32",
					"name": "",
					"type": "bytes32"
				},
				{
					"internalType": "address",
					"name": "",
					"type": "address"
				}
			],
			"name": "claimed",
			"outputs": [
				{
					"internalType": "bool",
					"name": "",
					"type": "bool"
				}
			],
			"stateMutability": "view",
			"type": "function"
		},
		{
			"inputs": [
				{
					"internalType": "enum BountyContract.TokenType",
					"name": "_tokenType",
					"type": "uint8"
				},
				{
					"internalType": "uint256",
					"name": "_reward",
					"type": "uint256"
				},
				{
					"internalType": "enum BountyContract.PayoutType",
					"name": "_payoutType",
					"type": "uint8"
				}
			],
			"name": "createBounty",
			"outputs": [
				{
					"internalType": "bytes32",
					"name": "",
					"type": "bytes32"
				}
			],
			"stateMutability": "payable",
			"type": "function"
		},
		{
			"inputs": [
				{
					"internalType": "bytes32",
					"name": "bountyId",
					"type": "bytes32"
				}
			],
			"name": "getBountyInfo",
			"outputs": [
				{
					"internalType": "address",
					"name": "creator",
					"type": "address"
				},
				{
					"internalType": "address[]",
					"name": "winners",
					"type": "address[]"
				},
				{
					"internalType": "uint256",
					"name": "reward",
					"type": "uint256"
				},
				{
					"internalType": "uint256",
					"name": "fee",
					"type": "uint256"
				},
				{
					"internalType": "bool",
					"name": "rewardsAssigned",
					"type": "bool"
				},
				{
					"internalType": "bool",
					"name": "isClaimed",
					"type": "bool"
				},
				{
					"internalType": "enum BountyContract.TokenType",
					"name": "tokenType",
					"type": "uint8"
				},
				{
					"internalType": "enum BountyContract.PayoutType",
					"name": "payoutType",
					"type": "uint8"
				}
			],
			"stateMutability": "view",
			"type": "function"
		},
		{
			"inputs": [],
			"name": "owner",
			"outputs": [
				{
					"internalType": "address",
					"name": "",
					"type": "address"
				}
			],
			"stateMutability": "view",
			"type": "function"
		},
		{
			"inputs": [],
			"name": "renounceOwnership",
			"outputs": [],
			"stateMutability": "nonpayable",
			"type": "function"
		},
		{
			"inputs": [],
			"name": "totalEthFees",
			"outputs": [
				{
					"internalType": "uint256",
					"name": "",
					"type": "uint256"
				}
			],
			"stateMutability": "view",
			"type": "function"
		},
		{
			"inputs": [],
			"name": "totalUsdcFees",
			"outputs": [
				{
					"internalType": "uint256",
					"name": "",
					"type": "uint256"
				}
			],
			"stateMutability": "view",
			"type": "function"
		},
		{
			"inputs": [
				{
					"internalType": "address",
					"name": "newOwner",
					"type": "address"
				}
			],
			"name": "transferOwnership",
			"outputs": [],
			"stateMutability": "nonpayable",
			"type": "function"
		},
		{
			"inputs": [],
			"name": "usdcToken",
			"outputs": [
				{
					"internalType": "contract IERC20",
					"name": "",
					"type": "address"
				}
			],
			"stateMutability": "view",
			"type": "function"
		},
		{
			"inputs": [
				{
					"internalType": "enum BountyContract.TokenType",
					"name": "tokenType",
					"type": "uint8"
				},
				{
					"internalType": "address",
					"name": "recipient",
					"type": "address"
				}
			],
			"name": "withdraw",
			"outputs": [],
			"stateMutability": "nonpayable",
			"type": "function"
		}
	]
}